{
	"contracts/contract.sol": {
		"EnsiBEcommerce": {
			"abi": [
				{
					"inputs": [],
					"stateMutability": "nonpayable",
					"type": "constructor"
				},
				{
					"anonymous": false,
					"inputs": [
						{
							"indexed": true,
							"internalType": "address",
							"name": "clientAddress",
							"type": "address"
						},
						{
							"indexed": false,
							"internalType": "string",
							"name": "email",
							"type": "string"
						}
					],
					"name": "ClientRegistered",
					"type": "event"
				},
				{
					"anonymous": false,
					"inputs": [
						{
							"indexed": true,
							"internalType": "address",
							"name": "vendor",
							"type": "address"
						},
						{
							"indexed": false,
							"internalType": "uint256",
							"name": "amount",
							"type": "uint256"
						}
					],
					"name": "FundsWithdrawn",
					"type": "event"
				},
				{
					"anonymous": false,
					"inputs": [
						{
							"indexed": true,
							"internalType": "uint256",
							"name": "orderId",
							"type": "uint256"
						},
						{
							"indexed": false,
							"internalType": "address",
							"name": "customer",
							"type": "address"
						},
						{
							"indexed": false,
							"internalType": "address",
							"name": "vendor",
							"type": "address"
						},
						{
							"indexed": false,
							"internalType": "uint256",
							"name": "amount",
							"type": "uint256"
						}
					],
					"name": "OrderPlaced",
					"type": "event"
				},
				{
					"anonymous": false,
					"inputs": [
						{
							"indexed": true,
							"internalType": "uint256",
							"name": "orderId",
							"type": "uint256"
						},
						{
							"indexed": false,
							"internalType": "enum EnsiBEcommerce.OrderStatus",
							"name": "newStatus",
							"type": "uint8"
						}
					],
					"name": "OrderStatusChanged",
					"type": "event"
				},
				{
					"anonymous": false,
					"inputs": [
						{
							"indexed": true,
							"internalType": "address",
							"name": "vendor",
							"type": "address"
						},
						{
							"indexed": false,
							"internalType": "uint256",
							"name": "amount",
							"type": "uint256"
						}
					],
					"name": "VendorPaid",
					"type": "event"
				},
				{
					"anonymous": false,
					"inputs": [
						{
							"indexed": true,
							"internalType": "address",
							"name": "vendorAddress",
							"type": "address"
						},
						{
							"indexed": false,
							"internalType": "string",
							"name": "email",
							"type": "string"
						},
						{
							"indexed": false,
							"internalType": "string",
							"name": "name",
							"type": "string"
						}
					],
					"name": "VendorRegistered",
					"type": "event"
				},
				{
					"inputs": [
						{
							"internalType": "address",
							"name": "",
							"type": "address"
						}
					],
					"name": "clients",
					"outputs": [
						{
							"internalType": "address",
							"name": "clientAddress",
							"type": "address"
						},
						{
							"internalType": "string",
							"name": "email",
							"type": "string"
						},
						{
							"internalType": "string",
							"name": "name",
							"type": "string"
						},
						{
							"internalType": "bool",
							"name": "isRegistered",
							"type": "bool"
						},
						{
							"internalType": "enum EnsiBEcommerce.UserRole",
							"name": "role",
							"type": "uint8"
						},
						{
							"internalType": "string",
							"name": "photoPath",
							"type": "string"
						}
					],
					"stateMutability": "view",
					"type": "function"
				},
				{
					"inputs": [
						{
							"internalType": "string",
							"name": "",
							"type": "string"
						}
					],
					"name": "clientsByEmail",
					"outputs": [
						{
							"internalType": "address",
							"name": "",
							"type": "address"
						}
					],
					"stateMutability": "view",
					"type": "function"
				},
				{
					"inputs": [
						{
							"internalType": "address",
							"name": "",
							"type": "address"
						},
						{
							"internalType": "uint256",
							"name": "",
							"type": "uint256"
						}
					],
					"name": "customerOrders",
					"outputs": [
						{
							"internalType": "uint256",
							"name": "",
							"type": "uint256"
						}
					],
					"stateMutability": "view",
					"type": "function"
				},
				{
					"inputs": [
						{
							"internalType": "address",
							"name": "_clientAddress",
							"type": "address"
						}
					],
					"name": "getClientDetails",
					"outputs": [
						{
							"internalType": "string",
							"name": "email",
							"type": "string"
						},
						{
							"internalType": "string",
							"name": "name",
							"type": "string"
						},
						{
							"internalType": "bool",
							"name": "isRegistered",
							"type": "bool"
						},
						{
							"internalType": "enum EnsiBEcommerce.UserRole",
							"name": "role",
							"type": "uint8"
						},
						{
							"internalType": "string",
							"name": "photoPath",
							"type": "string"
						}
					],
					"stateMutability": "view",
					"type": "function"
				},
				{
					"inputs": [],
					"name": "getContractBalance",
					"outputs": [
						{
							"internalType": "uint256",
							"name": "",
							"type": "uint256"
						}
					],
					"stateMutability": "view",
					"type": "function"
				},
				{
					"inputs": [
						{
							"internalType": "address",
							"name": "_customer",
							"type": "address"
						}
					],
					"name": "getCustomerOrders",
					"outputs": [
						{
							"internalType": "uint256[]",
							"name": "",
							"type": "uint256[]"
						}
					],
					"stateMutability": "view",
					"type": "function"
				},
				{
					"inputs": [
						{
							"internalType": "uint256",
							"name": "_orderId",
							"type": "uint256"
						}
					],
					"name": "getOrderDetails",
					"outputs": [
						{
							"internalType": "address",
							"name": "customer",
							"type": "address"
						},
						{
							"internalType": "address",
							"name": "vendor",
							"type": "address"
						},
						{
							"internalType": "uint256",
							"name": "amount",
							"type": "uint256"
						},
						{
							"internalType": "string",
							"name": "productIds",
							"type": "string"
						},
						{
							"internalType": "enum EnsiBEcommerce.OrderStatus",
							"name": "status",
							"type": "uint8"
						},
						{
							"internalType": "uint256",
							"name": "timestamp",
							"type": "uint256"
						},
						{
							"internalType": "string",
							"name": "vendorEmail",
							"type": "string"
						}
					],
					"stateMutability": "view",
					"type": "function"
				},
				{
					"inputs": [
						{
							"internalType": "address",
							"name": "_vendorAddress",
							"type": "address"
						}
					],
					"name": "getVendorDetails",
					"outputs": [
						{
							"internalType": "string",
							"name": "email",
							"type": "string"
						},
						{
							"internalType": "string",
							"name": "name",
							"type": "string"
						},
						{
							"internalType": "bool",
							"name": "isRegistered",
							"type": "bool"
						},
						{
							"internalType": "uint256",
							"name": "balance",
							"type": "uint256"
						}
					],
					"stateMutability": "view",
					"type": "function"
				},
				{
					"inputs": [
						{
							"internalType": "address",
							"name": "_vendorAddress",
							"type": "address"
						}
					],
					"name": "getVendorFullDetails",
					"outputs": [
						{
							"internalType": "string",
							"name": "email",
							"type": "string"
						},
						{
							"internalType": "string",
							"name": "name",
							"type": "string"
						},
						{
							"internalType": "bool",
							"name": "isRegistered",
							"type": "bool"
						},
						{
							"internalType": "uint256",
							"name": "balance",
							"type": "uint256"
						},
						{
							"internalType": "string",
							"name": "cryptoKey",
							"type": "string"
						},
						{
							"internalType": "string",
							"name": "photoPath",
							"type": "string"
						}
					],
					"stateMutability": "view",
					"type": "function"
				},
				{
					"inputs": [],
					"name": "getVendorOrders",
					"outputs": [
						{
							"internalType": "uint256[]",
							"name": "",
							"type": "uint256[]"
						}
					],
					"stateMutability": "view",
					"type": "function"
				},
				{
					"inputs": [
						{
							"internalType": "address",
							"name": "_address",
							"type": "address"
						}
					],
					"name": "isClient",
					"outputs": [
						{
							"internalType": "bool",
							"name": "",
							"type": "bool"
						}
					],
					"stateMutability": "view",
					"type": "function"
				},
				{
					"inputs": [
						{
							"internalType": "address",
							"name": "_address",
							"type": "address"
						}
					],
					"name": "isVendor",
					"outputs": [
						{
							"internalType": "bool",
							"name": "",
							"type": "bool"
						}
					],
					"stateMutability": "view",
					"type": "function"
				},
				{
					"inputs": [],
					"name": "minimumWithdrawalAmount",
					"outputs": [
						{
							"internalType": "uint256",
							"name": "",
							"type": "uint256"
						}
					],
					"stateMutability": "view",
					"type": "function"
				},
				{
					"inputs": [
						{
							"internalType": "uint256",
							"name": "",
							"type": "uint256"
						}
					],
					"name": "orders",
					"outputs": [
						{
							"internalType": "uint256",
							"name": "id",
							"type": "uint256"
						},
						{
							"internalType": "address",
							"name": "customer",
							"type": "address"
						},
						{
							"internalType": "address",
							"name": "vendor",
							"type": "address"
						},
						{
							"internalType": "uint256",
							"name": "amount",
							"type": "uint256"
						},
						{
							"internalType": "string",
							"name": "productIds",
							"type": "string"
						},
						{
							"internalType": "enum EnsiBEcommerce.OrderStatus",
							"name": "status",
							"type": "uint8"
						},
						{
							"internalType": "uint256",
							"name": "timestamp",
							"type": "uint256"
						},
						{
							"internalType": "string",
							"name": "vendorEmail",
							"type": "string"
						}
					],
					"stateMutability": "view",
					"type": "function"
				},
				{
					"inputs": [],
					"name": "owner",
					"outputs": [
						{
							"internalType": "address",
							"name": "",
							"type": "address"
						}
					],
					"stateMutability": "view",
					"type": "function"
				},
				{
					"inputs": [
						{
							"internalType": "address",
							"name": "_vendorAddress",
							"type": "address"
						},
						{
							"internalType": "string",
							"name": "_productIds",
							"type": "string"
						}
					],
					"name": "placeOrder",
					"outputs": [],
					"stateMutability": "payable",
					"type": "function"
				},
				{
					"inputs": [],
					"name": "platformFeeRate",
					"outputs": [
						{
							"internalType": "uint16",
							"name": "",
							"type": "uint16"
						}
					],
					"stateMutability": "view",
					"type": "function"
				},
				{
					"inputs": [
						{
							"internalType": "string",
							"name": "_email",
							"type": "string"
						},
						{
							"internalType": "string",
							"name": "_name",
							"type": "string"
						}
					],
					"name": "registerClient",
					"outputs": [],
					"stateMutability": "nonpayable",
					"type": "function"
				},
				{
					"inputs": [
						{
							"internalType": "string",
							"name": "_email",
							"type": "string"
						},
						{
							"internalType": "string",
							"name": "_name",
							"type": "string"
						},
						{
							"internalType": "string",
							"name": "_cryptoKey",
							"type": "string"
						}
					],
					"name": "registerVendor",
					"outputs": [],
					"stateMutability": "nonpayable",
					"type": "function"
				},
				{
					"inputs": [
						{
							"internalType": "string",
							"name": "_name",
							"type": "string"
						},
						{
							"internalType": "string",
							"name": "_photoPath",
							"type": "string"
						}
					],
					"name": "updateClientDetails",
					"outputs": [],
					"stateMutability": "nonpayable",
					"type": "function"
				},
				{
					"inputs": [
						{
							"internalType": "uint256",
							"name": "_amount",
							"type": "uint256"
						}
					],
					"name": "updateMinimumWithdrawal",
					"outputs": [],
					"stateMutability": "nonpayable",
					"type": "function"
				},
				{
					"inputs": [
						{
							"internalType": "uint256",
							"name": "_orderId",
							"type": "uint256"
						},
						{
							"internalType": "enum EnsiBEcommerce.OrderStatus",
							"name": "_status",
							"type": "uint8"
						}
					],
					"name": "updateOrderStatus",
					"outputs": [],
					"stateMutability": "nonpayable",
					"type": "function"
				},
				{
					"inputs": [
						{
							"internalType": "uint16",
							"name": "_newRate",
							"type": "uint16"
						}
					],
					"name": "updatePlatformFeeRate",
					"outputs": [],
					"stateMutability": "nonpayable",
					"type": "function"
				},
				{
					"inputs": [
						{
							"internalType": "string",
							"name": "_name",
							"type": "string"
						},
						{
							"internalType": "string",
							"name": "_cryptoKey",
							"type": "string"
						},
						{
							"internalType": "string",
							"name": "_photoPath",
							"type": "string"
						}
					],
					"name": "updateVendorDetails",
					"outputs": [],
					"stateMutability": "nonpayable",
					"type": "function"
				},
				{
					"inputs": [
						{
							"internalType": "address",
							"name": "",
							"type": "address"
						},
						{
							"internalType": "uint256",
							"name": "",
							"type": "uint256"
						}
					],
					"name": "vendorOrders",
					"outputs": [
						{
							"internalType": "uint256",
							"name": "",
							"type": "uint256"
						}
					],
					"stateMutability": "view",
					"type": "function"
				},
				{
					"inputs": [
						{
							"internalType": "address",
							"name": "",
							"type": "address"
						}
					],
					"name": "vendors",
					"outputs": [
						{
							"internalType": "address payable",
							"name": "vendorAddress",
							"type": "address"
						},
						{
							"internalType": "string",
							"name": "email",
							"type": "string"
						},
						{
							"internalType": "string",
							"name": "name",
							"type": "string"
						},
						{
							"internalType": "bool",
							"name": "isRegistered",
							"type": "bool"
						},
						{
							"internalType": "uint256",
							"name": "balance",
							"type": "uint256"
						},
						{
							"internalType": "string",
							"name": "cryptoKey",
							"type": "string"
						},
						{
							"internalType": "string",
							"name": "photoPath",
							"type": "string"
						}
					],
					"stateMutability": "view",
					"type": "function"
				},
				{
					"inputs": [
						{
							"internalType": "string",
							"name": "",
							"type": "string"
						}
					],
					"name": "vendorsByEmail",
					"outputs": [
						{
							"internalType": "address",
							"name": "",
							"type": "address"
						}
					],
					"stateMutability": "view",
					"type": "function"
				},
				{
					"inputs": [],
					"name": "withdrawFunds",
					"outputs": [],
					"stateMutability": "nonpayable",
					"type": "function"
				},
				{
					"inputs": [],
					"name": "withdrawPlatformFees",
					"outputs": [],
					"stateMutability": "nonpayable",
					"type": "function"
				}
			],
			"devdoc": {
				"details": "Handles e-commerce transactions between customers and vendorsUpdated to align with MongoDB database structure",
				"kind": "dev",
				"methods": {},
				"title": "EnsiB E-commerce Platform",
				"version": 1
			},
			"evm": {
				"assembly": "    /* \"contracts/contract.sol\":237:13256  contract EnsiBEcommerce {... */\n  mstore(0x40, 0x80)\n    /* \"contracts/contract.sol\":459:462  250 */\n  0xfa\n    /* \"contracts/contract.sol\":427:462  uint16 public platformFeeRate = 250 */\n  0x00\n  exp(0x0100, 0x14)\n  dup2\n  sload\n  dup2\n  0xffff\n  mul\n  not\n  and\n  swap1\n  dup4\n  0xffff\n  and\n  mul\n  or\n  swap1\n  sstore\n  pop\n    /* \"contracts/contract.sol\":580:597  10000000000000000 */\n  0x2386f26fc10000\n    /* \"contracts/contract.sol\":539:597  uint256 public minimumWithdrawalAmount = 10000000000000000 */\n  0x01\n  sstore\n    /* \"contracts/contract.sol\":2604:2605  0 */\n  0x00\n    /* \"contracts/contract.sol\":2573:2605  uint256 private orderCounter = 0 */\n  0x09\n  sstore\n    /* \"contracts/contract.sol\":3128:3179  constructor() {... */\n  callvalue\n  dup1\n  iszero\n  tag_1\n  jumpi\n  0x00\n  dup1\n  revert\ntag_1:\n  pop\n    /* \"contracts/contract.sol\":3161:3171  msg.sender */\n  caller\n    /* \"contracts/contract.sol\":3153:3158  owner */\n  0x00\n  dup1\n    /* \"contracts/contract.sol\":3153:3171  owner = msg.sender */\n  0x0100\n  exp\n  dup2\n  sload\n  dup2\n  0xffffffffffffffffffffffffffffffffffffffff\n  mul\n  not\n  and\n  swap1\n  dup4\n  0xffffffffffffffffffffffffffffffffffffffff\n  and\n  mul\n  or\n  swap1\n  sstore\n  pop\n    /* \"contracts/contract.sol\":237:13256  contract EnsiBEcommerce {... */\n  dataSize(sub_0)\n  dup1\n  dataOffset(sub_0)\n  0x00\n  codecopy\n  0x00\n  return\nstop\n\nsub_0: assembly {\n        /* \"contracts/contract.sol\":237:13256  contract EnsiBEcommerce {... */\n      mstore(0x40, 0x80)\n      jumpi(tag_1, lt(calldatasize, 0x04))\n      shr(0xe0, calldataload(0x00))\n      dup1\n      0x79307a47\n      gt\n      tag_31\n      jumpi\n      dup1\n      0xa85c38ef\n      gt\n      tag_32\n      jumpi\n      dup1\n      0xe98ba1ab\n      gt\n      tag_33\n      jumpi\n      dup1\n      0xe98ba1ab\n      eq\n      tag_27\n      jumpi\n      dup1\n      0xec7dd7bb\n      eq\n      tag_28\n      jumpi\n      dup1\n      0xee54d54f\n      eq\n      tag_29\n      jumpi\n      dup1\n      0xeeca08f0\n      eq\n      tag_30\n      jumpi\n      jump(tag_1)\n    tag_33:\n      dup1\n      0xa85c38ef\n      eq\n      tag_23\n      jumpi\n      dup1\n      0xaab3196d\n      eq\n      tag_24\n      jumpi\n      dup1\n      0xd0b7830b\n      eq\n      tag_25\n      jumpi\n      dup1\n      0xdb25ca99\n      eq\n      tag_26\n      jumpi\n      jump(tag_1)\n    tag_32:\n      dup1\n      0x84b7964f\n      gt\n      tag_34\n      jumpi\n      dup1\n      0x84b7964f\n      eq\n      tag_19\n      jumpi\n      dup1\n      0x876a7e7c\n      eq\n      tag_20\n      jumpi\n      dup1\n      0x8bf3bbed\n      eq\n      tag_21\n      jumpi\n      dup1\n      0x8da5cb5b\n      eq\n      tag_22\n      jumpi\n      jump(tag_1)\n    tag_34:\n      dup1\n      0x79307a47\n      eq\n      tag_16\n      jumpi\n      dup1\n      0x79378030\n      eq\n      tag_17\n      jumpi\n      dup1\n      0x7d0489f2\n      eq\n      tag_18\n      jumpi\n      jump(tag_1)\n    tag_31:\n      dup1\n      0x2b180646\n      gt\n      tag_35\n      jumpi\n      dup1\n      0x61eed2a9\n      gt\n      tag_36\n      jumpi\n      dup1\n      0x61eed2a9\n      eq\n      tag_12\n      jumpi\n      dup1\n      0x69adcf30\n      eq\n      tag_13\n      jumpi\n      dup1\n      0x6f9fb98a\n      eq\n      tag_14\n      jumpi\n      dup1\n      0x78f57277\n      eq\n      tag_15\n      jumpi\n      jump(tag_1)\n    tag_36:\n      dup1\n      0x2b180646\n      eq\n      tag_9\n      jumpi\n      dup1\n      0x4364d973\n      eq\n      tag_10\n      jumpi\n      dup1\n      0x506ce066\n      eq\n      tag_11\n      jumpi\n      jump(tag_1)\n    tag_35:\n      dup1\n      0x19f47ba5\n      gt\n      tag_37\n      jumpi\n      dup1\n      0x19f47ba5\n      eq\n      tag_5\n      jumpi\n      dup1\n      0x22f974d2\n      eq\n      tag_6\n      jumpi\n      dup1\n      0x24600fc3\n      eq\n      tag_7\n      jumpi\n      dup1\n      0x27e30c36\n      eq\n      tag_8\n      jumpi\n      jump(tag_1)\n    tag_37:\n      dup1\n      0x0eda0dce\n      eq\n      tag_2\n      jumpi\n      dup1\n      0x105205d6\n      eq\n      tag_3\n      jumpi\n      dup1\n      0x1600c6cd\n      eq\n      tag_4\n      jumpi\n    tag_1:\n      0x00\n      dup1\n      revert\n        /* \"contracts/contract.sol\":5784:6098  function updateClientDetails(string memory _name, string memory _photoPath) public onlyClient {... */\n    tag_2:\n      callvalue\n      dup1\n      iszero\n      tag_38\n      jumpi\n      0x00\n      dup1\n      revert\n    tag_38:\n      pop\n      tag_39\n      0x04\n      dup1\n      calldatasize\n      sub\n      dup2\n      add\n      swap1\n      tag_40\n      swap2\n      swap1\n      tag_41\n      jump\t// in\n    tag_40:\n      tag_42\n      jump\t// in\n    tag_39:\n      stop\n        /* \"contracts/contract.sol\":2219:2267  mapping(string => address) public clientsByEmail */\n    tag_3:\n      callvalue\n      dup1\n      iszero\n      tag_43\n      jumpi\n      0x00\n      dup1\n      revert\n    tag_43:\n      pop\n      tag_44\n      0x04\n      dup1\n      calldatasize\n      sub\n      dup2\n      add\n      swap1\n      tag_45\n      swap2\n      swap1\n      tag_46\n      jump\t// in\n    tag_45:\n      tag_47\n      jump\t// in\n    tag_44:\n      mload(0x40)\n      tag_48\n      swap2\n      swap1\n      tag_49\n      jump\t// in\n    tag_48:\n      mload(0x40)\n      dup1\n      swap2\n      sub\n      swap1\n      return\n        /* \"contracts/contract.sol\":2399:2450  mapping(address => uint256[]) public customerOrders */\n    tag_4:\n      callvalue\n      dup1\n      iszero\n      tag_50\n      jumpi\n      0x00\n      dup1\n      revert\n    tag_50:\n      pop\n      tag_51\n      0x04\n      dup1\n      calldatasize\n      sub\n      dup2\n      add\n      swap1\n      tag_52\n      swap2\n      swap1\n      tag_53\n      jump\t// in\n    tag_52:\n      tag_54\n      jump\t// in\n    tag_51:\n      mload(0x40)\n      tag_55\n      swap2\n      swap1\n      tag_56\n      jump\t// in\n    tag_55:\n      mload(0x40)\n      dup1\n      swap2\n      sub\n      swap1\n      return\n        /* \"contracts/contract.sol\":2489:2538  mapping(address => uint256[]) public vendorOrders */\n    tag_5:\n      callvalue\n      dup1\n      iszero\n      tag_57\n      jumpi\n      0x00\n      dup1\n      revert\n    tag_57:\n      pop\n      tag_58\n      0x04\n      dup1\n      calldatasize\n      sub\n      dup2\n      add\n      swap1\n      tag_59\n      swap2\n      swap1\n      tag_53\n      jump\t// in\n    tag_59:\n      tag_60\n      jump\t// in\n    tag_58:\n      mload(0x40)\n      tag_61\n      swap2\n      swap1\n      tag_56\n      jump\t// in\n    tag_61:\n      mload(0x40)\n      dup1\n      swap2\n      sub\n      swap1\n      return\n        /* \"contracts/contract.sol\":11730:11866  function getCustomerOrders(address _customer) public view returns (uint256[] memory) {... */\n    tag_6:\n      callvalue\n      dup1\n      iszero\n      tag_62\n      jumpi\n      0x00\n      dup1\n      revert\n    tag_62:\n      pop\n      tag_63\n      0x04\n      dup1\n      calldatasize\n      sub\n      dup2\n      add\n      swap1\n      tag_64\n      swap2\n      swap1\n      tag_65\n      jump\t// in\n    tag_64:\n      tag_66\n      jump\t// in\n    tag_63:\n      mload(0x40)\n      tag_67\n      swap2\n      swap1\n      tag_68\n      jump\t// in\n    tag_67:\n      mload(0x40)\n      dup1\n      swap2\n      sub\n      swap1\n      return\n        /* \"contracts/contract.sol\":9143:9621  function withdrawFunds() public onlyVendor {... */\n    tag_7:\n      callvalue\n      dup1\n      iszero\n      tag_69\n      jumpi\n      0x00\n      dup1\n      revert\n    tag_69:\n      pop\n      tag_70\n      tag_71\n      jump\t// in\n    tag_70:\n      stop\n        /* \"contracts/contract.sol\":1892:1933  mapping(address => Vendor) public vendors */\n    tag_8:\n      callvalue\n      dup1\n      iszero\n      tag_72\n      jumpi\n      0x00\n      dup1\n      revert\n    tag_72:\n      pop\n      tag_73\n      0x04\n      dup1\n      calldatasize\n      sub\n      dup2\n      add\n      swap1\n      tag_74\n      swap2\n      swap1\n      tag_65\n      jump\t// in\n    tag_74:\n      tag_75\n      jump\t// in\n    tag_73:\n      mload(0x40)\n      tag_76\n      swap8\n      swap7\n      swap6\n      swap5\n      swap4\n      swap3\n      swap2\n      swap1\n      tag_77\n      jump\t// in\n    tag_76:\n      mload(0x40)\n      dup1\n      swap2\n      sub\n      swap1\n      return\n        /* \"contracts/contract.sol\":539:597  uint256 public minimumWithdrawalAmount = 10000000000000000 */\n    tag_9:\n      callvalue\n      dup1\n      iszero\n      tag_78\n      jumpi\n      0x00\n      dup1\n      revert\n    tag_78:\n      pop\n      tag_79\n      tag_80\n      jump\t// in\n    tag_79:\n      mload(0x40)\n      tag_81\n      swap2\n      swap1\n      tag_56\n      jump\t// in\n    tag_81:\n      mload(0x40)\n      dup1\n      swap2\n      sub\n      swap1\n      return\n        /* \"contracts/contract.sol\":4619:5311  function registerClient(string memory _email, string memory _name) public {... */\n    tag_10:\n      callvalue\n      dup1\n      iszero\n      tag_82\n      jumpi\n      0x00\n      dup1\n      revert\n    tag_82:\n      pop\n      tag_83\n      0x04\n      dup1\n      calldatasize\n      sub\n      dup2\n      add\n      swap1\n      tag_84\n      swap2\n      swap1\n      tag_41\n      jump\t// in\n    tag_84:\n      tag_85\n      jump\t// in\n    tag_83:\n      stop\n        /* \"contracts/contract.sol\":9650:9989  function getVendorDetails(address _vendorAddress) public view returns (... */\n    tag_11:\n      callvalue\n      dup1\n      iszero\n      tag_86\n      jumpi\n      0x00\n      dup1\n      revert\n    tag_86:\n      pop\n      tag_87\n      0x04\n      dup1\n      calldatasize\n      sub\n      dup2\n      add\n      swap1\n      tag_88\n      swap2\n      swap1\n      tag_65\n      jump\t// in\n    tag_88:\n      tag_89\n      jump\t// in\n    tag_87:\n      mload(0x40)\n      tag_90\n      swap5\n      swap4\n      swap3\n      swap2\n      swap1\n      tag_91\n      jump\t// in\n    tag_90:\n      mload(0x40)\n      dup1\n      swap2\n      sub\n      swap1\n      return\n        /* \"contracts/contract.sol\":2113:2154  mapping(address => Client) public clients */\n    tag_12:\n      callvalue\n      dup1\n      iszero\n      tag_92\n      jumpi\n      0x00\n      dup1\n      revert\n    tag_92:\n      pop\n      tag_93\n      0x04\n      dup1\n      calldatasize\n      sub\n      dup2\n      add\n      swap1\n      tag_94\n      swap2\n      swap1\n      tag_65\n      jump\t// in\n    tag_94:\n      tag_95\n      jump\t// in\n    tag_93:\n      mload(0x40)\n      tag_96\n      swap7\n      swap6\n      swap5\n      swap4\n      swap3\n      swap2\n      swap1\n      tag_97\n      jump\t// in\n    tag_96:\n      mload(0x40)\n      dup1\n      swap2\n      sub\n      swap1\n      return\n        /* \"contracts/contract.sol\":11904:12031  function getVendorOrders() public view onlyVendor returns (uint256[] memory) {... */\n    tag_13:\n      callvalue\n      dup1\n      iszero\n      tag_98\n      jumpi\n      0x00\n      dup1\n      revert\n    tag_98:\n      pop\n      tag_99\n      tag_100\n      jump\t// in\n    tag_99:\n      mload(0x40)\n      tag_101\n      swap2\n      swap1\n      tag_68\n      jump\t// in\n    tag_101:\n      mload(0x40)\n      dup1\n      swap2\n      sub\n      swap1\n      return\n        /* \"contracts/contract.sol\":12863:12980  function getContractBalance() public view onlyOwner returns (uint256) {... */\n    tag_14:\n      callvalue\n      dup1\n      iszero\n      tag_102\n      jumpi\n      0x00\n      dup1\n      revert\n    tag_102:\n      pop\n      tag_103\n      tag_104\n      jump\t// in\n    tag_103:\n      mload(0x40)\n      tag_105\n      swap2\n      swap1\n      tag_56\n      jump\t// in\n    tag_105:\n      mload(0x40)\n      dup1\n      swap2\n      sub\n      swap1\n      return\n        /* \"contracts/contract.sol\":1998:2046  mapping(string => address) public vendorsByEmail */\n    tag_15:\n      callvalue\n      dup1\n      iszero\n      tag_106\n      jumpi\n      0x00\n      dup1\n      revert\n    tag_106:\n      pop\n      tag_107\n      0x04\n      dup1\n      calldatasize\n      sub\n      dup2\n      add\n      swap1\n      tag_108\n      swap2\n      swap1\n      tag_46\n      jump\t// in\n    tag_108:\n      tag_109\n      jump\t// in\n    tag_107:\n      mload(0x40)\n      tag_110\n      swap2\n      swap1\n      tag_49\n      jump\t// in\n    tag_110:\n      mload(0x40)\n      dup1\n      swap2\n      sub\n      swap1\n      return\n        /* \"contracts/contract.sol\":6154:7451  function placeOrder(address _vendorAddress, string memory _productIds) public payable {... */\n    tag_16:\n      tag_111\n      0x04\n      dup1\n      calldatasize\n      sub\n      dup2\n      add\n      swap1\n      tag_112\n      swap2\n      swap1\n      tag_113\n      jump\t// in\n    tag_112:\n      tag_114\n      jump\t// in\n    tag_111:\n      stop\n        /* \"contracts/contract.sol\":12690:12809  function updateMinimumWithdrawal(uint256 _amount) public onlyOwner {... */\n    tag_17:\n      callvalue\n      dup1\n      iszero\n      tag_115\n      jumpi\n      0x00\n      dup1\n      revert\n    tag_115:\n      pop\n      tag_116\n      0x04\n      dup1\n      calldatasize\n      sub\n      dup2\n      add\n      swap1\n      tag_117\n      swap2\n      swap1\n      tag_118\n      jump\t// in\n    tag_117:\n      tag_119\n      jump\t// in\n    tag_116:\n      stop\n        /* \"contracts/contract.sol\":10023:10564  function getVendorFullDetails(address _vendorAddress) public view returns (... */\n    tag_18:\n      callvalue\n      dup1\n      iszero\n      tag_120\n      jumpi\n      0x00\n      dup1\n      revert\n    tag_120:\n      pop\n      tag_121\n      0x04\n      dup1\n      calldatasize\n      sub\n      dup2\n      add\n      swap1\n      tag_122\n      swap2\n      swap1\n      tag_65\n      jump\t// in\n    tag_122:\n      tag_123\n      jump\t// in\n    tag_121:\n      mload(0x40)\n      tag_124\n      swap7\n      swap6\n      swap5\n      swap4\n      swap3\n      swap2\n      swap1\n      tag_125\n      jump\t// in\n    tag_124:\n      mload(0x40)\n      dup1\n      swap2\n      sub\n      swap1\n      return\n        /* \"contracts/contract.sol\":12276:12395  function isClient(address _address) public view returns (bool) {... */\n    tag_19:\n      callvalue\n      dup1\n      iszero\n      tag_126\n      jumpi\n      0x00\n      dup1\n      revert\n    tag_126:\n      pop\n      tag_127\n      0x04\n      dup1\n      calldatasize\n      sub\n      dup2\n      add\n      swap1\n      tag_128\n      swap2\n      swap1\n      tag_65\n      jump\t// in\n    tag_128:\n      tag_129\n      jump\t// in\n    tag_127:\n      mload(0x40)\n      tag_130\n      swap2\n      swap1\n      tag_131\n      jump\t// in\n    tag_130:\n      mload(0x40)\n      dup1\n      swap2\n      sub\n      swap1\n      return\n        /* \"contracts/contract.sol\":3822:4581  function registerVendor(string memory _email, string memory _name, string memory _cryptoKey) public {... */\n    tag_20:\n      callvalue\n      dup1\n      iszero\n      tag_132\n      jumpi\n      0x00\n      dup1\n      revert\n    tag_132:\n      pop\n      tag_133\n      0x04\n      dup1\n      calldatasize\n      sub\n      dup2\n      add\n      swap1\n      tag_134\n      swap2\n      swap1\n      tag_135\n      jump\t// in\n    tag_134:\n      tag_136\n      jump\t// in\n    tag_133:\n      stop\n        /* \"contracts/contract.sol\":10603:11065  function getClientDetails(address _clientAddress) public view returns (... */\n    tag_21:\n      callvalue\n      dup1\n      iszero\n      tag_137\n      jumpi\n      0x00\n      dup1\n      revert\n    tag_137:\n      pop\n      tag_138\n      0x04\n      dup1\n      calldatasize\n      sub\n      dup2\n      add\n      swap1\n      tag_139\n      swap2\n      swap1\n      tag_65\n      jump\t// in\n    tag_139:\n      tag_140\n      jump\t// in\n    tag_138:\n      mload(0x40)\n      tag_141\n      swap6\n      swap5\n      swap4\n      swap3\n      swap2\n      swap1\n      tag_142\n      jump\t// in\n    tag_141:\n      mload(0x40)\n      dup1\n      swap2\n      sub\n      swap1\n      return\n        /* \"contracts/contract.sol\":324:344  address public owner */\n    tag_22:\n      callvalue\n      dup1\n      iszero\n      tag_143\n      jumpi\n      0x00\n      dup1\n      revert\n    tag_143:\n      pop\n      tag_144\n      tag_145\n      jump\t// in\n    tag_144:\n      mload(0x40)\n      tag_146\n      swap2\n      swap1\n      tag_49\n      jump\t// in\n    tag_146:\n      mload(0x40)\n      dup1\n      swap2\n      sub\n      swap1\n      return\n        /* \"contracts/contract.sol\":2319:2358  mapping(uint256 => Order) public orders */\n    tag_23:\n      callvalue\n      dup1\n      iszero\n      tag_147\n      jumpi\n      0x00\n      dup1\n      revert\n    tag_147:\n      pop\n      tag_148\n      0x04\n      dup1\n      calldatasize\n      sub\n      dup2\n      add\n      swap1\n      tag_149\n      swap2\n      swap1\n      tag_118\n      jump\t// in\n    tag_149:\n      tag_150\n      jump\t// in\n    tag_148:\n      mload(0x40)\n      tag_151\n      swap9\n      swap8\n      swap7\n      swap6\n      swap5\n      swap4\n      swap3\n      swap2\n      swap1\n      tag_152\n      jump\t// in\n    tag_151:\n      mload(0x40)\n      dup1\n      swap2\n      sub\n      swap1\n      return\n        /* \"contracts/contract.sol\":7508:8470  function updateOrderStatus(uint256 _orderId, OrderStatus _status) public orderExists(_orderId) {... */\n    tag_24:\n      callvalue\n      dup1\n      iszero\n      tag_153\n      jumpi\n      0x00\n      dup1\n      revert\n    tag_153:\n      pop\n      tag_154\n      0x04\n      dup1\n      calldatasize\n      sub\n      dup2\n      add\n      swap1\n      tag_155\n      swap2\n      swap1\n      tag_156\n      jump\t// in\n    tag_155:\n      tag_157\n      jump\t// in\n    tag_154:\n      stop\n        /* \"contracts/contract.sol\":13036:13253  function withdrawPlatformFees() public onlyOwner {... */\n    tag_25:\n      callvalue\n      dup1\n      iszero\n      tag_158\n      jumpi\n      0x00\n      dup1\n      revert\n    tag_158:\n      pop\n      tag_159\n      tag_160\n      jump\t// in\n    tag_159:\n      stop\n        /* \"contracts/contract.sol\":12453:12624  function updatePlatformFeeRate(uint16 _newRate) public onlyOwner {... */\n    tag_26:\n      callvalue\n      dup1\n      iszero\n      tag_161\n      jumpi\n      0x00\n      dup1\n      revert\n    tag_161:\n      pop\n      tag_162\n      0x04\n      dup1\n      calldatasize\n      sub\n      dup2\n      add\n      swap1\n      tag_163\n      swap2\n      swap1\n      tag_164\n      jump\t// in\n    tag_163:\n      tag_165\n      jump\t// in\n    tag_162:\n      stop\n        /* \"contracts/contract.sol\":5353:5746  function updateVendorDetails(string memory _name, string memory _cryptoKey, string memory _photoPath) public onlyVendor {... */\n    tag_27:\n      callvalue\n      dup1\n      iszero\n      tag_166\n      jumpi\n      0x00\n      dup1\n      revert\n    tag_166:\n      pop\n      tag_167\n      0x04\n      dup1\n      calldatasize\n      sub\n      dup2\n      add\n      swap1\n      tag_168\n      swap2\n      swap1\n      tag_135\n      jump\t// in\n    tag_168:\n      tag_169\n      jump\t// in\n    tag_167:\n      stop\n        /* \"contracts/contract.sol\":11103:11690  function getOrderDetails(uint256 _orderId) public view orderExists(_orderId) returns (... */\n    tag_28:\n      callvalue\n      dup1\n      iszero\n      tag_170\n      jumpi\n      0x00\n      dup1\n      revert\n    tag_170:\n      pop\n      tag_171\n      0x04\n      dup1\n      calldatasize\n      sub\n      dup2\n      add\n      swap1\n      tag_172\n      swap2\n      swap1\n      tag_118\n      jump\t// in\n    tag_172:\n      tag_173\n      jump\t// in\n    tag_171:\n      mload(0x40)\n      tag_174\n      swap8\n      swap7\n      swap6\n      swap5\n      swap4\n      swap3\n      swap2\n      swap1\n      tag_175\n      jump\t// in\n    tag_174:\n      mload(0x40)\n      dup1\n      swap2\n      sub\n      swap1\n      return\n        /* \"contracts/contract.sol\":12094:12213  function isVendor(address _address) public view returns (bool) {... */\n    tag_29:\n      callvalue\n      dup1\n      iszero\n      tag_176\n      jumpi\n      0x00\n      dup1\n      revert\n    tag_176:\n      pop\n      tag_177\n      0x04\n      dup1\n      calldatasize\n      sub\n      dup2\n      add\n      swap1\n      tag_178\n      swap2\n      swap1\n      tag_65\n      jump\t// in\n    tag_178:\n      tag_179\n      jump\t// in\n    tag_177:\n      mload(0x40)\n      tag_180\n      swap2\n      swap1\n      tag_131\n      jump\t// in\n    tag_180:\n      mload(0x40)\n      dup1\n      swap2\n      sub\n      swap1\n      return\n        /* \"contracts/contract.sol\":427:462  uint16 public platformFeeRate = 250 */\n    tag_30:\n      callvalue\n      dup1\n      iszero\n      tag_181\n      jumpi\n      0x00\n      dup1\n      revert\n    tag_181:\n      pop\n      tag_182\n      tag_183\n      jump\t// in\n    tag_182:\n      mload(0x40)\n      tag_184\n      swap2\n      swap1\n      tag_185\n      jump\t// in\n    tag_184:\n      mload(0x40)\n      dup1\n      swap2\n      sub\n      swap1\n      return\n        /* \"contracts/contract.sol\":5784:6098  function updateClientDetails(string memory _name, string memory _photoPath) public onlyClient {... */\n    tag_42:\n        /* \"contracts/contract.sol\":3531:3538  clients */\n      0x04\n        /* \"contracts/contract.sol\":3531:3550  clients[msg.sender] */\n      0x00\n        /* \"contracts/contract.sol\":3539:3549  msg.sender */\n      caller\n        /* \"contracts/contract.sol\":3531:3550  clients[msg.sender] */\n      0xffffffffffffffffffffffffffffffffffffffff\n      and\n      0xffffffffffffffffffffffffffffffffffffffff\n      and\n      dup2\n      mstore\n      0x20\n      add\n      swap1\n      dup2\n      mstore\n      0x20\n      add\n      0x00\n      keccak256\n        /* \"contracts/contract.sol\":3531:3563  clients[msg.sender].isRegistered */\n      0x03\n      add\n      0x00\n      swap1\n      sload\n      swap1\n      0x0100\n      exp\n      swap1\n      div\n      0xff\n      and\n        /* \"contracts/contract.sol\":3523:3614  require(clients[msg.sender].isRegistered, \"Only registered clients can call this function\") */\n      tag_187\n      jumpi\n      mload(0x40)\n      0x08c379a000000000000000000000000000000000000000000000000000000000\n      dup2\n      mstore\n      0x04\n      add\n      tag_188\n      swap1\n      tag_189\n      jump\t// in\n    tag_188:\n      mload(0x40)\n      dup1\n      swap2\n      sub\n      swap1\n      revert\n    tag_187:\n        /* \"contracts/contract.sol\":5916:5921  _name */\n      dup2\n        /* \"contracts/contract.sol\":5889:5896  clients */\n      0x04\n        /* \"contracts/contract.sol\":5889:5908  clients[msg.sender] */\n      0x00\n        /* \"contracts/contract.sol\":5897:5907  msg.sender */\n      caller\n        /* \"contracts/contract.sol\":5889:5908  clients[msg.sender] */\n      0xffffffffffffffffffffffffffffffffffffffff\n      and\n      0xffffffffffffffffffffffffffffffffffffffff\n      and\n      dup2\n      mstore\n      0x20\n      add\n      swap1\n      dup2\n      mstore\n      0x20\n      add\n      0x00\n      keccak256\n        /* \"contracts/contract.sol\":5889:5913  clients[msg.sender].name */\n      0x02\n      add\n        /* \"contracts/contract.sol\":5889:5921  clients[msg.sender].name = _name */\n      swap1\n      dup2\n      tag_191\n      swap2\n      swap1\n      tag_192\n      jump\t// in\n    tag_191:\n      pop\n        /* \"contracts/contract.sol\":6019:6020  0 */\n      0x00\n        /* \"contracts/contract.sol\":5998:6008  _photoPath */\n      dup2\n        /* \"contracts/contract.sol\":5992:6016  bytes(_photoPath).length */\n      mload\n        /* \"contracts/contract.sol\":5992:6020  bytes(_photoPath).length > 0 */\n      gt\n        /* \"contracts/contract.sol\":5988:6091  if (bytes(_photoPath).length > 0) {... */\n      iszero\n      tag_193\n      jumpi\n        /* \"contracts/contract.sol\":6069:6079  _photoPath */\n      dup1\n        /* \"contracts/contract.sol\":6037:6044  clients */\n      0x04\n        /* \"contracts/contract.sol\":6037:6056  clients[msg.sender] */\n      0x00\n        /* \"contracts/contract.sol\":6045:6055  msg.sender */\n      caller\n        /* \"contracts/contract.sol\":6037:6056  clients[msg.sender] */\n      0xffffffffffffffffffffffffffffffffffffffff\n      and\n      0xffffffffffffffffffffffffffffffffffffffff\n      and\n      dup2\n      mstore\n      0x20\n      add\n      swap1\n      dup2\n      mstore\n      0x20\n      add\n      0x00\n      keccak256\n        /* \"contracts/contract.sol\":6037:6066  clients[msg.sender].photoPath */\n      0x04\n      add\n        /* \"contracts/contract.sol\":6037:6079  clients[msg.sender].photoPath = _photoPath */\n      swap1\n      dup2\n      tag_194\n      swap2\n      swap1\n      tag_192\n      jump\t// in\n    tag_194:\n      pop\n        /* \"contracts/contract.sol\":5988:6091  if (bytes(_photoPath).length > 0) {... */\n    tag_193:\n        /* \"contracts/contract.sol\":5784:6098  function updateClientDetails(string memory _name, string memory _photoPath) public onlyClient {... */\n      pop\n      pop\n      jump\t// out\n        /* \"contracts/contract.sol\":2219:2267  mapping(string => address) public clientsByEmail */\n    tag_47:\n      0x05\n      dup2\n      dup1\n      mload\n      0x20\n      dup2\n      add\n      dup3\n      add\n      dup1\n      mload\n      dup5\n      dup3\n      mstore\n      0x20\n      dup4\n      add\n      0x20\n      dup6\n      add\n      keccak256\n      dup2\n      dup4\n      mstore\n      dup1\n      swap6\n      pop\n      pop\n      pop\n      pop\n      pop\n      pop\n      0x00\n      swap2\n      pop\n      sload\n      swap1\n      0x0100\n      exp\n      swap1\n      div\n      0xffffffffffffffffffffffffffffffffffffffff\n      and\n      dup2\n      jump\t// out\n        /* \"contracts/contract.sol\":2399:2450  mapping(address => uint256[]) public customerOrders */\n    tag_54:\n      mstore(0x20, 0x07)\n      dup2\n      0x00\n      mstore\n      keccak256(0x00, 0x40)\n      dup2\n      dup2\n      sload\n      dup2\n      lt\n      tag_195\n      jumpi\n      0x00\n      dup1\n      revert\n    tag_195:\n      swap1\n      0x00\n      mstore\n      keccak256(0x00, 0x20)\n      add\n      0x00\n      swap2\n      pop\n      swap2\n      pop\n      pop\n      sload\n      dup2\n      jump\t// out\n        /* \"contracts/contract.sol\":2489:2538  mapping(address => uint256[]) public vendorOrders */\n    tag_60:\n      mstore(0x20, 0x08)\n      dup2\n      0x00\n      mstore\n      keccak256(0x00, 0x40)\n      dup2\n      dup2\n      sload\n      dup2\n      lt\n      tag_197\n      jumpi\n      0x00\n      dup1\n      revert\n    tag_197:\n      swap1\n      0x00\n      mstore\n      keccak256(0x00, 0x20)\n      add\n      0x00\n      swap2\n      pop\n      swap2\n      pop\n      pop\n      sload\n      dup2\n      jump\t// out\n        /* \"contracts/contract.sol\":11730:11866  function getCustomerOrders(address _customer) public view returns (uint256[] memory) {... */\n    tag_66:\n        /* \"contracts/contract.sol\":11797:11813  uint256[] memory */\n      0x60\n        /* \"contracts/contract.sol\":11833:11847  customerOrders */\n      0x07\n        /* \"contracts/contract.sol\":11833:11858  customerOrders[_customer] */\n      0x00\n        /* \"contracts/contract.sol\":11848:11857  _customer */\n      dup4\n        /* \"contracts/contract.sol\":11833:11858  customerOrders[_customer] */\n      0xffffffffffffffffffffffffffffffffffffffff\n      and\n      0xffffffffffffffffffffffffffffffffffffffff\n      and\n      dup2\n      mstore\n      0x20\n      add\n      swap1\n      dup2\n      mstore\n      0x20\n      add\n      0x00\n      keccak256\n        /* \"contracts/contract.sol\":11826:11858  return customerOrders[_customer] */\n      dup1\n      sload\n      dup1\n      0x20\n      mul\n      0x20\n      add\n      mload(0x40)\n      swap1\n      dup2\n      add\n      0x40\n      mstore\n      dup1\n      swap3\n      swap2\n      swap1\n      dup2\n      dup2\n      mstore\n      0x20\n      add\n      dup3\n      dup1\n      sload\n      dup1\n      iszero\n      tag_200\n      jumpi\n      0x20\n      mul\n      dup3\n      add\n      swap2\n      swap1\n      0x00\n      mstore\n      keccak256(0x00, 0x20)\n      swap1\n    tag_201:\n      dup2\n      sload\n      dup2\n      mstore\n      0x20\n      add\n      swap1\n      0x01\n      add\n      swap1\n      dup1\n      dup4\n      gt\n      tag_201\n      jumpi\n    tag_200:\n      pop\n      pop\n      pop\n      pop\n      pop\n      swap1\n      pop\n        /* \"contracts/contract.sol\":11730:11866  function getCustomerOrders(address _customer) public view returns (uint256[] memory) {... */\n      swap2\n      swap1\n      pop\n      jump\t// out\n        /* \"contracts/contract.sol\":9143:9621  function withdrawFunds() public onlyVendor {... */\n    tag_71:\n        /* \"contracts/contract.sol\":3379:3386  vendors */\n      0x02\n        /* \"contracts/contract.sol\":3379:3398  vendors[msg.sender] */\n      0x00\n        /* \"contracts/contract.sol\":3387:3397  msg.sender */\n      caller\n        /* \"contracts/contract.sol\":3379:3398  vendors[msg.sender] */\n      0xffffffffffffffffffffffffffffffffffffffff\n      and\n      0xffffffffffffffffffffffffffffffffffffffff\n      and\n      dup2\n      mstore\n      0x20\n      add\n      swap1\n      dup2\n      mstore\n      0x20\n      add\n      0x00\n      keccak256\n        /* \"contracts/contract.sol\":3379:3411  vendors[msg.sender].isRegistered */\n      0x03\n      add\n      0x00\n      swap1\n      sload\n      swap1\n      0x0100\n      exp\n      swap1\n      div\n      0xff\n      and\n        /* \"contracts/contract.sol\":3371:3462  require(vendors[msg.sender].isRegistered, \"Only registered vendors can call this function\") */\n      tag_203\n      jumpi\n      mload(0x40)\n      0x08c379a000000000000000000000000000000000000000000000000000000000\n      dup2\n      mstore\n      0x04\n      add\n      tag_204\n      swap1\n      tag_205\n      jump\t// in\n    tag_204:\n      mload(0x40)\n      dup1\n      swap2\n      sub\n      swap1\n      revert\n    tag_203:\n        /* \"contracts/contract.sol\":9197:9221  uint256 withdrawalAmount */\n      0x00\n        /* \"contracts/contract.sol\":9224:9231  vendors */\n      0x02\n        /* \"contracts/contract.sol\":9224:9243  vendors[msg.sender] */\n      0x00\n        /* \"contracts/contract.sol\":9232:9242  msg.sender */\n      caller\n        /* \"contracts/contract.sol\":9224:9243  vendors[msg.sender] */\n      0xffffffffffffffffffffffffffffffffffffffff\n      and\n      0xffffffffffffffffffffffffffffffffffffffff\n      and\n      dup2\n      mstore\n      0x20\n      add\n      swap1\n      dup2\n      mstore\n      0x20\n      add\n      0x00\n      keccak256\n        /* \"contracts/contract.sol\":9224:9251  vendors[msg.sender].balance */\n      0x04\n      add\n      sload\n        /* \"contracts/contract.sol\":9197:9251  uint256 withdrawalAmount = vendors[msg.sender].balance */\n      swap1\n      pop\n        /* \"contracts/contract.sol\":9290:9313  minimumWithdrawalAmount */\n      sload(0x01)\n        /* \"contracts/contract.sol\":9270:9286  withdrawalAmount */\n      dup2\n        /* \"contracts/contract.sol\":9270:9313  withdrawalAmount >= minimumWithdrawalAmount */\n      lt\n      iszero\n        /* \"contracts/contract.sol\":9262:9345  require(withdrawalAmount >= minimumWithdrawalAmount, \"Withdrawal amount too small\") */\n      tag_207\n      jumpi\n      mload(0x40)\n      0x08c379a000000000000000000000000000000000000000000000000000000000\n      dup2\n      mstore\n      0x04\n      add\n      tag_208\n      swap1\n      tag_209\n      jump\t// in\n    tag_208:\n      mload(0x40)\n      dup1\n      swap2\n      sub\n      swap1\n      revert\n    tag_207:\n        /* \"contracts/contract.sol\":9446:9447  0 */\n      0x00\n        /* \"contracts/contract.sol\":9416:9423  vendors */\n      0x02\n        /* \"contracts/contract.sol\":9416:9435  vendors[msg.sender] */\n      0x00\n        /* \"contracts/contract.sol\":9424:9434  msg.sender */\n      caller\n        /* \"contracts/contract.sol\":9416:9435  vendors[msg.sender] */\n      0xffffffffffffffffffffffffffffffffffffffff\n      and\n      0xffffffffffffffffffffffffffffffffffffffff\n      and\n      dup2\n      mstore\n      0x20\n      add\n      swap1\n      dup2\n      mstore\n      0x20\n      add\n      0x00\n      keccak256\n        /* \"contracts/contract.sol\":9416:9443  vendors[msg.sender].balance */\n      0x04\n      add\n        /* \"contracts/contract.sol\":9416:9447  vendors[msg.sender].balance = 0 */\n      dup2\n      swap1\n      sstore\n      pop\n        /* \"contracts/contract.sol\":9505:9515  msg.sender */\n      caller\n        /* \"contracts/contract.sol\":9497:9525  payable(msg.sender).transfer */\n      0xffffffffffffffffffffffffffffffffffffffff\n      and\n        /* \"contracts/contract.sol\":9497:9543  payable(msg.sender).transfer(withdrawalAmount) */\n      0x08fc\n        /* \"contracts/contract.sol\":9526:9542  withdrawalAmount */\n      dup3\n        /* \"contracts/contract.sol\":9497:9543  payable(msg.sender).transfer(withdrawalAmount) */\n      swap1\n      dup2\n      iszero\n      mul\n      swap1\n      mload(0x40)\n      0x00\n      mload(0x40)\n      dup1\n      dup4\n      sub\n      dup2\n      dup6\n      dup9\n      dup9\n      call\n      swap4\n      pop\n      pop\n      pop\n      pop\n      iszero\n      dup1\n      iszero\n      tag_211\n      jumpi\n      returndatasize\n      0x00\n      dup1\n      returndatacopy\n      revert(0x00, returndatasize)\n    tag_211:\n      pop\n        /* \"contracts/contract.sol\":9584:9594  msg.sender */\n      caller\n        /* \"contracts/contract.sol\":9569:9613  FundsWithdrawn(msg.sender, withdrawalAmount) */\n      0xffffffffffffffffffffffffffffffffffffffff\n      and\n      0xeaff4b37086828766ad3268786972c0cd24259d4c87a80f9d3963a3c3d999b0d\n        /* \"contracts/contract.sol\":9596:9612  withdrawalAmount */\n      dup3\n        /* \"contracts/contract.sol\":9569:9613  FundsWithdrawn(msg.sender, withdrawalAmount) */\n      mload(0x40)\n      tag_212\n      swap2\n      swap1\n      tag_56\n      jump\t// in\n    tag_212:\n      mload(0x40)\n      dup1\n      swap2\n      sub\n      swap1\n      log2\n        /* \"contracts/contract.sol\":9186:9621  {... */\n      pop\n        /* \"contracts/contract.sol\":9143:9621  function withdrawFunds() public onlyVendor {... */\n      jump\t// out\n        /* \"contracts/contract.sol\":1892:1933  mapping(address => Vendor) public vendors */\n    tag_75:\n      mstore(0x20, 0x02)\n      dup1\n      0x00\n      mstore\n      keccak256(0x00, 0x40)\n      0x00\n      swap2\n      pop\n      swap1\n      pop\n      dup1\n      0x00\n      add\n      0x00\n      swap1\n      sload\n      swap1\n      0x0100\n      exp\n      swap1\n      div\n      0xffffffffffffffffffffffffffffffffffffffff\n      and\n      swap1\n      dup1\n      0x01\n      add\n      dup1\n      sload\n      tag_213\n      swap1\n      tag_214\n      jump\t// in\n    tag_213:\n      dup1\n      0x1f\n      add\n      0x20\n      dup1\n      swap2\n      div\n      mul\n      0x20\n      add\n      mload(0x40)\n      swap1\n      dup2\n      add\n      0x40\n      mstore\n      dup1\n      swap3\n      swap2\n      swap1\n      dup2\n      dup2\n      mstore\n      0x20\n      add\n      dup3\n      dup1\n      sload\n      tag_215\n      swap1\n      tag_214\n      jump\t// in\n    tag_215:\n      dup1\n      iszero\n      tag_216\n      jumpi\n      dup1\n      0x1f\n      lt\n      tag_217\n      jumpi\n      0x0100\n      dup1\n      dup4\n      sload\n      div\n      mul\n      dup4\n      mstore\n      swap2\n      0x20\n      add\n      swap2\n      jump(tag_216)\n    tag_217:\n      dup3\n      add\n      swap2\n      swap1\n      0x00\n      mstore\n      keccak256(0x00, 0x20)\n      swap1\n    tag_218:\n      dup2\n      sload\n      dup2\n      mstore\n      swap1\n      0x01\n      add\n      swap1\n      0x20\n      add\n      dup1\n      dup4\n      gt\n      tag_218\n      jumpi\n      dup3\n      swap1\n      sub\n      0x1f\n      and\n      dup3\n      add\n      swap2\n    tag_216:\n      pop\n      pop\n      pop\n      pop\n      pop\n      swap1\n      dup1\n      0x02\n      add\n      dup1\n      sload\n      tag_219\n      swap1\n      tag_214\n      jump\t// in\n    tag_219:\n      dup1\n      0x1f\n      add\n      0x20\n      dup1\n      swap2\n      div\n      mul\n      0x20\n      add\n      mload(0x40)\n      swap1\n      dup2\n      add\n      0x40\n      mstore\n      dup1\n      swap3\n      swap2\n      swap1\n      dup2\n      dup2\n      mstore\n      0x20\n      add\n      dup3\n      dup1\n      sload\n      tag_220\n      swap1\n      tag_214\n      jump\t// in\n    tag_220:\n      dup1\n      iszero\n      tag_221\n      jumpi\n      dup1\n      0x1f\n      lt\n      tag_222\n      jumpi\n      0x0100\n      dup1\n      dup4\n      sload\n      div\n      mul\n      dup4\n      mstore\n      swap2\n      0x20\n      add\n      swap2\n      jump(tag_221)\n    tag_222:\n      dup3\n      add\n      swap2\n      swap1\n      0x00\n      mstore\n      keccak256(0x00, 0x20)\n      swap1\n    tag_223:\n      dup2\n      sload\n      dup2\n      mstore\n      swap1\n      0x01\n      add\n      swap1\n      0x20\n      add\n      dup1\n      dup4\n      gt\n      tag_223\n      jumpi\n      dup3\n      swap1\n      sub\n      0x1f\n      and\n      dup3\n      add\n      swap2\n    tag_221:\n      pop\n      pop\n      pop\n      pop\n      pop\n      swap1\n      dup1\n      0x03\n      add\n      0x00\n      swap1\n      sload\n      swap1\n      0x0100\n      exp\n      swap1\n      div\n      0xff\n      and\n      swap1\n      dup1\n      0x04\n      add\n      sload\n      swap1\n      dup1\n      0x05\n      add\n      dup1\n      sload\n      tag_224\n      swap1\n      tag_214\n      jump\t// in\n    tag_224:\n      dup1\n      0x1f\n      add\n      0x20\n      dup1\n      swap2\n      div\n      mul\n      0x20\n      add\n      mload(0x40)\n      swap1\n      dup2\n      add\n      0x40\n      mstore\n      dup1\n      swap3\n      swap2\n      swap1\n      dup2\n      dup2\n      mstore\n      0x20\n      add\n      dup3\n      dup1\n      sload\n      tag_225\n      swap1\n      tag_214\n      jump\t// in\n    tag_225:\n      dup1\n      iszero\n      tag_226\n      jumpi\n      dup1\n      0x1f\n      lt\n      tag_227\n      jumpi\n      0x0100\n      dup1\n      dup4\n      sload\n      div\n      mul\n      dup4\n      mstore\n      swap2\n      0x20\n      add\n      swap2\n      jump(tag_226)\n    tag_227:\n      dup3\n      add\n      swap2\n      swap1\n      0x00\n      mstore\n      keccak256(0x00, 0x20)\n      swap1\n    tag_228:\n      dup2\n      sload\n      dup2\n      mstore\n      swap1\n      0x01\n      add\n      swap1\n      0x20\n      add\n      dup1\n      dup4\n      gt\n      tag_228\n      jumpi\n      dup3\n      swap1\n      sub\n      0x1f\n      and\n      dup3\n      add\n      swap2\n    tag_226:\n      pop\n      pop\n      pop\n      pop\n      pop\n      swap1\n      dup1\n      0x06\n      add\n      dup1\n      sload\n      tag_229\n      swap1\n      tag_214\n      jump\t// in\n    tag_229:\n      dup1\n      0x1f\n      add\n      0x20\n      dup1\n      swap2\n      div\n      mul\n      0x20\n      add\n      mload(0x40)\n      swap1\n      dup2\n      add\n      0x40\n      mstore\n      dup1\n      swap3\n      swap2\n      swap1\n      dup2\n      dup2\n      mstore\n      0x20\n      add\n      dup3\n      dup1\n      sload\n      tag_230\n      swap1\n      tag_214\n      jump\t// in\n    tag_230:\n      dup1\n      iszero\n      tag_231\n      jumpi\n      dup1\n      0x1f\n      lt\n      tag_232\n      jumpi\n      0x0100\n      dup1\n      dup4\n      sload\n      div\n      mul\n      dup4\n      mstore\n      swap2\n      0x20\n      add\n      swap2\n      jump(tag_231)\n    tag_232:\n      dup3\n      add\n      swap2\n      swap1\n      0x00\n      mstore\n      keccak256(0x00, 0x20)\n      swap1\n    tag_233:\n      dup2\n      sload\n      dup2\n      mstore\n      swap1\n      0x01\n      add\n      swap1\n      0x20\n      add\n      dup1\n      dup4\n      gt\n      tag_233\n      jumpi\n      dup3\n      swap1\n      sub\n      0x1f\n      and\n      dup3\n      add\n      swap2\n    tag_231:\n      pop\n      pop\n      pop\n      pop\n      pop\n      swap1\n      pop\n      dup8\n      jump\t// out\n        /* \"contracts/contract.sol\":539:597  uint256 public minimumWithdrawalAmount = 10000000000000000 */\n    tag_80:\n      sload(0x01)\n      dup2\n      jump\t// out\n        /* \"contracts/contract.sol\":4619:5311  function registerClient(string memory _email, string memory _name) public {... */\n    tag_85:\n        /* \"contracts/contract.sol\":4713:4720  clients */\n      0x04\n        /* \"contracts/contract.sol\":4713:4732  clients[msg.sender] */\n      0x00\n        /* \"contracts/contract.sol\":4721:4731  msg.sender */\n      caller\n        /* \"contracts/contract.sol\":4713:4732  clients[msg.sender] */\n      0xffffffffffffffffffffffffffffffffffffffff\n      and\n      0xffffffffffffffffffffffffffffffffffffffff\n      and\n      dup2\n      mstore\n      0x20\n      add\n      swap1\n      dup2\n      mstore\n      0x20\n      add\n      0x00\n      keccak256\n        /* \"contracts/contract.sol\":4713:4745  clients[msg.sender].isRegistered */\n      0x03\n      add\n      0x00\n      swap1\n      sload\n      swap1\n      0x0100\n      exp\n      swap1\n      div\n      0xff\n      and\n        /* \"contracts/contract.sol\":4712:4745  !clients[msg.sender].isRegistered */\n      iszero\n        /* \"contracts/contract.sol\":4704:4775  require(!clients[msg.sender].isRegistered, \"Client already registered\") */\n      tag_235\n      jumpi\n      mload(0x40)\n      0x08c379a000000000000000000000000000000000000000000000000000000000\n      dup2\n      mstore\n      0x04\n      add\n      tag_236\n      swap1\n      tag_237\n      jump\t// in\n    tag_236:\n      mload(0x40)\n      dup1\n      swap2\n      sub\n      swap1\n      revert\n    tag_235:\n        /* \"contracts/contract.sol\":4828:4829  0 */\n      0x00\n        /* \"contracts/contract.sol\":4794:4830  clientsByEmail[_email] == address(0) */\n      0xffffffffffffffffffffffffffffffffffffffff\n      and\n        /* \"contracts/contract.sol\":4794:4808  clientsByEmail */\n      0x05\n        /* \"contracts/contract.sol\":4809:4815  _email */\n      dup4\n        /* \"contracts/contract.sol\":4794:4816  clientsByEmail[_email] */\n      mload(0x40)\n      tag_238\n      swap2\n      swap1\n      tag_239\n      jump\t// in\n    tag_238:\n      swap1\n      dup2\n      mstore\n      0x20\n      add\n      mload(0x40)\n      dup1\n      swap2\n      sub\n      swap1\n      keccak256\n      0x00\n      swap1\n      sload\n      swap1\n      0x0100\n      exp\n      swap1\n      div\n      0xffffffffffffffffffffffffffffffffffffffff\n      and\n        /* \"contracts/contract.sol\":4794:4830  clientsByEmail[_email] == address(0) */\n      0xffffffffffffffffffffffffffffffffffffffff\n      and\n      eq\n        /* \"contracts/contract.sol\":4786:4859  require(clientsByEmail[_email] == address(0), \"Email already registered\") */\n      tag_240\n      jumpi\n      mload(0x40)\n      0x08c379a000000000000000000000000000000000000000000000000000000000\n      dup2\n      mstore\n      0x04\n      add\n      tag_241\n      swap1\n      tag_242\n      jump\t// in\n    tag_241:\n      mload(0x40)\n      dup1\n      swap2\n      sub\n      swap1\n      revert\n    tag_240:\n        /* \"contracts/contract.sol\":4935:5145  Client({... */\n      mload(0x40)\n      dup1\n      0xc0\n      add\n      0x40\n      mstore\n      dup1\n        /* \"contracts/contract.sol\":4972:4982  msg.sender */\n      caller\n        /* \"contracts/contract.sol\":4935:5145  Client({... */\n      0xffffffffffffffffffffffffffffffffffffffff\n      and\n      dup2\n      mstore\n      0x20\n      add\n        /* \"contracts/contract.sol\":5004:5010  _email */\n      dup4\n        /* \"contracts/contract.sol\":4935:5145  Client({... */\n      dup2\n      mstore\n      0x20\n      add\n        /* \"contracts/contract.sol\":5031:5036  _name */\n      dup3\n        /* \"contracts/contract.sol\":4935:5145  Client({... */\n      dup2\n      mstore\n      0x20\n      add\n        /* \"contracts/contract.sol\":5065:5069  true */\n      0x01\n        /* \"contracts/contract.sol\":4935:5145  Client({... */\n      iszero\n      iszero\n      dup2\n      mstore\n      0x20\n      add\n        /* \"contracts/contract.sol\":5090:5105  UserRole.Client */\n      0x00\n        /* \"contracts/contract.sol\":4935:5145  Client({... */\n      0x02\n      dup2\n      gt\n      iszero\n      tag_243\n      jumpi\n      tag_244\n      tag_245\n      jump\t// in\n    tag_244:\n    tag_243:\n      dup2\n      mstore\n      0x20\n      add\n      mload(0x40)\n      dup1\n      0x20\n      add\n      0x40\n      mstore\n      dup1\n      0x00\n      dup2\n      mstore\n      pop\n      dup2\n      mstore\n      pop\n        /* \"contracts/contract.sol\":4913:4920  clients */\n      0x04\n        /* \"contracts/contract.sol\":4913:4932  clients[msg.sender] */\n      0x00\n        /* \"contracts/contract.sol\":4921:4931  msg.sender */\n      caller\n        /* \"contracts/contract.sol\":4913:4932  clients[msg.sender] */\n      0xffffffffffffffffffffffffffffffffffffffff\n      and\n      0xffffffffffffffffffffffffffffffffffffffff\n      and\n      dup2\n      mstore\n      0x20\n      add\n      swap1\n      dup2\n      mstore\n      0x20\n      add\n      0x00\n      keccak256\n        /* \"contracts/contract.sol\":4913:5145  clients[msg.sender] = Client({... */\n      0x00\n      dup3\n      add\n      mload\n      dup2\n      0x00\n      add\n      exp(0x0100, 0x00)\n      dup2\n      sload\n      dup2\n      0xffffffffffffffffffffffffffffffffffffffff\n      mul\n      not\n      and\n      swap1\n      dup4\n      0xffffffffffffffffffffffffffffffffffffffff\n      and\n      mul\n      or\n      swap1\n      sstore\n      pop\n      0x20\n      dup3\n      add\n      mload\n      dup2\n      0x01\n      add\n      swap1\n      dup2\n      tag_246\n      swap2\n      swap1\n      tag_192\n      jump\t// in\n    tag_246:\n      pop\n      0x40\n      dup3\n      add\n      mload\n      dup2\n      0x02\n      add\n      swap1\n      dup2\n      tag_247\n      swap2\n      swap1\n      tag_192\n      jump\t// in\n    tag_247:\n      pop\n      0x60\n      dup3\n      add\n      mload\n      dup2\n      0x03\n      add\n      exp(0x0100, 0x00)\n      dup2\n      sload\n      dup2\n      0xff\n      mul\n      not\n      and\n      swap1\n      dup4\n      iszero\n      iszero\n      mul\n      or\n      swap1\n      sstore\n      pop\n      0x80\n      dup3\n      add\n      mload\n      dup2\n      0x03\n      add\n      exp(0x0100, 0x01)\n      dup2\n      sload\n      dup2\n      0xff\n      mul\n      not\n      and\n      swap1\n      dup4\n      0x02\n      dup2\n      gt\n      iszero\n      tag_248\n      jumpi\n      tag_249\n      tag_245\n      jump\t// in\n    tag_249:\n    tag_248:\n      mul\n      or\n      swap1\n      sstore\n      pop\n      0xa0\n      dup3\n      add\n      mload\n      dup2\n      0x04\n      add\n      swap1\n      dup2\n      tag_250\n      swap2\n      swap1\n      tag_192\n      jump\t// in\n    tag_250:\n      pop\n      swap1\n      pop\n      pop\n        /* \"contracts/contract.sol\":5231:5241  msg.sender */\n      caller\n        /* \"contracts/contract.sol\":5206:5220  clientsByEmail */\n      0x05\n        /* \"contracts/contract.sol\":5221:5227  _email */\n      dup4\n        /* \"contracts/contract.sol\":5206:5228  clientsByEmail[_email] */\n      mload(0x40)\n      tag_251\n      swap2\n      swap1\n      tag_239\n      jump\t// in\n    tag_251:\n      swap1\n      dup2\n      mstore\n      0x20\n      add\n      mload(0x40)\n      dup1\n      swap2\n      sub\n      swap1\n      keccak256\n      0x00\n        /* \"contracts/contract.sol\":5206:5241  clientsByEmail[_email] = msg.sender */\n      0x0100\n      exp\n      dup2\n      sload\n      dup2\n      0xffffffffffffffffffffffffffffffffffffffff\n      mul\n      not\n      and\n      swap1\n      dup4\n      0xffffffffffffffffffffffffffffffffffffffff\n      and\n      mul\n      or\n      swap1\n      sstore\n      pop\n        /* \"contracts/contract.sol\":5284:5294  msg.sender */\n      caller\n        /* \"contracts/contract.sol\":5267:5303  ClientRegistered(msg.sender, _email) */\n      0xffffffffffffffffffffffffffffffffffffffff\n      and\n      0x1095d5bb47535aabc9770acbcd3f5f182a26902a02d9eaa8b8c1450e71412078\n        /* \"contracts/contract.sol\":5296:5302  _email */\n      dup4\n        /* \"contracts/contract.sol\":5267:5303  ClientRegistered(msg.sender, _email) */\n      mload(0x40)\n      tag_252\n      swap2\n      swap1\n      tag_253\n      jump\t// in\n    tag_252:\n      mload(0x40)\n      dup1\n      swap2\n      sub\n      swap1\n      log2\n        /* \"contracts/contract.sol\":4619:5311  function registerClient(string memory _email, string memory _name) public {... */\n      pop\n      pop\n      jump\t// out\n        /* \"contracts/contract.sol\":9650:9989  function getVendorDetails(address _vendorAddress) public view returns (... */\n    tag_89:\n        /* \"contracts/contract.sol\":9731:9750  string memory email */\n      0x60\n        /* \"contracts/contract.sol\":9761:9779  string memory name */\n      dup1\n        /* \"contracts/contract.sol\":9790:9807  bool isRegistered */\n      0x00\n        /* \"contracts/contract.sol\":9818:9833  uint256 balance */\n      dup1\n        /* \"contracts/contract.sol\":9852:9873  Vendor storage vendor */\n      0x00\n        /* \"contracts/contract.sol\":9876:9883  vendors */\n      0x02\n        /* \"contracts/contract.sol\":9876:9899  vendors[_vendorAddress] */\n      0x00\n        /* \"contracts/contract.sol\":9884:9898  _vendorAddress */\n      dup8\n        /* \"contracts/contract.sol\":9876:9899  vendors[_vendorAddress] */\n      0xffffffffffffffffffffffffffffffffffffffff\n      and\n      0xffffffffffffffffffffffffffffffffffffffff\n      and\n      dup2\n      mstore\n      0x20\n      add\n      swap1\n      dup2\n      mstore\n      0x20\n      add\n      0x00\n      keccak256\n        /* \"contracts/contract.sol\":9852:9899  Vendor storage vendor = vendors[_vendorAddress] */\n      swap1\n      pop\n        /* \"contracts/contract.sol\":9918:9924  vendor */\n      dup1\n        /* \"contracts/contract.sol\":9918:9930  vendor.email */\n      0x01\n      add\n        /* \"contracts/contract.sol\":9932:9938  vendor */\n      dup2\n        /* \"contracts/contract.sol\":9932:9943  vendor.name */\n      0x02\n      add\n        /* \"contracts/contract.sol\":9945:9951  vendor */\n      dup3\n        /* \"contracts/contract.sol\":9945:9964  vendor.isRegistered */\n      0x03\n      add\n      0x00\n      swap1\n      sload\n      swap1\n      0x0100\n      exp\n      swap1\n      div\n      0xff\n      and\n        /* \"contracts/contract.sol\":9966:9972  vendor */\n      dup4\n        /* \"contracts/contract.sol\":9966:9980  vendor.balance */\n      0x04\n      add\n      sload\n        /* \"contracts/contract.sol\":9910:9981  return (vendor.email, vendor.name, vendor.isRegistered, vendor.balance) */\n      dup4\n      dup1\n      sload\n      tag_255\n      swap1\n      tag_214\n      jump\t// in\n    tag_255:\n      dup1\n      0x1f\n      add\n      0x20\n      dup1\n      swap2\n      div\n      mul\n      0x20\n      add\n      mload(0x40)\n      swap1\n      dup2\n      add\n      0x40\n      mstore\n      dup1\n      swap3\n      swap2\n      swap1\n      dup2\n      dup2\n      mstore\n      0x20\n      add\n      dup3\n      dup1\n      sload\n      tag_256\n      swap1\n      tag_214\n      jump\t// in\n    tag_256:\n      dup1\n      iszero\n      tag_257\n      jumpi\n      dup1\n      0x1f\n      lt\n      tag_258\n      jumpi\n      0x0100\n      dup1\n      dup4\n      sload\n      div\n      mul\n      dup4\n      mstore\n      swap2\n      0x20\n      add\n      swap2\n      jump(tag_257)\n    tag_258:\n      dup3\n      add\n      swap2\n      swap1\n      0x00\n      mstore\n      keccak256(0x00, 0x20)\n      swap1\n    tag_259:\n      dup2\n      sload\n      dup2\n      mstore\n      swap1\n      0x01\n      add\n      swap1\n      0x20\n      add\n      dup1\n      dup4\n      gt\n      tag_259\n      jumpi\n      dup3\n      swap1\n      sub\n      0x1f\n      and\n      dup3\n      add\n      swap2\n    tag_257:\n      pop\n      pop\n      pop\n      pop\n      pop\n      swap4\n      pop\n      dup3\n      dup1\n      sload\n      tag_260\n      swap1\n      tag_214\n      jump\t// in\n    tag_260:\n      dup1\n      0x1f\n      add\n      0x20\n      dup1\n      swap2\n      div\n      mul\n      0x20\n      add\n      mload(0x40)\n      swap1\n      dup2\n      add\n      0x40\n      mstore\n      dup1\n      swap3\n      swap2\n      swap1\n      dup2\n      dup2\n      mstore\n      0x20\n      add\n      dup3\n      dup1\n      sload\n      tag_261\n      swap1\n      tag_214\n      jump\t// in\n    tag_261:\n      dup1\n      iszero\n      tag_262\n      jumpi\n      dup1\n      0x1f\n      lt\n      tag_263\n      jumpi\n      0x0100\n      dup1\n      dup4\n      sload\n      div\n      mul\n      dup4\n      mstore\n      swap2\n      0x20\n      add\n      swap2\n      jump(tag_262)\n    tag_263:\n      dup3\n      add\n      swap2\n      swap1\n      0x00\n      mstore\n      keccak256(0x00, 0x20)\n      swap1\n    tag_264:\n      dup2\n      sload\n      dup2\n      mstore\n      swap1\n      0x01\n      add\n      swap1\n      0x20\n      add\n      dup1\n      dup4\n      gt\n      tag_264\n      jumpi\n      dup3\n      swap1\n      sub\n      0x1f\n      and\n      dup3\n      add\n      swap2\n    tag_262:\n      pop\n      pop\n      pop\n      pop\n      pop\n      swap3\n      pop\n      swap5\n      pop\n      swap5\n      pop\n      swap5\n      pop\n      swap5\n      pop\n      pop\n        /* \"contracts/contract.sol\":9650:9989  function getVendorDetails(address _vendorAddress) public view returns (... */\n      swap2\n      swap4\n      pop\n      swap2\n      swap4\n      jump\t// out\n        /* \"contracts/contract.sol\":2113:2154  mapping(address => Client) public clients */\n    tag_95:\n      mstore(0x20, 0x04)\n      dup1\n      0x00\n      mstore\n      keccak256(0x00, 0x40)\n      0x00\n      swap2\n      pop\n      swap1\n      pop\n      dup1\n      0x00\n      add\n      0x00\n      swap1\n      sload\n      swap1\n      0x0100\n      exp\n      swap1\n      div\n      0xffffffffffffffffffffffffffffffffffffffff\n      and\n      swap1\n      dup1\n      0x01\n      add\n      dup1\n      sload\n      tag_265\n      swap1\n      tag_214\n      jump\t// in\n    tag_265:\n      dup1\n      0x1f\n      add\n      0x20\n      dup1\n      swap2\n      div\n      mul\n      0x20\n      add\n      mload(0x40)\n      swap1\n      dup2\n      add\n      0x40\n      mstore\n      dup1\n      swap3\n      swap2\n      swap1\n      dup2\n      dup2\n      mstore\n      0x20\n      add\n      dup3\n      dup1\n      sload\n      tag_266\n      swap1\n      tag_214\n      jump\t// in\n    tag_266:\n      dup1\n      iszero\n      tag_267\n      jumpi\n      dup1\n      0x1f\n      lt\n      tag_268\n      jumpi\n      0x0100\n      dup1\n      dup4\n      sload\n      div\n      mul\n      dup4\n      mstore\n      swap2\n      0x20\n      add\n      swap2\n      jump(tag_267)\n    tag_268:\n      dup3\n      add\n      swap2\n      swap1\n      0x00\n      mstore\n      keccak256(0x00, 0x20)\n      swap1\n    tag_269:\n      dup2\n      sload\n      dup2\n      mstore\n      swap1\n      0x01\n      add\n      swap1\n      0x20\n      add\n      dup1\n      dup4\n      gt\n      tag_269\n      jumpi\n      dup3\n      swap1\n      sub\n      0x1f\n      and\n      dup3\n      add\n      swap2\n    tag_267:\n      pop\n      pop\n      pop\n      pop\n      pop\n      swap1\n      dup1\n      0x02\n      add\n      dup1\n      sload\n      tag_270\n      swap1\n      tag_214\n      jump\t// in\n    tag_270:\n      dup1\n      0x1f\n      add\n      0x20\n      dup1\n      swap2\n      div\n      mul\n      0x20\n      add\n      mload(0x40)\n      swap1\n      dup2\n      add\n      0x40\n      mstore\n      dup1\n      swap3\n      swap2\n      swap1\n      dup2\n      dup2\n      mstore\n      0x20\n      add\n      dup3\n      dup1\n      sload\n      tag_271\n      swap1\n      tag_214\n      jump\t// in\n    tag_271:\n      dup1\n      iszero\n      tag_272\n      jumpi\n      dup1\n      0x1f\n      lt\n      tag_273\n      jumpi\n      0x0100\n      dup1\n      dup4\n      sload\n      div\n      mul\n      dup4\n      mstore\n      swap2\n      0x20\n      add\n      swap2\n      jump(tag_272)\n    tag_273:\n      dup3\n      add\n      swap2\n      swap1\n      0x00\n      mstore\n      keccak256(0x00, 0x20)\n      swap1\n    tag_274:\n      dup2\n      sload\n      dup2\n      mstore\n      swap1\n      0x01\n      add\n      swap1\n      0x20\n      add\n      dup1\n      dup4\n      gt\n      tag_274\n      jumpi\n      dup3\n      swap1\n      sub\n      0x1f\n      and\n      dup3\n      add\n      swap2\n    tag_272:\n      pop\n      pop\n      pop\n      pop\n      pop\n      swap1\n      dup1\n      0x03\n      add\n      0x00\n      swap1\n      sload\n      swap1\n      0x0100\n      exp\n      swap1\n      div\n      0xff\n      and\n      swap1\n      dup1\n      0x03\n      add\n      0x01\n      swap1\n      sload\n      swap1\n      0x0100\n      exp\n      swap1\n      div\n      0xff\n      and\n      swap1\n      dup1\n      0x04\n      add\n      dup1\n      sload\n      tag_275\n      swap1\n      tag_214\n      jump\t// in\n    tag_275:\n      dup1\n      0x1f\n      add\n      0x20\n      dup1\n      swap2\n      div\n      mul\n      0x20\n      add\n      mload(0x40)\n      swap1\n      dup2\n      add\n      0x40\n      mstore\n      dup1\n      swap3\n      swap2\n      swap1\n      dup2\n      dup2\n      mstore\n      0x20\n      add\n      dup3\n      dup1\n      sload\n      tag_276\n      swap1\n      tag_214\n      jump\t// in\n    tag_276:\n      dup1\n      iszero\n      tag_277\n      jumpi\n      dup1\n      0x1f\n      lt\n      tag_278\n      jumpi\n      0x0100\n      dup1\n      dup4\n      sload\n      div\n      mul\n      dup4\n      mstore\n      swap2\n      0x20\n      add\n      swap2\n      jump(tag_277)\n    tag_278:\n      dup3\n      add\n      swap2\n      swap1\n      0x00\n      mstore\n      keccak256(0x00, 0x20)\n      swap1\n    tag_279:\n      dup2\n      sload\n      dup2\n      mstore\n      swap1\n      0x01\n      add\n      swap1\n      0x20\n      add\n      dup1\n      dup4\n      gt\n      tag_279\n      jumpi\n      dup3\n      swap1\n      sub\n      0x1f\n      and\n      dup3\n      add\n      swap2\n    tag_277:\n      pop\n      pop\n      pop\n      pop\n      pop\n      swap1\n      pop\n      dup7\n      jump\t// out\n        /* \"contracts/contract.sol\":11904:12031  function getVendorOrders() public view onlyVendor returns (uint256[] memory) {... */\n    tag_100:\n        /* \"contracts/contract.sol\":11963:11979  uint256[] memory */\n      0x60\n        /* \"contracts/contract.sol\":3379:3386  vendors */\n      0x02\n        /* \"contracts/contract.sol\":3379:3398  vendors[msg.sender] */\n      0x00\n        /* \"contracts/contract.sol\":3387:3397  msg.sender */\n      caller\n        /* \"contracts/contract.sol\":3379:3398  vendors[msg.sender] */\n      0xffffffffffffffffffffffffffffffffffffffff\n      and\n      0xffffffffffffffffffffffffffffffffffffffff\n      and\n      dup2\n      mstore\n      0x20\n      add\n      swap1\n      dup2\n      mstore\n      0x20\n      add\n      0x00\n      keccak256\n        /* \"contracts/contract.sol\":3379:3411  vendors[msg.sender].isRegistered */\n      0x03\n      add\n      0x00\n      swap1\n      sload\n      swap1\n      0x0100\n      exp\n      swap1\n      div\n      0xff\n      and\n        /* \"contracts/contract.sol\":3371:3462  require(vendors[msg.sender].isRegistered, \"Only registered vendors can call this function\") */\n      tag_281\n      jumpi\n      mload(0x40)\n      0x08c379a000000000000000000000000000000000000000000000000000000000\n      dup2\n      mstore\n      0x04\n      add\n      tag_282\n      swap1\n      tag_205\n      jump\t// in\n    tag_282:\n      mload(0x40)\n      dup1\n      swap2\n      sub\n      swap1\n      revert\n    tag_281:\n        /* \"contracts/contract.sol\":11999:12011  vendorOrders */\n      0x08\n        /* \"contracts/contract.sol\":11999:12023  vendorOrders[msg.sender] */\n      0x00\n        /* \"contracts/contract.sol\":12012:12022  msg.sender */\n      caller\n        /* \"contracts/contract.sol\":11999:12023  vendorOrders[msg.sender] */\n      0xffffffffffffffffffffffffffffffffffffffff\n      and\n      0xffffffffffffffffffffffffffffffffffffffff\n      and\n      dup2\n      mstore\n      0x20\n      add\n      swap1\n      dup2\n      mstore\n      0x20\n      add\n      0x00\n      keccak256\n        /* \"contracts/contract.sol\":11992:12023  return vendorOrders[msg.sender] */\n      dup1\n      sload\n      dup1\n      0x20\n      mul\n      0x20\n      add\n      mload(0x40)\n      swap1\n      dup2\n      add\n      0x40\n      mstore\n      dup1\n      swap3\n      swap2\n      swap1\n      dup2\n      dup2\n      mstore\n      0x20\n      add\n      dup3\n      dup1\n      sload\n      dup1\n      iszero\n      tag_284\n      jumpi\n      0x20\n      mul\n      dup3\n      add\n      swap2\n      swap1\n      0x00\n      mstore\n      keccak256(0x00, 0x20)\n      swap1\n    tag_285:\n      dup2\n      sload\n      dup2\n      mstore\n      0x20\n      add\n      swap1\n      0x01\n      add\n      swap1\n      dup1\n      dup4\n      gt\n      tag_285\n      jumpi\n    tag_284:\n      pop\n      pop\n      pop\n      pop\n      pop\n      swap1\n      pop\n        /* \"contracts/contract.sol\":11904:12031  function getVendorOrders() public view onlyVendor returns (uint256[] memory) {... */\n      swap1\n      jump\t// out\n        /* \"contracts/contract.sol\":12863:12980  function getContractBalance() public view onlyOwner returns (uint256) {... */\n    tag_104:\n        /* \"contracts/contract.sol\":12924:12931  uint256 */\n      0x00\n        /* \"contracts/contract.sol\":3263:3268  owner */\n      dup1\n      0x00\n      swap1\n      sload\n      swap1\n      0x0100\n      exp\n      swap1\n      div\n      0xffffffffffffffffffffffffffffffffffffffff\n      and\n        /* \"contracts/contract.sol\":3249:3268  msg.sender == owner */\n      0xffffffffffffffffffffffffffffffffffffffff\n      and\n        /* \"contracts/contract.sol\":3249:3259  msg.sender */\n      caller\n        /* \"contracts/contract.sol\":3249:3268  msg.sender == owner */\n      0xffffffffffffffffffffffffffffffffffffffff\n      and\n      eq\n        /* \"contracts/contract.sol\":3241:3306  require(msg.sender == owner, \"Only owner can call this function\") */\n      tag_287\n      jumpi\n      mload(0x40)\n      0x08c379a000000000000000000000000000000000000000000000000000000000\n      dup2\n      mstore\n      0x04\n      add\n      tag_288\n      swap1\n      tag_289\n      jump\t// in\n    tag_288:\n      mload(0x40)\n      dup1\n      swap2\n      sub\n      swap1\n      revert\n    tag_287:\n        /* \"contracts/contract.sol\":12951:12972  address(this).balance */\n      selfbalance\n        /* \"contracts/contract.sol\":12944:12972  return address(this).balance */\n      swap1\n      pop\n        /* \"contracts/contract.sol\":12863:12980  function getContractBalance() public view onlyOwner returns (uint256) {... */\n      swap1\n      jump\t// out\n        /* \"contracts/contract.sol\":1998:2046  mapping(string => address) public vendorsByEmail */\n    tag_109:\n      0x03\n      dup2\n      dup1\n      mload\n      0x20\n      dup2\n      add\n      dup3\n      add\n      dup1\n      mload\n      dup5\n      dup3\n      mstore\n      0x20\n      dup4\n      add\n      0x20\n      dup6\n      add\n      keccak256\n      dup2\n      dup4\n      mstore\n      dup1\n      swap6\n      pop\n      pop\n      pop\n      pop\n      pop\n      pop\n      0x00\n      swap2\n      pop\n      sload\n      swap1\n      0x0100\n      exp\n      swap1\n      div\n      0xffffffffffffffffffffffffffffffffffffffff\n      and\n      dup2\n      jump\t// out\n        /* \"contracts/contract.sol\":6154:7451  function placeOrder(address _vendorAddress, string memory _productIds) public payable {... */\n    tag_114:\n        /* \"contracts/contract.sol\":6259:6266  vendors */\n      0x02\n        /* \"contracts/contract.sol\":6259:6282  vendors[_vendorAddress] */\n      0x00\n        /* \"contracts/contract.sol\":6267:6281  _vendorAddress */\n      dup4\n        /* \"contracts/contract.sol\":6259:6282  vendors[_vendorAddress] */\n      0xffffffffffffffffffffffffffffffffffffffff\n      and\n      0xffffffffffffffffffffffffffffffffffffffff\n      and\n      dup2\n      mstore\n      0x20\n      add\n      swap1\n      dup2\n      mstore\n      0x20\n      add\n      0x00\n      keccak256\n        /* \"contracts/contract.sol\":6259:6295  vendors[_vendorAddress].isRegistered */\n      0x03\n      add\n      0x00\n      swap1\n      sload\n      swap1\n      0x0100\n      exp\n      swap1\n      div\n      0xff\n      and\n        /* \"contracts/contract.sol\":6251:6321  require(vendors[_vendorAddress].isRegistered, \"Vendor not registered\") */\n      tag_292\n      jumpi\n      mload(0x40)\n      0x08c379a000000000000000000000000000000000000000000000000000000000\n      dup2\n      mstore\n      0x04\n      add\n      tag_293\n      swap1\n      tag_294\n      jump\t// in\n    tag_293:\n      mload(0x40)\n      dup1\n      swap2\n      sub\n      swap1\n      revert\n    tag_292:\n        /* \"contracts/contract.sol\":6352:6353  0 */\n      0x00\n        /* \"contracts/contract.sol\":6340:6349  msg.value */\n      callvalue\n        /* \"contracts/contract.sol\":6340:6353  msg.value > 0 */\n      gt\n        /* \"contracts/contract.sol\":6332:6398  require(msg.value > 0, \"Payment amount must be greater than zero\") */\n      tag_295\n      jumpi\n      mload(0x40)\n      0x08c379a000000000000000000000000000000000000000000000000000000000\n      dup2\n      mstore\n      0x04\n      add\n      tag_296\n      swap1\n      tag_297\n      jump\t// in\n    tag_296:\n      mload(0x40)\n      dup1\n      swap2\n      sub\n      swap1\n      revert\n    tag_295:\n        /* \"contracts/contract.sol\":6450:6465  uint256 orderId */\n      0x00\n        /* \"contracts/contract.sol\":6468:6480  orderCounter */\n      0x09\n      0x00\n        /* \"contracts/contract.sol\":6468:6482  orderCounter++ */\n      dup2\n      sload\n      dup1\n      swap3\n      swap2\n      swap1\n      tag_298\n      swap1\n      tag_299\n      jump\t// in\n    tag_298:\n      swap2\n      swap1\n      pop\n      sstore\n        /* \"contracts/contract.sol\":6450:6482  uint256 orderId = orderCounter++ */\n      swap1\n      pop\n        /* \"contracts/contract.sol\":6493:6514  Order memory newOrder */\n      0x00\n        /* \"contracts/contract.sol\":6517:6842  Order({... */\n      mload(0x40)\n      dup1\n      0x0100\n      add\n      0x40\n      mstore\n      dup1\n        /* \"contracts/contract.sol\":6542:6549  orderId */\n      dup4\n        /* \"contracts/contract.sol\":6517:6842  Order({... */\n      dup2\n      mstore\n      0x20\n      add\n        /* \"contracts/contract.sol\":6574:6584  msg.sender */\n      caller\n        /* \"contracts/contract.sol\":6517:6842  Order({... */\n      0xffffffffffffffffffffffffffffffffffffffff\n      and\n      dup2\n      mstore\n      0x20\n      add\n        /* \"contracts/contract.sol\":6607:6621  _vendorAddress */\n      dup6\n        /* \"contracts/contract.sol\":6517:6842  Order({... */\n      0xffffffffffffffffffffffffffffffffffffffff\n      and\n      dup2\n      mstore\n      0x20\n      add\n        /* \"contracts/contract.sol\":6644:6653  msg.value */\n      callvalue\n        /* \"contracts/contract.sol\":6517:6842  Order({... */\n      dup2\n      mstore\n      0x20\n      add\n        /* \"contracts/contract.sol\":6680:6691  _productIds */\n      dup5\n        /* \"contracts/contract.sol\":6517:6842  Order({... */\n      dup2\n      mstore\n      0x20\n      add\n        /* \"contracts/contract.sol\":6714:6732  OrderStatus.Placed */\n      0x00\n        /* \"contracts/contract.sol\":6517:6842  Order({... */\n      0x05\n      dup2\n      gt\n      iszero\n      tag_300\n      jumpi\n      tag_301\n      tag_245\n      jump\t// in\n    tag_301:\n    tag_300:\n      dup2\n      mstore\n      0x20\n      add\n        /* \"contracts/contract.sol\":6758:6773  block.timestamp */\n      timestamp\n        /* \"contracts/contract.sol\":6517:6842  Order({... */\n      dup2\n      mstore\n      0x20\n      add\n        /* \"contracts/contract.sol\":6801:6808  vendors */\n      0x02\n        /* \"contracts/contract.sol\":6801:6824  vendors[_vendorAddress] */\n      0x00\n        /* \"contracts/contract.sol\":6809:6823  _vendorAddress */\n      dup8\n        /* \"contracts/contract.sol\":6801:6824  vendors[_vendorAddress] */\n      0xffffffffffffffffffffffffffffffffffffffff\n      and\n      0xffffffffffffffffffffffffffffffffffffffff\n      and\n      dup2\n      mstore\n      0x20\n      add\n      swap1\n      dup2\n      mstore\n      0x20\n      add\n      0x00\n      keccak256\n        /* \"contracts/contract.sol\":6801:6830  vendors[_vendorAddress].email */\n      0x01\n      add\n        /* \"contracts/contract.sol\":6517:6842  Order({... */\n      dup1\n      sload\n      tag_302\n      swap1\n      tag_214\n      jump\t// in\n    tag_302:\n      dup1\n      0x1f\n      add\n      0x20\n      dup1\n      swap2\n      div\n      mul\n      0x20\n      add\n      mload(0x40)\n      swap1\n      dup2\n      add\n      0x40\n      mstore\n      dup1\n      swap3\n      swap2\n      swap1\n      dup2\n      dup2\n      mstore\n      0x20\n      add\n      dup3\n      dup1\n      sload\n      tag_303\n      swap1\n      tag_214\n      jump\t// in\n    tag_303:\n      dup1\n      iszero\n      tag_304\n      jumpi\n      dup1\n      0x1f\n      lt\n      tag_305\n      jumpi\n      0x0100\n      dup1\n      dup4\n      sload\n      div\n      mul\n      dup4\n      mstore\n      swap2\n      0x20\n      add\n      swap2\n      jump(tag_304)\n    tag_305:\n      dup3\n      add\n      swap2\n      swap1\n      0x00\n      mstore\n      keccak256(0x00, 0x20)\n      swap1\n    tag_306:\n      dup2\n      sload\n      dup2\n      mstore\n      swap1\n      0x01\n      add\n      swap1\n      0x20\n      add\n      dup1\n      dup4\n      gt\n      tag_306\n      jumpi\n      dup3\n      swap1\n      sub\n      0x1f\n      and\n      dup3\n      add\n      swap2\n    tag_304:\n      pop\n      pop\n      pop\n      pop\n      pop\n      dup2\n      mstore\n      pop\n        /* \"contracts/contract.sol\":6493:6842  Order memory newOrder = Order({... */\n      swap1\n      pop\n        /* \"contracts/contract.sol\":6909:6917  newOrder */\n      dup1\n        /* \"contracts/contract.sol\":6891:6897  orders */\n      0x06\n        /* \"contracts/contract.sol\":6891:6906  orders[orderId] */\n      0x00\n        /* \"contracts/contract.sol\":6898:6905  orderId */\n      dup5\n        /* \"contracts/contract.sol\":6891:6906  orders[orderId] */\n      dup2\n      mstore\n      0x20\n      add\n      swap1\n      dup2\n      mstore\n      0x20\n      add\n      0x00\n      keccak256\n        /* \"contracts/contract.sol\":6891:6917  orders[orderId] = newOrder */\n      0x00\n      dup3\n      add\n      mload\n      dup2\n      0x00\n      add\n      sstore\n      0x20\n      dup3\n      add\n      mload\n      dup2\n      0x01\n      add\n      exp(0x0100, 0x00)\n      dup2\n      sload\n      dup2\n      0xffffffffffffffffffffffffffffffffffffffff\n      mul\n      not\n      and\n      swap1\n      dup4\n      0xffffffffffffffffffffffffffffffffffffffff\n      and\n      mul\n      or\n      swap1\n      sstore\n      pop\n      0x40\n      dup3\n      add\n      mload\n      dup2\n      0x02\n      add\n      exp(0x0100, 0x00)\n      dup2\n      sload\n      dup2\n      0xffffffffffffffffffffffffffffffffffffffff\n      mul\n      not\n      and\n      swap1\n      dup4\n      0xffffffffffffffffffffffffffffffffffffffff\n      and\n      mul\n      or\n      swap1\n      sstore\n      pop\n      0x60\n      dup3\n      add\n      mload\n      dup2\n      0x03\n      add\n      sstore\n      0x80\n      dup3\n      add\n      mload\n      dup2\n      0x04\n      add\n      swap1\n      dup2\n      tag_307\n      swap2\n      swap1\n      tag_192\n      jump\t// in\n    tag_307:\n      pop\n      0xa0\n      dup3\n      add\n      mload\n      dup2\n      0x05\n      add\n      exp(0x0100, 0x00)\n      dup2\n      sload\n      dup2\n      0xff\n      mul\n      not\n      and\n      swap1\n      dup4\n      0x05\n      dup2\n      gt\n      iszero\n      tag_308\n      jumpi\n      tag_309\n      tag_245\n      jump\t// in\n    tag_309:\n    tag_308:\n      mul\n      or\n      swap1\n      sstore\n      pop\n      0xc0\n      dup3\n      add\n      mload\n      dup2\n      0x06\n      add\n      sstore\n      0xe0\n      dup3\n      add\n      mload\n      dup2\n      0x07\n      add\n      swap1\n      dup2\n      tag_310\n      swap2\n      swap1\n      tag_192\n      jump\t// in\n    tag_310:\n      pop\n      swap1\n      pop\n      pop\n        /* \"contracts/contract.sol\":6989:7003  customerOrders */\n      0x07\n        /* \"contracts/contract.sol\":6989:7015  customerOrders[msg.sender] */\n      0x00\n        /* \"contracts/contract.sol\":7004:7014  msg.sender */\n      caller\n        /* \"contracts/contract.sol\":6989:7015  customerOrders[msg.sender] */\n      0xffffffffffffffffffffffffffffffffffffffff\n      and\n      0xffffffffffffffffffffffffffffffffffffffff\n      and\n      dup2\n      mstore\n      0x20\n      add\n      swap1\n      dup2\n      mstore\n      0x20\n      add\n      0x00\n      keccak256\n        /* \"contracts/contract.sol\":7021:7028  orderId */\n      dup3\n        /* \"contracts/contract.sol\":6989:7029  customerOrders[msg.sender].push(orderId) */\n      swap1\n      dup1\n      0x01\n      dup2\n      sload\n      add\n      dup1\n      dup3\n      sstore\n      dup1\n      swap2\n      pop\n      pop\n      0x01\n      swap1\n      sub\n      swap1\n      0x00\n      mstore\n      keccak256(0x00, 0x20)\n      add\n      0x00\n      swap1\n      swap2\n      swap1\n      swap2\n      swap1\n      swap2\n      pop\n      sstore\n        /* \"contracts/contract.sol\":7040:7052  vendorOrders */\n      0x08\n        /* \"contracts/contract.sol\":7040:7068  vendorOrders[_vendorAddress] */\n      0x00\n        /* \"contracts/contract.sol\":7053:7067  _vendorAddress */\n      dup6\n        /* \"contracts/contract.sol\":7040:7068  vendorOrders[_vendorAddress] */\n      0xffffffffffffffffffffffffffffffffffffffff\n      and\n      0xffffffffffffffffffffffffffffffffffffffff\n      and\n      dup2\n      mstore\n      0x20\n      add\n      swap1\n      dup2\n      mstore\n      0x20\n      add\n      0x00\n      keccak256\n        /* \"contracts/contract.sol\":7074:7081  orderId */\n      dup3\n        /* \"contracts/contract.sol\":7040:7082  vendorOrders[_vendorAddress].push(orderId) */\n      swap1\n      dup1\n      0x01\n      dup2\n      sload\n      add\n      dup1\n      dup3\n      sstore\n      dup1\n      swap2\n      pop\n      pop\n      0x01\n      swap1\n      sub\n      swap1\n      0x00\n      mstore\n      keccak256(0x00, 0x20)\n      add\n      0x00\n      swap1\n      swap2\n      swap1\n      swap2\n      swap1\n      swap2\n      pop\n      sstore\n        /* \"contracts/contract.sol\":7138:7157  uint256 platformFee */\n      0x00\n        /* \"contracts/contract.sol\":7192:7197  10000 */\n      0x2710\n        /* \"contracts/contract.sol\":7173:7188  platformFeeRate */\n      0x00\n      0x14\n      swap1\n      sload\n      swap1\n      0x0100\n      exp\n      swap1\n      div\n      0xffff\n      and\n        /* \"contracts/contract.sol\":7161:7188  msg.value * platformFeeRate */\n      0xffff\n      and\n        /* \"contracts/contract.sol\":7161:7170  msg.value */\n      callvalue\n        /* \"contracts/contract.sol\":7161:7188  msg.value * platformFeeRate */\n      tag_313\n      swap2\n      swap1\n      tag_314\n      jump\t// in\n    tag_313:\n        /* \"contracts/contract.sol\":7160:7197  (msg.value * platformFeeRate) / 10000 */\n      tag_315\n      swap2\n      swap1\n      tag_316\n      jump\t// in\n    tag_315:\n        /* \"contracts/contract.sol\":7138:7197  uint256 platformFee = (msg.value * platformFeeRate) / 10000 */\n      swap1\n      pop\n        /* \"contracts/contract.sol\":7208:7229  uint256 vendorPayment */\n      0x00\n        /* \"contracts/contract.sol\":7244:7255  platformFee */\n      dup2\n        /* \"contracts/contract.sol\":7232:7241  msg.value */\n      callvalue\n        /* \"contracts/contract.sol\":7232:7255  msg.value - platformFee */\n      tag_317\n      swap2\n      swap1\n      tag_318\n      jump\t// in\n    tag_317:\n        /* \"contracts/contract.sol\":7208:7255  uint256 vendorPayment = msg.value - platformFee */\n      swap1\n      pop\n        /* \"contracts/contract.sol\":7345:7358  vendorPayment */\n      dup1\n        /* \"contracts/contract.sol\":7310:7317  vendors */\n      0x02\n        /* \"contracts/contract.sol\":7310:7333  vendors[_vendorAddress] */\n      0x00\n        /* \"contracts/contract.sol\":7318:7332  _vendorAddress */\n      dup9\n        /* \"contracts/contract.sol\":7310:7333  vendors[_vendorAddress] */\n      0xffffffffffffffffffffffffffffffffffffffff\n      and\n      0xffffffffffffffffffffffffffffffffffffffff\n      and\n      dup2\n      mstore\n      0x20\n      add\n      swap1\n      dup2\n      mstore\n      0x20\n      add\n      0x00\n      keccak256\n        /* \"contracts/contract.sol\":7310:7341  vendors[_vendorAddress].balance */\n      0x04\n      add\n      0x00\n        /* \"contracts/contract.sol\":7310:7358  vendors[_vendorAddress].balance += vendorPayment */\n      dup3\n      dup3\n      sload\n      tag_319\n      swap2\n      swap1\n      tag_320\n      jump\t// in\n    tag_319:\n      swap3\n      pop\n      pop\n      dup2\n      swap1\n      sstore\n      pop\n        /* \"contracts/contract.sol\":7396:7403  orderId */\n      dup4\n        /* \"contracts/contract.sol\":7384:7443  OrderPlaced(orderId, msg.sender, _vendorAddress, msg.value) */\n      0xaf03488da094bc08f76858b3b2a0c36a13217c95790c77139137fc6e062ba9cd\n        /* \"contracts/contract.sol\":7405:7415  msg.sender */\n      caller\n        /* \"contracts/contract.sol\":7417:7431  _vendorAddress */\n      dup9\n        /* \"contracts/contract.sol\":7433:7442  msg.value */\n      callvalue\n        /* \"contracts/contract.sol\":7384:7443  OrderPlaced(orderId, msg.sender, _vendorAddress, msg.value) */\n      mload(0x40)\n      tag_321\n      swap4\n      swap3\n      swap2\n      swap1\n      tag_322\n      jump\t// in\n    tag_321:\n      mload(0x40)\n      dup1\n      swap2\n      sub\n      swap1\n      log2\n        /* \"contracts/contract.sol\":6240:7451  {... */\n      pop\n      pop\n      pop\n      pop\n        /* \"contracts/contract.sol\":6154:7451  function placeOrder(address _vendorAddress, string memory _productIds) public payable {... */\n      pop\n      pop\n      jump\t// out\n        /* \"contracts/contract.sol\":12690:12809  function updateMinimumWithdrawal(uint256 _amount) public onlyOwner {... */\n    tag_119:\n        /* \"contracts/contract.sol\":3263:3268  owner */\n      0x00\n      dup1\n      sload\n      swap1\n      0x0100\n      exp\n      swap1\n      div\n      0xffffffffffffffffffffffffffffffffffffffff\n      and\n        /* \"contracts/contract.sol\":3249:3268  msg.sender == owner */\n      0xffffffffffffffffffffffffffffffffffffffff\n      and\n        /* \"contracts/contract.sol\":3249:3259  msg.sender */\n      caller\n        /* \"contracts/contract.sol\":3249:3268  msg.sender == owner */\n      0xffffffffffffffffffffffffffffffffffffffff\n      and\n      eq\n        /* \"contracts/contract.sol\":3241:3306  require(msg.sender == owner, \"Only owner can call this function\") */\n      tag_324\n      jumpi\n      mload(0x40)\n      0x08c379a000000000000000000000000000000000000000000000000000000000\n      dup2\n      mstore\n      0x04\n      add\n      tag_325\n      swap1\n      tag_289\n      jump\t// in\n    tag_325:\n      mload(0x40)\n      dup1\n      swap2\n      sub\n      swap1\n      revert\n    tag_324:\n        /* \"contracts/contract.sol\":12794:12801  _amount */\n      dup1\n        /* \"contracts/contract.sol\":12768:12791  minimumWithdrawalAmount */\n      0x01\n        /* \"contracts/contract.sol\":12768:12801  minimumWithdrawalAmount = _amount */\n      dup2\n      swap1\n      sstore\n      pop\n        /* \"contracts/contract.sol\":12690:12809  function updateMinimumWithdrawal(uint256 _amount) public onlyOwner {... */\n      pop\n      jump\t// out\n        /* \"contracts/contract.sol\":10023:10564  function getVendorFullDetails(address _vendorAddress) public view returns (... */\n    tag_123:\n        /* \"contracts/contract.sol\":10108:10127  string memory email */\n      0x60\n        /* \"contracts/contract.sol\":10138:10156  string memory name */\n      dup1\n        /* \"contracts/contract.sol\":10167:10184  bool isRegistered */\n      0x00\n        /* \"contracts/contract.sol\":10195:10210  uint256 balance */\n      dup1\n        /* \"contracts/contract.sol\":10221:10244  string memory cryptoKey */\n      0x60\n        /* \"contracts/contract.sol\":10255:10278  string memory photoPath */\n      dup1\n        /* \"contracts/contract.sol\":10297:10318  Vendor storage vendor */\n      0x00\n        /* \"contracts/contract.sol\":10321:10328  vendors */\n      0x02\n        /* \"contracts/contract.sol\":10321:10344  vendors[_vendorAddress] */\n      0x00\n        /* \"contracts/contract.sol\":10329:10343  _vendorAddress */\n      dup10\n        /* \"contracts/contract.sol\":10321:10344  vendors[_vendorAddress] */\n      0xffffffffffffffffffffffffffffffffffffffff\n      and\n      0xffffffffffffffffffffffffffffffffffffffff\n      and\n      dup2\n      mstore\n      0x20\n      add\n      swap1\n      dup2\n      mstore\n      0x20\n      add\n      0x00\n      keccak256\n        /* \"contracts/contract.sol\":10297:10344  Vendor storage vendor = vendors[_vendorAddress] */\n      swap1\n      pop\n        /* \"contracts/contract.sol\":10377:10383  vendor */\n      dup1\n        /* \"contracts/contract.sol\":10377:10389  vendor.email */\n      0x01\n      add\n        /* \"contracts/contract.sol\":10405:10411  vendor */\n      dup2\n        /* \"contracts/contract.sol\":10405:10416  vendor.name */\n      0x02\n      add\n        /* \"contracts/contract.sol\":10432:10438  vendor */\n      dup3\n        /* \"contracts/contract.sol\":10432:10451  vendor.isRegistered */\n      0x03\n      add\n      0x00\n      swap1\n      sload\n      swap1\n      0x0100\n      exp\n      swap1\n      div\n      0xff\n      and\n        /* \"contracts/contract.sol\":10467:10473  vendor */\n      dup4\n        /* \"contracts/contract.sol\":10467:10481  vendor.balance */\n      0x04\n      add\n      sload\n        /* \"contracts/contract.sol\":10497:10503  vendor */\n      dup5\n        /* \"contracts/contract.sol\":10497:10513  vendor.cryptoKey */\n      0x05\n      add\n        /* \"contracts/contract.sol\":10529:10535  vendor */\n      dup6\n        /* \"contracts/contract.sol\":10529:10545  vendor.photoPath */\n      0x06\n      add\n        /* \"contracts/contract.sol\":10355:10556  return (... */\n      dup6\n      dup1\n      sload\n      tag_328\n      swap1\n      tag_214\n      jump\t// in\n    tag_328:\n      dup1\n      0x1f\n      add\n      0x20\n      dup1\n      swap2\n      div\n      mul\n      0x20\n      add\n      mload(0x40)\n      swap1\n      dup2\n      add\n      0x40\n      mstore\n      dup1\n      swap3\n      swap2\n      swap1\n      dup2\n      dup2\n      mstore\n      0x20\n      add\n      dup3\n      dup1\n      sload\n      tag_329\n      swap1\n      tag_214\n      jump\t// in\n    tag_329:\n      dup1\n      iszero\n      tag_330\n      jumpi\n      dup1\n      0x1f\n      lt\n      tag_331\n      jumpi\n      0x0100\n      dup1\n      dup4\n      sload\n      div\n      mul\n      dup4\n      mstore\n      swap2\n      0x20\n      add\n      swap2\n      jump(tag_330)\n    tag_331:\n      dup3\n      add\n      swap2\n      swap1\n      0x00\n      mstore\n      keccak256(0x00, 0x20)\n      swap1\n    tag_332:\n      dup2\n      sload\n      dup2\n      mstore\n      swap1\n      0x01\n      add\n      swap1\n      0x20\n      add\n      dup1\n      dup4\n      gt\n      tag_332\n      jumpi\n      dup3\n      swap1\n      sub\n      0x1f\n      and\n      dup3\n      add\n      swap2\n    tag_330:\n      pop\n      pop\n      pop\n      pop\n      pop\n      swap6\n      pop\n      dup5\n      dup1\n      sload\n      tag_333\n      swap1\n      tag_214\n      jump\t// in\n    tag_333:\n      dup1\n      0x1f\n      add\n      0x20\n      dup1\n      swap2\n      div\n      mul\n      0x20\n      add\n      mload(0x40)\n      swap1\n      dup2\n      add\n      0x40\n      mstore\n      dup1\n      swap3\n      swap2\n      swap1\n      dup2\n      dup2\n      mstore\n      0x20\n      add\n      dup3\n      dup1\n      sload\n      tag_334\n      swap1\n      tag_214\n      jump\t// in\n    tag_334:\n      dup1\n      iszero\n      tag_335\n      jumpi\n      dup1\n      0x1f\n      lt\n      tag_336\n      jumpi\n      0x0100\n      dup1\n      dup4\n      sload\n      div\n      mul\n      dup4\n      mstore\n      swap2\n      0x20\n      add\n      swap2\n      jump(tag_335)\n    tag_336:\n      dup3\n      add\n      swap2\n      swap1\n      0x00\n      mstore\n      keccak256(0x00, 0x20)\n      swap1\n    tag_337:\n      dup2\n      sload\n      dup2\n      mstore\n      swap1\n      0x01\n      add\n      swap1\n      0x20\n      add\n      dup1\n      dup4\n      gt\n      tag_337\n      jumpi\n      dup3\n      swap1\n      sub\n      0x1f\n      and\n      dup3\n      add\n      swap2\n    tag_335:\n      pop\n      pop\n      pop\n      pop\n      pop\n      swap5\n      pop\n      dup2\n      dup1\n      sload\n      tag_338\n      swap1\n      tag_214\n      jump\t// in\n    tag_338:\n      dup1\n      0x1f\n      add\n      0x20\n      dup1\n      swap2\n      div\n      mul\n      0x20\n      add\n      mload(0x40)\n      swap1\n      dup2\n      add\n      0x40\n      mstore\n      dup1\n      swap3\n      swap2\n      swap1\n      dup2\n      dup2\n      mstore\n      0x20\n      add\n      dup3\n      dup1\n      sload\n      tag_339\n      swap1\n      tag_214\n      jump\t// in\n    tag_339:\n      dup1\n      iszero\n      tag_340\n      jumpi\n      dup1\n      0x1f\n      lt\n      tag_341\n      jumpi\n      0x0100\n      dup1\n      dup4\n      sload\n      div\n      mul\n      dup4\n      mstore\n      swap2\n      0x20\n      add\n      swap2\n      jump(tag_340)\n    tag_341:\n      dup3\n      add\n      swap2\n      swap1\n      0x00\n      mstore\n      keccak256(0x00, 0x20)\n      swap1\n    tag_342:\n      dup2\n      sload\n      dup2\n      mstore\n      swap1\n      0x01\n      add\n      swap1\n      0x20\n      add\n      dup1\n      dup4\n      gt\n      tag_342\n      jumpi\n      dup3\n      swap1\n      sub\n      0x1f\n      and\n      dup3\n      add\n      swap2\n    tag_340:\n      pop\n      pop\n      pop\n      pop\n      pop\n      swap2\n      pop\n      dup1\n      dup1\n      sload\n      tag_343\n      swap1\n      tag_214\n      jump\t// in\n    tag_343:\n      dup1\n      0x1f\n      add\n      0x20\n      dup1\n      swap2\n      div\n      mul\n      0x20\n      add\n      mload(0x40)\n      swap1\n      dup2\n      add\n      0x40\n      mstore\n      dup1\n      swap3\n      swap2\n      swap1\n      dup2\n      dup2\n      mstore\n      0x20\n      add\n      dup3\n      dup1\n      sload\n      tag_344\n      swap1\n      tag_214\n      jump\t// in\n    tag_344:\n      dup1\n      iszero\n      tag_345\n      jumpi\n      dup1\n      0x1f\n      lt\n      tag_346\n      jumpi\n      0x0100\n      dup1\n      dup4\n      sload\n      div\n      mul\n      dup4\n      mstore\n      swap2\n      0x20\n      add\n      swap2\n      jump(tag_345)\n    tag_346:\n      dup3\n      add\n      swap2\n      swap1\n      0x00\n      mstore\n      keccak256(0x00, 0x20)\n      swap1\n    tag_347:\n      dup2\n      sload\n      dup2\n      mstore\n      swap1\n      0x01\n      add\n      swap1\n      0x20\n      add\n      dup1\n      dup4\n      gt\n      tag_347\n      jumpi\n      dup3\n      swap1\n      sub\n      0x1f\n      and\n      dup3\n      add\n      swap2\n    tag_345:\n      pop\n      pop\n      pop\n      pop\n      pop\n      swap1\n      pop\n      swap7\n      pop\n      swap7\n      pop\n      swap7\n      pop\n      swap7\n      pop\n      swap7\n      pop\n      swap7\n      pop\n      pop\n        /* \"contracts/contract.sol\":10023:10564  function getVendorFullDetails(address _vendorAddress) public view returns (... */\n      swap2\n      swap4\n      swap6\n      pop\n      swap2\n      swap4\n      swap6\n      jump\t// out\n        /* \"contracts/contract.sol\":12276:12395  function isClient(address _address) public view returns (bool) {... */\n    tag_129:\n        /* \"contracts/contract.sol\":12333:12337  bool */\n      0x00\n        /* \"contracts/contract.sol\":12357:12364  clients */\n      0x04\n        /* \"contracts/contract.sol\":12357:12374  clients[_address] */\n      0x00\n        /* \"contracts/contract.sol\":12365:12373  _address */\n      dup4\n        /* \"contracts/contract.sol\":12357:12374  clients[_address] */\n      0xffffffffffffffffffffffffffffffffffffffff\n      and\n      0xffffffffffffffffffffffffffffffffffffffff\n      and\n      dup2\n      mstore\n      0x20\n      add\n      swap1\n      dup2\n      mstore\n      0x20\n      add\n      0x00\n      keccak256\n        /* \"contracts/contract.sol\":12357:12387  clients[_address].isRegistered */\n      0x03\n      add\n      0x00\n      swap1\n      sload\n      swap1\n      0x0100\n      exp\n      swap1\n      div\n      0xff\n      and\n        /* \"contracts/contract.sol\":12350:12387  return clients[_address].isRegistered */\n      swap1\n      pop\n        /* \"contracts/contract.sol\":12276:12395  function isClient(address _address) public view returns (bool) {... */\n      swap2\n      swap1\n      pop\n      jump\t// out\n        /* \"contracts/contract.sol\":3822:4581  function registerVendor(string memory _email, string memory _name, string memory _cryptoKey) public {... */\n    tag_136:\n        /* \"contracts/contract.sol\":3942:3949  vendors */\n      0x02\n        /* \"contracts/contract.sol\":3942:3961  vendors[msg.sender] */\n      0x00\n        /* \"contracts/contract.sol\":3950:3960  msg.sender */\n      caller\n        /* \"contracts/contract.sol\":3942:3961  vendors[msg.sender] */\n      0xffffffffffffffffffffffffffffffffffffffff\n      and\n      0xffffffffffffffffffffffffffffffffffffffff\n      and\n      dup2\n      mstore\n      0x20\n      add\n      swap1\n      dup2\n      mstore\n      0x20\n      add\n      0x00\n      keccak256\n        /* \"contracts/contract.sol\":3942:3974  vendors[msg.sender].isRegistered */\n      0x03\n      add\n      0x00\n      swap1\n      sload\n      swap1\n      0x0100\n      exp\n      swap1\n      div\n      0xff\n      and\n        /* \"contracts/contract.sol\":3941:3974  !vendors[msg.sender].isRegistered */\n      iszero\n        /* \"contracts/contract.sol\":3933:4004  require(!vendors[msg.sender].isRegistered, \"Vendor already registered\") */\n      tag_350\n      jumpi\n      mload(0x40)\n      0x08c379a000000000000000000000000000000000000000000000000000000000\n      dup2\n      mstore\n      0x04\n      add\n      tag_351\n      swap1\n      tag_352\n      jump\t// in\n    tag_351:\n      mload(0x40)\n      dup1\n      swap2\n      sub\n      swap1\n      revert\n    tag_350:\n        /* \"contracts/contract.sol\":4057:4058  0 */\n      0x00\n        /* \"contracts/contract.sol\":4023:4059  vendorsByEmail[_email] == address(0) */\n      0xffffffffffffffffffffffffffffffffffffffff\n      and\n        /* \"contracts/contract.sol\":4023:4037  vendorsByEmail */\n      0x03\n        /* \"contracts/contract.sol\":4038:4044  _email */\n      dup5\n        /* \"contracts/contract.sol\":4023:4045  vendorsByEmail[_email] */\n      mload(0x40)\n      tag_353\n      swap2\n      swap1\n      tag_239\n      jump\t// in\n    tag_353:\n      swap1\n      dup2\n      mstore\n      0x20\n      add\n      mload(0x40)\n      dup1\n      swap2\n      sub\n      swap1\n      keccak256\n      0x00\n      swap1\n      sload\n      swap1\n      0x0100\n      exp\n      swap1\n      div\n      0xffffffffffffffffffffffffffffffffffffffff\n      and\n        /* \"contracts/contract.sol\":4023:4059  vendorsByEmail[_email] == address(0) */\n      0xffffffffffffffffffffffffffffffffffffffff\n      and\n      eq\n        /* \"contracts/contract.sol\":4015:4088  require(vendorsByEmail[_email] == address(0), \"Email already registered\") */\n      tag_354\n      jumpi\n      mload(0x40)\n      0x08c379a000000000000000000000000000000000000000000000000000000000\n      dup2\n      mstore\n      0x04\n      add\n      tag_355\n      swap1\n      tag_242\n      jump\t// in\n    tag_355:\n      mload(0x40)\n      dup1\n      swap2\n      sub\n      swap1\n      revert\n    tag_354:\n        /* \"contracts/contract.sol\":4164:4408  Vendor({... */\n      mload(0x40)\n      dup1\n      0xe0\n      add\n      0x40\n      mstore\n      dup1\n        /* \"contracts/contract.sol\":4209:4219  msg.sender */\n      caller\n        /* \"contracts/contract.sol\":4164:4408  Vendor({... */\n      0xffffffffffffffffffffffffffffffffffffffff\n      and\n      dup2\n      mstore\n      0x20\n      add\n        /* \"contracts/contract.sol\":4242:4248  _email */\n      dup5\n        /* \"contracts/contract.sol\":4164:4408  Vendor({... */\n      dup2\n      mstore\n      0x20\n      add\n        /* \"contracts/contract.sol\":4269:4274  _name */\n      dup4\n        /* \"contracts/contract.sol\":4164:4408  Vendor({... */\n      dup2\n      mstore\n      0x20\n      add\n        /* \"contracts/contract.sol\":4303:4307  true */\n      0x01\n        /* \"contracts/contract.sol\":4164:4408  Vendor({... */\n      iszero\n      iszero\n      dup2\n      mstore\n      0x20\n      add\n        /* \"contracts/contract.sol\":4331:4332  0 */\n      0x00\n        /* \"contracts/contract.sol\":4164:4408  Vendor({... */\n      dup2\n      mstore\n      0x20\n      add\n        /* \"contracts/contract.sol\":4358:4368  _cryptoKey */\n      dup3\n        /* \"contracts/contract.sol\":4164:4408  Vendor({... */\n      dup2\n      mstore\n      0x20\n      add\n      mload(0x40)\n      dup1\n      0x20\n      add\n      0x40\n      mstore\n      dup1\n      0x00\n      dup2\n      mstore\n      pop\n      dup2\n      mstore\n      pop\n        /* \"contracts/contract.sol\":4142:4149  vendors */\n      0x02\n        /* \"contracts/contract.sol\":4142:4161  vendors[msg.sender] */\n      0x00\n        /* \"contracts/contract.sol\":4150:4160  msg.sender */\n      caller\n        /* \"contracts/contract.sol\":4142:4161  vendors[msg.sender] */\n      0xffffffffffffffffffffffffffffffffffffffff\n      and\n      0xffffffffffffffffffffffffffffffffffffffff\n      and\n      dup2\n      mstore\n      0x20\n      add\n      swap1\n      dup2\n      mstore\n      0x20\n      add\n      0x00\n      keccak256\n        /* \"contracts/contract.sol\":4142:4408  vendors[msg.sender] = Vendor({... */\n      0x00\n      dup3\n      add\n      mload\n      dup2\n      0x00\n      add\n      exp(0x0100, 0x00)\n      dup2\n      sload\n      dup2\n      0xffffffffffffffffffffffffffffffffffffffff\n      mul\n      not\n      and\n      swap1\n      dup4\n      0xffffffffffffffffffffffffffffffffffffffff\n      and\n      mul\n      or\n      swap1\n      sstore\n      pop\n      0x20\n      dup3\n      add\n      mload\n      dup2\n      0x01\n      add\n      swap1\n      dup2\n      tag_356\n      swap2\n      swap1\n      tag_192\n      jump\t// in\n    tag_356:\n      pop\n      0x40\n      dup3\n      add\n      mload\n      dup2\n      0x02\n      add\n      swap1\n      dup2\n      tag_357\n      swap2\n      swap1\n      tag_192\n      jump\t// in\n    tag_357:\n      pop\n      0x60\n      dup3\n      add\n      mload\n      dup2\n      0x03\n      add\n      exp(0x0100, 0x00)\n      dup2\n      sload\n      dup2\n      0xff\n      mul\n      not\n      and\n      swap1\n      dup4\n      iszero\n      iszero\n      mul\n      or\n      swap1\n      sstore\n      pop\n      0x80\n      dup3\n      add\n      mload\n      dup2\n      0x04\n      add\n      sstore\n      0xa0\n      dup3\n      add\n      mload\n      dup2\n      0x05\n      add\n      swap1\n      dup2\n      tag_358\n      swap2\n      swap1\n      tag_192\n      jump\t// in\n    tag_358:\n      pop\n      0xc0\n      dup3\n      add\n      mload\n      dup2\n      0x06\n      add\n      swap1\n      dup2\n      tag_359\n      swap2\n      swap1\n      tag_192\n      jump\t// in\n    tag_359:\n      pop\n      swap1\n      pop\n      pop\n        /* \"contracts/contract.sol\":4494:4504  msg.sender */\n      caller\n        /* \"contracts/contract.sol\":4469:4483  vendorsByEmail */\n      0x03\n        /* \"contracts/contract.sol\":4484:4490  _email */\n      dup5\n        /* \"contracts/contract.sol\":4469:4491  vendorsByEmail[_email] */\n      mload(0x40)\n      tag_360\n      swap2\n      swap1\n      tag_239\n      jump\t// in\n    tag_360:\n      swap1\n      dup2\n      mstore\n      0x20\n      add\n      mload(0x40)\n      dup1\n      swap2\n      sub\n      swap1\n      keccak256\n      0x00\n        /* \"contracts/contract.sol\":4469:4504  vendorsByEmail[_email] = msg.sender */\n      0x0100\n      exp\n      dup2\n      sload\n      dup2\n      0xffffffffffffffffffffffffffffffffffffffff\n      mul\n      not\n      and\n      swap1\n      dup4\n      0xffffffffffffffffffffffffffffffffffffffff\n      and\n      mul\n      or\n      swap1\n      sstore\n      pop\n        /* \"contracts/contract.sol\":4547:4557  msg.sender */\n      caller\n        /* \"contracts/contract.sol\":4530:4573  VendorRegistered(msg.sender, _email, _name) */\n      0xffffffffffffffffffffffffffffffffffffffff\n      and\n      0x6a8800d7464c3933e9f1241684cbae034394a3a73e84fa164a882037ffbe2aea\n        /* \"contracts/contract.sol\":4559:4565  _email */\n      dup5\n        /* \"contracts/contract.sol\":4567:4572  _name */\n      dup5\n        /* \"contracts/contract.sol\":4530:4573  VendorRegistered(msg.sender, _email, _name) */\n      mload(0x40)\n      tag_361\n      swap3\n      swap2\n      swap1\n      tag_362\n      jump\t// in\n    tag_361:\n      mload(0x40)\n      dup1\n      swap2\n      sub\n      swap1\n      log2\n        /* \"contracts/contract.sol\":3822:4581  function registerVendor(string memory _email, string memory _name, string memory _cryptoKey) public {... */\n      pop\n      pop\n      pop\n      jump\t// out\n        /* \"contracts/contract.sol\":10603:11065  function getClientDetails(address _clientAddress) public view returns (... */\n    tag_140:\n        /* \"contracts/contract.sol\":10684:10703  string memory email */\n      0x60\n        /* \"contracts/contract.sol\":10714:10732  string memory name */\n      dup1\n        /* \"contracts/contract.sol\":10743:10760  bool isRegistered */\n      0x00\n        /* \"contracts/contract.sol\":10771:10784  UserRole role */\n      dup1\n        /* \"contracts/contract.sol\":10795:10818  string memory photoPath */\n      0x60\n        /* \"contracts/contract.sol\":10837:10858  Client storage client */\n      0x00\n        /* \"contracts/contract.sol\":10861:10868  clients */\n      0x04\n        /* \"contracts/contract.sol\":10861:10884  clients[_clientAddress] */\n      0x00\n        /* \"contracts/contract.sol\":10869:10883  _clientAddress */\n      dup9\n        /* \"contracts/contract.sol\":10861:10884  clients[_clientAddress] */\n      0xffffffffffffffffffffffffffffffffffffffff\n      and\n      0xffffffffffffffffffffffffffffffffffffffff\n      and\n      dup2\n      mstore\n      0x20\n      add\n      swap1\n      dup2\n      mstore\n      0x20\n      add\n      0x00\n      keccak256\n        /* \"contracts/contract.sol\":10837:10884  Client storage client = clients[_clientAddress] */\n      swap1\n      pop\n        /* \"contracts/contract.sol\":10917:10923  client */\n      dup1\n        /* \"contracts/contract.sol\":10917:10929  client.email */\n      0x01\n      add\n        /* \"contracts/contract.sol\":10944:10950  client */\n      dup2\n        /* \"contracts/contract.sol\":10944:10955  client.name */\n      0x02\n      add\n        /* \"contracts/contract.sol\":10970:10976  client */\n      dup3\n        /* \"contracts/contract.sol\":10970:10989  client.isRegistered */\n      0x03\n      add\n      0x00\n      swap1\n      sload\n      swap1\n      0x0100\n      exp\n      swap1\n      div\n      0xff\n      and\n        /* \"contracts/contract.sol\":11004:11010  client */\n      dup4\n        /* \"contracts/contract.sol\":11004:11015  client.role */\n      0x03\n      add\n      0x01\n      swap1\n      sload\n      swap1\n      0x0100\n      exp\n      swap1\n      div\n      0xff\n      and\n        /* \"contracts/contract.sol\":11030:11036  client */\n      dup5\n        /* \"contracts/contract.sol\":11030:11046  client.photoPath */\n      0x04\n      add\n        /* \"contracts/contract.sol\":10895:11057  return (... */\n      dup5\n      dup1\n      sload\n      tag_364\n      swap1\n      tag_214\n      jump\t// in\n    tag_364:\n      dup1\n      0x1f\n      add\n      0x20\n      dup1\n      swap2\n      div\n      mul\n      0x20\n      add\n      mload(0x40)\n      swap1\n      dup2\n      add\n      0x40\n      mstore\n      dup1\n      swap3\n      swap2\n      swap1\n      dup2\n      dup2\n      mstore\n      0x20\n      add\n      dup3\n      dup1\n      sload\n      tag_365\n      swap1\n      tag_214\n      jump\t// in\n    tag_365:\n      dup1\n      iszero\n      tag_366\n      jumpi\n      dup1\n      0x1f\n      lt\n      tag_367\n      jumpi\n      0x0100\n      dup1\n      dup4\n      sload\n      div\n      mul\n      dup4\n      mstore\n      swap2\n      0x20\n      add\n      swap2\n      jump(tag_366)\n    tag_367:\n      dup3\n      add\n      swap2\n      swap1\n      0x00\n      mstore\n      keccak256(0x00, 0x20)\n      swap1\n    tag_368:\n      dup2\n      sload\n      dup2\n      mstore\n      swap1\n      0x01\n      add\n      swap1\n      0x20\n      add\n      dup1\n      dup4\n      gt\n      tag_368\n      jumpi\n      dup3\n      swap1\n      sub\n      0x1f\n      and\n      dup3\n      add\n      swap2\n    tag_366:\n      pop\n      pop\n      pop\n      pop\n      pop\n      swap5\n      pop\n      dup4\n      dup1\n      sload\n      tag_369\n      swap1\n      tag_214\n      jump\t// in\n    tag_369:\n      dup1\n      0x1f\n      add\n      0x20\n      dup1\n      swap2\n      div\n      mul\n      0x20\n      add\n      mload(0x40)\n      swap1\n      dup2\n      add\n      0x40\n      mstore\n      dup1\n      swap3\n      swap2\n      swap1\n      dup2\n      dup2\n      mstore\n      0x20\n      add\n      dup3\n      dup1\n      sload\n      tag_370\n      swap1\n      tag_214\n      jump\t// in\n    tag_370:\n      dup1\n      iszero\n      tag_371\n      jumpi\n      dup1\n      0x1f\n      lt\n      tag_372\n      jumpi\n      0x0100\n      dup1\n      dup4\n      sload\n      div\n      mul\n      dup4\n      mstore\n      swap2\n      0x20\n      add\n      swap2\n      jump(tag_371)\n    tag_372:\n      dup3\n      add\n      swap2\n      swap1\n      0x00\n      mstore\n      keccak256(0x00, 0x20)\n      swap1\n    tag_373:\n      dup2\n      sload\n      dup2\n      mstore\n      swap1\n      0x01\n      add\n      swap1\n      0x20\n      add\n      dup1\n      dup4\n      gt\n      tag_373\n      jumpi\n      dup3\n      swap1\n      sub\n      0x1f\n      and\n      dup3\n      add\n      swap2\n    tag_371:\n      pop\n      pop\n      pop\n      pop\n      pop\n      swap4\n      pop\n      dup1\n      dup1\n      sload\n      tag_374\n      swap1\n      tag_214\n      jump\t// in\n    tag_374:\n      dup1\n      0x1f\n      add\n      0x20\n      dup1\n      swap2\n      div\n      mul\n      0x20\n      add\n      mload(0x40)\n      swap1\n      dup2\n      add\n      0x40\n      mstore\n      dup1\n      swap3\n      swap2\n      swap1\n      dup2\n      dup2\n      mstore\n      0x20\n      add\n      dup3\n      dup1\n      sload\n      tag_375\n      swap1\n      tag_214\n      jump\t// in\n    tag_375:\n      dup1\n      iszero\n      tag_376\n      jumpi\n      dup1\n      0x1f\n      lt\n      tag_377\n      jumpi\n      0x0100\n      dup1\n      dup4\n      sload\n      div\n      mul\n      dup4\n      mstore\n      swap2\n      0x20\n      add\n      swap2\n      jump(tag_376)\n    tag_377:\n      dup3\n      add\n      swap2\n      swap1\n      0x00\n      mstore\n      keccak256(0x00, 0x20)\n      swap1\n    tag_378:\n      dup2\n      sload\n      dup2\n      mstore\n      swap1\n      0x01\n      add\n      swap1\n      0x20\n      add\n      dup1\n      dup4\n      gt\n      tag_378\n      jumpi\n      dup3\n      swap1\n      sub\n      0x1f\n      and\n      dup3\n      add\n      swap2\n    tag_376:\n      pop\n      pop\n      pop\n      pop\n      pop\n      swap1\n      pop\n      swap6\n      pop\n      swap6\n      pop\n      swap6\n      pop\n      swap6\n      pop\n      swap6\n      pop\n      pop\n        /* \"contracts/contract.sol\":10603:11065  function getClientDetails(address _clientAddress) public view returns (... */\n      swap2\n      swap4\n      swap6\n      swap1\n      swap3\n      swap5\n      pop\n      jump\t// out\n        /* \"contracts/contract.sol\":324:344  address public owner */\n    tag_145:\n      0x00\n      dup1\n      sload\n      swap1\n      0x0100\n      exp\n      swap1\n      div\n      0xffffffffffffffffffffffffffffffffffffffff\n      and\n      dup2\n      jump\t// out\n        /* \"contracts/contract.sol\":2319:2358  mapping(uint256 => Order) public orders */\n    tag_150:\n      mstore(0x20, 0x06)\n      dup1\n      0x00\n      mstore\n      keccak256(0x00, 0x40)\n      0x00\n      swap2\n      pop\n      swap1\n      pop\n      dup1\n      0x00\n      add\n      sload\n      swap1\n      dup1\n      0x01\n      add\n      0x00\n      swap1\n      sload\n      swap1\n      0x0100\n      exp\n      swap1\n      div\n      0xffffffffffffffffffffffffffffffffffffffff\n      and\n      swap1\n      dup1\n      0x02\n      add\n      0x00\n      swap1\n      sload\n      swap1\n      0x0100\n      exp\n      swap1\n      div\n      0xffffffffffffffffffffffffffffffffffffffff\n      and\n      swap1\n      dup1\n      0x03\n      add\n      sload\n      swap1\n      dup1\n      0x04\n      add\n      dup1\n      sload\n      tag_379\n      swap1\n      tag_214\n      jump\t// in\n    tag_379:\n      dup1\n      0x1f\n      add\n      0x20\n      dup1\n      swap2\n      div\n      mul\n      0x20\n      add\n      mload(0x40)\n      swap1\n      dup2\n      add\n      0x40\n      mstore\n      dup1\n      swap3\n      swap2\n      swap1\n      dup2\n      dup2\n      mstore\n      0x20\n      add\n      dup3\n      dup1\n      sload\n      tag_380\n      swap1\n      tag_214\n      jump\t// in\n    tag_380:\n      dup1\n      iszero\n      tag_381\n      jumpi\n      dup1\n      0x1f\n      lt\n      tag_382\n      jumpi\n      0x0100\n      dup1\n      dup4\n      sload\n      div\n      mul\n      dup4\n      mstore\n      swap2\n      0x20\n      add\n      swap2\n      jump(tag_381)\n    tag_382:\n      dup3\n      add\n      swap2\n      swap1\n      0x00\n      mstore\n      keccak256(0x00, 0x20)\n      swap1\n    tag_383:\n      dup2\n      sload\n      dup2\n      mstore\n      swap1\n      0x01\n      add\n      swap1\n      0x20\n      add\n      dup1\n      dup4\n      gt\n      tag_383\n      jumpi\n      dup3\n      swap1\n      sub\n      0x1f\n      and\n      dup3\n      add\n      swap2\n    tag_381:\n      pop\n      pop\n      pop\n      pop\n      pop\n      swap1\n      dup1\n      0x05\n      add\n      0x00\n      swap1\n      sload\n      swap1\n      0x0100\n      exp\n      swap1\n      div\n      0xff\n      and\n      swap1\n      dup1\n      0x06\n      add\n      sload\n      swap1\n      dup1\n      0x07\n      add\n      dup1\n      sload\n      tag_384\n      swap1\n      tag_214\n      jump\t// in\n    tag_384:\n      dup1\n      0x1f\n      add\n      0x20\n      dup1\n      swap2\n      div\n      mul\n      0x20\n      add\n      mload(0x40)\n      swap1\n      dup2\n      add\n      0x40\n      mstore\n      dup1\n      swap3\n      swap2\n      swap1\n      dup2\n      dup2\n      mstore\n      0x20\n      add\n      dup3\n      dup1\n      sload\n      tag_385\n      swap1\n      tag_214\n      jump\t// in\n    tag_385:\n      dup1\n      iszero\n      tag_386\n      jumpi\n      dup1\n      0x1f\n      lt\n      tag_387\n      jumpi\n      0x0100\n      dup1\n      dup4\n      sload\n      div\n      mul\n      dup4\n      mstore\n      swap2\n      0x20\n      add\n      swap2\n      jump(tag_386)\n    tag_387:\n      dup3\n      add\n      swap2\n      swap1\n      0x00\n      mstore\n      keccak256(0x00, 0x20)\n      swap1\n    tag_388:\n      dup2\n      sload\n      dup2\n      mstore\n      swap1\n      0x01\n      add\n      swap1\n      0x20\n      add\n      dup1\n      dup4\n      gt\n      tag_388\n      jumpi\n      dup3\n      swap1\n      sub\n      0x1f\n      and\n      dup3\n      add\n      swap2\n    tag_386:\n      pop\n      pop\n      pop\n      pop\n      pop\n      swap1\n      pop\n      dup9\n      jump\t// out\n        /* \"contracts/contract.sol\":7508:8470  function updateOrderStatus(uint256 _orderId, OrderStatus _status) public orderExists(_orderId) {... */\n    tag_157:\n        /* \"contracts/contract.sol\":7593:7601  _orderId */\n      dup2\n        /* \"contracts/contract.sol\":3727:3735  _orderId */\n      dup1\n        /* \"contracts/contract.sol\":3704:3710  orders */\n      0x06\n        /* \"contracts/contract.sol\":3704:3720  orders[_orderId] */\n      0x00\n        /* \"contracts/contract.sol\":3711:3719  _orderId */\n      dup4\n        /* \"contracts/contract.sol\":3704:3720  orders[_orderId] */\n      dup2\n      mstore\n      0x20\n      add\n      swap1\n      dup2\n      mstore\n      0x20\n      add\n      0x00\n      keccak256\n        /* \"contracts/contract.sol\":3704:3723  orders[_orderId].id */\n      0x00\n      add\n      sload\n        /* \"contracts/contract.sol\":3704:3735  orders[_orderId].id == _orderId */\n      eq\n        /* \"contracts/contract.sol\":3696:3760  require(orders[_orderId].id == _orderId, \"Order does not exist\") */\n      tag_390\n      jumpi\n      mload(0x40)\n      0x08c379a000000000000000000000000000000000000000000000000000000000\n      dup2\n      mstore\n      0x04\n      add\n      tag_391\n      swap1\n      tag_392\n      jump\t// in\n    tag_391:\n      mload(0x40)\n      dup1\n      swap2\n      sub\n      swap1\n      revert\n    tag_390:\n        /* \"contracts/contract.sol\":7614:7633  Order storage order */\n      0x00\n        /* \"contracts/contract.sol\":7636:7642  orders */\n      0x06\n        /* \"contracts/contract.sol\":7636:7652  orders[_orderId] */\n      0x00\n        /* \"contracts/contract.sol\":7643:7651  _orderId */\n      dup6\n        /* \"contracts/contract.sol\":7636:7652  orders[_orderId] */\n      dup2\n      mstore\n      0x20\n      add\n      swap1\n      dup2\n      mstore\n      0x20\n      add\n      0x00\n      keccak256\n        /* \"contracts/contract.sol\":7614:7652  Order storage order = orders[_orderId] */\n      swap1\n      pop\n        /* \"contracts/contract.sol\":7752:7757  order */\n      dup1\n        /* \"contracts/contract.sol\":7752:7764  order.vendor */\n      0x02\n      add\n      0x00\n      swap1\n      sload\n      swap1\n      0x0100\n      exp\n      swap1\n      div\n      0xffffffffffffffffffffffffffffffffffffffff\n      and\n        /* \"contracts/contract.sol\":7738:7764  msg.sender == order.vendor */\n      0xffffffffffffffffffffffffffffffffffffffff\n      and\n        /* \"contracts/contract.sol\":7738:7748  msg.sender */\n      caller\n        /* \"contracts/contract.sol\":7738:7764  msg.sender == order.vendor */\n      0xffffffffffffffffffffffffffffffffffffffff\n      and\n      eq\n        /* \"contracts/contract.sol\":7738:7787  msg.sender == order.vendor || msg.sender == owner */\n      dup1\n      tag_394\n      jumpi\n      pop\n        /* \"contracts/contract.sol\":7782:7787  owner */\n      0x00\n      dup1\n      sload\n      swap1\n      0x0100\n      exp\n      swap1\n      div\n      0xffffffffffffffffffffffffffffffffffffffff\n      and\n        /* \"contracts/contract.sol\":7768:7787  msg.sender == owner */\n      0xffffffffffffffffffffffffffffffffffffffff\n      and\n        /* \"contracts/contract.sol\":7768:7778  msg.sender */\n      caller\n        /* \"contracts/contract.sol\":7768:7787  msg.sender == owner */\n      0xffffffffffffffffffffffffffffffffffffffff\n      and\n      eq\n        /* \"contracts/contract.sol\":7738:7787  msg.sender == order.vendor || msg.sender == owner */\n    tag_394:\n        /* \"contracts/contract.sol\":7716:7859  require(... */\n      tag_395\n      jumpi\n      mload(0x40)\n      0x08c379a000000000000000000000000000000000000000000000000000000000\n      dup2\n      mstore\n      0x04\n      add\n      tag_396\n      swap1\n      tag_397\n      jump\t// in\n    tag_396:\n      mload(0x40)\n      dup1\n      swap2\n      sub\n      swap1\n      revert\n    tag_395:\n        /* \"contracts/contract.sol\":7963:7984  OrderStatus.Cancelled */\n      0x04\n        /* \"contracts/contract.sol\":7947:7984  order.status != OrderStatus.Cancelled */\n      0x05\n      dup2\n      gt\n      iszero\n      tag_398\n      jumpi\n      tag_399\n      tag_245\n      jump\t// in\n    tag_399:\n    tag_398:\n        /* \"contracts/contract.sol\":7947:7952  order */\n      dup2\n        /* \"contracts/contract.sol\":7947:7959  order.status */\n      0x05\n      add\n      0x00\n      swap1\n      sload\n      swap1\n      0x0100\n      exp\n      swap1\n      div\n      0xff\n      and\n        /* \"contracts/contract.sol\":7947:7984  order.status != OrderStatus.Cancelled */\n      0x05\n      dup2\n      gt\n      iszero\n      tag_400\n      jumpi\n      tag_401\n      tag_245\n      jump\t// in\n    tag_401:\n    tag_400:\n      eq\n      iszero\n        /* \"contracts/contract.sol\":7947:8024  order.status != OrderStatus.Cancelled && order.status != OrderStatus.Refunded */\n      dup1\n      iszero\n      tag_402\n      jumpi\n      pop\n        /* \"contracts/contract.sol\":8004:8024  OrderStatus.Refunded */\n      0x05\n        /* \"contracts/contract.sol\":7988:8024  order.status != OrderStatus.Refunded */\n      dup1\n      dup2\n      gt\n      iszero\n      tag_403\n      jumpi\n      tag_404\n      tag_245\n      jump\t// in\n    tag_404:\n    tag_403:\n        /* \"contracts/contract.sol\":7988:7993  order */\n      dup2\n        /* \"contracts/contract.sol\":7988:8000  order.status */\n      0x05\n      add\n      0x00\n      swap1\n      sload\n      swap1\n      0x0100\n      exp\n      swap1\n      div\n      0xff\n      and\n        /* \"contracts/contract.sol\":7988:8024  order.status != OrderStatus.Refunded */\n      0x05\n      dup2\n      gt\n      iszero\n      tag_405\n      jumpi\n      tag_406\n      tag_245\n      jump\t// in\n    tag_406:\n    tag_405:\n      eq\n      iszero\n        /* \"contracts/contract.sol\":7947:8024  order.status != OrderStatus.Cancelled && order.status != OrderStatus.Refunded */\n    tag_402:\n        /* \"contracts/contract.sol\":7925:8094  require(... */\n      tag_407\n      jumpi\n      mload(0x40)\n      0x08c379a000000000000000000000000000000000000000000000000000000000\n      dup2\n      mstore\n      0x04\n      add\n      tag_408\n      swap1\n      tag_409\n      jump\t// in\n    tag_408:\n      mload(0x40)\n      dup1\n      swap2\n      sub\n      swap1\n      revert\n    tag_407:\n        /* \"contracts/contract.sol\":8146:8153  _status */\n      dup3\n        /* \"contracts/contract.sol\":8131:8136  order */\n      dup2\n        /* \"contracts/contract.sol\":8131:8143  order.status */\n      0x05\n      add\n      0x00\n        /* \"contracts/contract.sol\":8131:8153  order.status = _status */\n      0x0100\n      exp\n      dup2\n      sload\n      dup2\n      0xff\n      mul\n      not\n      and\n      swap1\n      dup4\n      0x05\n      dup2\n      gt\n      iszero\n      tag_410\n      jumpi\n      tag_411\n      tag_245\n      jump\t// in\n    tag_411:\n    tag_410:\n      mul\n      or\n      swap1\n      sstore\n      pop\n        /* \"contracts/contract.sol\":8190:8198  _orderId */\n      dup4\n        /* \"contracts/contract.sol\":8171:8208  OrderStatusChanged(_orderId, _status) */\n      0x15fe7663e318fda785235fa9e39aa6923ffd39fe53631991197fb842f34f6ba9\n        /* \"contracts/contract.sol\":8200:8207  _status */\n      dup5\n        /* \"contracts/contract.sol\":8171:8208  OrderStatusChanged(_orderId, _status) */\n      mload(0x40)\n      tag_412\n      swap2\n      swap1\n      tag_413\n      jump\t// in\n    tag_412:\n      mload(0x40)\n      dup1\n      swap2\n      sub\n      swap1\n      log2\n        /* \"contracts/contract.sol\":8312:8333  OrderStatus.Cancelled */\n      0x04\n        /* \"contracts/contract.sol\":8296:8333  order.status == OrderStatus.Cancelled */\n      0x05\n      dup2\n      gt\n      iszero\n      tag_414\n      jumpi\n      tag_415\n      tag_245\n      jump\t// in\n    tag_415:\n    tag_414:\n        /* \"contracts/contract.sol\":8296:8301  order */\n      dup2\n        /* \"contracts/contract.sol\":8296:8308  order.status */\n      0x05\n      add\n      0x00\n      swap1\n      sload\n      swap1\n      0x0100\n      exp\n      swap1\n      div\n      0xff\n      and\n        /* \"contracts/contract.sol\":8296:8333  order.status == OrderStatus.Cancelled */\n      0x05\n      dup2\n      gt\n      iszero\n      tag_416\n      jumpi\n      tag_417\n      tag_245\n      jump\t// in\n    tag_417:\n    tag_416:\n      eq\n        /* \"contracts/contract.sol\":8296:8373  order.status == OrderStatus.Cancelled || order.status == OrderStatus.Refunded */\n      dup1\n      tag_418\n      jumpi\n      pop\n        /* \"contracts/contract.sol\":8353:8373  OrderStatus.Refunded */\n      0x05\n        /* \"contracts/contract.sol\":8337:8373  order.status == OrderStatus.Refunded */\n      dup1\n      dup2\n      gt\n      iszero\n      tag_419\n      jumpi\n      tag_420\n      tag_245\n      jump\t// in\n    tag_420:\n    tag_419:\n        /* \"contracts/contract.sol\":8337:8342  order */\n      dup2\n        /* \"contracts/contract.sol\":8337:8349  order.status */\n      0x05\n      add\n      0x00\n      swap1\n      sload\n      swap1\n      0x0100\n      exp\n      swap1\n      div\n      0xff\n      and\n        /* \"contracts/contract.sol\":8337:8373  order.status == OrderStatus.Refunded */\n      0x05\n      dup2\n      gt\n      iszero\n      tag_421\n      jumpi\n      tag_422\n      tag_245\n      jump\t// in\n    tag_422:\n    tag_421:\n      eq\n        /* \"contracts/contract.sol\":8296:8373  order.status == OrderStatus.Cancelled || order.status == OrderStatus.Refunded */\n    tag_418:\n        /* \"contracts/contract.sol\":8295:8411  (order.status == OrderStatus.Cancelled || order.status == OrderStatus.Refunded) ... */\n      dup1\n      iszero\n      tag_423\n      jumpi\n      pop\n        /* \"contracts/contract.sol\":8406:8411  owner */\n      0x00\n      dup1\n      sload\n      swap1\n      0x0100\n      exp\n      swap1\n      div\n      0xffffffffffffffffffffffffffffffffffffffff\n      and\n        /* \"contracts/contract.sol\":8392:8411  msg.sender == owner */\n      0xffffffffffffffffffffffffffffffffffffffff\n      and\n        /* \"contracts/contract.sol\":8392:8402  msg.sender */\n      caller\n        /* \"contracts/contract.sol\":8392:8411  msg.sender == owner */\n      0xffffffffffffffffffffffffffffffffffffffff\n      and\n      eq\n        /* \"contracts/contract.sol\":8295:8411  (order.status == OrderStatus.Cancelled || order.status == OrderStatus.Refunded) ... */\n    tag_423:\n        /* \"contracts/contract.sol\":8291:8463  if ((order.status == OrderStatus.Cancelled || order.status == OrderStatus.Refunded) ... */\n      iszero\n      tag_424\n      jumpi\n        /* \"contracts/contract.sol\":8428:8451  processRefund(_orderId) */\n      tag_425\n        /* \"contracts/contract.sol\":8442:8450  _orderId */\n      dup5\n        /* \"contracts/contract.sol\":8428:8441  processRefund */\n      tag_426\n        /* \"contracts/contract.sol\":8428:8451  processRefund(_orderId) */\n      jump\t// in\n    tag_425:\n        /* \"contracts/contract.sol\":8291:8463  if ((order.status == OrderStatus.Cancelled || order.status == OrderStatus.Refunded) ... */\n    tag_424:\n        /* \"contracts/contract.sol\":7603:8470  {... */\n      pop\n        /* \"contracts/contract.sol\":7508:8470  function updateOrderStatus(uint256 _orderId, OrderStatus _status) public orderExists(_orderId) {... */\n      pop\n      pop\n      pop\n      jump\t// out\n        /* \"contracts/contract.sol\":13036:13253  function withdrawPlatformFees() public onlyOwner {... */\n    tag_160:\n        /* \"contracts/contract.sol\":3263:3268  owner */\n      0x00\n      dup1\n      sload\n      swap1\n      0x0100\n      exp\n      swap1\n      div\n      0xffffffffffffffffffffffffffffffffffffffff\n      and\n        /* \"contracts/contract.sol\":3249:3268  msg.sender == owner */\n      0xffffffffffffffffffffffffffffffffffffffff\n      and\n        /* \"contracts/contract.sol\":3249:3259  msg.sender */\n      caller\n        /* \"contracts/contract.sol\":3249:3268  msg.sender == owner */\n      0xffffffffffffffffffffffffffffffffffffffff\n      and\n      eq\n        /* \"contracts/contract.sol\":3241:3306  require(msg.sender == owner, \"Only owner can call this function\") */\n      tag_428\n      jumpi\n      mload(0x40)\n      0x08c379a000000000000000000000000000000000000000000000000000000000\n      dup2\n      mstore\n      0x04\n      add\n      tag_429\n      swap1\n      tag_289\n      jump\t// in\n    tag_429:\n      mload(0x40)\n      dup1\n      swap2\n      sub\n      swap1\n      revert\n    tag_428:\n        /* \"contracts/contract.sol\":13096:13111  uint256 balance */\n      0x00\n        /* \"contracts/contract.sol\":13114:13135  address(this).balance */\n      selfbalance\n        /* \"contracts/contract.sol\":13096:13135  uint256 balance = address(this).balance */\n      swap1\n      pop\n        /* \"contracts/contract.sol\":13164:13165  0 */\n      0x00\n        /* \"contracts/contract.sol\":13154:13161  balance */\n      dup2\n        /* \"contracts/contract.sol\":13154:13165  balance > 0 */\n      gt\n        /* \"contracts/contract.sol\":13146:13192  require(balance > 0, \"No balance to withdraw\") */\n      tag_431\n      jumpi\n      mload(0x40)\n      0x08c379a000000000000000000000000000000000000000000000000000000000\n      dup2\n      mstore\n      0x04\n      add\n      tag_432\n      swap1\n      tag_433\n      jump\t// in\n    tag_432:\n      mload(0x40)\n      dup1\n      swap2\n      sub\n      swap1\n      revert\n    tag_431:\n        /* \"contracts/contract.sol\":13221:13226  owner */\n      0x00\n      dup1\n      sload\n      swap1\n      0x0100\n      exp\n      swap1\n      div\n      0xffffffffffffffffffffffffffffffffffffffff\n      and\n        /* \"contracts/contract.sol\":13213:13236  payable(owner).transfer */\n      0xffffffffffffffffffffffffffffffffffffffff\n      and\n        /* \"contracts/contract.sol\":13213:13245  payable(owner).transfer(balance) */\n      0x08fc\n        /* \"contracts/contract.sol\":13237:13244  balance */\n      dup3\n        /* \"contracts/contract.sol\":13213:13245  payable(owner).transfer(balance) */\n      swap1\n      dup2\n      iszero\n      mul\n      swap1\n      mload(0x40)\n      0x00\n      mload(0x40)\n      dup1\n      dup4\n      sub\n      dup2\n      dup6\n      dup9\n      dup9\n      call\n      swap4\n      pop\n      pop\n      pop\n      pop\n      iszero\n      dup1\n      iszero\n      tag_435\n      jumpi\n      returndatasize\n      0x00\n      dup1\n      returndatacopy\n      revert(0x00, returndatasize)\n    tag_435:\n      pop\n        /* \"contracts/contract.sol\":13085:13253  {... */\n      pop\n        /* \"contracts/contract.sol\":13036:13253  function withdrawPlatformFees() public onlyOwner {... */\n      jump\t// out\n        /* \"contracts/contract.sol\":12453:12624  function updatePlatformFeeRate(uint16 _newRate) public onlyOwner {... */\n    tag_165:\n        /* \"contracts/contract.sol\":3263:3268  owner */\n      0x00\n      dup1\n      sload\n      swap1\n      0x0100\n      exp\n      swap1\n      div\n      0xffffffffffffffffffffffffffffffffffffffff\n      and\n        /* \"contracts/contract.sol\":3249:3268  msg.sender == owner */\n      0xffffffffffffffffffffffffffffffffffffffff\n      and\n        /* \"contracts/contract.sol\":3249:3259  msg.sender */\n      caller\n        /* \"contracts/contract.sol\":3249:3268  msg.sender == owner */\n      0xffffffffffffffffffffffffffffffffffffffff\n      and\n      eq\n        /* \"contracts/contract.sol\":3241:3306  require(msg.sender == owner, \"Only owner can call this function\") */\n      tag_437\n      jumpi\n      mload(0x40)\n      0x08c379a000000000000000000000000000000000000000000000000000000000\n      dup2\n      mstore\n      0x04\n      add\n      tag_438\n      swap1\n      tag_289\n      jump\t// in\n    tag_438:\n      mload(0x40)\n      dup1\n      swap2\n      sub\n      swap1\n      revert\n    tag_437:\n        /* \"contracts/contract.sol\":12549:12553  1000 */\n      0x03e8\n        /* \"contracts/contract.sol\":12537:12545  _newRate */\n      dup2\n        /* \"contracts/contract.sol\":12537:12553  _newRate <= 1000 */\n      0xffff\n      and\n      gt\n      iszero\n        /* \"contracts/contract.sol\":12529:12579  require(_newRate <= 1000, \"Fee cannot exceed 10%\") */\n      tag_440\n      jumpi\n      mload(0x40)\n      0x08c379a000000000000000000000000000000000000000000000000000000000\n      dup2\n      mstore\n      0x04\n      add\n      tag_441\n      swap1\n      tag_442\n      jump\t// in\n    tag_441:\n      mload(0x40)\n      dup1\n      swap2\n      sub\n      swap1\n      revert\n    tag_440:\n        /* \"contracts/contract.sol\":12608:12616  _newRate */\n      dup1\n        /* \"contracts/contract.sol\":12590:12605  platformFeeRate */\n      0x00\n      0x14\n        /* \"contracts/contract.sol\":12590:12616  platformFeeRate = _newRate */\n      0x0100\n      exp\n      dup2\n      sload\n      dup2\n      0xffff\n      mul\n      not\n      and\n      swap1\n      dup4\n      0xffff\n      and\n      mul\n      or\n      swap1\n      sstore\n      pop\n        /* \"contracts/contract.sol\":12453:12624  function updatePlatformFeeRate(uint16 _newRate) public onlyOwner {... */\n      pop\n      jump\t// out\n        /* \"contracts/contract.sol\":5353:5746  function updateVendorDetails(string memory _name, string memory _cryptoKey, string memory _photoPath) public onlyVendor {... */\n    tag_169:\n        /* \"contracts/contract.sol\":3379:3386  vendors */\n      0x02\n        /* \"contracts/contract.sol\":3379:3398  vendors[msg.sender] */\n      0x00\n        /* \"contracts/contract.sol\":3387:3397  msg.sender */\n      caller\n        /* \"contracts/contract.sol\":3379:3398  vendors[msg.sender] */\n      0xffffffffffffffffffffffffffffffffffffffff\n      and\n      0xffffffffffffffffffffffffffffffffffffffff\n      and\n      dup2\n      mstore\n      0x20\n      add\n      swap1\n      dup2\n      mstore\n      0x20\n      add\n      0x00\n      keccak256\n        /* \"contracts/contract.sol\":3379:3411  vendors[msg.sender].isRegistered */\n      0x03\n      add\n      0x00\n      swap1\n      sload\n      swap1\n      0x0100\n      exp\n      swap1\n      div\n      0xff\n      and\n        /* \"contracts/contract.sol\":3371:3462  require(vendors[msg.sender].isRegistered, \"Only registered vendors can call this function\") */\n      tag_444\n      jumpi\n      mload(0x40)\n      0x08c379a000000000000000000000000000000000000000000000000000000000\n      dup2\n      mstore\n      0x04\n      add\n      tag_445\n      swap1\n      tag_205\n      jump\t// in\n    tag_445:\n      mload(0x40)\n      dup1\n      swap2\n      sub\n      swap1\n      revert\n    tag_444:\n        /* \"contracts/contract.sol\":5511:5516  _name */\n      dup3\n        /* \"contracts/contract.sol\":5484:5491  vendors */\n      0x02\n        /* \"contracts/contract.sol\":5484:5503  vendors[msg.sender] */\n      0x00\n        /* \"contracts/contract.sol\":5492:5502  msg.sender */\n      caller\n        /* \"contracts/contract.sol\":5484:5503  vendors[msg.sender] */\n      0xffffffffffffffffffffffffffffffffffffffff\n      and\n      0xffffffffffffffffffffffffffffffffffffffff\n      and\n      dup2\n      mstore\n      0x20\n      add\n      swap1\n      dup2\n      mstore\n      0x20\n      add\n      0x00\n      keccak256\n        /* \"contracts/contract.sol\":5484:5508  vendors[msg.sender].name */\n      0x02\n      add\n        /* \"contracts/contract.sol\":5484:5516  vendors[msg.sender].name = _name */\n      swap1\n      dup2\n      tag_447\n      swap2\n      swap1\n      tag_192\n      jump\t// in\n    tag_447:\n      pop\n        /* \"contracts/contract.sol\":5559:5569  _cryptoKey */\n      dup2\n        /* \"contracts/contract.sol\":5527:5534  vendors */\n      0x02\n        /* \"contracts/contract.sol\":5527:5546  vendors[msg.sender] */\n      0x00\n        /* \"contracts/contract.sol\":5535:5545  msg.sender */\n      caller\n        /* \"contracts/contract.sol\":5527:5546  vendors[msg.sender] */\n      0xffffffffffffffffffffffffffffffffffffffff\n      and\n      0xffffffffffffffffffffffffffffffffffffffff\n      and\n      dup2\n      mstore\n      0x20\n      add\n      swap1\n      dup2\n      mstore\n      0x20\n      add\n      0x00\n      keccak256\n        /* \"contracts/contract.sol\":5527:5556  vendors[msg.sender].cryptoKey */\n      0x05\n      add\n        /* \"contracts/contract.sol\":5527:5569  vendors[msg.sender].cryptoKey = _cryptoKey */\n      swap1\n      dup2\n      tag_448\n      swap2\n      swap1\n      tag_192\n      jump\t// in\n    tag_448:\n      pop\n        /* \"contracts/contract.sol\":5667:5668  0 */\n      0x00\n        /* \"contracts/contract.sol\":5646:5656  _photoPath */\n      dup2\n        /* \"contracts/contract.sol\":5640:5664  bytes(_photoPath).length */\n      mload\n        /* \"contracts/contract.sol\":5640:5668  bytes(_photoPath).length > 0 */\n      gt\n        /* \"contracts/contract.sol\":5636:5739  if (bytes(_photoPath).length > 0) {... */\n      iszero\n      tag_449\n      jumpi\n        /* \"contracts/contract.sol\":5717:5727  _photoPath */\n      dup1\n        /* \"contracts/contract.sol\":5685:5692  vendors */\n      0x02\n        /* \"contracts/contract.sol\":5685:5704  vendors[msg.sender] */\n      0x00\n        /* \"contracts/contract.sol\":5693:5703  msg.sender */\n      caller\n        /* \"contracts/contract.sol\":5685:5704  vendors[msg.sender] */\n      0xffffffffffffffffffffffffffffffffffffffff\n      and\n      0xffffffffffffffffffffffffffffffffffffffff\n      and\n      dup2\n      mstore\n      0x20\n      add\n      swap1\n      dup2\n      mstore\n      0x20\n      add\n      0x00\n      keccak256\n        /* \"contracts/contract.sol\":5685:5714  vendors[msg.sender].photoPath */\n      0x06\n      add\n        /* \"contracts/contract.sol\":5685:5727  vendors[msg.sender].photoPath = _photoPath */\n      swap1\n      dup2\n      tag_450\n      swap2\n      swap1\n      tag_192\n      jump\t// in\n    tag_450:\n      pop\n        /* \"contracts/contract.sol\":5636:5739  if (bytes(_photoPath).length > 0) {... */\n    tag_449:\n        /* \"contracts/contract.sol\":5353:5746  function updateVendorDetails(string memory _name, string memory _cryptoKey, string memory _photoPath) public onlyVendor {... */\n      pop\n      pop\n      pop\n      jump\t// out\n        /* \"contracts/contract.sol\":11103:11690  function getOrderDetails(uint256 _orderId) public view orderExists(_orderId) returns (... */\n    tag_173:\n        /* \"contracts/contract.sol\":11199:11215  address customer */\n      0x00\n        /* \"contracts/contract.sol\":11226:11240  address vendor */\n      dup1\n        /* \"contracts/contract.sol\":11251:11265  uint256 amount */\n      0x00\n        /* \"contracts/contract.sol\":11276:11300  string memory productIds */\n      0x60\n        /* \"contracts/contract.sol\":11311:11329  OrderStatus status */\n      0x00\n        /* \"contracts/contract.sol\":11340:11357  uint256 timestamp */\n      dup1\n        /* \"contracts/contract.sol\":11368:11393  string memory vendorEmail */\n      0x60\n        /* \"contracts/contract.sol\":11170:11178  _orderId */\n      dup8\n        /* \"contracts/contract.sol\":3727:3735  _orderId */\n      dup1\n        /* \"contracts/contract.sol\":3704:3710  orders */\n      0x06\n        /* \"contracts/contract.sol\":3704:3720  orders[_orderId] */\n      0x00\n        /* \"contracts/contract.sol\":3711:3719  _orderId */\n      dup4\n        /* \"contracts/contract.sol\":3704:3720  orders[_orderId] */\n      dup2\n      mstore\n      0x20\n      add\n      swap1\n      dup2\n      mstore\n      0x20\n      add\n      0x00\n      keccak256\n        /* \"contracts/contract.sol\":3704:3723  orders[_orderId].id */\n      0x00\n      add\n      sload\n        /* \"contracts/contract.sol\":3704:3735  orders[_orderId].id == _orderId */\n      eq\n        /* \"contracts/contract.sol\":3696:3760  require(orders[_orderId].id == _orderId, \"Order does not exist\") */\n      tag_452\n      jumpi\n      mload(0x40)\n      0x08c379a000000000000000000000000000000000000000000000000000000000\n      dup2\n      mstore\n      0x04\n      add\n      tag_453\n      swap1\n      tag_392\n      jump\t// in\n    tag_453:\n      mload(0x40)\n      dup1\n      swap2\n      sub\n      swap1\n      revert\n    tag_452:\n        /* \"contracts/contract.sol\":11412:11431  Order storage order */\n      0x00\n        /* \"contracts/contract.sol\":11434:11440  orders */\n      0x06\n        /* \"contracts/contract.sol\":11434:11450  orders[_orderId] */\n      0x00\n        /* \"contracts/contract.sol\":11441:11449  _orderId */\n      dup12\n        /* \"contracts/contract.sol\":11434:11450  orders[_orderId] */\n      dup2\n      mstore\n      0x20\n      add\n      swap1\n      dup2\n      mstore\n      0x20\n      add\n      0x00\n      keccak256\n        /* \"contracts/contract.sol\":11412:11450  Order storage order = orders[_orderId] */\n      swap1\n      pop\n        /* \"contracts/contract.sol\":11483:11488  order */\n      dup1\n        /* \"contracts/contract.sol\":11483:11497  order.customer */\n      0x01\n      add\n      0x00\n      swap1\n      sload\n      swap1\n      0x0100\n      exp\n      swap1\n      div\n      0xffffffffffffffffffffffffffffffffffffffff\n      and\n        /* \"contracts/contract.sol\":11512:11517  order */\n      dup2\n        /* \"contracts/contract.sol\":11512:11524  order.vendor */\n      0x02\n      add\n      0x00\n      swap1\n      sload\n      swap1\n      0x0100\n      exp\n      swap1\n      div\n      0xffffffffffffffffffffffffffffffffffffffff\n      and\n        /* \"contracts/contract.sol\":11539:11544  order */\n      dup3\n        /* \"contracts/contract.sol\":11539:11551  order.amount */\n      0x03\n      add\n      sload\n        /* \"contracts/contract.sol\":11566:11571  order */\n      dup4\n        /* \"contracts/contract.sol\":11566:11582  order.productIds */\n      0x04\n      add\n        /* \"contracts/contract.sol\":11597:11602  order */\n      dup5\n        /* \"contracts/contract.sol\":11597:11609  order.status */\n      0x05\n      add\n      0x00\n      swap1\n      sload\n      swap1\n      0x0100\n      exp\n      swap1\n      div\n      0xff\n      and\n        /* \"contracts/contract.sol\":11624:11629  order */\n      dup6\n        /* \"contracts/contract.sol\":11624:11639  order.timestamp */\n      0x06\n      add\n      sload\n        /* \"contracts/contract.sol\":11654:11659  order */\n      dup7\n        /* \"contracts/contract.sol\":11654:11671  order.vendorEmail */\n      0x07\n      add\n        /* \"contracts/contract.sol\":11461:11682  return (... */\n      dup4\n      dup1\n      sload\n      tag_455\n      swap1\n      tag_214\n      jump\t// in\n    tag_455:\n      dup1\n      0x1f\n      add\n      0x20\n      dup1\n      swap2\n      div\n      mul\n      0x20\n      add\n      mload(0x40)\n      swap1\n      dup2\n      add\n      0x40\n      mstore\n      dup1\n      swap3\n      swap2\n      swap1\n      dup2\n      dup2\n      mstore\n      0x20\n      add\n      dup3\n      dup1\n      sload\n      tag_456\n      swap1\n      tag_214\n      jump\t// in\n    tag_456:\n      dup1\n      iszero\n      tag_457\n      jumpi\n      dup1\n      0x1f\n      lt\n      tag_458\n      jumpi\n      0x0100\n      dup1\n      dup4\n      sload\n      div\n      mul\n      dup4\n      mstore\n      swap2\n      0x20\n      add\n      swap2\n      jump(tag_457)\n    tag_458:\n      dup3\n      add\n      swap2\n      swap1\n      0x00\n      mstore\n      keccak256(0x00, 0x20)\n      swap1\n    tag_459:\n      dup2\n      sload\n      dup2\n      mstore\n      swap1\n      0x01\n      add\n      swap1\n      0x20\n      add\n      dup1\n      dup4\n      gt\n      tag_459\n      jumpi\n      dup3\n      swap1\n      sub\n      0x1f\n      and\n      dup3\n      add\n      swap2\n    tag_457:\n      pop\n      pop\n      pop\n      pop\n      pop\n      swap4\n      pop\n      dup1\n      dup1\n      sload\n      tag_460\n      swap1\n      tag_214\n      jump\t// in\n    tag_460:\n      dup1\n      0x1f\n      add\n      0x20\n      dup1\n      swap2\n      div\n      mul\n      0x20\n      add\n      mload(0x40)\n      swap1\n      dup2\n      add\n      0x40\n      mstore\n      dup1\n      swap3\n      swap2\n      swap1\n      dup2\n      dup2\n      mstore\n      0x20\n      add\n      dup3\n      dup1\n      sload\n      tag_461\n      swap1\n      tag_214\n      jump\t// in\n    tag_461:\n      dup1\n      iszero\n      tag_462\n      jumpi\n      dup1\n      0x1f\n      lt\n      tag_463\n      jumpi\n      0x0100\n      dup1\n      dup4\n      sload\n      div\n      mul\n      dup4\n      mstore\n      swap2\n      0x20\n      add\n      swap2\n      jump(tag_462)\n    tag_463:\n      dup3\n      add\n      swap2\n      swap1\n      0x00\n      mstore\n      keccak256(0x00, 0x20)\n      swap1\n    tag_464:\n      dup2\n      sload\n      dup2\n      mstore\n      swap1\n      0x01\n      add\n      swap1\n      0x20\n      add\n      dup1\n      dup4\n      gt\n      tag_464\n      jumpi\n      dup3\n      swap1\n      sub\n      0x1f\n      and\n      dup3\n      add\n      swap2\n    tag_462:\n      pop\n      pop\n      pop\n      pop\n      pop\n      swap1\n      pop\n      swap9\n      pop\n      swap9\n      pop\n      swap9\n      pop\n      swap9\n      pop\n      swap9\n      pop\n      swap9\n      pop\n      swap9\n      pop\n      pop\n        /* \"contracts/contract.sol\":11103:11690  function getOrderDetails(uint256 _orderId) public view orderExists(_orderId) returns (... */\n      pop\n      swap2\n      swap4\n      swap6\n      swap8\n      swap1\n      swap3\n      swap5\n      swap7\n      pop\n      jump\t// out\n        /* \"contracts/contract.sol\":12094:12213  function isVendor(address _address) public view returns (bool) {... */\n    tag_179:\n        /* \"contracts/contract.sol\":12151:12155  bool */\n      0x00\n        /* \"contracts/contract.sol\":12175:12182  vendors */\n      0x02\n        /* \"contracts/contract.sol\":12175:12192  vendors[_address] */\n      0x00\n        /* \"contracts/contract.sol\":12183:12191  _address */\n      dup4\n        /* \"contracts/contract.sol\":12175:12192  vendors[_address] */\n      0xffffffffffffffffffffffffffffffffffffffff\n      and\n      0xffffffffffffffffffffffffffffffffffffffff\n      and\n      dup2\n      mstore\n      0x20\n      add\n      swap1\n      dup2\n      mstore\n      0x20\n      add\n      0x00\n      keccak256\n        /* \"contracts/contract.sol\":12175:12205  vendors[_address].isRegistered */\n      0x03\n      add\n      0x00\n      swap1\n      sload\n      swap1\n      0x0100\n      exp\n      swap1\n      div\n      0xff\n      and\n        /* \"contracts/contract.sol\":12168:12205  return vendors[_address].isRegistered */\n      swap1\n      pop\n        /* \"contracts/contract.sol\":12094:12213  function isVendor(address _address) public view returns (bool) {... */\n      swap2\n      swap1\n      pop\n      jump\t// out\n        /* \"contracts/contract.sol\":427:462  uint16 public platformFeeRate = 250 */\n    tag_183:\n      0x00\n      0x14\n      swap1\n      sload\n      swap1\n      0x0100\n      exp\n      swap1\n      div\n      0xffff\n      and\n      dup2\n      jump\t// out\n        /* \"contracts/contract.sol\":8532:9109  function processRefund(uint256 _orderId) internal orderExists(_orderId) {... */\n    tag_426:\n        /* \"contracts/contract.sol\":8594:8602  _orderId */\n      dup1\n        /* \"contracts/contract.sol\":3727:3735  _orderId */\n      dup1\n        /* \"contracts/contract.sol\":3704:3710  orders */\n      0x06\n        /* \"contracts/contract.sol\":3704:3720  orders[_orderId] */\n      0x00\n        /* \"contracts/contract.sol\":3711:3719  _orderId */\n      dup4\n        /* \"contracts/contract.sol\":3704:3720  orders[_orderId] */\n      dup2\n      mstore\n      0x20\n      add\n      swap1\n      dup2\n      mstore\n      0x20\n      add\n      0x00\n      keccak256\n        /* \"contracts/contract.sol\":3704:3723  orders[_orderId].id */\n      0x00\n      add\n      sload\n        /* \"contracts/contract.sol\":3704:3735  orders[_orderId].id == _orderId */\n      eq\n        /* \"contracts/contract.sol\":3696:3760  require(orders[_orderId].id == _orderId, \"Order does not exist\") */\n      tag_467\n      jumpi\n      mload(0x40)\n      0x08c379a000000000000000000000000000000000000000000000000000000000\n      dup2\n      mstore\n      0x04\n      add\n      tag_468\n      swap1\n      tag_392\n      jump\t// in\n    tag_468:\n      mload(0x40)\n      dup1\n      swap2\n      sub\n      swap1\n      revert\n    tag_467:\n        /* \"contracts/contract.sol\":8615:8634  Order storage order */\n      0x00\n        /* \"contracts/contract.sol\":8637:8643  orders */\n      0x06\n        /* \"contracts/contract.sol\":8637:8653  orders[_orderId] */\n      0x00\n        /* \"contracts/contract.sol\":8644:8652  _orderId */\n      dup5\n        /* \"contracts/contract.sol\":8637:8653  orders[_orderId] */\n      dup2\n      mstore\n      0x20\n      add\n      swap1\n      dup2\n      mstore\n      0x20\n      add\n      0x00\n      keccak256\n        /* \"contracts/contract.sol\":8615:8653  Order storage order = orders[_orderId] */\n      swap1\n      pop\n        /* \"contracts/contract.sol\":8706:8725  uint256 platformFee */\n      0x00\n        /* \"contracts/contract.sol\":8763:8768  10000 */\n      0x2710\n        /* \"contracts/contract.sol\":8744:8759  platformFeeRate */\n      0x00\n      0x14\n      swap1\n      sload\n      swap1\n      0x0100\n      exp\n      swap1\n      div\n      0xffff\n      and\n        /* \"contracts/contract.sol\":8729:8759  order.amount * platformFeeRate */\n      0xffff\n      and\n        /* \"contracts/contract.sol\":8729:8734  order */\n      dup4\n        /* \"contracts/contract.sol\":8729:8741  order.amount */\n      0x03\n      add\n      sload\n        /* \"contracts/contract.sol\":8729:8759  order.amount * platformFeeRate */\n      tag_470\n      swap2\n      swap1\n      tag_314\n      jump\t// in\n    tag_470:\n        /* \"contracts/contract.sol\":8728:8768  (order.amount * platformFeeRate) / 10000 */\n      tag_471\n      swap2\n      swap1\n      tag_316\n      jump\t// in\n    tag_471:\n        /* \"contracts/contract.sol\":8706:8768  uint256 platformFee = (order.amount * platformFeeRate) / 10000 */\n      swap1\n      pop\n        /* \"contracts/contract.sol\":8779:8799  uint256 vendorAmount */\n      0x00\n        /* \"contracts/contract.sol\":8817:8828  platformFee */\n      dup2\n        /* \"contracts/contract.sol\":8802:8807  order */\n      dup4\n        /* \"contracts/contract.sol\":8802:8814  order.amount */\n      0x03\n      add\n      sload\n        /* \"contracts/contract.sol\":8802:8828  order.amount - platformFee */\n      tag_472\n      swap2\n      swap1\n      tag_318\n      jump\t// in\n    tag_472:\n        /* \"contracts/contract.sol\":8779:8828  uint256 vendorAmount = order.amount - platformFee */\n      swap1\n      pop\n        /* \"contracts/contract.sol\":8923:8935  vendorAmount */\n      dup1\n        /* \"contracts/contract.sol\":8890:8897  vendors */\n      0x02\n        /* \"contracts/contract.sol\":8890:8911  vendors[order.vendor] */\n      0x00\n        /* \"contracts/contract.sol\":8898:8903  order */\n      dup6\n        /* \"contracts/contract.sol\":8898:8910  order.vendor */\n      0x02\n      add\n      0x00\n      swap1\n      sload\n      swap1\n      0x0100\n      exp\n      swap1\n      div\n      0xffffffffffffffffffffffffffffffffffffffff\n      and\n        /* \"contracts/contract.sol\":8890:8911  vendors[order.vendor] */\n      0xffffffffffffffffffffffffffffffffffffffff\n      and\n      0xffffffffffffffffffffffffffffffffffffffff\n      and\n      dup2\n      mstore\n      0x20\n      add\n      swap1\n      dup2\n      mstore\n      0x20\n      add\n      0x00\n      keccak256\n        /* \"contracts/contract.sol\":8890:8919  vendors[order.vendor].balance */\n      0x04\n      add\n      sload\n        /* \"contracts/contract.sol\":8890:8935  vendors[order.vendor].balance >= vendorAmount */\n      lt\n        /* \"contracts/contract.sol\":8886:9102  if (vendors[order.vendor].balance >= vendorAmount) {... */\n      tag_473\n      jumpi\n        /* \"contracts/contract.sol\":8985:8997  vendorAmount */\n      dup1\n        /* \"contracts/contract.sol\":8952:8959  vendors */\n      0x02\n        /* \"contracts/contract.sol\":8952:8973  vendors[order.vendor] */\n      0x00\n        /* \"contracts/contract.sol\":8960:8965  order */\n      dup6\n        /* \"contracts/contract.sol\":8960:8972  order.vendor */\n      0x02\n      add\n      0x00\n      swap1\n      sload\n      swap1\n      0x0100\n      exp\n      swap1\n      div\n      0xffffffffffffffffffffffffffffffffffffffff\n      and\n        /* \"contracts/contract.sol\":8952:8973  vendors[order.vendor] */\n      0xffffffffffffffffffffffffffffffffffffffff\n      and\n      0xffffffffffffffffffffffffffffffffffffffff\n      and\n      dup2\n      mstore\n      0x20\n      add\n      swap1\n      dup2\n      mstore\n      0x20\n      add\n      0x00\n      keccak256\n        /* \"contracts/contract.sol\":8952:8981  vendors[order.vendor].balance */\n      0x04\n      add\n      0x00\n        /* \"contracts/contract.sol\":8952:8997  vendors[order.vendor].balance -= vendorAmount */\n      dup3\n      dup3\n      sload\n      tag_474\n      swap2\n      swap1\n      tag_318\n      jump\t// in\n    tag_474:\n      swap3\n      pop\n      pop\n      dup2\n      swap1\n      sstore\n      pop\n        /* \"contracts/contract.sol\":9052:9057  order */\n      dup3\n        /* \"contracts/contract.sol\":9052:9066  order.customer */\n      0x01\n      add\n      0x00\n      swap1\n      sload\n      swap1\n      0x0100\n      exp\n      swap1\n      div\n      0xffffffffffffffffffffffffffffffffffffffff\n      and\n        /* \"contracts/contract.sol\":9044:9076  payable(order.customer).transfer */\n      0xffffffffffffffffffffffffffffffffffffffff\n      and\n        /* \"contracts/contract.sol\":9044:9090  payable(order.customer).transfer(order.amount) */\n      0x08fc\n        /* \"contracts/contract.sol\":9077:9082  order */\n      dup5\n        /* \"contracts/contract.sol\":9077:9089  order.amount */\n      0x03\n      add\n      sload\n        /* \"contracts/contract.sol\":9044:9090  payable(order.customer).transfer(order.amount) */\n      swap1\n      dup2\n      iszero\n      mul\n      swap1\n      mload(0x40)\n      0x00\n      mload(0x40)\n      dup1\n      dup4\n      sub\n      dup2\n      dup6\n      dup9\n      dup9\n      call\n      swap4\n      pop\n      pop\n      pop\n      pop\n      iszero\n      dup1\n      iszero\n      tag_476\n      jumpi\n      returndatasize\n      0x00\n      dup1\n      returndatacopy\n      revert(0x00, returndatasize)\n    tag_476:\n      pop\n        /* \"contracts/contract.sol\":8886:9102  if (vendors[order.vendor].balance >= vendorAmount) {... */\n    tag_473:\n        /* \"contracts/contract.sol\":8604:9109  {... */\n      pop\n      pop\n      pop\n        /* \"contracts/contract.sol\":8532:9109  function processRefund(uint256 _orderId) internal orderExists(_orderId) {... */\n      pop\n      pop\n      jump\t// out\n        /* \"#utility.yul\":7:82   */\n    tag_477:\n        /* \"#utility.yul\":40:46   */\n      0x00\n        /* \"#utility.yul\":73:75   */\n      0x40\n        /* \"#utility.yul\":67:76   */\n      mload\n        /* \"#utility.yul\":57:76   */\n      swap1\n      pop\n        /* \"#utility.yul\":7:82   */\n      swap1\n      jump\t// out\n        /* \"#utility.yul\":88:205   */\n    tag_478:\n        /* \"#utility.yul\":197:198   */\n      0x00\n        /* \"#utility.yul\":194:195   */\n      dup1\n        /* \"#utility.yul\":187:199   */\n      revert\n        /* \"#utility.yul\":211:328   */\n    tag_479:\n        /* \"#utility.yul\":320:321   */\n      0x00\n        /* \"#utility.yul\":317:318   */\n      dup1\n        /* \"#utility.yul\":310:322   */\n      revert\n        /* \"#utility.yul\":334:451   */\n    tag_480:\n        /* \"#utility.yul\":443:444   */\n      0x00\n        /* \"#utility.yul\":440:441   */\n      dup1\n        /* \"#utility.yul\":433:445   */\n      revert\n        /* \"#utility.yul\":457:574   */\n    tag_481:\n        /* \"#utility.yul\":566:567   */\n      0x00\n        /* \"#utility.yul\":563:564   */\n      dup1\n        /* \"#utility.yul\":556:568   */\n      revert\n        /* \"#utility.yul\":580:682   */\n    tag_482:\n        /* \"#utility.yul\":621:627   */\n      0x00\n        /* \"#utility.yul\":672:674   */\n      0x1f\n        /* \"#utility.yul\":668:675   */\n      not\n        /* \"#utility.yul\":663:665   */\n      0x1f\n        /* \"#utility.yul\":656:661   */\n      dup4\n        /* \"#utility.yul\":652:666   */\n      add\n        /* \"#utility.yul\":648:676   */\n      and\n        /* \"#utility.yul\":638:676   */\n      swap1\n      pop\n        /* \"#utility.yul\":580:682   */\n      swap2\n      swap1\n      pop\n      jump\t// out\n        /* \"#utility.yul\":688:868   */\n    tag_483:\n        /* \"#utility.yul\":736:813   */\n      0x4e487b7100000000000000000000000000000000000000000000000000000000\n        /* \"#utility.yul\":733:734   */\n      0x00\n        /* \"#utility.yul\":726:814   */\n      mstore\n        /* \"#utility.yul\":833:837   */\n      0x41\n        /* \"#utility.yul\":830:831   */\n      0x04\n        /* \"#utility.yul\":823:838   */\n      mstore\n        /* \"#utility.yul\":857:861   */\n      0x24\n        /* \"#utility.yul\":854:855   */\n      0x00\n        /* \"#utility.yul\":847:862   */\n      revert\n        /* \"#utility.yul\":874:1155   */\n    tag_484:\n        /* \"#utility.yul\":957:984   */\n      tag_585\n        /* \"#utility.yul\":979:983   */\n      dup3\n        /* \"#utility.yul\":957:984   */\n      tag_482\n      jump\t// in\n    tag_585:\n        /* \"#utility.yul\":949:955   */\n      dup2\n        /* \"#utility.yul\":945:985   */\n      add\n        /* \"#utility.yul\":1087:1093   */\n      dup2\n        /* \"#utility.yul\":1075:1085   */\n      dup2\n        /* \"#utility.yul\":1072:1094   */\n      lt\n        /* \"#utility.yul\":1051:1069   */\n      0xffffffffffffffff\n        /* \"#utility.yul\":1039:1049   */\n      dup3\n        /* \"#utility.yul\":1036:1070   */\n      gt\n        /* \"#utility.yul\":1033:1095   */\n      or\n        /* \"#utility.yul\":1030:1118   */\n      iszero\n      tag_586\n      jumpi\n        /* \"#utility.yul\":1098:1116   */\n      tag_587\n      tag_483\n      jump\t// in\n    tag_587:\n        /* \"#utility.yul\":1030:1118   */\n    tag_586:\n        /* \"#utility.yul\":1138:1148   */\n      dup1\n        /* \"#utility.yul\":1134:1136   */\n      0x40\n        /* \"#utility.yul\":1127:1149   */\n      mstore\n        /* \"#utility.yul\":917:1155   */\n      pop\n        /* \"#utility.yul\":874:1155   */\n      pop\n      pop\n      jump\t// out\n        /* \"#utility.yul\":1161:1290   */\n    tag_485:\n        /* \"#utility.yul\":1195:1201   */\n      0x00\n        /* \"#utility.yul\":1222:1242   */\n      tag_589\n      tag_477\n      jump\t// in\n    tag_589:\n        /* \"#utility.yul\":1212:1242   */\n      swap1\n      pop\n        /* \"#utility.yul\":1251:1284   */\n      tag_590\n        /* \"#utility.yul\":1279:1283   */\n      dup3\n        /* \"#utility.yul\":1271:1277   */\n      dup3\n        /* \"#utility.yul\":1251:1284   */\n      tag_484\n      jump\t// in\n    tag_590:\n        /* \"#utility.yul\":1161:1290   */\n      swap2\n      swap1\n      pop\n      jump\t// out\n        /* \"#utility.yul\":1296:1604   */\n    tag_486:\n        /* \"#utility.yul\":1358:1362   */\n      0x00\n        /* \"#utility.yul\":1448:1466   */\n      0xffffffffffffffff\n        /* \"#utility.yul\":1440:1446   */\n      dup3\n        /* \"#utility.yul\":1437:1467   */\n      gt\n        /* \"#utility.yul\":1434:1490   */\n      iszero\n      tag_592\n      jumpi\n        /* \"#utility.yul\":1470:1488   */\n      tag_593\n      tag_483\n      jump\t// in\n    tag_593:\n        /* \"#utility.yul\":1434:1490   */\n    tag_592:\n        /* \"#utility.yul\":1508:1537   */\n      tag_594\n        /* \"#utility.yul\":1530:1536   */\n      dup3\n        /* \"#utility.yul\":1508:1537   */\n      tag_482\n      jump\t// in\n    tag_594:\n        /* \"#utility.yul\":1500:1537   */\n      swap1\n      pop\n        /* \"#utility.yul\":1592:1596   */\n      0x20\n        /* \"#utility.yul\":1586:1590   */\n      dup2\n        /* \"#utility.yul\":1582:1597   */\n      add\n        /* \"#utility.yul\":1574:1597   */\n      swap1\n      pop\n        /* \"#utility.yul\":1296:1604   */\n      swap2\n      swap1\n      pop\n      jump\t// out\n        /* \"#utility.yul\":1610:1758   */\n    tag_487:\n        /* \"#utility.yul\":1708:1714   */\n      dup3\n        /* \"#utility.yul\":1703:1706   */\n      dup2\n        /* \"#utility.yul\":1698:1701   */\n      dup4\n        /* \"#utility.yul\":1685:1715   */\n      calldatacopy\n        /* \"#utility.yul\":1749:1750   */\n      0x00\n        /* \"#utility.yul\":1740:1746   */\n      dup4\n        /* \"#utility.yul\":1735:1738   */\n      dup4\n        /* \"#utility.yul\":1731:1747   */\n      add\n        /* \"#utility.yul\":1724:1751   */\n      mstore\n        /* \"#utility.yul\":1610:1758   */\n      pop\n      pop\n      pop\n      jump\t// out\n        /* \"#utility.yul\":1764:2189   */\n    tag_488:\n        /* \"#utility.yul\":1842:1847   */\n      0x00\n        /* \"#utility.yul\":1867:1933   */\n      tag_597\n        /* \"#utility.yul\":1883:1932   */\n      tag_598\n        /* \"#utility.yul\":1925:1931   */\n      dup5\n        /* \"#utility.yul\":1883:1932   */\n      tag_486\n      jump\t// in\n    tag_598:\n        /* \"#utility.yul\":1867:1933   */\n      tag_485\n      jump\t// in\n    tag_597:\n        /* \"#utility.yul\":1858:1933   */\n      swap1\n      pop\n        /* \"#utility.yul\":1956:1962   */\n      dup3\n        /* \"#utility.yul\":1949:1954   */\n      dup2\n        /* \"#utility.yul\":1942:1963   */\n      mstore\n        /* \"#utility.yul\":1994:1998   */\n      0x20\n        /* \"#utility.yul\":1987:1992   */\n      dup2\n        /* \"#utility.yul\":1983:1999   */\n      add\n        /* \"#utility.yul\":2032:2035   */\n      dup5\n        /* \"#utility.yul\":2023:2029   */\n      dup5\n        /* \"#utility.yul\":2018:2021   */\n      dup5\n        /* \"#utility.yul\":2014:2030   */\n      add\n        /* \"#utility.yul\":2011:2036   */\n      gt\n        /* \"#utility.yul\":2008:2120   */\n      iszero\n      tag_599\n      jumpi\n        /* \"#utility.yul\":2039:2118   */\n      tag_600\n      tag_481\n      jump\t// in\n    tag_600:\n        /* \"#utility.yul\":2008:2120   */\n    tag_599:\n        /* \"#utility.yul\":2129:2183   */\n      tag_601\n        /* \"#utility.yul\":2176:2182   */\n      dup5\n        /* \"#utility.yul\":2171:2174   */\n      dup3\n        /* \"#utility.yul\":2166:2169   */\n      dup6\n        /* \"#utility.yul\":2129:2183   */\n      tag_487\n      jump\t// in\n    tag_601:\n        /* \"#utility.yul\":1848:2189   */\n      pop\n        /* \"#utility.yul\":1764:2189   */\n      swap4\n      swap3\n      pop\n      pop\n      pop\n      jump\t// out\n        /* \"#utility.yul\":2209:2549   */\n    tag_489:\n        /* \"#utility.yul\":2265:2270   */\n      0x00\n        /* \"#utility.yul\":2314:2317   */\n      dup3\n        /* \"#utility.yul\":2307:2311   */\n      0x1f\n        /* \"#utility.yul\":2299:2305   */\n      dup4\n        /* \"#utility.yul\":2295:2312   */\n      add\n        /* \"#utility.yul\":2291:2318   */\n      slt\n        /* \"#utility.yul\":2281:2403   */\n      tag_603\n      jumpi\n        /* \"#utility.yul\":2322:2401   */\n      tag_604\n      tag_480\n      jump\t// in\n    tag_604:\n        /* \"#utility.yul\":2281:2403   */\n    tag_603:\n        /* \"#utility.yul\":2439:2445   */\n      dup2\n        /* \"#utility.yul\":2426:2446   */\n      calldataload\n        /* \"#utility.yul\":2464:2543   */\n      tag_605\n        /* \"#utility.yul\":2539:2542   */\n      dup5\n        /* \"#utility.yul\":2531:2537   */\n      dup3\n        /* \"#utility.yul\":2524:2528   */\n      0x20\n        /* \"#utility.yul\":2516:2522   */\n      dup7\n        /* \"#utility.yul\":2512:2529   */\n      add\n        /* \"#utility.yul\":2464:2543   */\n      tag_488\n      jump\t// in\n    tag_605:\n        /* \"#utility.yul\":2455:2543   */\n      swap2\n      pop\n        /* \"#utility.yul\":2271:2549   */\n      pop\n        /* \"#utility.yul\":2209:2549   */\n      swap3\n      swap2\n      pop\n      pop\n      jump\t// out\n        /* \"#utility.yul\":2555:3389   */\n    tag_41:\n        /* \"#utility.yul\":2643:2649   */\n      0x00\n        /* \"#utility.yul\":2651:2657   */\n      dup1\n        /* \"#utility.yul\":2700:2702   */\n      0x40\n        /* \"#utility.yul\":2688:2697   */\n      dup4\n        /* \"#utility.yul\":2679:2686   */\n      dup6\n        /* \"#utility.yul\":2675:2698   */\n      sub\n        /* \"#utility.yul\":2671:2703   */\n      slt\n        /* \"#utility.yul\":2668:2787   */\n      iszero\n      tag_607\n      jumpi\n        /* \"#utility.yul\":2706:2785   */\n      tag_608\n      tag_478\n      jump\t// in\n    tag_608:\n        /* \"#utility.yul\":2668:2787   */\n    tag_607:\n        /* \"#utility.yul\":2854:2855   */\n      0x00\n        /* \"#utility.yul\":2843:2852   */\n      dup4\n        /* \"#utility.yul\":2839:2856   */\n      add\n        /* \"#utility.yul\":2826:2857   */\n      calldataload\n        /* \"#utility.yul\":2884:2902   */\n      0xffffffffffffffff\n        /* \"#utility.yul\":2876:2882   */\n      dup2\n        /* \"#utility.yul\":2873:2903   */\n      gt\n        /* \"#utility.yul\":2870:2987   */\n      iszero\n      tag_609\n      jumpi\n        /* \"#utility.yul\":2906:2985   */\n      tag_610\n      tag_479\n      jump\t// in\n    tag_610:\n        /* \"#utility.yul\":2870:2987   */\n    tag_609:\n        /* \"#utility.yul\":3011:3074   */\n      tag_611\n        /* \"#utility.yul\":3066:3073   */\n      dup6\n        /* \"#utility.yul\":3057:3063   */\n      dup3\n        /* \"#utility.yul\":3046:3055   */\n      dup7\n        /* \"#utility.yul\":3042:3064   */\n      add\n        /* \"#utility.yul\":3011:3074   */\n      tag_489\n      jump\t// in\n    tag_611:\n        /* \"#utility.yul\":3001:3074   */\n      swap3\n      pop\n        /* \"#utility.yul\":2797:3084   */\n      pop\n        /* \"#utility.yul\":3151:3153   */\n      0x20\n        /* \"#utility.yul\":3140:3149   */\n      dup4\n        /* \"#utility.yul\":3136:3154   */\n      add\n        /* \"#utility.yul\":3123:3155   */\n      calldataload\n        /* \"#utility.yul\":3182:3200   */\n      0xffffffffffffffff\n        /* \"#utility.yul\":3174:3180   */\n      dup2\n        /* \"#utility.yul\":3171:3201   */\n      gt\n        /* \"#utility.yul\":3168:3285   */\n      iszero\n      tag_612\n      jumpi\n        /* \"#utility.yul\":3204:3283   */\n      tag_613\n      tag_479\n      jump\t// in\n    tag_613:\n        /* \"#utility.yul\":3168:3285   */\n    tag_612:\n        /* \"#utility.yul\":3309:3372   */\n      tag_614\n        /* \"#utility.yul\":3364:3371   */\n      dup6\n        /* \"#utility.yul\":3355:3361   */\n      dup3\n        /* \"#utility.yul\":3344:3353   */\n      dup7\n        /* \"#utility.yul\":3340:3362   */\n      add\n        /* \"#utility.yul\":3309:3372   */\n      tag_489\n      jump\t// in\n    tag_614:\n        /* \"#utility.yul\":3299:3372   */\n      swap2\n      pop\n        /* \"#utility.yul\":3094:3382   */\n      pop\n        /* \"#utility.yul\":2555:3389   */\n      swap3\n      pop\n      swap3\n      swap1\n      pop\n      jump\t// out\n        /* \"#utility.yul\":3395:3904   */\n    tag_46:\n        /* \"#utility.yul\":3464:3470   */\n      0x00\n        /* \"#utility.yul\":3513:3515   */\n      0x20\n        /* \"#utility.yul\":3501:3510   */\n      dup3\n        /* \"#utility.yul\":3492:3499   */\n      dup5\n        /* \"#utility.yul\":3488:3511   */\n      sub\n        /* \"#utility.yul\":3484:3516   */\n      slt\n        /* \"#utility.yul\":3481:3600   */\n      iszero\n      tag_616\n      jumpi\n        /* \"#utility.yul\":3519:3598   */\n      tag_617\n      tag_478\n      jump\t// in\n    tag_617:\n        /* \"#utility.yul\":3481:3600   */\n    tag_616:\n        /* \"#utility.yul\":3667:3668   */\n      0x00\n        /* \"#utility.yul\":3656:3665   */\n      dup3\n        /* \"#utility.yul\":3652:3669   */\n      add\n        /* \"#utility.yul\":3639:3670   */\n      calldataload\n        /* \"#utility.yul\":3697:3715   */\n      0xffffffffffffffff\n        /* \"#utility.yul\":3689:3695   */\n      dup2\n        /* \"#utility.yul\":3686:3716   */\n      gt\n        /* \"#utility.yul\":3683:3800   */\n      iszero\n      tag_618\n      jumpi\n        /* \"#utility.yul\":3719:3798   */\n      tag_619\n      tag_479\n      jump\t// in\n    tag_619:\n        /* \"#utility.yul\":3683:3800   */\n    tag_618:\n        /* \"#utility.yul\":3824:3887   */\n      tag_620\n        /* \"#utility.yul\":3879:3886   */\n      dup5\n        /* \"#utility.yul\":3870:3876   */\n      dup3\n        /* \"#utility.yul\":3859:3868   */\n      dup6\n        /* \"#utility.yul\":3855:3877   */\n      add\n        /* \"#utility.yul\":3824:3887   */\n      tag_489\n      jump\t// in\n    tag_620:\n        /* \"#utility.yul\":3814:3887   */\n      swap2\n      pop\n        /* \"#utility.yul\":3610:3897   */\n      pop\n        /* \"#utility.yul\":3395:3904   */\n      swap3\n      swap2\n      pop\n      pop\n      jump\t// out\n        /* \"#utility.yul\":3910:4036   */\n    tag_490:\n        /* \"#utility.yul\":3947:3954   */\n      0x00\n        /* \"#utility.yul\":3987:4029   */\n      0xffffffffffffffffffffffffffffffffffffffff\n        /* \"#utility.yul\":3980:3985   */\n      dup3\n        /* \"#utility.yul\":3976:4030   */\n      and\n        /* \"#utility.yul\":3965:4030   */\n      swap1\n      pop\n        /* \"#utility.yul\":3910:4036   */\n      swap2\n      swap1\n      pop\n      jump\t// out\n        /* \"#utility.yul\":4042:4138   */\n    tag_491:\n        /* \"#utility.yul\":4079:4086   */\n      0x00\n        /* \"#utility.yul\":4108:4132   */\n      tag_623\n        /* \"#utility.yul\":4126:4131   */\n      dup3\n        /* \"#utility.yul\":4108:4132   */\n      tag_490\n      jump\t// in\n    tag_623:\n        /* \"#utility.yul\":4097:4132   */\n      swap1\n      pop\n        /* \"#utility.yul\":4042:4138   */\n      swap2\n      swap1\n      pop\n      jump\t// out\n        /* \"#utility.yul\":4144:4262   */\n    tag_492:\n        /* \"#utility.yul\":4231:4255   */\n      tag_625\n        /* \"#utility.yul\":4249:4254   */\n      dup2\n        /* \"#utility.yul\":4231:4255   */\n      tag_491\n      jump\t// in\n    tag_625:\n        /* \"#utility.yul\":4226:4229   */\n      dup3\n        /* \"#utility.yul\":4219:4256   */\n      mstore\n        /* \"#utility.yul\":4144:4262   */\n      pop\n      pop\n      jump\t// out\n        /* \"#utility.yul\":4268:4490   */\n    tag_49:\n        /* \"#utility.yul\":4361:4365   */\n      0x00\n        /* \"#utility.yul\":4399:4401   */\n      0x20\n        /* \"#utility.yul\":4388:4397   */\n      dup3\n        /* \"#utility.yul\":4384:4402   */\n      add\n        /* \"#utility.yul\":4376:4402   */\n      swap1\n      pop\n        /* \"#utility.yul\":4412:4483   */\n      tag_627\n        /* \"#utility.yul\":4480:4481   */\n      0x00\n        /* \"#utility.yul\":4469:4478   */\n      dup4\n        /* \"#utility.yul\":4465:4482   */\n      add\n        /* \"#utility.yul\":4456:4462   */\n      dup5\n        /* \"#utility.yul\":4412:4483   */\n      tag_492\n      jump\t// in\n    tag_627:\n        /* \"#utility.yul\":4268:4490   */\n      swap3\n      swap2\n      pop\n      pop\n      jump\t// out\n        /* \"#utility.yul\":4496:4618   */\n    tag_493:\n        /* \"#utility.yul\":4569:4593   */\n      tag_629\n        /* \"#utility.yul\":4587:4592   */\n      dup2\n        /* \"#utility.yul\":4569:4593   */\n      tag_491\n      jump\t// in\n    tag_629:\n        /* \"#utility.yul\":4562:4567   */\n      dup2\n        /* \"#utility.yul\":4559:4594   */\n      eq\n        /* \"#utility.yul\":4549:4612   */\n      tag_630\n      jumpi\n        /* \"#utility.yul\":4608:4609   */\n      0x00\n        /* \"#utility.yul\":4605:4606   */\n      dup1\n        /* \"#utility.yul\":4598:4610   */\n      revert\n        /* \"#utility.yul\":4549:4612   */\n    tag_630:\n        /* \"#utility.yul\":4496:4618   */\n      pop\n      jump\t// out\n        /* \"#utility.yul\":4624:4763   */\n    tag_494:\n        /* \"#utility.yul\":4670:4675   */\n      0x00\n        /* \"#utility.yul\":4708:4714   */\n      dup2\n        /* \"#utility.yul\":4695:4715   */\n      calldataload\n        /* \"#utility.yul\":4686:4715   */\n      swap1\n      pop\n        /* \"#utility.yul\":4724:4757   */\n      tag_632\n        /* \"#utility.yul\":4751:4756   */\n      dup2\n        /* \"#utility.yul\":4724:4757   */\n      tag_493\n      jump\t// in\n    tag_632:\n        /* \"#utility.yul\":4624:4763   */\n      swap3\n      swap2\n      pop\n      pop\n      jump\t// out\n        /* \"#utility.yul\":4769:4846   */\n    tag_495:\n        /* \"#utility.yul\":4806:4813   */\n      0x00\n        /* \"#utility.yul\":4835:4840   */\n      dup2\n        /* \"#utility.yul\":4824:4840   */\n      swap1\n      pop\n        /* \"#utility.yul\":4769:4846   */\n      swap2\n      swap1\n      pop\n      jump\t// out\n        /* \"#utility.yul\":4852:4974   */\n    tag_496:\n        /* \"#utility.yul\":4925:4949   */\n      tag_635\n        /* \"#utility.yul\":4943:4948   */\n      dup2\n        /* \"#utility.yul\":4925:4949   */\n      tag_495\n      jump\t// in\n    tag_635:\n        /* \"#utility.yul\":4918:4923   */\n      dup2\n        /* \"#utility.yul\":4915:4950   */\n      eq\n        /* \"#utility.yul\":4905:4968   */\n      tag_636\n      jumpi\n        /* \"#utility.yul\":4964:4965   */\n      0x00\n        /* \"#utility.yul\":4961:4962   */\n      dup1\n        /* \"#utility.yul\":4954:4966   */\n      revert\n        /* \"#utility.yul\":4905:4968   */\n    tag_636:\n        /* \"#utility.yul\":4852:4974   */\n      pop\n      jump\t// out\n        /* \"#utility.yul\":4980:5119   */\n    tag_497:\n        /* \"#utility.yul\":5026:5031   */\n      0x00\n        /* \"#utility.yul\":5064:5070   */\n      dup2\n        /* \"#utility.yul\":5051:5071   */\n      calldataload\n        /* \"#utility.yul\":5042:5071   */\n      swap1\n      pop\n        /* \"#utility.yul\":5080:5113   */\n      tag_638\n        /* \"#utility.yul\":5107:5112   */\n      dup2\n        /* \"#utility.yul\":5080:5113   */\n      tag_496\n      jump\t// in\n    tag_638:\n        /* \"#utility.yul\":4980:5119   */\n      swap3\n      swap2\n      pop\n      pop\n      jump\t// out\n        /* \"#utility.yul\":5125:5599   */\n    tag_53:\n        /* \"#utility.yul\":5193:5199   */\n      0x00\n        /* \"#utility.yul\":5201:5207   */\n      dup1\n        /* \"#utility.yul\":5250:5252   */\n      0x40\n        /* \"#utility.yul\":5238:5247   */\n      dup4\n        /* \"#utility.yul\":5229:5236   */\n      dup6\n        /* \"#utility.yul\":5225:5248   */\n      sub\n        /* \"#utility.yul\":5221:5253   */\n      slt\n        /* \"#utility.yul\":5218:5337   */\n      iszero\n      tag_640\n      jumpi\n        /* \"#utility.yul\":5256:5335   */\n      tag_641\n      tag_478\n      jump\t// in\n    tag_641:\n        /* \"#utility.yul\":5218:5337   */\n    tag_640:\n        /* \"#utility.yul\":5376:5377   */\n      0x00\n        /* \"#utility.yul\":5401:5454   */\n      tag_642\n        /* \"#utility.yul\":5446:5453   */\n      dup6\n        /* \"#utility.yul\":5437:5443   */\n      dup3\n        /* \"#utility.yul\":5426:5435   */\n      dup7\n        /* \"#utility.yul\":5422:5444   */\n      add\n        /* \"#utility.yul\":5401:5454   */\n      tag_494\n      jump\t// in\n    tag_642:\n        /* \"#utility.yul\":5391:5454   */\n      swap3\n      pop\n        /* \"#utility.yul\":5347:5464   */\n      pop\n        /* \"#utility.yul\":5503:5505   */\n      0x20\n        /* \"#utility.yul\":5529:5582   */\n      tag_643\n        /* \"#utility.yul\":5574:5581   */\n      dup6\n        /* \"#utility.yul\":5565:5571   */\n      dup3\n        /* \"#utility.yul\":5554:5563   */\n      dup7\n        /* \"#utility.yul\":5550:5572   */\n      add\n        /* \"#utility.yul\":5529:5582   */\n      tag_497\n      jump\t// in\n    tag_643:\n        /* \"#utility.yul\":5519:5582   */\n      swap2\n      pop\n        /* \"#utility.yul\":5474:5592   */\n      pop\n        /* \"#utility.yul\":5125:5599   */\n      swap3\n      pop\n      swap3\n      swap1\n      pop\n      jump\t// out\n        /* \"#utility.yul\":5605:5723   */\n    tag_498:\n        /* \"#utility.yul\":5692:5716   */\n      tag_645\n        /* \"#utility.yul\":5710:5715   */\n      dup2\n        /* \"#utility.yul\":5692:5716   */\n      tag_495\n      jump\t// in\n    tag_645:\n        /* \"#utility.yul\":5687:5690   */\n      dup3\n        /* \"#utility.yul\":5680:5717   */\n      mstore\n        /* \"#utility.yul\":5605:5723   */\n      pop\n      pop\n      jump\t// out\n        /* \"#utility.yul\":5729:5951   */\n    tag_56:\n        /* \"#utility.yul\":5822:5826   */\n      0x00\n        /* \"#utility.yul\":5860:5862   */\n      0x20\n        /* \"#utility.yul\":5849:5858   */\n      dup3\n        /* \"#utility.yul\":5845:5863   */\n      add\n        /* \"#utility.yul\":5837:5863   */\n      swap1\n      pop\n        /* \"#utility.yul\":5873:5944   */\n      tag_647\n        /* \"#utility.yul\":5941:5942   */\n      0x00\n        /* \"#utility.yul\":5930:5939   */\n      dup4\n        /* \"#utility.yul\":5926:5943   */\n      add\n        /* \"#utility.yul\":5917:5923   */\n      dup5\n        /* \"#utility.yul\":5873:5944   */\n      tag_498\n      jump\t// in\n    tag_647:\n        /* \"#utility.yul\":5729:5951   */\n      swap3\n      swap2\n      pop\n      pop\n      jump\t// out\n        /* \"#utility.yul\":5957:6286   */\n    tag_65:\n        /* \"#utility.yul\":6016:6022   */\n      0x00\n        /* \"#utility.yul\":6065:6067   */\n      0x20\n        /* \"#utility.yul\":6053:6062   */\n      dup3\n        /* \"#utility.yul\":6044:6051   */\n      dup5\n        /* \"#utility.yul\":6040:6063   */\n      sub\n        /* \"#utility.yul\":6036:6068   */\n      slt\n        /* \"#utility.yul\":6033:6152   */\n      iszero\n      tag_649\n      jumpi\n        /* \"#utility.yul\":6071:6150   */\n      tag_650\n      tag_478\n      jump\t// in\n    tag_650:\n        /* \"#utility.yul\":6033:6152   */\n    tag_649:\n        /* \"#utility.yul\":6191:6192   */\n      0x00\n        /* \"#utility.yul\":6216:6269   */\n      tag_651\n        /* \"#utility.yul\":6261:6268   */\n      dup5\n        /* \"#utility.yul\":6252:6258   */\n      dup3\n        /* \"#utility.yul\":6241:6250   */\n      dup6\n        /* \"#utility.yul\":6237:6259   */\n      add\n        /* \"#utility.yul\":6216:6269   */\n      tag_494\n      jump\t// in\n    tag_651:\n        /* \"#utility.yul\":6206:6269   */\n      swap2\n      pop\n        /* \"#utility.yul\":6162:6279   */\n      pop\n        /* \"#utility.yul\":5957:6286   */\n      swap3\n      swap2\n      pop\n      pop\n      jump\t// out\n        /* \"#utility.yul\":6292:6406   */\n    tag_499:\n        /* \"#utility.yul\":6359:6365   */\n      0x00\n        /* \"#utility.yul\":6393:6398   */\n      dup2\n        /* \"#utility.yul\":6387:6399   */\n      mload\n        /* \"#utility.yul\":6377:6399   */\n      swap1\n      pop\n        /* \"#utility.yul\":6292:6406   */\n      swap2\n      swap1\n      pop\n      jump\t// out\n        /* \"#utility.yul\":6412:6596   */\n    tag_500:\n        /* \"#utility.yul\":6511:6522   */\n      0x00\n        /* \"#utility.yul\":6545:6551   */\n      dup3\n        /* \"#utility.yul\":6540:6543   */\n      dup3\n        /* \"#utility.yul\":6533:6552   */\n      mstore\n        /* \"#utility.yul\":6585:6589   */\n      0x20\n        /* \"#utility.yul\":6580:6583   */\n      dup3\n        /* \"#utility.yul\":6576:6590   */\n      add\n        /* \"#utility.yul\":6561:6590   */\n      swap1\n      pop\n        /* \"#utility.yul\":6412:6596   */\n      swap3\n      swap2\n      pop\n      pop\n      jump\t// out\n        /* \"#utility.yul\":6602:6734   */\n    tag_501:\n        /* \"#utility.yul\":6669:6673   */\n      0x00\n        /* \"#utility.yul\":6692:6695   */\n      dup2\n        /* \"#utility.yul\":6684:6695   */\n      swap1\n      pop\n        /* \"#utility.yul\":6722:6726   */\n      0x20\n        /* \"#utility.yul\":6717:6720   */\n      dup3\n        /* \"#utility.yul\":6713:6727   */\n      add\n        /* \"#utility.yul\":6705:6727   */\n      swap1\n      pop\n        /* \"#utility.yul\":6602:6734   */\n      swap2\n      swap1\n      pop\n      jump\t// out\n        /* \"#utility.yul\":6740:6848   */\n    tag_502:\n        /* \"#utility.yul\":6817:6841   */\n      tag_656\n        /* \"#utility.yul\":6835:6840   */\n      dup2\n        /* \"#utility.yul\":6817:6841   */\n      tag_495\n      jump\t// in\n    tag_656:\n        /* \"#utility.yul\":6812:6815   */\n      dup3\n        /* \"#utility.yul\":6805:6842   */\n      mstore\n        /* \"#utility.yul\":6740:6848   */\n      pop\n      pop\n      jump\t// out\n        /* \"#utility.yul\":6854:7033   */\n    tag_503:\n        /* \"#utility.yul\":6923:6933   */\n      0x00\n        /* \"#utility.yul\":6944:6990   */\n      tag_658\n        /* \"#utility.yul\":6986:6989   */\n      dup4\n        /* \"#utility.yul\":6978:6984   */\n      dup4\n        /* \"#utility.yul\":6944:6990   */\n      tag_502\n      jump\t// in\n    tag_658:\n        /* \"#utility.yul\":7022:7026   */\n      0x20\n        /* \"#utility.yul\":7017:7020   */\n      dup4\n        /* \"#utility.yul\":7013:7027   */\n      add\n        /* \"#utility.yul\":6999:7027   */\n      swap1\n      pop\n        /* \"#utility.yul\":6854:7033   */\n      swap3\n      swap2\n      pop\n      pop\n      jump\t// out\n        /* \"#utility.yul\":7039:7152   */\n    tag_504:\n        /* \"#utility.yul\":7109:7113   */\n      0x00\n        /* \"#utility.yul\":7141:7145   */\n      0x20\n        /* \"#utility.yul\":7136:7139   */\n      dup3\n        /* \"#utility.yul\":7132:7146   */\n      add\n        /* \"#utility.yul\":7124:7146   */\n      swap1\n      pop\n        /* \"#utility.yul\":7039:7152   */\n      swap2\n      swap1\n      pop\n      jump\t// out\n        /* \"#utility.yul\":7188:7920   */\n    tag_505:\n        /* \"#utility.yul\":7307:7310   */\n      0x00\n        /* \"#utility.yul\":7336:7390   */\n      tag_661\n        /* \"#utility.yul\":7384:7389   */\n      dup3\n        /* \"#utility.yul\":7336:7390   */\n      tag_499\n      jump\t// in\n    tag_661:\n        /* \"#utility.yul\":7406:7492   */\n      tag_662\n        /* \"#utility.yul\":7485:7491   */\n      dup2\n        /* \"#utility.yul\":7480:7483   */\n      dup6\n        /* \"#utility.yul\":7406:7492   */\n      tag_500\n      jump\t// in\n    tag_662:\n        /* \"#utility.yul\":7399:7492   */\n      swap4\n      pop\n        /* \"#utility.yul\":7516:7572   */\n      tag_663\n        /* \"#utility.yul\":7566:7571   */\n      dup4\n        /* \"#utility.yul\":7516:7572   */\n      tag_501\n      jump\t// in\n    tag_663:\n        /* \"#utility.yul\":7595:7602   */\n      dup1\n        /* \"#utility.yul\":7626:7627   */\n      0x00\n        /* \"#utility.yul\":7611:7895   */\n    tag_664:\n        /* \"#utility.yul\":7636:7642   */\n      dup4\n        /* \"#utility.yul\":7633:7634   */\n      dup2\n        /* \"#utility.yul\":7630:7643   */\n      lt\n        /* \"#utility.yul\":7611:7895   */\n      iszero\n      tag_666\n      jumpi\n        /* \"#utility.yul\":7712:7718   */\n      dup2\n        /* \"#utility.yul\":7706:7719   */\n      mload\n        /* \"#utility.yul\":7739:7802   */\n      tag_667\n        /* \"#utility.yul\":7798:7801   */\n      dup9\n        /* \"#utility.yul\":7783:7796   */\n      dup3\n        /* \"#utility.yul\":7739:7802   */\n      tag_503\n      jump\t// in\n    tag_667:\n        /* \"#utility.yul\":7732:7802   */\n      swap8\n      pop\n        /* \"#utility.yul\":7825:7885   */\n      tag_668\n        /* \"#utility.yul\":7878:7884   */\n      dup4\n        /* \"#utility.yul\":7825:7885   */\n      tag_504\n      jump\t// in\n    tag_668:\n        /* \"#utility.yul\":7815:7885   */\n      swap3\n      pop\n        /* \"#utility.yul\":7671:7895   */\n      pop\n        /* \"#utility.yul\":7658:7659   */\n      0x01\n        /* \"#utility.yul\":7655:7656   */\n      dup2\n        /* \"#utility.yul\":7651:7660   */\n      add\n        /* \"#utility.yul\":7646:7660   */\n      swap1\n      pop\n        /* \"#utility.yul\":7611:7895   */\n      jump(tag_664)\n    tag_666:\n        /* \"#utility.yul\":7615:7629   */\n      pop\n        /* \"#utility.yul\":7911:7914   */\n      dup6\n        /* \"#utility.yul\":7904:7914   */\n      swap4\n      pop\n        /* \"#utility.yul\":7312:7920   */\n      pop\n      pop\n      pop\n        /* \"#utility.yul\":7188:7920   */\n      swap3\n      swap2\n      pop\n      pop\n      jump\t// out\n        /* \"#utility.yul\":7926:8299   */\n    tag_68:\n        /* \"#utility.yul\":8069:8073   */\n      0x00\n        /* \"#utility.yul\":8107:8109   */\n      0x20\n        /* \"#utility.yul\":8096:8105   */\n      dup3\n        /* \"#utility.yul\":8092:8110   */\n      add\n        /* \"#utility.yul\":8084:8110   */\n      swap1\n      pop\n        /* \"#utility.yul\":8156:8165   */\n      dup2\n        /* \"#utility.yul\":8150:8154   */\n      dup2\n        /* \"#utility.yul\":8146:8166   */\n      sub\n        /* \"#utility.yul\":8142:8143   */\n      0x00\n        /* \"#utility.yul\":8131:8140   */\n      dup4\n        /* \"#utility.yul\":8127:8144   */\n      add\n        /* \"#utility.yul\":8120:8167   */\n      mstore\n        /* \"#utility.yul\":8184:8292   */\n      tag_670\n        /* \"#utility.yul\":8287:8291   */\n      dup2\n        /* \"#utility.yul\":8278:8284   */\n      dup5\n        /* \"#utility.yul\":8184:8292   */\n      tag_505\n      jump\t// in\n    tag_670:\n        /* \"#utility.yul\":8176:8292   */\n      swap1\n      pop\n        /* \"#utility.yul\":7926:8299   */\n      swap3\n      swap2\n      pop\n      pop\n      jump\t// out\n        /* \"#utility.yul\":8305:8409   */\n    tag_506:\n        /* \"#utility.yul\":8350:8357   */\n      0x00\n        /* \"#utility.yul\":8379:8403   */\n      tag_672\n        /* \"#utility.yul\":8397:8402   */\n      dup3\n        /* \"#utility.yul\":8379:8403   */\n      tag_490\n      jump\t// in\n    tag_672:\n        /* \"#utility.yul\":8368:8403   */\n      swap1\n      pop\n        /* \"#utility.yul\":8305:8409   */\n      swap2\n      swap1\n      pop\n      jump\t// out\n        /* \"#utility.yul\":8415:8557   */\n    tag_507:\n        /* \"#utility.yul\":8518:8550   */\n      tag_674\n        /* \"#utility.yul\":8544:8549   */\n      dup2\n        /* \"#utility.yul\":8518:8550   */\n      tag_506\n      jump\t// in\n    tag_674:\n        /* \"#utility.yul\":8513:8516   */\n      dup3\n        /* \"#utility.yul\":8506:8551   */\n      mstore\n        /* \"#utility.yul\":8415:8557   */\n      pop\n      pop\n      jump\t// out\n        /* \"#utility.yul\":8563:8662   */\n    tag_508:\n        /* \"#utility.yul\":8615:8621   */\n      0x00\n        /* \"#utility.yul\":8649:8654   */\n      dup2\n        /* \"#utility.yul\":8643:8655   */\n      mload\n        /* \"#utility.yul\":8633:8655   */\n      swap1\n      pop\n        /* \"#utility.yul\":8563:8662   */\n      swap2\n      swap1\n      pop\n      jump\t// out\n        /* \"#utility.yul\":8668:8837   */\n    tag_509:\n        /* \"#utility.yul\":8752:8763   */\n      0x00\n        /* \"#utility.yul\":8786:8792   */\n      dup3\n        /* \"#utility.yul\":8781:8784   */\n      dup3\n        /* \"#utility.yul\":8774:8793   */\n      mstore\n        /* \"#utility.yul\":8826:8830   */\n      0x20\n        /* \"#utility.yul\":8821:8824   */\n      dup3\n        /* \"#utility.yul\":8817:8831   */\n      add\n        /* \"#utility.yul\":8802:8831   */\n      swap1\n      pop\n        /* \"#utility.yul\":8668:8837   */\n      swap3\n      swap2\n      pop\n      pop\n      jump\t// out\n        /* \"#utility.yul\":8843:8982   */\n    tag_510:\n        /* \"#utility.yul\":8932:8938   */\n      dup3\n        /* \"#utility.yul\":8927:8930   */\n      dup2\n        /* \"#utility.yul\":8922:8925   */\n      dup4\n        /* \"#utility.yul\":8916:8939   */\n      mcopy\n        /* \"#utility.yul\":8973:8974   */\n      0x00\n        /* \"#utility.yul\":8964:8970   */\n      dup4\n        /* \"#utility.yul\":8959:8962   */\n      dup4\n        /* \"#utility.yul\":8955:8971   */\n      add\n        /* \"#utility.yul\":8948:8975   */\n      mstore\n        /* \"#utility.yul\":8843:8982   */\n      pop\n      pop\n      pop\n      jump\t// out\n        /* \"#utility.yul\":8988:9365   */\n    tag_511:\n        /* \"#utility.yul\":9076:9079   */\n      0x00\n        /* \"#utility.yul\":9104:9143   */\n      tag_679\n        /* \"#utility.yul\":9137:9142   */\n      dup3\n        /* \"#utility.yul\":9104:9143   */\n      tag_508\n      jump\t// in\n    tag_679:\n        /* \"#utility.yul\":9159:9230   */\n      tag_680\n        /* \"#utility.yul\":9223:9229   */\n      dup2\n        /* \"#utility.yul\":9218:9221   */\n      dup6\n        /* \"#utility.yul\":9159:9230   */\n      tag_509\n      jump\t// in\n    tag_680:\n        /* \"#utility.yul\":9152:9230   */\n      swap4\n      pop\n        /* \"#utility.yul\":9239:9304   */\n      tag_681\n        /* \"#utility.yul\":9297:9303   */\n      dup2\n        /* \"#utility.yul\":9292:9295   */\n      dup6\n        /* \"#utility.yul\":9285:9289   */\n      0x20\n        /* \"#utility.yul\":9278:9283   */\n      dup7\n        /* \"#utility.yul\":9274:9290   */\n      add\n        /* \"#utility.yul\":9239:9304   */\n      tag_510\n      jump\t// in\n    tag_681:\n        /* \"#utility.yul\":9329:9358   */\n      tag_682\n        /* \"#utility.yul\":9351:9357   */\n      dup2\n        /* \"#utility.yul\":9329:9358   */\n      tag_482\n      jump\t// in\n    tag_682:\n        /* \"#utility.yul\":9324:9327   */\n      dup5\n        /* \"#utility.yul\":9320:9359   */\n      add\n        /* \"#utility.yul\":9313:9359   */\n      swap2\n      pop\n        /* \"#utility.yul\":9080:9365   */\n      pop\n        /* \"#utility.yul\":8988:9365   */\n      swap3\n      swap2\n      pop\n      pop\n      jump\t// out\n        /* \"#utility.yul\":9371:9461   */\n    tag_512:\n        /* \"#utility.yul\":9405:9412   */\n      0x00\n        /* \"#utility.yul\":9448:9453   */\n      dup2\n        /* \"#utility.yul\":9441:9454   */\n      iszero\n        /* \"#utility.yul\":9434:9455   */\n      iszero\n        /* \"#utility.yul\":9423:9455   */\n      swap1\n      pop\n        /* \"#utility.yul\":9371:9461   */\n      swap2\n      swap1\n      pop\n      jump\t// out\n        /* \"#utility.yul\":9467:9576   */\n    tag_513:\n        /* \"#utility.yul\":9548:9569   */\n      tag_685\n        /* \"#utility.yul\":9563:9568   */\n      dup2\n        /* \"#utility.yul\":9548:9569   */\n      tag_512\n      jump\t// in\n    tag_685:\n        /* \"#utility.yul\":9543:9546   */\n      dup3\n        /* \"#utility.yul\":9536:9570   */\n      mstore\n        /* \"#utility.yul\":9467:9576   */\n      pop\n      pop\n      jump\t// out\n        /* \"#utility.yul\":9582:10852   */\n    tag_77:\n        /* \"#utility.yul\":9933:9937   */\n      0x00\n        /* \"#utility.yul\":9971:9974   */\n      0xe0\n        /* \"#utility.yul\":9960:9969   */\n      dup3\n        /* \"#utility.yul\":9956:9975   */\n      add\n        /* \"#utility.yul\":9948:9975   */\n      swap1\n      pop\n        /* \"#utility.yul\":9985:10072   */\n      tag_687\n        /* \"#utility.yul\":10069:10070   */\n      0x00\n        /* \"#utility.yul\":10058:10067   */\n      dup4\n        /* \"#utility.yul\":10054:10071   */\n      add\n        /* \"#utility.yul\":10045:10051   */\n      dup11\n        /* \"#utility.yul\":9985:10072   */\n      tag_507\n      jump\t// in\n    tag_687:\n        /* \"#utility.yul\":10119:10128   */\n      dup2\n        /* \"#utility.yul\":10113:10117   */\n      dup2\n        /* \"#utility.yul\":10109:10129   */\n      sub\n        /* \"#utility.yul\":10104:10106   */\n      0x20\n        /* \"#utility.yul\":10093:10102   */\n      dup4\n        /* \"#utility.yul\":10089:10107   */\n      add\n        /* \"#utility.yul\":10082:10130   */\n      mstore\n        /* \"#utility.yul\":10147:10225   */\n      tag_688\n        /* \"#utility.yul\":10220:10224   */\n      dup2\n        /* \"#utility.yul\":10211:10217   */\n      dup10\n        /* \"#utility.yul\":10147:10225   */\n      tag_511\n      jump\t// in\n    tag_688:\n        /* \"#utility.yul\":10139:10225   */\n      swap1\n      pop\n        /* \"#utility.yul\":10272:10281   */\n      dup2\n        /* \"#utility.yul\":10266:10270   */\n      dup2\n        /* \"#utility.yul\":10262:10282   */\n      sub\n        /* \"#utility.yul\":10257:10259   */\n      0x40\n        /* \"#utility.yul\":10246:10255   */\n      dup4\n        /* \"#utility.yul\":10242:10260   */\n      add\n        /* \"#utility.yul\":10235:10283   */\n      mstore\n        /* \"#utility.yul\":10300:10378   */\n      tag_689\n        /* \"#utility.yul\":10373:10377   */\n      dup2\n        /* \"#utility.yul\":10364:10370   */\n      dup9\n        /* \"#utility.yul\":10300:10378   */\n      tag_511\n      jump\t// in\n    tag_689:\n        /* \"#utility.yul\":10292:10378   */\n      swap1\n      pop\n        /* \"#utility.yul\":10388:10454   */\n      tag_690\n        /* \"#utility.yul\":10450:10452   */\n      0x60\n        /* \"#utility.yul\":10439:10448   */\n      dup4\n        /* \"#utility.yul\":10435:10453   */\n      add\n        /* \"#utility.yul\":10426:10432   */\n      dup8\n        /* \"#utility.yul\":10388:10454   */\n      tag_513\n      jump\t// in\n    tag_690:\n        /* \"#utility.yul\":10464:10537   */\n      tag_691\n        /* \"#utility.yul\":10532:10535   */\n      0x80\n        /* \"#utility.yul\":10521:10530   */\n      dup4\n        /* \"#utility.yul\":10517:10536   */\n      add\n        /* \"#utility.yul\":10508:10514   */\n      dup7\n        /* \"#utility.yul\":10464:10537   */\n      tag_498\n      jump\t// in\n    tag_691:\n        /* \"#utility.yul\":10585:10594   */\n      dup2\n        /* \"#utility.yul\":10579:10583   */\n      dup2\n        /* \"#utility.yul\":10575:10595   */\n      sub\n        /* \"#utility.yul\":10569:10572   */\n      0xa0\n        /* \"#utility.yul\":10558:10567   */\n      dup4\n        /* \"#utility.yul\":10554:10573   */\n      add\n        /* \"#utility.yul\":10547:10596   */\n      mstore\n        /* \"#utility.yul\":10613:10691   */\n      tag_692\n        /* \"#utility.yul\":10686:10690   */\n      dup2\n        /* \"#utility.yul\":10677:10683   */\n      dup6\n        /* \"#utility.yul\":10613:10691   */\n      tag_511\n      jump\t// in\n    tag_692:\n        /* \"#utility.yul\":10605:10691   */\n      swap1\n      pop\n        /* \"#utility.yul\":10739:10748   */\n      dup2\n        /* \"#utility.yul\":10733:10737   */\n      dup2\n        /* \"#utility.yul\":10729:10749   */\n      sub\n        /* \"#utility.yul\":10723:10726   */\n      0xc0\n        /* \"#utility.yul\":10712:10721   */\n      dup4\n        /* \"#utility.yul\":10708:10727   */\n      add\n        /* \"#utility.yul\":10701:10750   */\n      mstore\n        /* \"#utility.yul\":10767:10845   */\n      tag_693\n        /* \"#utility.yul\":10840:10844   */\n      dup2\n        /* \"#utility.yul\":10831:10837   */\n      dup5\n        /* \"#utility.yul\":10767:10845   */\n      tag_511\n      jump\t// in\n    tag_693:\n        /* \"#utility.yul\":10759:10845   */\n      swap1\n      pop\n        /* \"#utility.yul\":9582:10852   */\n      swap9\n      swap8\n      pop\n      pop\n      pop\n      pop\n      pop\n      pop\n      pop\n      pop\n      jump\t// out\n        /* \"#utility.yul\":10858:11581   */\n    tag_91:\n        /* \"#utility.yul\":11069:11073   */\n      0x00\n        /* \"#utility.yul\":11107:11110   */\n      0x80\n        /* \"#utility.yul\":11096:11105   */\n      dup3\n        /* \"#utility.yul\":11092:11111   */\n      add\n        /* \"#utility.yul\":11084:11111   */\n      swap1\n      pop\n        /* \"#utility.yul\":11157:11166   */\n      dup2\n        /* \"#utility.yul\":11151:11155   */\n      dup2\n        /* \"#utility.yul\":11147:11167   */\n      sub\n        /* \"#utility.yul\":11143:11144   */\n      0x00\n        /* \"#utility.yul\":11132:11141   */\n      dup4\n        /* \"#utility.yul\":11128:11145   */\n      add\n        /* \"#utility.yul\":11121:11168   */\n      mstore\n        /* \"#utility.yul\":11185:11263   */\n      tag_695\n        /* \"#utility.yul\":11258:11262   */\n      dup2\n        /* \"#utility.yul\":11249:11255   */\n      dup8\n        /* \"#utility.yul\":11185:11263   */\n      tag_511\n      jump\t// in\n    tag_695:\n        /* \"#utility.yul\":11177:11263   */\n      swap1\n      pop\n        /* \"#utility.yul\":11310:11319   */\n      dup2\n        /* \"#utility.yul\":11304:11308   */\n      dup2\n        /* \"#utility.yul\":11300:11320   */\n      sub\n        /* \"#utility.yul\":11295:11297   */\n      0x20\n        /* \"#utility.yul\":11284:11293   */\n      dup4\n        /* \"#utility.yul\":11280:11298   */\n      add\n        /* \"#utility.yul\":11273:11321   */\n      mstore\n        /* \"#utility.yul\":11338:11416   */\n      tag_696\n        /* \"#utility.yul\":11411:11415   */\n      dup2\n        /* \"#utility.yul\":11402:11408   */\n      dup7\n        /* \"#utility.yul\":11338:11416   */\n      tag_511\n      jump\t// in\n    tag_696:\n        /* \"#utility.yul\":11330:11416   */\n      swap1\n      pop\n        /* \"#utility.yul\":11426:11492   */\n      tag_697\n        /* \"#utility.yul\":11488:11490   */\n      0x40\n        /* \"#utility.yul\":11477:11486   */\n      dup4\n        /* \"#utility.yul\":11473:11491   */\n      add\n        /* \"#utility.yul\":11464:11470   */\n      dup6\n        /* \"#utility.yul\":11426:11492   */\n      tag_513\n      jump\t// in\n    tag_697:\n        /* \"#utility.yul\":11502:11574   */\n      tag_698\n        /* \"#utility.yul\":11570:11572   */\n      0x60\n        /* \"#utility.yul\":11559:11568   */\n      dup4\n        /* \"#utility.yul\":11555:11573   */\n      add\n        /* \"#utility.yul\":11546:11552   */\n      dup5\n        /* \"#utility.yul\":11502:11574   */\n      tag_498\n      jump\t// in\n    tag_698:\n        /* \"#utility.yul\":10858:11581   */\n      swap6\n      swap5\n      pop\n      pop\n      pop\n      pop\n      pop\n      jump\t// out\n        /* \"#utility.yul\":11587:11767   */\n    tag_245:\n        /* \"#utility.yul\":11635:11712   */\n      0x4e487b7100000000000000000000000000000000000000000000000000000000\n        /* \"#utility.yul\":11632:11633   */\n      0x00\n        /* \"#utility.yul\":11625:11713   */\n      mstore\n        /* \"#utility.yul\":11732:11736   */\n      0x21\n        /* \"#utility.yul\":11729:11730   */\n      0x04\n        /* \"#utility.yul\":11722:11737   */\n      mstore\n        /* \"#utility.yul\":11756:11760   */\n      0x24\n        /* \"#utility.yul\":11753:11754   */\n      0x00\n        /* \"#utility.yul\":11746:11761   */\n      revert\n        /* \"#utility.yul\":11773:11889   */\n    tag_514:\n        /* \"#utility.yul\":11857:11858   */\n      0x03\n        /* \"#utility.yul\":11850:11855   */\n      dup2\n        /* \"#utility.yul\":11847:11859   */\n      lt\n        /* \"#utility.yul\":11837:11883   */\n      tag_701\n      jumpi\n        /* \"#utility.yul\":11863:11881   */\n      tag_702\n      tag_245\n      jump\t// in\n    tag_702:\n        /* \"#utility.yul\":11837:11883   */\n    tag_701:\n        /* \"#utility.yul\":11773:11889   */\n      pop\n      jump\t// out\n        /* \"#utility.yul\":11895:12028   */\n    tag_515:\n        /* \"#utility.yul\":11943:11950   */\n      0x00\n        /* \"#utility.yul\":11972:11977   */\n      dup2\n        /* \"#utility.yul\":11961:11977   */\n      swap1\n      pop\n        /* \"#utility.yul\":11978:12022   */\n      tag_704\n        /* \"#utility.yul\":12016:12021   */\n      dup3\n        /* \"#utility.yul\":11978:12022   */\n      tag_514\n      jump\t// in\n    tag_704:\n        /* \"#utility.yul\":11895:12028   */\n      swap2\n      swap1\n      pop\n      jump\t// out\n        /* \"#utility.yul\":12034:12167   */\n    tag_516:\n        /* \"#utility.yul\":12093:12102   */\n      0x00\n        /* \"#utility.yul\":12126:12161   */\n      tag_706\n        /* \"#utility.yul\":12155:12160   */\n      dup3\n        /* \"#utility.yul\":12126:12161   */\n      tag_515\n      jump\t// in\n    tag_706:\n        /* \"#utility.yul\":12113:12161   */\n      swap1\n      pop\n        /* \"#utility.yul\":12034:12167   */\n      swap2\n      swap1\n      pop\n      jump\t// out\n        /* \"#utility.yul\":12173:12322   */\n    tag_517:\n        /* \"#utility.yul\":12269:12315   */\n      tag_708\n        /* \"#utility.yul\":12309:12314   */\n      dup2\n        /* \"#utility.yul\":12269:12315   */\n      tag_516\n      jump\t// in\n    tag_708:\n        /* \"#utility.yul\":12264:12267   */\n      dup3\n        /* \"#utility.yul\":12257:12316   */\n      mstore\n        /* \"#utility.yul\":12173:12322   */\n      pop\n      pop\n      jump\t// out\n        /* \"#utility.yul\":12328:13382   */\n    tag_97:\n        /* \"#utility.yul\":12624:12628   */\n      0x00\n        /* \"#utility.yul\":12662:12665   */\n      0xc0\n        /* \"#utility.yul\":12651:12660   */\n      dup3\n        /* \"#utility.yul\":12647:12666   */\n      add\n        /* \"#utility.yul\":12639:12666   */\n      swap1\n      pop\n        /* \"#utility.yul\":12676:12747   */\n      tag_710\n        /* \"#utility.yul\":12744:12745   */\n      0x00\n        /* \"#utility.yul\":12733:12742   */\n      dup4\n        /* \"#utility.yul\":12729:12746   */\n      add\n        /* \"#utility.yul\":12720:12726   */\n      dup10\n        /* \"#utility.yul\":12676:12747   */\n      tag_492\n      jump\t// in\n    tag_710:\n        /* \"#utility.yul\":12794:12803   */\n      dup2\n        /* \"#utility.yul\":12788:12792   */\n      dup2\n        /* \"#utility.yul\":12784:12804   */\n      sub\n        /* \"#utility.yul\":12779:12781   */\n      0x20\n        /* \"#utility.yul\":12768:12777   */\n      dup4\n        /* \"#utility.yul\":12764:12782   */\n      add\n        /* \"#utility.yul\":12757:12805   */\n      mstore\n        /* \"#utility.yul\":12822:12900   */\n      tag_711\n        /* \"#utility.yul\":12895:12899   */\n      dup2\n        /* \"#utility.yul\":12886:12892   */\n      dup9\n        /* \"#utility.yul\":12822:12900   */\n      tag_511\n      jump\t// in\n    tag_711:\n        /* \"#utility.yul\":12814:12900   */\n      swap1\n      pop\n        /* \"#utility.yul\":12947:12956   */\n      dup2\n        /* \"#utility.yul\":12941:12945   */\n      dup2\n        /* \"#utility.yul\":12937:12957   */\n      sub\n        /* \"#utility.yul\":12932:12934   */\n      0x40\n        /* \"#utility.yul\":12921:12930   */\n      dup4\n        /* \"#utility.yul\":12917:12935   */\n      add\n        /* \"#utility.yul\":12910:12958   */\n      mstore\n        /* \"#utility.yul\":12975:13053   */\n      tag_712\n        /* \"#utility.yul\":13048:13052   */\n      dup2\n        /* \"#utility.yul\":13039:13045   */\n      dup8\n        /* \"#utility.yul\":12975:13053   */\n      tag_511\n      jump\t// in\n    tag_712:\n        /* \"#utility.yul\":12967:13053   */\n      swap1\n      pop\n        /* \"#utility.yul\":13063:13129   */\n      tag_713\n        /* \"#utility.yul\":13125:13127   */\n      0x60\n        /* \"#utility.yul\":13114:13123   */\n      dup4\n        /* \"#utility.yul\":13110:13128   */\n      add\n        /* \"#utility.yul\":13101:13107   */\n      dup7\n        /* \"#utility.yul\":13063:13129   */\n      tag_513\n      jump\t// in\n    tag_713:\n        /* \"#utility.yul\":13139:13221   */\n      tag_714\n        /* \"#utility.yul\":13216:13219   */\n      0x80\n        /* \"#utility.yul\":13205:13214   */\n      dup4\n        /* \"#utility.yul\":13201:13220   */\n      add\n        /* \"#utility.yul\":13192:13198   */\n      dup6\n        /* \"#utility.yul\":13139:13221   */\n      tag_517\n      jump\t// in\n    tag_714:\n        /* \"#utility.yul\":13269:13278   */\n      dup2\n        /* \"#utility.yul\":13263:13267   */\n      dup2\n        /* \"#utility.yul\":13259:13279   */\n      sub\n        /* \"#utility.yul\":13253:13256   */\n      0xa0\n        /* \"#utility.yul\":13242:13251   */\n      dup4\n        /* \"#utility.yul\":13238:13257   */\n      add\n        /* \"#utility.yul\":13231:13280   */\n      mstore\n        /* \"#utility.yul\":13297:13375   */\n      tag_715\n        /* \"#utility.yul\":13370:13374   */\n      dup2\n        /* \"#utility.yul\":13361:13367   */\n      dup5\n        /* \"#utility.yul\":13297:13375   */\n      tag_511\n      jump\t// in\n    tag_715:\n        /* \"#utility.yul\":13289:13375   */\n      swap1\n      pop\n        /* \"#utility.yul\":12328:13382   */\n      swap8\n      swap7\n      pop\n      pop\n      pop\n      pop\n      pop\n      pop\n      pop\n      jump\t// out\n        /* \"#utility.yul\":13388:14042   */\n    tag_113:\n        /* \"#utility.yul\":13466:13472   */\n      0x00\n        /* \"#utility.yul\":13474:13480   */\n      dup1\n        /* \"#utility.yul\":13523:13525   */\n      0x40\n        /* \"#utility.yul\":13511:13520   */\n      dup4\n        /* \"#utility.yul\":13502:13509   */\n      dup6\n        /* \"#utility.yul\":13498:13521   */\n      sub\n        /* \"#utility.yul\":13494:13526   */\n      slt\n        /* \"#utility.yul\":13491:13610   */\n      iszero\n      tag_717\n      jumpi\n        /* \"#utility.yul\":13529:13608   */\n      tag_718\n      tag_478\n      jump\t// in\n    tag_718:\n        /* \"#utility.yul\":13491:13610   */\n    tag_717:\n        /* \"#utility.yul\":13649:13650   */\n      0x00\n        /* \"#utility.yul\":13674:13727   */\n      tag_719\n        /* \"#utility.yul\":13719:13726   */\n      dup6\n        /* \"#utility.yul\":13710:13716   */\n      dup3\n        /* \"#utility.yul\":13699:13708   */\n      dup7\n        /* \"#utility.yul\":13695:13717   */\n      add\n        /* \"#utility.yul\":13674:13727   */\n      tag_494\n      jump\t// in\n    tag_719:\n        /* \"#utility.yul\":13664:13727   */\n      swap3\n      pop\n        /* \"#utility.yul\":13620:13737   */\n      pop\n        /* \"#utility.yul\":13804:13806   */\n      0x20\n        /* \"#utility.yul\":13793:13802   */\n      dup4\n        /* \"#utility.yul\":13789:13807   */\n      add\n        /* \"#utility.yul\":13776:13808   */\n      calldataload\n        /* \"#utility.yul\":13835:13853   */\n      0xffffffffffffffff\n        /* \"#utility.yul\":13827:13833   */\n      dup2\n        /* \"#utility.yul\":13824:13854   */\n      gt\n        /* \"#utility.yul\":13821:13938   */\n      iszero\n      tag_720\n      jumpi\n        /* \"#utility.yul\":13857:13936   */\n      tag_721\n      tag_479\n      jump\t// in\n    tag_721:\n        /* \"#utility.yul\":13821:13938   */\n    tag_720:\n        /* \"#utility.yul\":13962:14025   */\n      tag_722\n        /* \"#utility.yul\":14017:14024   */\n      dup6\n        /* \"#utility.yul\":14008:14014   */\n      dup3\n        /* \"#utility.yul\":13997:14006   */\n      dup7\n        /* \"#utility.yul\":13993:14015   */\n      add\n        /* \"#utility.yul\":13962:14025   */\n      tag_489\n      jump\t// in\n    tag_722:\n        /* \"#utility.yul\":13952:14025   */\n      swap2\n      pop\n        /* \"#utility.yul\":13747:14035   */\n      pop\n        /* \"#utility.yul\":13388:14042   */\n      swap3\n      pop\n      swap3\n      swap1\n      pop\n      jump\t// out\n        /* \"#utility.yul\":14048:14377   */\n    tag_118:\n        /* \"#utility.yul\":14107:14113   */\n      0x00\n        /* \"#utility.yul\":14156:14158   */\n      0x20\n        /* \"#utility.yul\":14144:14153   */\n      dup3\n        /* \"#utility.yul\":14135:14142   */\n      dup5\n        /* \"#utility.yul\":14131:14154   */\n      sub\n        /* \"#utility.yul\":14127:14159   */\n      slt\n        /* \"#utility.yul\":14124:14243   */\n      iszero\n      tag_724\n      jumpi\n        /* \"#utility.yul\":14162:14241   */\n      tag_725\n      tag_478\n      jump\t// in\n    tag_725:\n        /* \"#utility.yul\":14124:14243   */\n    tag_724:\n        /* \"#utility.yul\":14282:14283   */\n      0x00\n        /* \"#utility.yul\":14307:14360   */\n      tag_726\n        /* \"#utility.yul\":14352:14359   */\n      dup5\n        /* \"#utility.yul\":14343:14349   */\n      dup3\n        /* \"#utility.yul\":14332:14341   */\n      dup6\n        /* \"#utility.yul\":14328:14350   */\n      add\n        /* \"#utility.yul\":14307:14360   */\n      tag_497\n      jump\t// in\n    tag_726:\n        /* \"#utility.yul\":14297:14360   */\n      swap2\n      pop\n        /* \"#utility.yul\":14253:14370   */\n      pop\n        /* \"#utility.yul\":14048:14377   */\n      swap3\n      swap2\n      pop\n      pop\n      jump\t// out\n        /* \"#utility.yul\":14383:15510   */\n    tag_125:\n        /* \"#utility.yul\":14690:14694   */\n      0x00\n        /* \"#utility.yul\":14728:14731   */\n      0xc0\n        /* \"#utility.yul\":14717:14726   */\n      dup3\n        /* \"#utility.yul\":14713:14732   */\n      add\n        /* \"#utility.yul\":14705:14732   */\n      swap1\n      pop\n        /* \"#utility.yul\":14778:14787   */\n      dup2\n        /* \"#utility.yul\":14772:14776   */\n      dup2\n        /* \"#utility.yul\":14768:14788   */\n      sub\n        /* \"#utility.yul\":14764:14765   */\n      0x00\n        /* \"#utility.yul\":14753:14762   */\n      dup4\n        /* \"#utility.yul\":14749:14766   */\n      add\n        /* \"#utility.yul\":14742:14789   */\n      mstore\n        /* \"#utility.yul\":14806:14884   */\n      tag_728\n        /* \"#utility.yul\":14879:14883   */\n      dup2\n        /* \"#utility.yul\":14870:14876   */\n      dup10\n        /* \"#utility.yul\":14806:14884   */\n      tag_511\n      jump\t// in\n    tag_728:\n        /* \"#utility.yul\":14798:14884   */\n      swap1\n      pop\n        /* \"#utility.yul\":14931:14940   */\n      dup2\n        /* \"#utility.yul\":14925:14929   */\n      dup2\n        /* \"#utility.yul\":14921:14941   */\n      sub\n        /* \"#utility.yul\":14916:14918   */\n      0x20\n        /* \"#utility.yul\":14905:14914   */\n      dup4\n        /* \"#utility.yul\":14901:14919   */\n      add\n        /* \"#utility.yul\":14894:14942   */\n      mstore\n        /* \"#utility.yul\":14959:15037   */\n      tag_729\n        /* \"#utility.yul\":15032:15036   */\n      dup2\n        /* \"#utility.yul\":15023:15029   */\n      dup9\n        /* \"#utility.yul\":14959:15037   */\n      tag_511\n      jump\t// in\n    tag_729:\n        /* \"#utility.yul\":14951:15037   */\n      swap1\n      pop\n        /* \"#utility.yul\":15047:15113   */\n      tag_730\n        /* \"#utility.yul\":15109:15111   */\n      0x40\n        /* \"#utility.yul\":15098:15107   */\n      dup4\n        /* \"#utility.yul\":15094:15112   */\n      add\n        /* \"#utility.yul\":15085:15091   */\n      dup8\n        /* \"#utility.yul\":15047:15113   */\n      tag_513\n      jump\t// in\n    tag_730:\n        /* \"#utility.yul\":15123:15195   */\n      tag_731\n        /* \"#utility.yul\":15191:15193   */\n      0x60\n        /* \"#utility.yul\":15180:15189   */\n      dup4\n        /* \"#utility.yul\":15176:15194   */\n      add\n        /* \"#utility.yul\":15167:15173   */\n      dup7\n        /* \"#utility.yul\":15123:15195   */\n      tag_498\n      jump\t// in\n    tag_731:\n        /* \"#utility.yul\":15243:15252   */\n      dup2\n        /* \"#utility.yul\":15237:15241   */\n      dup2\n        /* \"#utility.yul\":15233:15253   */\n      sub\n        /* \"#utility.yul\":15227:15230   */\n      0x80\n        /* \"#utility.yul\":15216:15225   */\n      dup4\n        /* \"#utility.yul\":15212:15231   */\n      add\n        /* \"#utility.yul\":15205:15254   */\n      mstore\n        /* \"#utility.yul\":15271:15349   */\n      tag_732\n        /* \"#utility.yul\":15344:15348   */\n      dup2\n        /* \"#utility.yul\":15335:15341   */\n      dup6\n        /* \"#utility.yul\":15271:15349   */\n      tag_511\n      jump\t// in\n    tag_732:\n        /* \"#utility.yul\":15263:15349   */\n      swap1\n      pop\n        /* \"#utility.yul\":15397:15406   */\n      dup2\n        /* \"#utility.yul\":15391:15395   */\n      dup2\n        /* \"#utility.yul\":15387:15407   */\n      sub\n        /* \"#utility.yul\":15381:15384   */\n      0xa0\n        /* \"#utility.yul\":15370:15379   */\n      dup4\n        /* \"#utility.yul\":15366:15385   */\n      add\n        /* \"#utility.yul\":15359:15408   */\n      mstore\n        /* \"#utility.yul\":15425:15503   */\n      tag_733\n        /* \"#utility.yul\":15498:15502   */\n      dup2\n        /* \"#utility.yul\":15489:15495   */\n      dup5\n        /* \"#utility.yul\":15425:15503   */\n      tag_511\n      jump\t// in\n    tag_733:\n        /* \"#utility.yul\":15417:15503   */\n      swap1\n      pop\n        /* \"#utility.yul\":14383:15510   */\n      swap8\n      swap7\n      pop\n      pop\n      pop\n      pop\n      pop\n      pop\n      pop\n      jump\t// out\n        /* \"#utility.yul\":15516:15726   */\n    tag_131:\n        /* \"#utility.yul\":15603:15607   */\n      0x00\n        /* \"#utility.yul\":15641:15643   */\n      0x20\n        /* \"#utility.yul\":15630:15639   */\n      dup3\n        /* \"#utility.yul\":15626:15644   */\n      add\n        /* \"#utility.yul\":15618:15644   */\n      swap1\n      pop\n        /* \"#utility.yul\":15654:15719   */\n      tag_735\n        /* \"#utility.yul\":15716:15717   */\n      0x00\n        /* \"#utility.yul\":15705:15714   */\n      dup4\n        /* \"#utility.yul\":15701:15718   */\n      add\n        /* \"#utility.yul\":15692:15698   */\n      dup5\n        /* \"#utility.yul\":15654:15719   */\n      tag_513\n      jump\t// in\n    tag_735:\n        /* \"#utility.yul\":15516:15726   */\n      swap3\n      swap2\n      pop\n      pop\n      jump\t// out\n        /* \"#utility.yul\":15732:16891   */\n    tag_135:\n        /* \"#utility.yul\":15839:15845   */\n      0x00\n        /* \"#utility.yul\":15847:15853   */\n      dup1\n        /* \"#utility.yul\":15855:15861   */\n      0x00\n        /* \"#utility.yul\":15904:15906   */\n      0x60\n        /* \"#utility.yul\":15892:15901   */\n      dup5\n        /* \"#utility.yul\":15883:15890   */\n      dup7\n        /* \"#utility.yul\":15879:15902   */\n      sub\n        /* \"#utility.yul\":15875:15907   */\n      slt\n        /* \"#utility.yul\":15872:15991   */\n      iszero\n      tag_737\n      jumpi\n        /* \"#utility.yul\":15910:15989   */\n      tag_738\n      tag_478\n      jump\t// in\n    tag_738:\n        /* \"#utility.yul\":15872:15991   */\n    tag_737:\n        /* \"#utility.yul\":16058:16059   */\n      0x00\n        /* \"#utility.yul\":16047:16056   */\n      dup5\n        /* \"#utility.yul\":16043:16060   */\n      add\n        /* \"#utility.yul\":16030:16061   */\n      calldataload\n        /* \"#utility.yul\":16088:16106   */\n      0xffffffffffffffff\n        /* \"#utility.yul\":16080:16086   */\n      dup2\n        /* \"#utility.yul\":16077:16107   */\n      gt\n        /* \"#utility.yul\":16074:16191   */\n      iszero\n      tag_739\n      jumpi\n        /* \"#utility.yul\":16110:16189   */\n      tag_740\n      tag_479\n      jump\t// in\n    tag_740:\n        /* \"#utility.yul\":16074:16191   */\n    tag_739:\n        /* \"#utility.yul\":16215:16278   */\n      tag_741\n        /* \"#utility.yul\":16270:16277   */\n      dup7\n        /* \"#utility.yul\":16261:16267   */\n      dup3\n        /* \"#utility.yul\":16250:16259   */\n      dup8\n        /* \"#utility.yul\":16246:16268   */\n      add\n        /* \"#utility.yul\":16215:16278   */\n      tag_489\n      jump\t// in\n    tag_741:\n        /* \"#utility.yul\":16205:16278   */\n      swap4\n      pop\n        /* \"#utility.yul\":16001:16288   */\n      pop\n        /* \"#utility.yul\":16355:16357   */\n      0x20\n        /* \"#utility.yul\":16344:16353   */\n      dup5\n        /* \"#utility.yul\":16340:16358   */\n      add\n        /* \"#utility.yul\":16327:16359   */\n      calldataload\n        /* \"#utility.yul\":16386:16404   */\n      0xffffffffffffffff\n        /* \"#utility.yul\":16378:16384   */\n      dup2\n        /* \"#utility.yul\":16375:16405   */\n      gt\n        /* \"#utility.yul\":16372:16489   */\n      iszero\n      tag_742\n      jumpi\n        /* \"#utility.yul\":16408:16487   */\n      tag_743\n      tag_479\n      jump\t// in\n    tag_743:\n        /* \"#utility.yul\":16372:16489   */\n    tag_742:\n        /* \"#utility.yul\":16513:16576   */\n      tag_744\n        /* \"#utility.yul\":16568:16575   */\n      dup7\n        /* \"#utility.yul\":16559:16565   */\n      dup3\n        /* \"#utility.yul\":16548:16557   */\n      dup8\n        /* \"#utility.yul\":16544:16566   */\n      add\n        /* \"#utility.yul\":16513:16576   */\n      tag_489\n      jump\t// in\n    tag_744:\n        /* \"#utility.yul\":16503:16576   */\n      swap3\n      pop\n        /* \"#utility.yul\":16298:16586   */\n      pop\n        /* \"#utility.yul\":16653:16655   */\n      0x40\n        /* \"#utility.yul\":16642:16651   */\n      dup5\n        /* \"#utility.yul\":16638:16656   */\n      add\n        /* \"#utility.yul\":16625:16657   */\n      calldataload\n        /* \"#utility.yul\":16684:16702   */\n      0xffffffffffffffff\n        /* \"#utility.yul\":16676:16682   */\n      dup2\n        /* \"#utility.yul\":16673:16703   */\n      gt\n        /* \"#utility.yul\":16670:16787   */\n      iszero\n      tag_745\n      jumpi\n        /* \"#utility.yul\":16706:16785   */\n      tag_746\n      tag_479\n      jump\t// in\n    tag_746:\n        /* \"#utility.yul\":16670:16787   */\n    tag_745:\n        /* \"#utility.yul\":16811:16874   */\n      tag_747\n        /* \"#utility.yul\":16866:16873   */\n      dup7\n        /* \"#utility.yul\":16857:16863   */\n      dup3\n        /* \"#utility.yul\":16846:16855   */\n      dup8\n        /* \"#utility.yul\":16842:16864   */\n      add\n        /* \"#utility.yul\":16811:16874   */\n      tag_489\n      jump\t// in\n    tag_747:\n        /* \"#utility.yul\":16801:16874   */\n      swap2\n      pop\n        /* \"#utility.yul\":16596:16884   */\n      pop\n        /* \"#utility.yul\":15732:16891   */\n      swap3\n      pop\n      swap3\n      pop\n      swap3\n      jump\t// out\n        /* \"#utility.yul\":16897:17840   */\n    tag_142:\n        /* \"#utility.yul\":17165:17169   */\n      0x00\n        /* \"#utility.yul\":17203:17206   */\n      0xa0\n        /* \"#utility.yul\":17192:17201   */\n      dup3\n        /* \"#utility.yul\":17188:17207   */\n      add\n        /* \"#utility.yul\":17180:17207   */\n      swap1\n      pop\n        /* \"#utility.yul\":17253:17262   */\n      dup2\n        /* \"#utility.yul\":17247:17251   */\n      dup2\n        /* \"#utility.yul\":17243:17263   */\n      sub\n        /* \"#utility.yul\":17239:17240   */\n      0x00\n        /* \"#utility.yul\":17228:17237   */\n      dup4\n        /* \"#utility.yul\":17224:17241   */\n      add\n        /* \"#utility.yul\":17217:17264   */\n      mstore\n        /* \"#utility.yul\":17281:17359   */\n      tag_749\n        /* \"#utility.yul\":17354:17358   */\n      dup2\n        /* \"#utility.yul\":17345:17351   */\n      dup9\n        /* \"#utility.yul\":17281:17359   */\n      tag_511\n      jump\t// in\n    tag_749:\n        /* \"#utility.yul\":17273:17359   */\n      swap1\n      pop\n        /* \"#utility.yul\":17406:17415   */\n      dup2\n        /* \"#utility.yul\":17400:17404   */\n      dup2\n        /* \"#utility.yul\":17396:17416   */\n      sub\n        /* \"#utility.yul\":17391:17393   */\n      0x20\n        /* \"#utility.yul\":17380:17389   */\n      dup4\n        /* \"#utility.yul\":17376:17394   */\n      add\n        /* \"#utility.yul\":17369:17417   */\n      mstore\n        /* \"#utility.yul\":17434:17512   */\n      tag_750\n        /* \"#utility.yul\":17507:17511   */\n      dup2\n        /* \"#utility.yul\":17498:17504   */\n      dup8\n        /* \"#utility.yul\":17434:17512   */\n      tag_511\n      jump\t// in\n    tag_750:\n        /* \"#utility.yul\":17426:17512   */\n      swap1\n      pop\n        /* \"#utility.yul\":17522:17588   */\n      tag_751\n        /* \"#utility.yul\":17584:17586   */\n      0x40\n        /* \"#utility.yul\":17573:17582   */\n      dup4\n        /* \"#utility.yul\":17569:17587   */\n      add\n        /* \"#utility.yul\":17560:17566   */\n      dup7\n        /* \"#utility.yul\":17522:17588   */\n      tag_513\n      jump\t// in\n    tag_751:\n        /* \"#utility.yul\":17598:17679   */\n      tag_752\n        /* \"#utility.yul\":17675:17677   */\n      0x60\n        /* \"#utility.yul\":17664:17673   */\n      dup4\n        /* \"#utility.yul\":17660:17678   */\n      add\n        /* \"#utility.yul\":17651:17657   */\n      dup6\n        /* \"#utility.yul\":17598:17679   */\n      tag_517\n      jump\t// in\n    tag_752:\n        /* \"#utility.yul\":17727:17736   */\n      dup2\n        /* \"#utility.yul\":17721:17725   */\n      dup2\n        /* \"#utility.yul\":17717:17737   */\n      sub\n        /* \"#utility.yul\":17711:17714   */\n      0x80\n        /* \"#utility.yul\":17700:17709   */\n      dup4\n        /* \"#utility.yul\":17696:17715   */\n      add\n        /* \"#utility.yul\":17689:17738   */\n      mstore\n        /* \"#utility.yul\":17755:17833   */\n      tag_753\n        /* \"#utility.yul\":17828:17832   */\n      dup2\n        /* \"#utility.yul\":17819:17825   */\n      dup5\n        /* \"#utility.yul\":17755:17833   */\n      tag_511\n      jump\t// in\n    tag_753:\n        /* \"#utility.yul\":17747:17833   */\n      swap1\n      pop\n        /* \"#utility.yul\":16897:17840   */\n      swap7\n      swap6\n      pop\n      pop\n      pop\n      pop\n      pop\n      pop\n      jump\t// out\n        /* \"#utility.yul\":17846:17965   */\n    tag_518:\n        /* \"#utility.yul\":17933:17934   */\n      0x06\n        /* \"#utility.yul\":17926:17931   */\n      dup2\n        /* \"#utility.yul\":17923:17935   */\n      lt\n        /* \"#utility.yul\":17913:17959   */\n      tag_755\n      jumpi\n        /* \"#utility.yul\":17939:17957   */\n      tag_756\n      tag_245\n      jump\t// in\n    tag_756:\n        /* \"#utility.yul\":17913:17959   */\n    tag_755:\n        /* \"#utility.yul\":17846:17965   */\n      pop\n      jump\t// out\n        /* \"#utility.yul\":17971:18110   */\n    tag_519:\n        /* \"#utility.yul\":18022:18029   */\n      0x00\n        /* \"#utility.yul\":18051:18056   */\n      dup2\n        /* \"#utility.yul\":18040:18056   */\n      swap1\n      pop\n        /* \"#utility.yul\":18057:18104   */\n      tag_758\n        /* \"#utility.yul\":18098:18103   */\n      dup3\n        /* \"#utility.yul\":18057:18104   */\n      tag_518\n      jump\t// in\n    tag_758:\n        /* \"#utility.yul\":17971:18110   */\n      swap2\n      swap1\n      pop\n      jump\t// out\n        /* \"#utility.yul\":18116:18255   */\n    tag_520:\n        /* \"#utility.yul\":18178:18187   */\n      0x00\n        /* \"#utility.yul\":18211:18249   */\n      tag_760\n        /* \"#utility.yul\":18243:18248   */\n      dup3\n        /* \"#utility.yul\":18211:18249   */\n      tag_519\n      jump\t// in\n    tag_760:\n        /* \"#utility.yul\":18198:18249   */\n      swap1\n      pop\n        /* \"#utility.yul\":18116:18255   */\n      swap2\n      swap1\n      pop\n      jump\t// out\n        /* \"#utility.yul\":18261:18416   */\n    tag_521:\n        /* \"#utility.yul\":18360:18409   */\n      tag_762\n        /* \"#utility.yul\":18403:18408   */\n      dup2\n        /* \"#utility.yul\":18360:18409   */\n      tag_520\n      jump\t// in\n    tag_762:\n        /* \"#utility.yul\":18355:18358   */\n      dup3\n        /* \"#utility.yul\":18348:18410   */\n      mstore\n        /* \"#utility.yul\":18261:18416   */\n      pop\n      pop\n      jump\t// out\n        /* \"#utility.yul\":18422:19625   */\n    tag_152:\n        /* \"#utility.yul\":18763:18767   */\n      0x00\n        /* \"#utility.yul\":18801:18804   */\n      0x0100\n        /* \"#utility.yul\":18790:18799   */\n      dup3\n        /* \"#utility.yul\":18786:18805   */\n      add\n        /* \"#utility.yul\":18778:18805   */\n      swap1\n      pop\n        /* \"#utility.yul\":18815:18886   */\n      tag_764\n        /* \"#utility.yul\":18883:18884   */\n      0x00\n        /* \"#utility.yul\":18872:18881   */\n      dup4\n        /* \"#utility.yul\":18868:18885   */\n      add\n        /* \"#utility.yul\":18859:18865   */\n      dup12\n        /* \"#utility.yul\":18815:18886   */\n      tag_498\n      jump\t// in\n    tag_764:\n        /* \"#utility.yul\":18896:18968   */\n      tag_765\n        /* \"#utility.yul\":18964:18966   */\n      0x20\n        /* \"#utility.yul\":18953:18962   */\n      dup4\n        /* \"#utility.yul\":18949:18967   */\n      add\n        /* \"#utility.yul\":18940:18946   */\n      dup11\n        /* \"#utility.yul\":18896:18968   */\n      tag_492\n      jump\t// in\n    tag_765:\n        /* \"#utility.yul\":18978:19050   */\n      tag_766\n        /* \"#utility.yul\":19046:19048   */\n      0x40\n        /* \"#utility.yul\":19035:19044   */\n      dup4\n        /* \"#utility.yul\":19031:19049   */\n      add\n        /* \"#utility.yul\":19022:19028   */\n      dup10\n        /* \"#utility.yul\":18978:19050   */\n      tag_492\n      jump\t// in\n    tag_766:\n        /* \"#utility.yul\":19060:19132   */\n      tag_767\n        /* \"#utility.yul\":19128:19130   */\n      0x60\n        /* \"#utility.yul\":19117:19126   */\n      dup4\n        /* \"#utility.yul\":19113:19131   */\n      add\n        /* \"#utility.yul\":19104:19110   */\n      dup9\n        /* \"#utility.yul\":19060:19132   */\n      tag_498\n      jump\t// in\n    tag_767:\n        /* \"#utility.yul\":19180:19189   */\n      dup2\n        /* \"#utility.yul\":19174:19178   */\n      dup2\n        /* \"#utility.yul\":19170:19190   */\n      sub\n        /* \"#utility.yul\":19164:19167   */\n      0x80\n        /* \"#utility.yul\":19153:19162   */\n      dup4\n        /* \"#utility.yul\":19149:19168   */\n      add\n        /* \"#utility.yul\":19142:19191   */\n      mstore\n        /* \"#utility.yul\":19208:19286   */\n      tag_768\n        /* \"#utility.yul\":19281:19285   */\n      dup2\n        /* \"#utility.yul\":19272:19278   */\n      dup8\n        /* \"#utility.yul\":19208:19286   */\n      tag_511\n      jump\t// in\n    tag_768:\n        /* \"#utility.yul\":19200:19286   */\n      swap1\n      pop\n        /* \"#utility.yul\":19296:19381   */\n      tag_769\n        /* \"#utility.yul\":19376:19379   */\n      0xa0\n        /* \"#utility.yul\":19365:19374   */\n      dup4\n        /* \"#utility.yul\":19361:19380   */\n      add\n        /* \"#utility.yul\":19352:19358   */\n      dup7\n        /* \"#utility.yul\":19296:19381   */\n      tag_521\n      jump\t// in\n    tag_769:\n        /* \"#utility.yul\":19391:19464   */\n      tag_770\n        /* \"#utility.yul\":19459:19462   */\n      0xc0\n        /* \"#utility.yul\":19448:19457   */\n      dup4\n        /* \"#utility.yul\":19444:19463   */\n      add\n        /* \"#utility.yul\":19435:19441   */\n      dup6\n        /* \"#utility.yul\":19391:19464   */\n      tag_498\n      jump\t// in\n    tag_770:\n        /* \"#utility.yul\":19512:19521   */\n      dup2\n        /* \"#utility.yul\":19506:19510   */\n      dup2\n        /* \"#utility.yul\":19502:19522   */\n      sub\n        /* \"#utility.yul\":19496:19499   */\n      0xe0\n        /* \"#utility.yul\":19485:19494   */\n      dup4\n        /* \"#utility.yul\":19481:19500   */\n      add\n        /* \"#utility.yul\":19474:19523   */\n      mstore\n        /* \"#utility.yul\":19540:19618   */\n      tag_771\n        /* \"#utility.yul\":19613:19617   */\n      dup2\n        /* \"#utility.yul\":19604:19610   */\n      dup5\n        /* \"#utility.yul\":19540:19618   */\n      tag_511\n      jump\t// in\n    tag_771:\n        /* \"#utility.yul\":19532:19618   */\n      swap1\n      pop\n        /* \"#utility.yul\":18422:19625   */\n      swap10\n      swap9\n      pop\n      pop\n      pop\n      pop\n      pop\n      pop\n      pop\n      pop\n      pop\n      jump\t// out\n        /* \"#utility.yul\":19631:19744   */\n    tag_522:\n        /* \"#utility.yul\":19718:19719   */\n      0x06\n        /* \"#utility.yul\":19711:19716   */\n      dup2\n        /* \"#utility.yul\":19708:19720   */\n      lt\n        /* \"#utility.yul\":19698:19738   */\n      tag_773\n      jumpi\n        /* \"#utility.yul\":19734:19735   */\n      0x00\n        /* \"#utility.yul\":19731:19732   */\n      dup1\n        /* \"#utility.yul\":19724:19736   */\n      revert\n        /* \"#utility.yul\":19698:19738   */\n    tag_773:\n        /* \"#utility.yul\":19631:19744   */\n      pop\n      jump\t// out\n        /* \"#utility.yul\":19750:19917   */\n    tag_523:\n        /* \"#utility.yul\":19810:19815   */\n      0x00\n        /* \"#utility.yul\":19848:19854   */\n      dup2\n        /* \"#utility.yul\":19835:19855   */\n      calldataload\n        /* \"#utility.yul\":19826:19855   */\n      swap1\n      pop\n        /* \"#utility.yul\":19864:19911   */\n      tag_775\n        /* \"#utility.yul\":19905:19910   */\n      dup2\n        /* \"#utility.yul\":19864:19911   */\n      tag_522\n      jump\t// in\n    tag_775:\n        /* \"#utility.yul\":19750:19917   */\n      swap3\n      swap2\n      pop\n      pop\n      jump\t// out\n        /* \"#utility.yul\":19923:20425   */\n    tag_156:\n        /* \"#utility.yul\":20005:20011   */\n      0x00\n        /* \"#utility.yul\":20013:20019   */\n      dup1\n        /* \"#utility.yul\":20062:20064   */\n      0x40\n        /* \"#utility.yul\":20050:20059   */\n      dup4\n        /* \"#utility.yul\":20041:20048   */\n      dup6\n        /* \"#utility.yul\":20037:20060   */\n      sub\n        /* \"#utility.yul\":20033:20065   */\n      slt\n        /* \"#utility.yul\":20030:20149   */\n      iszero\n      tag_777\n      jumpi\n        /* \"#utility.yul\":20068:20147   */\n      tag_778\n      tag_478\n      jump\t// in\n    tag_778:\n        /* \"#utility.yul\":20030:20149   */\n    tag_777:\n        /* \"#utility.yul\":20188:20189   */\n      0x00\n        /* \"#utility.yul\":20213:20266   */\n      tag_779\n        /* \"#utility.yul\":20258:20265   */\n      dup6\n        /* \"#utility.yul\":20249:20255   */\n      dup3\n        /* \"#utility.yul\":20238:20247   */\n      dup7\n        /* \"#utility.yul\":20234:20256   */\n      add\n        /* \"#utility.yul\":20213:20266   */\n      tag_497\n      jump\t// in\n    tag_779:\n        /* \"#utility.yul\":20203:20266   */\n      swap3\n      pop\n        /* \"#utility.yul\":20159:20276   */\n      pop\n        /* \"#utility.yul\":20315:20317   */\n      0x20\n        /* \"#utility.yul\":20341:20408   */\n      tag_780\n        /* \"#utility.yul\":20400:20407   */\n      dup6\n        /* \"#utility.yul\":20391:20397   */\n      dup3\n        /* \"#utility.yul\":20380:20389   */\n      dup7\n        /* \"#utility.yul\":20376:20398   */\n      add\n        /* \"#utility.yul\":20341:20408   */\n      tag_523\n      jump\t// in\n    tag_780:\n        /* \"#utility.yul\":20331:20408   */\n      swap2\n      pop\n        /* \"#utility.yul\":20286:20418   */\n      pop\n        /* \"#utility.yul\":19923:20425   */\n      swap3\n      pop\n      swap3\n      swap1\n      pop\n      jump\t// out\n        /* \"#utility.yul\":20431:20520   */\n    tag_524:\n        /* \"#utility.yul\":20467:20474   */\n      0x00\n        /* \"#utility.yul\":20507:20513   */\n      0xffff\n        /* \"#utility.yul\":20500:20505   */\n      dup3\n        /* \"#utility.yul\":20496:20514   */\n      and\n        /* \"#utility.yul\":20485:20514   */\n      swap1\n      pop\n        /* \"#utility.yul\":20431:20520   */\n      swap2\n      swap1\n      pop\n      jump\t// out\n        /* \"#utility.yul\":20526:20646   */\n    tag_525:\n        /* \"#utility.yul\":20598:20621   */\n      tag_783\n        /* \"#utility.yul\":20615:20620   */\n      dup2\n        /* \"#utility.yul\":20598:20621   */\n      tag_524\n      jump\t// in\n    tag_783:\n        /* \"#utility.yul\":20591:20596   */\n      dup2\n        /* \"#utility.yul\":20588:20622   */\n      eq\n        /* \"#utility.yul\":20578:20640   */\n      tag_784\n      jumpi\n        /* \"#utility.yul\":20636:20637   */\n      0x00\n        /* \"#utility.yul\":20633:20634   */\n      dup1\n        /* \"#utility.yul\":20626:20638   */\n      revert\n        /* \"#utility.yul\":20578:20640   */\n    tag_784:\n        /* \"#utility.yul\":20526:20646   */\n      pop\n      jump\t// out\n        /* \"#utility.yul\":20652:20789   */\n    tag_526:\n        /* \"#utility.yul\":20697:20702   */\n      0x00\n        /* \"#utility.yul\":20735:20741   */\n      dup2\n        /* \"#utility.yul\":20722:20742   */\n      calldataload\n        /* \"#utility.yul\":20713:20742   */\n      swap1\n      pop\n        /* \"#utility.yul\":20751:20783   */\n      tag_786\n        /* \"#utility.yul\":20777:20782   */\n      dup2\n        /* \"#utility.yul\":20751:20783   */\n      tag_525\n      jump\t// in\n    tag_786:\n        /* \"#utility.yul\":20652:20789   */\n      swap3\n      swap2\n      pop\n      pop\n      jump\t// out\n        /* \"#utility.yul\":20795:21122   */\n    tag_164:\n        /* \"#utility.yul\":20853:20859   */\n      0x00\n        /* \"#utility.yul\":20902:20904   */\n      0x20\n        /* \"#utility.yul\":20890:20899   */\n      dup3\n        /* \"#utility.yul\":20881:20888   */\n      dup5\n        /* \"#utility.yul\":20877:20900   */\n      sub\n        /* \"#utility.yul\":20873:20905   */\n      slt\n        /* \"#utility.yul\":20870:20989   */\n      iszero\n      tag_788\n      jumpi\n        /* \"#utility.yul\":20908:20987   */\n      tag_789\n      tag_478\n      jump\t// in\n    tag_789:\n        /* \"#utility.yul\":20870:20989   */\n    tag_788:\n        /* \"#utility.yul\":21028:21029   */\n      0x00\n        /* \"#utility.yul\":21053:21105   */\n      tag_790\n        /* \"#utility.yul\":21097:21104   */\n      dup5\n        /* \"#utility.yul\":21088:21094   */\n      dup3\n        /* \"#utility.yul\":21077:21086   */\n      dup6\n        /* \"#utility.yul\":21073:21095   */\n      add\n        /* \"#utility.yul\":21053:21105   */\n      tag_526\n      jump\t// in\n    tag_790:\n        /* \"#utility.yul\":21043:21105   */\n      swap2\n      pop\n        /* \"#utility.yul\":20999:21115   */\n      pop\n        /* \"#utility.yul\":20795:21122   */\n      swap3\n      swap2\n      pop\n      pop\n      jump\t// out\n        /* \"#utility.yul\":21128:22220   */\n    tag_175:\n        /* \"#utility.yul\":21441:21445   */\n      0x00\n        /* \"#utility.yul\":21479:21482   */\n      0xe0\n        /* \"#utility.yul\":21468:21477   */\n      dup3\n        /* \"#utility.yul\":21464:21483   */\n      add\n        /* \"#utility.yul\":21456:21483   */\n      swap1\n      pop\n        /* \"#utility.yul\":21493:21564   */\n      tag_792\n        /* \"#utility.yul\":21561:21562   */\n      0x00\n        /* \"#utility.yul\":21550:21559   */\n      dup4\n        /* \"#utility.yul\":21546:21563   */\n      add\n        /* \"#utility.yul\":21537:21543   */\n      dup11\n        /* \"#utility.yul\":21493:21564   */\n      tag_492\n      jump\t// in\n    tag_792:\n        /* \"#utility.yul\":21574:21646   */\n      tag_793\n        /* \"#utility.yul\":21642:21644   */\n      0x20\n        /* \"#utility.yul\":21631:21640   */\n      dup4\n        /* \"#utility.yul\":21627:21645   */\n      add\n        /* \"#utility.yul\":21618:21624   */\n      dup10\n        /* \"#utility.yul\":21574:21646   */\n      tag_492\n      jump\t// in\n    tag_793:\n        /* \"#utility.yul\":21656:21728   */\n      tag_794\n        /* \"#utility.yul\":21724:21726   */\n      0x40\n        /* \"#utility.yul\":21713:21722   */\n      dup4\n        /* \"#utility.yul\":21709:21727   */\n      add\n        /* \"#utility.yul\":21700:21706   */\n      dup9\n        /* \"#utility.yul\":21656:21728   */\n      tag_498\n      jump\t// in\n    tag_794:\n        /* \"#utility.yul\":21775:21784   */\n      dup2\n        /* \"#utility.yul\":21769:21773   */\n      dup2\n        /* \"#utility.yul\":21765:21785   */\n      sub\n        /* \"#utility.yul\":21760:21762   */\n      0x60\n        /* \"#utility.yul\":21749:21758   */\n      dup4\n        /* \"#utility.yul\":21745:21763   */\n      add\n        /* \"#utility.yul\":21738:21786   */\n      mstore\n        /* \"#utility.yul\":21803:21881   */\n      tag_795\n        /* \"#utility.yul\":21876:21880   */\n      dup2\n        /* \"#utility.yul\":21867:21873   */\n      dup8\n        /* \"#utility.yul\":21803:21881   */\n      tag_511\n      jump\t// in\n    tag_795:\n        /* \"#utility.yul\":21795:21881   */\n      swap1\n      pop\n        /* \"#utility.yul\":21891:21976   */\n      tag_796\n        /* \"#utility.yul\":21971:21974   */\n      0x80\n        /* \"#utility.yul\":21960:21969   */\n      dup4\n        /* \"#utility.yul\":21956:21975   */\n      add\n        /* \"#utility.yul\":21947:21953   */\n      dup7\n        /* \"#utility.yul\":21891:21976   */\n      tag_521\n      jump\t// in\n    tag_796:\n        /* \"#utility.yul\":21986:22059   */\n      tag_797\n        /* \"#utility.yul\":22054:22057   */\n      0xa0\n        /* \"#utility.yul\":22043:22052   */\n      dup4\n        /* \"#utility.yul\":22039:22058   */\n      add\n        /* \"#utility.yul\":22030:22036   */\n      dup6\n        /* \"#utility.yul\":21986:22059   */\n      tag_498\n      jump\t// in\n    tag_797:\n        /* \"#utility.yul\":22107:22116   */\n      dup2\n        /* \"#utility.yul\":22101:22105   */\n      dup2\n        /* \"#utility.yul\":22097:22117   */\n      sub\n        /* \"#utility.yul\":22091:22094   */\n      0xc0\n        /* \"#utility.yul\":22080:22089   */\n      dup4\n        /* \"#utility.yul\":22076:22095   */\n      add\n        /* \"#utility.yul\":22069:22118   */\n      mstore\n        /* \"#utility.yul\":22135:22213   */\n      tag_798\n        /* \"#utility.yul\":22208:22212   */\n      dup2\n        /* \"#utility.yul\":22199:22205   */\n      dup5\n        /* \"#utility.yul\":22135:22213   */\n      tag_511\n      jump\t// in\n    tag_798:\n        /* \"#utility.yul\":22127:22213   */\n      swap1\n      pop\n        /* \"#utility.yul\":21128:22220   */\n      swap9\n      swap8\n      pop\n      pop\n      pop\n      pop\n      pop\n      pop\n      pop\n      pop\n      jump\t// out\n        /* \"#utility.yul\":22226:22341   */\n    tag_527:\n        /* \"#utility.yul\":22311:22334   */\n      tag_800\n        /* \"#utility.yul\":22328:22333   */\n      dup2\n        /* \"#utility.yul\":22311:22334   */\n      tag_524\n      jump\t// in\n    tag_800:\n        /* \"#utility.yul\":22306:22309   */\n      dup3\n        /* \"#utility.yul\":22299:22335   */\n      mstore\n        /* \"#utility.yul\":22226:22341   */\n      pop\n      pop\n      jump\t// out\n        /* \"#utility.yul\":22347:22565   */\n    tag_185:\n        /* \"#utility.yul\":22438:22442   */\n      0x00\n        /* \"#utility.yul\":22476:22478   */\n      0x20\n        /* \"#utility.yul\":22465:22474   */\n      dup3\n        /* \"#utility.yul\":22461:22479   */\n      add\n        /* \"#utility.yul\":22453:22479   */\n      swap1\n      pop\n        /* \"#utility.yul\":22489:22558   */\n      tag_802\n        /* \"#utility.yul\":22555:22556   */\n      0x00\n        /* \"#utility.yul\":22544:22553   */\n      dup4\n        /* \"#utility.yul\":22540:22557   */\n      add\n        /* \"#utility.yul\":22531:22537   */\n      dup5\n        /* \"#utility.yul\":22489:22558   */\n      tag_527\n      jump\t// in\n    tag_802:\n        /* \"#utility.yul\":22347:22565   */\n      swap3\n      swap2\n      pop\n      pop\n      jump\t// out\n        /* \"#utility.yul\":22571:22804   */\n    tag_528:\n        /* \"#utility.yul\":22711:22745   */\n      0x4f6e6c79207265676973746572656420636c69656e74732063616e2063616c6c\n        /* \"#utility.yul\":22707:22708   */\n      0x00\n        /* \"#utility.yul\":22699:22705   */\n      dup3\n        /* \"#utility.yul\":22695:22709   */\n      add\n        /* \"#utility.yul\":22688:22746   */\n      mstore\n        /* \"#utility.yul\":22780:22796   */\n      0x20746869732066756e6374696f6e000000000000000000000000000000000000\n        /* \"#utility.yul\":22775:22777   */\n      0x20\n        /* \"#utility.yul\":22767:22773   */\n      dup3\n        /* \"#utility.yul\":22763:22778   */\n      add\n        /* \"#utility.yul\":22756:22797   */\n      mstore\n        /* \"#utility.yul\":22571:22804   */\n      pop\n      jump\t// out\n        /* \"#utility.yul\":22810:23176   */\n    tag_529:\n        /* \"#utility.yul\":22952:22955   */\n      0x00\n        /* \"#utility.yul\":22973:23040   */\n      tag_805\n        /* \"#utility.yul\":23037:23039   */\n      0x2e\n        /* \"#utility.yul\":23032:23035   */\n      dup4\n        /* \"#utility.yul\":22973:23040   */\n      tag_509\n      jump\t// in\n    tag_805:\n        /* \"#utility.yul\":22966:23040   */\n      swap2\n      pop\n        /* \"#utility.yul\":23049:23142   */\n      tag_806\n        /* \"#utility.yul\":23138:23141   */\n      dup3\n        /* \"#utility.yul\":23049:23142   */\n      tag_528\n      jump\t// in\n    tag_806:\n        /* \"#utility.yul\":23167:23169   */\n      0x40\n        /* \"#utility.yul\":23162:23165   */\n      dup3\n        /* \"#utility.yul\":23158:23170   */\n      add\n        /* \"#utility.yul\":23151:23170   */\n      swap1\n      pop\n        /* \"#utility.yul\":22810:23176   */\n      swap2\n      swap1\n      pop\n      jump\t// out\n        /* \"#utility.yul\":23182:23601   */\n    tag_189:\n        /* \"#utility.yul\":23348:23352   */\n      0x00\n        /* \"#utility.yul\":23386:23388   */\n      0x20\n        /* \"#utility.yul\":23375:23384   */\n      dup3\n        /* \"#utility.yul\":23371:23389   */\n      add\n        /* \"#utility.yul\":23363:23389   */\n      swap1\n      pop\n        /* \"#utility.yul\":23435:23444   */\n      dup2\n        /* \"#utility.yul\":23429:23433   */\n      dup2\n        /* \"#utility.yul\":23425:23445   */\n      sub\n        /* \"#utility.yul\":23421:23422   */\n      0x00\n        /* \"#utility.yul\":23410:23419   */\n      dup4\n        /* \"#utility.yul\":23406:23423   */\n      add\n        /* \"#utility.yul\":23399:23446   */\n      mstore\n        /* \"#utility.yul\":23463:23594   */\n      tag_808\n        /* \"#utility.yul\":23589:23593   */\n      dup2\n        /* \"#utility.yul\":23463:23594   */\n      tag_529\n      jump\t// in\n    tag_808:\n        /* \"#utility.yul\":23455:23594   */\n      swap1\n      pop\n        /* \"#utility.yul\":23182:23601   */\n      swap2\n      swap1\n      pop\n      jump\t// out\n        /* \"#utility.yul\":23607:23787   */\n    tag_530:\n        /* \"#utility.yul\":23655:23732   */\n      0x4e487b7100000000000000000000000000000000000000000000000000000000\n        /* \"#utility.yul\":23652:23653   */\n      0x00\n        /* \"#utility.yul\":23645:23733   */\n      mstore\n        /* \"#utility.yul\":23752:23756   */\n      0x22\n        /* \"#utility.yul\":23749:23750   */\n      0x04\n        /* \"#utility.yul\":23742:23757   */\n      mstore\n        /* \"#utility.yul\":23776:23780   */\n      0x24\n        /* \"#utility.yul\":23773:23774   */\n      0x00\n        /* \"#utility.yul\":23766:23781   */\n      revert\n        /* \"#utility.yul\":23793:24113   */\n    tag_214:\n        /* \"#utility.yul\":23837:23843   */\n      0x00\n        /* \"#utility.yul\":23874:23875   */\n      0x02\n        /* \"#utility.yul\":23868:23872   */\n      dup3\n        /* \"#utility.yul\":23864:23876   */\n      div\n        /* \"#utility.yul\":23854:23876   */\n      swap1\n      pop\n        /* \"#utility.yul\":23921:23922   */\n      0x01\n        /* \"#utility.yul\":23915:23919   */\n      dup3\n        /* \"#utility.yul\":23911:23923   */\n      and\n        /* \"#utility.yul\":23942:23960   */\n      dup1\n        /* \"#utility.yul\":23932:24013   */\n      tag_811\n      jumpi\n        /* \"#utility.yul\":23998:24002   */\n      0x7f\n        /* \"#utility.yul\":23990:23996   */\n      dup3\n        /* \"#utility.yul\":23986:24003   */\n      and\n        /* \"#utility.yul\":23976:24003   */\n      swap2\n      pop\n        /* \"#utility.yul\":23932:24013   */\n    tag_811:\n        /* \"#utility.yul\":24060:24062   */\n      0x20\n        /* \"#utility.yul\":24052:24058   */\n      dup3\n        /* \"#utility.yul\":24049:24063   */\n      lt\n        /* \"#utility.yul\":24029:24047   */\n      dup2\n        /* \"#utility.yul\":24026:24064   */\n      sub\n        /* \"#utility.yul\":24023:24107   */\n      tag_812\n      jumpi\n        /* \"#utility.yul\":24079:24097   */\n      tag_813\n      tag_530\n      jump\t// in\n    tag_813:\n        /* \"#utility.yul\":24023:24107   */\n    tag_812:\n        /* \"#utility.yul\":23844:24113   */\n      pop\n        /* \"#utility.yul\":23793:24113   */\n      swap2\n      swap1\n      pop\n      jump\t// out\n        /* \"#utility.yul\":24119:24260   */\n    tag_531:\n        /* \"#utility.yul\":24168:24172   */\n      0x00\n        /* \"#utility.yul\":24191:24194   */\n      dup2\n        /* \"#utility.yul\":24183:24194   */\n      swap1\n      pop\n        /* \"#utility.yul\":24214:24217   */\n      dup2\n        /* \"#utility.yul\":24211:24212   */\n      0x00\n        /* \"#utility.yul\":24204:24218   */\n      mstore\n        /* \"#utility.yul\":24248:24252   */\n      0x20\n        /* \"#utility.yul\":24245:24246   */\n      0x00\n        /* \"#utility.yul\":24235:24253   */\n      keccak256\n        /* \"#utility.yul\":24227:24253   */\n      swap1\n      pop\n        /* \"#utility.yul\":24119:24260   */\n      swap2\n      swap1\n      pop\n      jump\t// out\n        /* \"#utility.yul\":24266:24359   */\n    tag_532:\n        /* \"#utility.yul\":24303:24309   */\n      0x00\n        /* \"#utility.yul\":24350:24352   */\n      0x20\n        /* \"#utility.yul\":24345:24347   */\n      0x1f\n        /* \"#utility.yul\":24338:24343   */\n      dup4\n        /* \"#utility.yul\":24334:24348   */\n      add\n        /* \"#utility.yul\":24330:24353   */\n      div\n        /* \"#utility.yul\":24320:24353   */\n      swap1\n      pop\n        /* \"#utility.yul\":24266:24359   */\n      swap2\n      swap1\n      pop\n      jump\t// out\n        /* \"#utility.yul\":24365:24472   */\n    tag_533:\n        /* \"#utility.yul\":24409:24417   */\n      0x00\n        /* \"#utility.yul\":24459:24464   */\n      dup3\n        /* \"#utility.yul\":24453:24457   */\n      dup3\n        /* \"#utility.yul\":24449:24465   */\n      shl\n        /* \"#utility.yul\":24428:24465   */\n      swap1\n      pop\n        /* \"#utility.yul\":24365:24472   */\n      swap3\n      swap2\n      pop\n      pop\n      jump\t// out\n        /* \"#utility.yul\":24478:24871   */\n    tag_534:\n        /* \"#utility.yul\":24547:24553   */\n      0x00\n        /* \"#utility.yul\":24597:24598   */\n      0x08\n        /* \"#utility.yul\":24585:24595   */\n      dup4\n        /* \"#utility.yul\":24581:24599   */\n      mul\n        /* \"#utility.yul\":24620:24717   */\n      tag_818\n        /* \"#utility.yul\":24650:24716   */\n      0xffffffffffffffffffffffffffffffffffffffffffffffffffffffffffffffff\n        /* \"#utility.yul\":24639:24648   */\n      dup3\n        /* \"#utility.yul\":24620:24717   */\n      tag_533\n      jump\t// in\n    tag_818:\n        /* \"#utility.yul\":24738:24777   */\n      tag_819\n        /* \"#utility.yul\":24768:24776   */\n      dup7\n        /* \"#utility.yul\":24757:24766   */\n      dup4\n        /* \"#utility.yul\":24738:24777   */\n      tag_533\n      jump\t// in\n    tag_819:\n        /* \"#utility.yul\":24726:24777   */\n      swap6\n      pop\n        /* \"#utility.yul\":24810:24814   */\n      dup1\n        /* \"#utility.yul\":24806:24815   */\n      not\n        /* \"#utility.yul\":24799:24804   */\n      dup5\n        /* \"#utility.yul\":24795:24816   */\n      and\n        /* \"#utility.yul\":24786:24816   */\n      swap4\n      pop\n        /* \"#utility.yul\":24859:24863   */\n      dup1\n        /* \"#utility.yul\":24849:24857   */\n      dup7\n        /* \"#utility.yul\":24845:24864   */\n      and\n        /* \"#utility.yul\":24838:24843   */\n      dup5\n        /* \"#utility.yul\":24835:24865   */\n      or\n        /* \"#utility.yul\":24825:24865   */\n      swap3\n      pop\n        /* \"#utility.yul\":24554:24871   */\n      pop\n      pop\n        /* \"#utility.yul\":24478:24871   */\n      swap4\n      swap3\n      pop\n      pop\n      pop\n      jump\t// out\n        /* \"#utility.yul\":24877:24937   */\n    tag_535:\n        /* \"#utility.yul\":24905:24908   */\n      0x00\n        /* \"#utility.yul\":24926:24931   */\n      dup2\n        /* \"#utility.yul\":24919:24931   */\n      swap1\n      pop\n        /* \"#utility.yul\":24877:24937   */\n      swap2\n      swap1\n      pop\n      jump\t// out\n        /* \"#utility.yul\":24943:25085   */\n    tag_536:\n        /* \"#utility.yul\":24993:25002   */\n      0x00\n        /* \"#utility.yul\":25026:25079   */\n      tag_822\n        /* \"#utility.yul\":25044:25078   */\n      tag_823\n        /* \"#utility.yul\":25053:25077   */\n      tag_824\n        /* \"#utility.yul\":25071:25076   */\n      dup5\n        /* \"#utility.yul\":25053:25077   */\n      tag_495\n      jump\t// in\n    tag_824:\n        /* \"#utility.yul\":25044:25078   */\n      tag_535\n      jump\t// in\n    tag_823:\n        /* \"#utility.yul\":25026:25079   */\n      tag_495\n      jump\t// in\n    tag_822:\n        /* \"#utility.yul\":25013:25079   */\n      swap1\n      pop\n        /* \"#utility.yul\":24943:25085   */\n      swap2\n      swap1\n      pop\n      jump\t// out\n        /* \"#utility.yul\":25091:25166   */\n    tag_537:\n        /* \"#utility.yul\":25134:25137   */\n      0x00\n        /* \"#utility.yul\":25155:25160   */\n      dup2\n        /* \"#utility.yul\":25148:25160   */\n      swap1\n      pop\n        /* \"#utility.yul\":25091:25166   */\n      swap2\n      swap1\n      pop\n      jump\t// out\n        /* \"#utility.yul\":25172:25441   */\n    tag_538:\n        /* \"#utility.yul\":25282:25321   */\n      tag_827\n        /* \"#utility.yul\":25313:25320   */\n      dup4\n        /* \"#utility.yul\":25282:25321   */\n      tag_536\n      jump\t// in\n    tag_827:\n        /* \"#utility.yul\":25343:25434   */\n      tag_828\n        /* \"#utility.yul\":25392:25433   */\n      tag_829\n        /* \"#utility.yul\":25416:25432   */\n      dup3\n        /* \"#utility.yul\":25392:25433   */\n      tag_537\n      jump\t// in\n    tag_829:\n        /* \"#utility.yul\":25384:25390   */\n      dup5\n        /* \"#utility.yul\":25377:25381   */\n      dup5\n        /* \"#utility.yul\":25371:25382   */\n      sload\n        /* \"#utility.yul\":25343:25434   */\n      tag_534\n      jump\t// in\n    tag_828:\n        /* \"#utility.yul\":25337:25341   */\n      dup3\n        /* \"#utility.yul\":25330:25435   */\n      sstore\n        /* \"#utility.yul\":25248:25441   */\n      pop\n        /* \"#utility.yul\":25172:25441   */\n      pop\n      pop\n      pop\n      jump\t// out\n        /* \"#utility.yul\":25447:25520   */\n    tag_539:\n        /* \"#utility.yul\":25492:25495   */\n      0x00\n        /* \"#utility.yul\":25447:25520   */\n      swap1\n      jump\t// out\n        /* \"#utility.yul\":25526:25715   */\n    tag_540:\n        /* \"#utility.yul\":25603:25635   */\n      tag_832\n      tag_539\n      jump\t// in\n    tag_832:\n        /* \"#utility.yul\":25644:25709   */\n      tag_833\n        /* \"#utility.yul\":25702:25708   */\n      dup2\n        /* \"#utility.yul\":25694:25700   */\n      dup5\n        /* \"#utility.yul\":25688:25692   */\n      dup5\n        /* \"#utility.yul\":25644:25709   */\n      tag_538\n      jump\t// in\n    tag_833:\n        /* \"#utility.yul\":25579:25715   */\n      pop\n        /* \"#utility.yul\":25526:25715   */\n      pop\n      pop\n      jump\t// out\n        /* \"#utility.yul\":25721:25907   */\n    tag_541:\n        /* \"#utility.yul\":25781:25901   */\n    tag_835:\n        /* \"#utility.yul\":25798:25801   */\n      dup2\n        /* \"#utility.yul\":25791:25796   */\n      dup2\n        /* \"#utility.yul\":25788:25802   */\n      lt\n        /* \"#utility.yul\":25781:25901   */\n      iszero\n      tag_837\n      jumpi\n        /* \"#utility.yul\":25852:25891   */\n      tag_838\n        /* \"#utility.yul\":25889:25890   */\n      0x00\n        /* \"#utility.yul\":25882:25887   */\n      dup3\n        /* \"#utility.yul\":25852:25891   */\n      tag_540\n      jump\t// in\n    tag_838:\n        /* \"#utility.yul\":25825:25826   */\n      0x01\n        /* \"#utility.yul\":25818:25823   */\n      dup2\n        /* \"#utility.yul\":25814:25827   */\n      add\n        /* \"#utility.yul\":25805:25827   */\n      swap1\n      pop\n        /* \"#utility.yul\":25781:25901   */\n      jump(tag_835)\n    tag_837:\n        /* \"#utility.yul\":25721:25907   */\n      pop\n      pop\n      jump\t// out\n        /* \"#utility.yul\":25913:26456   */\n    tag_542:\n        /* \"#utility.yul\":26014:26016   */\n      0x1f\n        /* \"#utility.yul\":26009:26012   */\n      dup3\n        /* \"#utility.yul\":26006:26017   */\n      gt\n        /* \"#utility.yul\":26003:26449   */\n      iszero\n      tag_840\n      jumpi\n        /* \"#utility.yul\":26048:26086   */\n      tag_841\n        /* \"#utility.yul\":26080:26085   */\n      dup2\n        /* \"#utility.yul\":26048:26086   */\n      tag_531\n      jump\t// in\n    tag_841:\n        /* \"#utility.yul\":26132:26161   */\n      tag_842\n        /* \"#utility.yul\":26150:26160   */\n      dup5\n        /* \"#utility.yul\":26132:26161   */\n      tag_532\n      jump\t// in\n    tag_842:\n        /* \"#utility.yul\":26122:26130   */\n      dup2\n        /* \"#utility.yul\":26118:26162   */\n      add\n        /* \"#utility.yul\":26315:26317   */\n      0x20\n        /* \"#utility.yul\":26303:26313   */\n      dup6\n        /* \"#utility.yul\":26300:26318   */\n      lt\n        /* \"#utility.yul\":26297:26346   */\n      iszero\n      tag_843\n      jumpi\n        /* \"#utility.yul\":26336:26344   */\n      dup2\n        /* \"#utility.yul\":26321:26344   */\n      swap1\n      pop\n        /* \"#utility.yul\":26297:26346   */\n    tag_843:\n        /* \"#utility.yul\":26359:26439   */\n      tag_844\n        /* \"#utility.yul\":26415:26437   */\n      tag_845\n        /* \"#utility.yul\":26433:26436   */\n      dup6\n        /* \"#utility.yul\":26415:26437   */\n      tag_532\n      jump\t// in\n    tag_845:\n        /* \"#utility.yul\":26405:26413   */\n      dup4\n        /* \"#utility.yul\":26401:26438   */\n      add\n        /* \"#utility.yul\":26388:26399   */\n      dup3\n        /* \"#utility.yul\":26359:26439   */\n      tag_541\n      jump\t// in\n    tag_844:\n        /* \"#utility.yul\":26018:26449   */\n      pop\n      pop\n        /* \"#utility.yul\":26003:26449   */\n    tag_840:\n        /* \"#utility.yul\":25913:26456   */\n      pop\n      pop\n      pop\n      jump\t// out\n        /* \"#utility.yul\":26462:26579   */\n    tag_543:\n        /* \"#utility.yul\":26516:26524   */\n      0x00\n        /* \"#utility.yul\":26566:26571   */\n      dup3\n        /* \"#utility.yul\":26560:26564   */\n      dup3\n        /* \"#utility.yul\":26556:26572   */\n      shr\n        /* \"#utility.yul\":26535:26572   */\n      swap1\n      pop\n        /* \"#utility.yul\":26462:26579   */\n      swap3\n      swap2\n      pop\n      pop\n      jump\t// out\n        /* \"#utility.yul\":26585:26754   */\n    tag_544:\n        /* \"#utility.yul\":26629:26635   */\n      0x00\n        /* \"#utility.yul\":26662:26713   */\n      tag_848\n        /* \"#utility.yul\":26710:26711   */\n      0x00\n        /* \"#utility.yul\":26706:26712   */\n      not\n        /* \"#utility.yul\":26698:26703   */\n      dup5\n        /* \"#utility.yul\":26695:26696   */\n      0x08\n        /* \"#utility.yul\":26691:26704   */\n      mul\n        /* \"#utility.yul\":26662:26713   */\n      tag_543\n      jump\t// in\n    tag_848:\n        /* \"#utility.yul\":26658:26714   */\n      not\n        /* \"#utility.yul\":26743:26747   */\n      dup1\n        /* \"#utility.yul\":26737:26741   */\n      dup4\n        /* \"#utility.yul\":26733:26748   */\n      and\n        /* \"#utility.yul\":26723:26748   */\n      swap2\n      pop\n        /* \"#utility.yul\":26636:26754   */\n      pop\n        /* \"#utility.yul\":26585:26754   */\n      swap3\n      swap2\n      pop\n      pop\n      jump\t// out\n        /* \"#utility.yul\":26759:27054   */\n    tag_545:\n        /* \"#utility.yul\":26835:26839   */\n      0x00\n        /* \"#utility.yul\":26981:27010   */\n      tag_850\n        /* \"#utility.yul\":27006:27009   */\n      dup4\n        /* \"#utility.yul\":27000:27004   */\n      dup4\n        /* \"#utility.yul\":26981:27010   */\n      tag_544\n      jump\t// in\n    tag_850:\n        /* \"#utility.yul\":26973:27010   */\n      swap2\n      pop\n        /* \"#utility.yul\":27043:27046   */\n      dup3\n        /* \"#utility.yul\":27040:27041   */\n      0x02\n        /* \"#utility.yul\":27036:27047   */\n      mul\n        /* \"#utility.yul\":27030:27034   */\n      dup3\n        /* \"#utility.yul\":27027:27048   */\n      or\n        /* \"#utility.yul\":27019:27048   */\n      swap1\n      pop\n        /* \"#utility.yul\":26759:27054   */\n      swap3\n      swap2\n      pop\n      pop\n      jump\t// out\n        /* \"#utility.yul\":27059:28454   */\n    tag_192:\n        /* \"#utility.yul\":27176:27213   */\n      tag_852\n        /* \"#utility.yul\":27209:27212   */\n      dup3\n        /* \"#utility.yul\":27176:27213   */\n      tag_508\n      jump\t// in\n    tag_852:\n        /* \"#utility.yul\":27278:27296   */\n      0xffffffffffffffff\n        /* \"#utility.yul\":27270:27276   */\n      dup2\n        /* \"#utility.yul\":27267:27297   */\n      gt\n        /* \"#utility.yul\":27264:27320   */\n      iszero\n      tag_853\n      jumpi\n        /* \"#utility.yul\":27300:27318   */\n      tag_854\n      tag_483\n      jump\t// in\n    tag_854:\n        /* \"#utility.yul\":27264:27320   */\n    tag_853:\n        /* \"#utility.yul\":27344:27382   */\n      tag_855\n        /* \"#utility.yul\":27376:27380   */\n      dup3\n        /* \"#utility.yul\":27370:27381   */\n      sload\n        /* \"#utility.yul\":27344:27382   */\n      tag_214\n      jump\t// in\n    tag_855:\n        /* \"#utility.yul\":27429:27496   */\n      tag_856\n        /* \"#utility.yul\":27489:27495   */\n      dup3\n        /* \"#utility.yul\":27481:27487   */\n      dup3\n        /* \"#utility.yul\":27475:27479   */\n      dup6\n        /* \"#utility.yul\":27429:27496   */\n      tag_542\n      jump\t// in\n    tag_856:\n        /* \"#utility.yul\":27523:27524   */\n      0x00\n        /* \"#utility.yul\":27547:27551   */\n      0x20\n        /* \"#utility.yul\":27534:27551   */\n      swap1\n      pop\n        /* \"#utility.yul\":27579:27581   */\n      0x1f\n        /* \"#utility.yul\":27571:27577   */\n      dup4\n        /* \"#utility.yul\":27568:27582   */\n      gt\n        /* \"#utility.yul\":27596:27597   */\n      0x01\n        /* \"#utility.yul\":27591:28209   */\n      dup2\n      eq\n      tag_858\n      jumpi\n        /* \"#utility.yul\":28253:28254   */\n      0x00\n        /* \"#utility.yul\":28270:28276   */\n      dup5\n        /* \"#utility.yul\":28267:28344   */\n      iszero\n      tag_859\n      jumpi\n        /* \"#utility.yul\":28319:28328   */\n      dup3\n        /* \"#utility.yul\":28314:28317   */\n      dup8\n        /* \"#utility.yul\":28310:28329   */\n      add\n        /* \"#utility.yul\":28304:28330   */\n      mload\n        /* \"#utility.yul\":28295:28330   */\n      swap1\n      pop\n        /* \"#utility.yul\":28267:28344   */\n    tag_859:\n        /* \"#utility.yul\":28370:28437   */\n      tag_860\n        /* \"#utility.yul\":28430:28436   */\n      dup6\n        /* \"#utility.yul\":28423:28428   */\n      dup3\n        /* \"#utility.yul\":28370:28437   */\n      tag_545\n      jump\t// in\n    tag_860:\n        /* \"#utility.yul\":28364:28368   */\n      dup7\n        /* \"#utility.yul\":28357:28438   */\n      sstore\n        /* \"#utility.yul\":28226:28448   */\n      pop\n        /* \"#utility.yul\":27561:28448   */\n      jump(tag_857)\n        /* \"#utility.yul\":27591:28209   */\n    tag_858:\n        /* \"#utility.yul\":27643:27647   */\n      0x1f\n        /* \"#utility.yul\":27639:27648   */\n      not\n        /* \"#utility.yul\":27631:27637   */\n      dup5\n        /* \"#utility.yul\":27627:27649   */\n      and\n        /* \"#utility.yul\":27677:27714   */\n      tag_861\n        /* \"#utility.yul\":27709:27713   */\n      dup7\n        /* \"#utility.yul\":27677:27714   */\n      tag_531\n      jump\t// in\n    tag_861:\n        /* \"#utility.yul\":27736:27737   */\n      0x00\n        /* \"#utility.yul\":27750:27958   */\n    tag_862:\n        /* \"#utility.yul\":27764:27771   */\n      dup3\n        /* \"#utility.yul\":27761:27762   */\n      dup2\n        /* \"#utility.yul\":27758:27772   */\n      lt\n        /* \"#utility.yul\":27750:27958   */\n      iszero\n      tag_864\n      jumpi\n        /* \"#utility.yul\":27843:27852   */\n      dup5\n        /* \"#utility.yul\":27838:27841   */\n      dup10\n        /* \"#utility.yul\":27834:27853   */\n      add\n        /* \"#utility.yul\":27828:27854   */\n      mload\n        /* \"#utility.yul\":27820:27826   */\n      dup3\n        /* \"#utility.yul\":27813:27855   */\n      sstore\n        /* \"#utility.yul\":27894:27895   */\n      0x01\n        /* \"#utility.yul\":27886:27892   */\n      dup3\n        /* \"#utility.yul\":27882:27896   */\n      add\n        /* \"#utility.yul\":27872:27896   */\n      swap2\n      pop\n        /* \"#utility.yul\":27941:27943   */\n      0x20\n        /* \"#utility.yul\":27930:27939   */\n      dup6\n        /* \"#utility.yul\":27926:27944   */\n      add\n        /* \"#utility.yul\":27913:27944   */\n      swap5\n      pop\n        /* \"#utility.yul\":27787:27791   */\n      0x20\n        /* \"#utility.yul\":27784:27785   */\n      dup2\n        /* \"#utility.yul\":27780:27792   */\n      add\n        /* \"#utility.yul\":27775:27792   */\n      swap1\n      pop\n        /* \"#utility.yul\":27750:27958   */\n      jump(tag_862)\n    tag_864:\n        /* \"#utility.yul\":27986:27992   */\n      dup7\n        /* \"#utility.yul\":27977:27984   */\n      dup4\n        /* \"#utility.yul\":27974:27993   */\n      lt\n        /* \"#utility.yul\":27971:28150   */\n      iszero\n      tag_865\n      jumpi\n        /* \"#utility.yul\":28044:28053   */\n      dup5\n        /* \"#utility.yul\":28039:28042   */\n      dup10\n        /* \"#utility.yul\":28035:28054   */\n      add\n        /* \"#utility.yul\":28029:28055   */\n      mload\n        /* \"#utility.yul\":28087:28135   */\n      tag_866\n        /* \"#utility.yul\":28129:28133   */\n      0x1f\n        /* \"#utility.yul\":28121:28127   */\n      dup10\n        /* \"#utility.yul\":28117:28134   */\n      and\n        /* \"#utility.yul\":28106:28115   */\n      dup3\n        /* \"#utility.yul\":28087:28135   */\n      tag_544\n      jump\t// in\n    tag_866:\n        /* \"#utility.yul\":28079:28085   */\n      dup4\n        /* \"#utility.yul\":28072:28136   */\n      sstore\n        /* \"#utility.yul\":27994:28150   */\n      pop\n        /* \"#utility.yul\":27971:28150   */\n    tag_865:\n        /* \"#utility.yul\":28196:28197   */\n      0x01\n        /* \"#utility.yul\":28192:28193   */\n      0x02\n        /* \"#utility.yul\":28184:28190   */\n      dup9\n        /* \"#utility.yul\":28180:28194   */\n      mul\n        /* \"#utility.yul\":28176:28198   */\n      add\n        /* \"#utility.yul\":28170:28174   */\n      dup9\n        /* \"#utility.yul\":28163:28199   */\n      sstore\n        /* \"#utility.yul\":27598:28209   */\n      pop\n      pop\n      pop\n        /* \"#utility.yul\":27561:28448   */\n    tag_857:\n      pop\n        /* \"#utility.yul\":27151:28454   */\n      pop\n      pop\n      pop\n        /* \"#utility.yul\":27059:28454   */\n      pop\n      pop\n      jump\t// out\n        /* \"#utility.yul\":28460:28693   */\n    tag_546:\n        /* \"#utility.yul\":28600:28634   */\n      0x4f6e6c7920726567697374657265642076656e646f72732063616e2063616c6c\n        /* \"#utility.yul\":28596:28597   */\n      0x00\n        /* \"#utility.yul\":28588:28594   */\n      dup3\n        /* \"#utility.yul\":28584:28598   */\n      add\n        /* \"#utility.yul\":28577:28635   */\n      mstore\n        /* \"#utility.yul\":28669:28685   */\n      0x20746869732066756e6374696f6e000000000000000000000000000000000000\n        /* \"#utility.yul\":28664:28666   */\n      0x20\n        /* \"#utility.yul\":28656:28662   */\n      dup3\n        /* \"#utility.yul\":28652:28667   */\n      add\n        /* \"#utility.yul\":28645:28686   */\n      mstore\n        /* \"#utility.yul\":28460:28693   */\n      pop\n      jump\t// out\n        /* \"#utility.yul\":28699:29065   */\n    tag_547:\n        /* \"#utility.yul\":28841:28844   */\n      0x00\n        /* \"#utility.yul\":28862:28929   */\n      tag_869\n        /* \"#utility.yul\":28926:28928   */\n      0x2e\n        /* \"#utility.yul\":28921:28924   */\n      dup4\n        /* \"#utility.yul\":28862:28929   */\n      tag_509\n      jump\t// in\n    tag_869:\n        /* \"#utility.yul\":28855:28929   */\n      swap2\n      pop\n        /* \"#utility.yul\":28938:29031   */\n      tag_870\n        /* \"#utility.yul\":29027:29030   */\n      dup3\n        /* \"#utility.yul\":28938:29031   */\n      tag_546\n      jump\t// in\n    tag_870:\n        /* \"#utility.yul\":29056:29058   */\n      0x40\n        /* \"#utility.yul\":29051:29054   */\n      dup3\n        /* \"#utility.yul\":29047:29059   */\n      add\n        /* \"#utility.yul\":29040:29059   */\n      swap1\n      pop\n        /* \"#utility.yul\":28699:29065   */\n      swap2\n      swap1\n      pop\n      jump\t// out\n        /* \"#utility.yul\":29071:29490   */\n    tag_205:\n        /* \"#utility.yul\":29237:29241   */\n      0x00\n        /* \"#utility.yul\":29275:29277   */\n      0x20\n        /* \"#utility.yul\":29264:29273   */\n      dup3\n        /* \"#utility.yul\":29260:29278   */\n      add\n        /* \"#utility.yul\":29252:29278   */\n      swap1\n      pop\n        /* \"#utility.yul\":29324:29333   */\n      dup2\n        /* \"#utility.yul\":29318:29322   */\n      dup2\n        /* \"#utility.yul\":29314:29334   */\n      sub\n        /* \"#utility.yul\":29310:29311   */\n      0x00\n        /* \"#utility.yul\":29299:29308   */\n      dup4\n        /* \"#utility.yul\":29295:29312   */\n      add\n        /* \"#utility.yul\":29288:29335   */\n      mstore\n        /* \"#utility.yul\":29352:29483   */\n      tag_872\n        /* \"#utility.yul\":29478:29482   */\n      dup2\n        /* \"#utility.yul\":29352:29483   */\n      tag_547\n      jump\t// in\n    tag_872:\n        /* \"#utility.yul\":29344:29483   */\n      swap1\n      pop\n        /* \"#utility.yul\":29071:29490   */\n      swap2\n      swap1\n      pop\n      jump\t// out\n        /* \"#utility.yul\":29496:29673   */\n    tag_548:\n        /* \"#utility.yul\":29636:29665   */\n      0x5769746864726177616c20616d6f756e7420746f6f20736d616c6c0000000000\n        /* \"#utility.yul\":29632:29633   */\n      0x00\n        /* \"#utility.yul\":29624:29630   */\n      dup3\n        /* \"#utility.yul\":29620:29634   */\n      add\n        /* \"#utility.yul\":29613:29666   */\n      mstore\n        /* \"#utility.yul\":29496:29673   */\n      pop\n      jump\t// out\n        /* \"#utility.yul\":29679:30045   */\n    tag_549:\n        /* \"#utility.yul\":29821:29824   */\n      0x00\n        /* \"#utility.yul\":29842:29909   */\n      tag_875\n        /* \"#utility.yul\":29906:29908   */\n      0x1b\n        /* \"#utility.yul\":29901:29904   */\n      dup4\n        /* \"#utility.yul\":29842:29909   */\n      tag_509\n      jump\t// in\n    tag_875:\n        /* \"#utility.yul\":29835:29909   */\n      swap2\n      pop\n        /* \"#utility.yul\":29918:30011   */\n      tag_876\n        /* \"#utility.yul\":30007:30010   */\n      dup3\n        /* \"#utility.yul\":29918:30011   */\n      tag_548\n      jump\t// in\n    tag_876:\n        /* \"#utility.yul\":30036:30038   */\n      0x20\n        /* \"#utility.yul\":30031:30034   */\n      dup3\n        /* \"#utility.yul\":30027:30039   */\n      add\n        /* \"#utility.yul\":30020:30039   */\n      swap1\n      pop\n        /* \"#utility.yul\":29679:30045   */\n      swap2\n      swap1\n      pop\n      jump\t// out\n        /* \"#utility.yul\":30051:30470   */\n    tag_209:\n        /* \"#utility.yul\":30217:30221   */\n      0x00\n        /* \"#utility.yul\":30255:30257   */\n      0x20\n        /* \"#utility.yul\":30244:30253   */\n      dup3\n        /* \"#utility.yul\":30240:30258   */\n      add\n        /* \"#utility.yul\":30232:30258   */\n      swap1\n      pop\n        /* \"#utility.yul\":30304:30313   */\n      dup2\n        /* \"#utility.yul\":30298:30302   */\n      dup2\n        /* \"#utility.yul\":30294:30314   */\n      sub\n        /* \"#utility.yul\":30290:30291   */\n      0x00\n        /* \"#utility.yul\":30279:30288   */\n      dup4\n        /* \"#utility.yul\":30275:30292   */\n      add\n        /* \"#utility.yul\":30268:30315   */\n      mstore\n        /* \"#utility.yul\":30332:30463   */\n      tag_878\n        /* \"#utility.yul\":30458:30462   */\n      dup2\n        /* \"#utility.yul\":30332:30463   */\n      tag_549\n      jump\t// in\n    tag_878:\n        /* \"#utility.yul\":30324:30463   */\n      swap1\n      pop\n        /* \"#utility.yul\":30051:30470   */\n      swap2\n      swap1\n      pop\n      jump\t// out\n        /* \"#utility.yul\":30476:30651   */\n    tag_550:\n        /* \"#utility.yul\":30616:30643   */\n      0x436c69656e7420616c7265616479207265676973746572656400000000000000\n        /* \"#utility.yul\":30612:30613   */\n      0x00\n        /* \"#utility.yul\":30604:30610   */\n      dup3\n        /* \"#utility.yul\":30600:30614   */\n      add\n        /* \"#utility.yul\":30593:30644   */\n      mstore\n        /* \"#utility.yul\":30476:30651   */\n      pop\n      jump\t// out\n        /* \"#utility.yul\":30657:31023   */\n    tag_551:\n        /* \"#utility.yul\":30799:30802   */\n      0x00\n        /* \"#utility.yul\":30820:30887   */\n      tag_881\n        /* \"#utility.yul\":30884:30886   */\n      0x19\n        /* \"#utility.yul\":30879:30882   */\n      dup4\n        /* \"#utility.yul\":30820:30887   */\n      tag_509\n      jump\t// in\n    tag_881:\n        /* \"#utility.yul\":30813:30887   */\n      swap2\n      pop\n        /* \"#utility.yul\":30896:30989   */\n      tag_882\n        /* \"#utility.yul\":30985:30988   */\n      dup3\n        /* \"#utility.yul\":30896:30989   */\n      tag_550\n      jump\t// in\n    tag_882:\n        /* \"#utility.yul\":31014:31016   */\n      0x20\n        /* \"#utility.yul\":31009:31012   */\n      dup3\n        /* \"#utility.yul\":31005:31017   */\n      add\n        /* \"#utility.yul\":30998:31017   */\n      swap1\n      pop\n        /* \"#utility.yul\":30657:31023   */\n      swap2\n      swap1\n      pop\n      jump\t// out\n        /* \"#utility.yul\":31029:31448   */\n    tag_237:\n        /* \"#utility.yul\":31195:31199   */\n      0x00\n        /* \"#utility.yul\":31233:31235   */\n      0x20\n        /* \"#utility.yul\":31222:31231   */\n      dup3\n        /* \"#utility.yul\":31218:31236   */\n      add\n        /* \"#utility.yul\":31210:31236   */\n      swap1\n      pop\n        /* \"#utility.yul\":31282:31291   */\n      dup2\n        /* \"#utility.yul\":31276:31280   */\n      dup2\n        /* \"#utility.yul\":31272:31292   */\n      sub\n        /* \"#utility.yul\":31268:31269   */\n      0x00\n        /* \"#utility.yul\":31257:31266   */\n      dup4\n        /* \"#utility.yul\":31253:31270   */\n      add\n        /* \"#utility.yul\":31246:31293   */\n      mstore\n        /* \"#utility.yul\":31310:31441   */\n      tag_884\n        /* \"#utility.yul\":31436:31440   */\n      dup2\n        /* \"#utility.yul\":31310:31441   */\n      tag_551\n      jump\t// in\n    tag_884:\n        /* \"#utility.yul\":31302:31441   */\n      swap1\n      pop\n        /* \"#utility.yul\":31029:31448   */\n      swap2\n      swap1\n      pop\n      jump\t// out\n        /* \"#utility.yul\":31454:31602   */\n    tag_552:\n        /* \"#utility.yul\":31556:31567   */\n      0x00\n        /* \"#utility.yul\":31593:31596   */\n      dup2\n        /* \"#utility.yul\":31578:31596   */\n      swap1\n      pop\n        /* \"#utility.yul\":31454:31602   */\n      swap3\n      swap2\n      pop\n      pop\n      jump\t// out\n        /* \"#utility.yul\":31608:31998   */\n    tag_553:\n        /* \"#utility.yul\":31714:31717   */\n      0x00\n        /* \"#utility.yul\":31742:31781   */\n      tag_887\n        /* \"#utility.yul\":31775:31780   */\n      dup3\n        /* \"#utility.yul\":31742:31781   */\n      tag_508\n      jump\t// in\n    tag_887:\n        /* \"#utility.yul\":31797:31886   */\n      tag_888\n        /* \"#utility.yul\":31879:31885   */\n      dup2\n        /* \"#utility.yul\":31874:31877   */\n      dup6\n        /* \"#utility.yul\":31797:31886   */\n      tag_552\n      jump\t// in\n    tag_888:\n        /* \"#utility.yul\":31790:31886   */\n      swap4\n      pop\n        /* \"#utility.yul\":31895:31960   */\n      tag_889\n        /* \"#utility.yul\":31953:31959   */\n      dup2\n        /* \"#utility.yul\":31948:31951   */\n      dup6\n        /* \"#utility.yul\":31941:31945   */\n      0x20\n        /* \"#utility.yul\":31934:31939   */\n      dup7\n        /* \"#utility.yul\":31930:31946   */\n      add\n        /* \"#utility.yul\":31895:31960   */\n      tag_510\n      jump\t// in\n    tag_889:\n        /* \"#utility.yul\":31985:31991   */\n      dup1\n        /* \"#utility.yul\":31980:31983   */\n      dup5\n        /* \"#utility.yul\":31976:31992   */\n      add\n        /* \"#utility.yul\":31969:31992   */\n      swap2\n      pop\n        /* \"#utility.yul\":31718:31998   */\n      pop\n        /* \"#utility.yul\":31608:31998   */\n      swap3\n      swap2\n      pop\n      pop\n      jump\t// out\n        /* \"#utility.yul\":32004:32279   */\n    tag_239:\n        /* \"#utility.yul\":32136:32139   */\n      0x00\n        /* \"#utility.yul\":32158:32253   */\n      tag_891\n        /* \"#utility.yul\":32249:32252   */\n      dup3\n        /* \"#utility.yul\":32240:32246   */\n      dup5\n        /* \"#utility.yul\":32158:32253   */\n      tag_553\n      jump\t// in\n    tag_891:\n        /* \"#utility.yul\":32151:32253   */\n      swap2\n      pop\n        /* \"#utility.yul\":32270:32273   */\n      dup2\n        /* \"#utility.yul\":32263:32273   */\n      swap1\n      pop\n        /* \"#utility.yul\":32004:32279   */\n      swap3\n      swap2\n      pop\n      pop\n      jump\t// out\n        /* \"#utility.yul\":32285:32459   */\n    tag_554:\n        /* \"#utility.yul\":32425:32451   */\n      0x456d61696c20616c726561647920726567697374657265640000000000000000\n        /* \"#utility.yul\":32421:32422   */\n      0x00\n        /* \"#utility.yul\":32413:32419   */\n      dup3\n        /* \"#utility.yul\":32409:32423   */\n      add\n        /* \"#utility.yul\":32402:32452   */\n      mstore\n        /* \"#utility.yul\":32285:32459   */\n      pop\n      jump\t// out\n        /* \"#utility.yul\":32465:32831   */\n    tag_555:\n        /* \"#utility.yul\":32607:32610   */\n      0x00\n        /* \"#utility.yul\":32628:32695   */\n      tag_894\n        /* \"#utility.yul\":32692:32694   */\n      0x18\n        /* \"#utility.yul\":32687:32690   */\n      dup4\n        /* \"#utility.yul\":32628:32695   */\n      tag_509\n      jump\t// in\n    tag_894:\n        /* \"#utility.yul\":32621:32695   */\n      swap2\n      pop\n        /* \"#utility.yul\":32704:32797   */\n      tag_895\n        /* \"#utility.yul\":32793:32796   */\n      dup3\n        /* \"#utility.yul\":32704:32797   */\n      tag_554\n      jump\t// in\n    tag_895:\n        /* \"#utility.yul\":32822:32824   */\n      0x20\n        /* \"#utility.yul\":32817:32820   */\n      dup3\n        /* \"#utility.yul\":32813:32825   */\n      add\n        /* \"#utility.yul\":32806:32825   */\n      swap1\n      pop\n        /* \"#utility.yul\":32465:32831   */\n      swap2\n      swap1\n      pop\n      jump\t// out\n        /* \"#utility.yul\":32837:33256   */\n    tag_242:\n        /* \"#utility.yul\":33003:33007   */\n      0x00\n        /* \"#utility.yul\":33041:33043   */\n      0x20\n        /* \"#utility.yul\":33030:33039   */\n      dup3\n        /* \"#utility.yul\":33026:33044   */\n      add\n        /* \"#utility.yul\":33018:33044   */\n      swap1\n      pop\n        /* \"#utility.yul\":33090:33099   */\n      dup2\n        /* \"#utility.yul\":33084:33088   */\n      dup2\n        /* \"#utility.yul\":33080:33100   */\n      sub\n        /* \"#utility.yul\":33076:33077   */\n      0x00\n        /* \"#utility.yul\":33065:33074   */\n      dup4\n        /* \"#utility.yul\":33061:33078   */\n      add\n        /* \"#utility.yul\":33054:33101   */\n      mstore\n        /* \"#utility.yul\":33118:33249   */\n      tag_897\n        /* \"#utility.yul\":33244:33248   */\n      dup2\n        /* \"#utility.yul\":33118:33249   */\n      tag_555\n      jump\t// in\n    tag_897:\n        /* \"#utility.yul\":33110:33249   */\n      swap1\n      pop\n        /* \"#utility.yul\":32837:33256   */\n      swap2\n      swap1\n      pop\n      jump\t// out\n        /* \"#utility.yul\":33262:33575   */\n    tag_253:\n        /* \"#utility.yul\":33375:33379   */\n      0x00\n        /* \"#utility.yul\":33413:33415   */\n      0x20\n        /* \"#utility.yul\":33402:33411   */\n      dup3\n        /* \"#utility.yul\":33398:33416   */\n      add\n        /* \"#utility.yul\":33390:33416   */\n      swap1\n      pop\n        /* \"#utility.yul\":33462:33471   */\n      dup2\n        /* \"#utility.yul\":33456:33460   */\n      dup2\n        /* \"#utility.yul\":33452:33472   */\n      sub\n        /* \"#utility.yul\":33448:33449   */\n      0x00\n        /* \"#utility.yul\":33437:33446   */\n      dup4\n        /* \"#utility.yul\":33433:33450   */\n      add\n        /* \"#utility.yul\":33426:33473   */\n      mstore\n        /* \"#utility.yul\":33490:33568   */\n      tag_899\n        /* \"#utility.yul\":33563:33567   */\n      dup2\n        /* \"#utility.yul\":33554:33560   */\n      dup5\n        /* \"#utility.yul\":33490:33568   */\n      tag_511\n      jump\t// in\n    tag_899:\n        /* \"#utility.yul\":33482:33568   */\n      swap1\n      pop\n        /* \"#utility.yul\":33262:33575   */\n      swap3\n      swap2\n      pop\n      pop\n      jump\t// out\n        /* \"#utility.yul\":33581:33801   */\n    tag_556:\n        /* \"#utility.yul\":33721:33755   */\n      0x4f6e6c79206f776e65722063616e2063616c6c20746869732066756e6374696f\n        /* \"#utility.yul\":33717:33718   */\n      0x00\n        /* \"#utility.yul\":33709:33715   */\n      dup3\n        /* \"#utility.yul\":33705:33719   */\n      add\n        /* \"#utility.yul\":33698:33756   */\n      mstore\n        /* \"#utility.yul\":33790:33793   */\n      0x6e00000000000000000000000000000000000000000000000000000000000000\n        /* \"#utility.yul\":33785:33787   */\n      0x20\n        /* \"#utility.yul\":33777:33783   */\n      dup3\n        /* \"#utility.yul\":33773:33788   */\n      add\n        /* \"#utility.yul\":33766:33794   */\n      mstore\n        /* \"#utility.yul\":33581:33801   */\n      pop\n      jump\t// out\n        /* \"#utility.yul\":33807:34173   */\n    tag_557:\n        /* \"#utility.yul\":33949:33952   */\n      0x00\n        /* \"#utility.yul\":33970:34037   */\n      tag_902\n        /* \"#utility.yul\":34034:34036   */\n      0x21\n        /* \"#utility.yul\":34029:34032   */\n      dup4\n        /* \"#utility.yul\":33970:34037   */\n      tag_509\n      jump\t// in\n    tag_902:\n        /* \"#utility.yul\":33963:34037   */\n      swap2\n      pop\n        /* \"#utility.yul\":34046:34139   */\n      tag_903\n        /* \"#utility.yul\":34135:34138   */\n      dup3\n        /* \"#utility.yul\":34046:34139   */\n      tag_556\n      jump\t// in\n    tag_903:\n        /* \"#utility.yul\":34164:34166   */\n      0x40\n        /* \"#utility.yul\":34159:34162   */\n      dup3\n        /* \"#utility.yul\":34155:34167   */\n      add\n        /* \"#utility.yul\":34148:34167   */\n      swap1\n      pop\n        /* \"#utility.yul\":33807:34173   */\n      swap2\n      swap1\n      pop\n      jump\t// out\n        /* \"#utility.yul\":34179:34598   */\n    tag_289:\n        /* \"#utility.yul\":34345:34349   */\n      0x00\n        /* \"#utility.yul\":34383:34385   */\n      0x20\n        /* \"#utility.yul\":34372:34381   */\n      dup3\n        /* \"#utility.yul\":34368:34386   */\n      add\n        /* \"#utility.yul\":34360:34386   */\n      swap1\n      pop\n        /* \"#utility.yul\":34432:34441   */\n      dup2\n        /* \"#utility.yul\":34426:34430   */\n      dup2\n        /* \"#utility.yul\":34422:34442   */\n      sub\n        /* \"#utility.yul\":34418:34419   */\n      0x00\n        /* \"#utility.yul\":34407:34416   */\n      dup4\n        /* \"#utility.yul\":34403:34420   */\n      add\n        /* \"#utility.yul\":34396:34443   */\n      mstore\n        /* \"#utility.yul\":34460:34591   */\n      tag_905\n        /* \"#utility.yul\":34586:34590   */\n      dup2\n        /* \"#utility.yul\":34460:34591   */\n      tag_557\n      jump\t// in\n    tag_905:\n        /* \"#utility.yul\":34452:34591   */\n      swap1\n      pop\n        /* \"#utility.yul\":34179:34598   */\n      swap2\n      swap1\n      pop\n      jump\t// out\n        /* \"#utility.yul\":34604:34775   */\n    tag_558:\n        /* \"#utility.yul\":34744:34767   */\n      0x56656e646f72206e6f7420726567697374657265640000000000000000000000\n        /* \"#utility.yul\":34740:34741   */\n      0x00\n        /* \"#utility.yul\":34732:34738   */\n      dup3\n        /* \"#utility.yul\":34728:34742   */\n      add\n        /* \"#utility.yul\":34721:34768   */\n      mstore\n        /* \"#utility.yul\":34604:34775   */\n      pop\n      jump\t// out\n        /* \"#utility.yul\":34781:35147   */\n    tag_559:\n        /* \"#utility.yul\":34923:34926   */\n      0x00\n        /* \"#utility.yul\":34944:35011   */\n      tag_908\n        /* \"#utility.yul\":35008:35010   */\n      0x15\n        /* \"#utility.yul\":35003:35006   */\n      dup4\n        /* \"#utility.yul\":34944:35011   */\n      tag_509\n      jump\t// in\n    tag_908:\n        /* \"#utility.yul\":34937:35011   */\n      swap2\n      pop\n        /* \"#utility.yul\":35020:35113   */\n      tag_909\n        /* \"#utility.yul\":35109:35112   */\n      dup3\n        /* \"#utility.yul\":35020:35113   */\n      tag_558\n      jump\t// in\n    tag_909:\n        /* \"#utility.yul\":35138:35140   */\n      0x20\n        /* \"#utility.yul\":35133:35136   */\n      dup3\n        /* \"#utility.yul\":35129:35141   */\n      add\n        /* \"#utility.yul\":35122:35141   */\n      swap1\n      pop\n        /* \"#utility.yul\":34781:35147   */\n      swap2\n      swap1\n      pop\n      jump\t// out\n        /* \"#utility.yul\":35153:35572   */\n    tag_294:\n        /* \"#utility.yul\":35319:35323   */\n      0x00\n        /* \"#utility.yul\":35357:35359   */\n      0x20\n        /* \"#utility.yul\":35346:35355   */\n      dup3\n        /* \"#utility.yul\":35342:35360   */\n      add\n        /* \"#utility.yul\":35334:35360   */\n      swap1\n      pop\n        /* \"#utility.yul\":35406:35415   */\n      dup2\n        /* \"#utility.yul\":35400:35404   */\n      dup2\n        /* \"#utility.yul\":35396:35416   */\n      sub\n        /* \"#utility.yul\":35392:35393   */\n      0x00\n        /* \"#utility.yul\":35381:35390   */\n      dup4\n        /* \"#utility.yul\":35377:35394   */\n      add\n        /* \"#utility.yul\":35370:35417   */\n      mstore\n        /* \"#utility.yul\":35434:35565   */\n      tag_911\n        /* \"#utility.yul\":35560:35564   */\n      dup2\n        /* \"#utility.yul\":35434:35565   */\n      tag_559\n      jump\t// in\n    tag_911:\n        /* \"#utility.yul\":35426:35565   */\n      swap1\n      pop\n        /* \"#utility.yul\":35153:35572   */\n      swap2\n      swap1\n      pop\n      jump\t// out\n        /* \"#utility.yul\":35578:35805   */\n    tag_560:\n        /* \"#utility.yul\":35718:35752   */\n      0x5061796d656e7420616d6f756e74206d75737420626520677265617465722074\n        /* \"#utility.yul\":35714:35715   */\n      0x00\n        /* \"#utility.yul\":35706:35712   */\n      dup3\n        /* \"#utility.yul\":35702:35716   */\n      add\n        /* \"#utility.yul\":35695:35753   */\n      mstore\n        /* \"#utility.yul\":35787:35797   */\n      0x68616e207a65726f000000000000000000000000000000000000000000000000\n        /* \"#utility.yul\":35782:35784   */\n      0x20\n        /* \"#utility.yul\":35774:35780   */\n      dup3\n        /* \"#utility.yul\":35770:35785   */\n      add\n        /* \"#utility.yul\":35763:35798   */\n      mstore\n        /* \"#utility.yul\":35578:35805   */\n      pop\n      jump\t// out\n        /* \"#utility.yul\":35811:36177   */\n    tag_561:\n        /* \"#utility.yul\":35953:35956   */\n      0x00\n        /* \"#utility.yul\":35974:36041   */\n      tag_914\n        /* \"#utility.yul\":36038:36040   */\n      0x28\n        /* \"#utility.yul\":36033:36036   */\n      dup4\n        /* \"#utility.yul\":35974:36041   */\n      tag_509\n      jump\t// in\n    tag_914:\n        /* \"#utility.yul\":35967:36041   */\n      swap2\n      pop\n        /* \"#utility.yul\":36050:36143   */\n      tag_915\n        /* \"#utility.yul\":36139:36142   */\n      dup3\n        /* \"#utility.yul\":36050:36143   */\n      tag_560\n      jump\t// in\n    tag_915:\n        /* \"#utility.yul\":36168:36170   */\n      0x40\n        /* \"#utility.yul\":36163:36166   */\n      dup3\n        /* \"#utility.yul\":36159:36171   */\n      add\n        /* \"#utility.yul\":36152:36171   */\n      swap1\n      pop\n        /* \"#utility.yul\":35811:36177   */\n      swap2\n      swap1\n      pop\n      jump\t// out\n        /* \"#utility.yul\":36183:36602   */\n    tag_297:\n        /* \"#utility.yul\":36349:36353   */\n      0x00\n        /* \"#utility.yul\":36387:36389   */\n      0x20\n        /* \"#utility.yul\":36376:36385   */\n      dup3\n        /* \"#utility.yul\":36372:36390   */\n      add\n        /* \"#utility.yul\":36364:36390   */\n      swap1\n      pop\n        /* \"#utility.yul\":36436:36445   */\n      dup2\n        /* \"#utility.yul\":36430:36434   */\n      dup2\n        /* \"#utility.yul\":36426:36446   */\n      sub\n        /* \"#utility.yul\":36422:36423   */\n      0x00\n        /* \"#utility.yul\":36411:36420   */\n      dup4\n        /* \"#utility.yul\":36407:36424   */\n      add\n        /* \"#utility.yul\":36400:36447   */\n      mstore\n        /* \"#utility.yul\":36464:36595   */\n      tag_917\n        /* \"#utility.yul\":36590:36594   */\n      dup2\n        /* \"#utility.yul\":36464:36595   */\n      tag_561\n      jump\t// in\n    tag_917:\n        /* \"#utility.yul\":36456:36595   */\n      swap1\n      pop\n        /* \"#utility.yul\":36183:36602   */\n      swap2\n      swap1\n      pop\n      jump\t// out\n        /* \"#utility.yul\":36608:36788   */\n    tag_562:\n        /* \"#utility.yul\":36656:36733   */\n      0x4e487b7100000000000000000000000000000000000000000000000000000000\n        /* \"#utility.yul\":36653:36654   */\n      0x00\n        /* \"#utility.yul\":36646:36734   */\n      mstore\n        /* \"#utility.yul\":36753:36757   */\n      0x11\n        /* \"#utility.yul\":36750:36751   */\n      0x04\n        /* \"#utility.yul\":36743:36758   */\n      mstore\n        /* \"#utility.yul\":36777:36781   */\n      0x24\n        /* \"#utility.yul\":36774:36775   */\n      0x00\n        /* \"#utility.yul\":36767:36782   */\n      revert\n        /* \"#utility.yul\":36794:37027   */\n    tag_299:\n        /* \"#utility.yul\":36833:36836   */\n      0x00\n        /* \"#utility.yul\":36856:36880   */\n      tag_920\n        /* \"#utility.yul\":36874:36879   */\n      dup3\n        /* \"#utility.yul\":36856:36880   */\n      tag_495\n      jump\t// in\n    tag_920:\n        /* \"#utility.yul\":36847:36880   */\n      swap2\n      pop\n        /* \"#utility.yul\":36902:36968   */\n      0xffffffffffffffffffffffffffffffffffffffffffffffffffffffffffffffff\n        /* \"#utility.yul\":36895:36900   */\n      dup3\n        /* \"#utility.yul\":36892:36969   */\n      sub\n        /* \"#utility.yul\":36889:36992   */\n      tag_921\n      jumpi\n        /* \"#utility.yul\":36972:36990   */\n      tag_922\n      tag_562\n      jump\t// in\n    tag_922:\n        /* \"#utility.yul\":36889:36992   */\n    tag_921:\n        /* \"#utility.yul\":37019:37020   */\n      0x01\n        /* \"#utility.yul\":37012:37017   */\n      dup3\n        /* \"#utility.yul\":37008:37021   */\n      add\n        /* \"#utility.yul\":37001:37021   */\n      swap1\n      pop\n        /* \"#utility.yul\":36794:37027   */\n      swap2\n      swap1\n      pop\n      jump\t// out\n        /* \"#utility.yul\":37033:37443   */\n    tag_314:\n        /* \"#utility.yul\":37073:37080   */\n      0x00\n        /* \"#utility.yul\":37096:37116   */\n      tag_924\n        /* \"#utility.yul\":37114:37115   */\n      dup3\n        /* \"#utility.yul\":37096:37116   */\n      tag_495\n      jump\t// in\n    tag_924:\n        /* \"#utility.yul\":37091:37116   */\n      swap2\n      pop\n        /* \"#utility.yul\":37130:37150   */\n      tag_925\n        /* \"#utility.yul\":37148:37149   */\n      dup4\n        /* \"#utility.yul\":37130:37150   */\n      tag_495\n      jump\t// in\n    tag_925:\n        /* \"#utility.yul\":37125:37150   */\n      swap3\n      pop\n        /* \"#utility.yul\":37185:37186   */\n      dup3\n        /* \"#utility.yul\":37182:37183   */\n      dup3\n        /* \"#utility.yul\":37178:37187   */\n      mul\n        /* \"#utility.yul\":37207:37237   */\n      tag_926\n        /* \"#utility.yul\":37225:37236   */\n      dup2\n        /* \"#utility.yul\":37207:37237   */\n      tag_495\n      jump\t// in\n    tag_926:\n        /* \"#utility.yul\":37196:37237   */\n      swap2\n      pop\n        /* \"#utility.yul\":37386:37387   */\n      dup3\n        /* \"#utility.yul\":37377:37384   */\n      dup3\n        /* \"#utility.yul\":37373:37388   */\n      div\n        /* \"#utility.yul\":37370:37371   */\n      dup5\n        /* \"#utility.yul\":37367:37389   */\n      eq\n        /* \"#utility.yul\":37347:37348   */\n      dup4\n        /* \"#utility.yul\":37340:37349   */\n      iszero\n        /* \"#utility.yul\":37320:37403   */\n      or\n        /* \"#utility.yul\":37297:37436   */\n      tag_927\n      jumpi\n        /* \"#utility.yul\":37416:37434   */\n      tag_928\n      tag_562\n      jump\t// in\n    tag_928:\n        /* \"#utility.yul\":37297:37436   */\n    tag_927:\n        /* \"#utility.yul\":37081:37443   */\n      pop\n        /* \"#utility.yul\":37033:37443   */\n      swap3\n      swap2\n      pop\n      pop\n      jump\t// out\n        /* \"#utility.yul\":37449:37629   */\n    tag_563:\n        /* \"#utility.yul\":37497:37574   */\n      0x4e487b7100000000000000000000000000000000000000000000000000000000\n        /* \"#utility.yul\":37494:37495   */\n      0x00\n        /* \"#utility.yul\":37487:37575   */\n      mstore\n        /* \"#utility.yul\":37594:37598   */\n      0x12\n        /* \"#utility.yul\":37591:37592   */\n      0x04\n        /* \"#utility.yul\":37584:37599   */\n      mstore\n        /* \"#utility.yul\":37618:37622   */\n      0x24\n        /* \"#utility.yul\":37615:37616   */\n      0x00\n        /* \"#utility.yul\":37608:37623   */\n      revert\n        /* \"#utility.yul\":37635:37820   */\n    tag_316:\n        /* \"#utility.yul\":37675:37676   */\n      0x00\n        /* \"#utility.yul\":37692:37712   */\n      tag_931\n        /* \"#utility.yul\":37710:37711   */\n      dup3\n        /* \"#utility.yul\":37692:37712   */\n      tag_495\n      jump\t// in\n    tag_931:\n        /* \"#utility.yul\":37687:37712   */\n      swap2\n      pop\n        /* \"#utility.yul\":37726:37746   */\n      tag_932\n        /* \"#utility.yul\":37744:37745   */\n      dup4\n        /* \"#utility.yul\":37726:37746   */\n      tag_495\n      jump\t// in\n    tag_932:\n        /* \"#utility.yul\":37721:37746   */\n      swap3\n      pop\n        /* \"#utility.yul\":37765:37766   */\n      dup3\n        /* \"#utility.yul\":37755:37790   */\n      tag_933\n      jumpi\n        /* \"#utility.yul\":37770:37788   */\n      tag_934\n      tag_563\n      jump\t// in\n    tag_934:\n        /* \"#utility.yul\":37755:37790   */\n    tag_933:\n        /* \"#utility.yul\":37812:37813   */\n      dup3\n        /* \"#utility.yul\":37809:37810   */\n      dup3\n        /* \"#utility.yul\":37805:37814   */\n      div\n        /* \"#utility.yul\":37800:37814   */\n      swap1\n      pop\n        /* \"#utility.yul\":37635:37820   */\n      swap3\n      swap2\n      pop\n      pop\n      jump\t// out\n        /* \"#utility.yul\":37826:38020   */\n    tag_318:\n        /* \"#utility.yul\":37866:37870   */\n      0x00\n        /* \"#utility.yul\":37886:37906   */\n      tag_936\n        /* \"#utility.yul\":37904:37905   */\n      dup3\n        /* \"#utility.yul\":37886:37906   */\n      tag_495\n      jump\t// in\n    tag_936:\n        /* \"#utility.yul\":37881:37906   */\n      swap2\n      pop\n        /* \"#utility.yul\":37920:37940   */\n      tag_937\n        /* \"#utility.yul\":37938:37939   */\n      dup4\n        /* \"#utility.yul\":37920:37940   */\n      tag_495\n      jump\t// in\n    tag_937:\n        /* \"#utility.yul\":37915:37940   */\n      swap3\n      pop\n        /* \"#utility.yul\":37964:37965   */\n      dup3\n        /* \"#utility.yul\":37961:37962   */\n      dup3\n        /* \"#utility.yul\":37957:37966   */\n      sub\n        /* \"#utility.yul\":37949:37966   */\n      swap1\n      pop\n        /* \"#utility.yul\":37988:37989   */\n      dup2\n        /* \"#utility.yul\":37982:37986   */\n      dup2\n        /* \"#utility.yul\":37979:37990   */\n      gt\n        /* \"#utility.yul\":37976:38013   */\n      iszero\n      tag_938\n      jumpi\n        /* \"#utility.yul\":37993:38011   */\n      tag_939\n      tag_562\n      jump\t// in\n    tag_939:\n        /* \"#utility.yul\":37976:38013   */\n    tag_938:\n        /* \"#utility.yul\":37826:38020   */\n      swap3\n      swap2\n      pop\n      pop\n      jump\t// out\n        /* \"#utility.yul\":38026:38217   */\n    tag_320:\n        /* \"#utility.yul\":38066:38069   */\n      0x00\n        /* \"#utility.yul\":38085:38105   */\n      tag_941\n        /* \"#utility.yul\":38103:38104   */\n      dup3\n        /* \"#utility.yul\":38085:38105   */\n      tag_495\n      jump\t// in\n    tag_941:\n        /* \"#utility.yul\":38080:38105   */\n      swap2\n      pop\n        /* \"#utility.yul\":38119:38139   */\n      tag_942\n        /* \"#utility.yul\":38137:38138   */\n      dup4\n        /* \"#utility.yul\":38119:38139   */\n      tag_495\n      jump\t// in\n    tag_942:\n        /* \"#utility.yul\":38114:38139   */\n      swap3\n      pop\n        /* \"#utility.yul\":38162:38163   */\n      dup3\n        /* \"#utility.yul\":38159:38160   */\n      dup3\n        /* \"#utility.yul\":38155:38164   */\n      add\n        /* \"#utility.yul\":38148:38164   */\n      swap1\n      pop\n        /* \"#utility.yul\":38183:38186   */\n      dup1\n        /* \"#utility.yul\":38180:38181   */\n      dup3\n        /* \"#utility.yul\":38177:38187   */\n      gt\n        /* \"#utility.yul\":38174:38210   */\n      iszero\n      tag_943\n      jumpi\n        /* \"#utility.yul\":38190:38208   */\n      tag_944\n      tag_562\n      jump\t// in\n    tag_944:\n        /* \"#utility.yul\":38174:38210   */\n    tag_943:\n        /* \"#utility.yul\":38026:38217   */\n      swap3\n      swap2\n      pop\n      pop\n      jump\t// out\n        /* \"#utility.yul\":38223:38665   */\n    tag_322:\n        /* \"#utility.yul\":38372:38376   */\n      0x00\n        /* \"#utility.yul\":38410:38412   */\n      0x60\n        /* \"#utility.yul\":38399:38408   */\n      dup3\n        /* \"#utility.yul\":38395:38413   */\n      add\n        /* \"#utility.yul\":38387:38413   */\n      swap1\n      pop\n        /* \"#utility.yul\":38423:38494   */\n      tag_946\n        /* \"#utility.yul\":38491:38492   */\n      0x00\n        /* \"#utility.yul\":38480:38489   */\n      dup4\n        /* \"#utility.yul\":38476:38493   */\n      add\n        /* \"#utility.yul\":38467:38473   */\n      dup7\n        /* \"#utility.yul\":38423:38494   */\n      tag_492\n      jump\t// in\n    tag_946:\n        /* \"#utility.yul\":38504:38576   */\n      tag_947\n        /* \"#utility.yul\":38572:38574   */\n      0x20\n        /* \"#utility.yul\":38561:38570   */\n      dup4\n        /* \"#utility.yul\":38557:38575   */\n      add\n        /* \"#utility.yul\":38548:38554   */\n      dup6\n        /* \"#utility.yul\":38504:38576   */\n      tag_492\n      jump\t// in\n    tag_947:\n        /* \"#utility.yul\":38586:38658   */\n      tag_948\n        /* \"#utility.yul\":38654:38656   */\n      0x40\n        /* \"#utility.yul\":38643:38652   */\n      dup4\n        /* \"#utility.yul\":38639:38657   */\n      add\n        /* \"#utility.yul\":38630:38636   */\n      dup5\n        /* \"#utility.yul\":38586:38658   */\n      tag_498\n      jump\t// in\n    tag_948:\n        /* \"#utility.yul\":38223:38665   */\n      swap5\n      swap4\n      pop\n      pop\n      pop\n      pop\n      jump\t// out\n        /* \"#utility.yul\":38671:38846   */\n    tag_564:\n        /* \"#utility.yul\":38811:38838   */\n      0x56656e646f7220616c7265616479207265676973746572656400000000000000\n        /* \"#utility.yul\":38807:38808   */\n      0x00\n        /* \"#utility.yul\":38799:38805   */\n      dup3\n        /* \"#utility.yul\":38795:38809   */\n      add\n        /* \"#utility.yul\":38788:38839   */\n      mstore\n        /* \"#utility.yul\":38671:38846   */\n      pop\n      jump\t// out\n        /* \"#utility.yul\":38852:39218   */\n    tag_565:\n        /* \"#utility.yul\":38994:38997   */\n      0x00\n        /* \"#utility.yul\":39015:39082   */\n      tag_951\n        /* \"#utility.yul\":39079:39081   */\n      0x19\n        /* \"#utility.yul\":39074:39077   */\n      dup4\n        /* \"#utility.yul\":39015:39082   */\n      tag_509\n      jump\t// in\n    tag_951:\n        /* \"#utility.yul\":39008:39082   */\n      swap2\n      pop\n        /* \"#utility.yul\":39091:39184   */\n      tag_952\n        /* \"#utility.yul\":39180:39183   */\n      dup3\n        /* \"#utility.yul\":39091:39184   */\n      tag_564\n      jump\t// in\n    tag_952:\n        /* \"#utility.yul\":39209:39211   */\n      0x20\n        /* \"#utility.yul\":39204:39207   */\n      dup3\n        /* \"#utility.yul\":39200:39212   */\n      add\n        /* \"#utility.yul\":39193:39212   */\n      swap1\n      pop\n        /* \"#utility.yul\":38852:39218   */\n      swap2\n      swap1\n      pop\n      jump\t// out\n        /* \"#utility.yul\":39224:39643   */\n    tag_352:\n        /* \"#utility.yul\":39390:39394   */\n      0x00\n        /* \"#utility.yul\":39428:39430   */\n      0x20\n        /* \"#utility.yul\":39417:39426   */\n      dup3\n        /* \"#utility.yul\":39413:39431   */\n      add\n        /* \"#utility.yul\":39405:39431   */\n      swap1\n      pop\n        /* \"#utility.yul\":39477:39486   */\n      dup2\n        /* \"#utility.yul\":39471:39475   */\n      dup2\n        /* \"#utility.yul\":39467:39487   */\n      sub\n        /* \"#utility.yul\":39463:39464   */\n      0x00\n        /* \"#utility.yul\":39452:39461   */\n      dup4\n        /* \"#utility.yul\":39448:39465   */\n      add\n        /* \"#utility.yul\":39441:39488   */\n      mstore\n        /* \"#utility.yul\":39505:39636   */\n      tag_954\n        /* \"#utility.yul\":39631:39635   */\n      dup2\n        /* \"#utility.yul\":39505:39636   */\n      tag_565\n      jump\t// in\n    tag_954:\n        /* \"#utility.yul\":39497:39636   */\n      swap1\n      pop\n        /* \"#utility.yul\":39224:39643   */\n      swap2\n      swap1\n      pop\n      jump\t// out\n        /* \"#utility.yul\":39649:40163   */\n    tag_362:\n        /* \"#utility.yul\":39810:39814   */\n      0x00\n        /* \"#utility.yul\":39848:39850   */\n      0x40\n        /* \"#utility.yul\":39837:39846   */\n      dup3\n        /* \"#utility.yul\":39833:39851   */\n      add\n        /* \"#utility.yul\":39825:39851   */\n      swap1\n      pop\n        /* \"#utility.yul\":39897:39906   */\n      dup2\n        /* \"#utility.yul\":39891:39895   */\n      dup2\n        /* \"#utility.yul\":39887:39907   */\n      sub\n        /* \"#utility.yul\":39883:39884   */\n      0x00\n        /* \"#utility.yul\":39872:39881   */\n      dup4\n        /* \"#utility.yul\":39868:39885   */\n      add\n        /* \"#utility.yul\":39861:39908   */\n      mstore\n        /* \"#utility.yul\":39925:40003   */\n      tag_956\n        /* \"#utility.yul\":39998:40002   */\n      dup2\n        /* \"#utility.yul\":39989:39995   */\n      dup6\n        /* \"#utility.yul\":39925:40003   */\n      tag_511\n      jump\t// in\n    tag_956:\n        /* \"#utility.yul\":39917:40003   */\n      swap1\n      pop\n        /* \"#utility.yul\":40050:40059   */\n      dup2\n        /* \"#utility.yul\":40044:40048   */\n      dup2\n        /* \"#utility.yul\":40040:40060   */\n      sub\n        /* \"#utility.yul\":40035:40037   */\n      0x20\n        /* \"#utility.yul\":40024:40033   */\n      dup4\n        /* \"#utility.yul\":40020:40038   */\n      add\n        /* \"#utility.yul\":40013:40061   */\n      mstore\n        /* \"#utility.yul\":40078:40156   */\n      tag_957\n        /* \"#utility.yul\":40151:40155   */\n      dup2\n        /* \"#utility.yul\":40142:40148   */\n      dup5\n        /* \"#utility.yul\":40078:40156   */\n      tag_511\n      jump\t// in\n    tag_957:\n        /* \"#utility.yul\":40070:40156   */\n      swap1\n      pop\n        /* \"#utility.yul\":39649:40163   */\n      swap4\n      swap3\n      pop\n      pop\n      pop\n      jump\t// out\n        /* \"#utility.yul\":40169:40339   */\n    tag_566:\n        /* \"#utility.yul\":40309:40331   */\n      0x4f7264657220646f6573206e6f74206578697374000000000000000000000000\n        /* \"#utility.yul\":40305:40306   */\n      0x00\n        /* \"#utility.yul\":40297:40303   */\n      dup3\n        /* \"#utility.yul\":40293:40307   */\n      add\n        /* \"#utility.yul\":40286:40332   */\n      mstore\n        /* \"#utility.yul\":40169:40339   */\n      pop\n      jump\t// out\n        /* \"#utility.yul\":40345:40711   */\n    tag_567:\n        /* \"#utility.yul\":40487:40490   */\n      0x00\n        /* \"#utility.yul\":40508:40575   */\n      tag_960\n        /* \"#utility.yul\":40572:40574   */\n      0x14\n        /* \"#utility.yul\":40567:40570   */\n      dup4\n        /* \"#utility.yul\":40508:40575   */\n      tag_509\n      jump\t// in\n    tag_960:\n        /* \"#utility.yul\":40501:40575   */\n      swap2\n      pop\n        /* \"#utility.yul\":40584:40677   */\n      tag_961\n        /* \"#utility.yul\":40673:40676   */\n      dup3\n        /* \"#utility.yul\":40584:40677   */\n      tag_566\n      jump\t// in\n    tag_961:\n        /* \"#utility.yul\":40702:40704   */\n      0x20\n        /* \"#utility.yul\":40697:40700   */\n      dup3\n        /* \"#utility.yul\":40693:40705   */\n      add\n        /* \"#utility.yul\":40686:40705   */\n      swap1\n      pop\n        /* \"#utility.yul\":40345:40711   */\n      swap2\n      swap1\n      pop\n      jump\t// out\n        /* \"#utility.yul\":40717:41136   */\n    tag_392:\n        /* \"#utility.yul\":40883:40887   */\n      0x00\n        /* \"#utility.yul\":40921:40923   */\n      0x20\n        /* \"#utility.yul\":40910:40919   */\n      dup3\n        /* \"#utility.yul\":40906:40924   */\n      add\n        /* \"#utility.yul\":40898:40924   */\n      swap1\n      pop\n        /* \"#utility.yul\":40970:40979   */\n      dup2\n        /* \"#utility.yul\":40964:40968   */\n      dup2\n        /* \"#utility.yul\":40960:40980   */\n      sub\n        /* \"#utility.yul\":40956:40957   */\n      0x00\n        /* \"#utility.yul\":40945:40954   */\n      dup4\n        /* \"#utility.yul\":40941:40958   */\n      add\n        /* \"#utility.yul\":40934:40981   */\n      mstore\n        /* \"#utility.yul\":40998:41129   */\n      tag_963\n        /* \"#utility.yul\":41124:41128   */\n      dup2\n        /* \"#utility.yul\":40998:41129   */\n      tag_567\n      jump\t// in\n    tag_963:\n        /* \"#utility.yul\":40990:41129   */\n      swap1\n      pop\n        /* \"#utility.yul\":40717:41136   */\n      swap2\n      swap1\n      pop\n      jump\t// out\n        /* \"#utility.yul\":41142:41373   */\n    tag_568:\n        /* \"#utility.yul\":41282:41316   */\n      0x4f6e6c792076656e646f72206f72206f776e65722063616e2075706461746520\n        /* \"#utility.yul\":41278:41279   */\n      0x00\n        /* \"#utility.yul\":41270:41276   */\n      dup3\n        /* \"#utility.yul\":41266:41280   */\n      add\n        /* \"#utility.yul\":41259:41317   */\n      mstore\n        /* \"#utility.yul\":41351:41365   */\n      0x6f72646572207374617475730000000000000000000000000000000000000000\n        /* \"#utility.yul\":41346:41348   */\n      0x20\n        /* \"#utility.yul\":41338:41344   */\n      dup3\n        /* \"#utility.yul\":41334:41349   */\n      add\n        /* \"#utility.yul\":41327:41366   */\n      mstore\n        /* \"#utility.yul\":41142:41373   */\n      pop\n      jump\t// out\n        /* \"#utility.yul\":41379:41745   */\n    tag_569:\n        /* \"#utility.yul\":41521:41524   */\n      0x00\n        /* \"#utility.yul\":41542:41609   */\n      tag_966\n        /* \"#utility.yul\":41606:41608   */\n      0x2c\n        /* \"#utility.yul\":41601:41604   */\n      dup4\n        /* \"#utility.yul\":41542:41609   */\n      tag_509\n      jump\t// in\n    tag_966:\n        /* \"#utility.yul\":41535:41609   */\n      swap2\n      pop\n        /* \"#utility.yul\":41618:41711   */\n      tag_967\n        /* \"#utility.yul\":41707:41710   */\n      dup3\n        /* \"#utility.yul\":41618:41711   */\n      tag_568\n      jump\t// in\n    tag_967:\n        /* \"#utility.yul\":41736:41738   */\n      0x40\n        /* \"#utility.yul\":41731:41734   */\n      dup3\n        /* \"#utility.yul\":41727:41739   */\n      add\n        /* \"#utility.yul\":41720:41739   */\n      swap1\n      pop\n        /* \"#utility.yul\":41379:41745   */\n      swap2\n      swap1\n      pop\n      jump\t// out\n        /* \"#utility.yul\":41751:42170   */\n    tag_397:\n        /* \"#utility.yul\":41917:41921   */\n      0x00\n        /* \"#utility.yul\":41955:41957   */\n      0x20\n        /* \"#utility.yul\":41944:41953   */\n      dup3\n        /* \"#utility.yul\":41940:41958   */\n      add\n        /* \"#utility.yul\":41932:41958   */\n      swap1\n      pop\n        /* \"#utility.yul\":42004:42013   */\n      dup2\n        /* \"#utility.yul\":41998:42002   */\n      dup2\n        /* \"#utility.yul\":41994:42014   */\n      sub\n        /* \"#utility.yul\":41990:41991   */\n      0x00\n        /* \"#utility.yul\":41979:41988   */\n      dup4\n        /* \"#utility.yul\":41975:41992   */\n      add\n        /* \"#utility.yul\":41968:42015   */\n      mstore\n        /* \"#utility.yul\":42032:42163   */\n      tag_969\n        /* \"#utility.yul\":42158:42162   */\n      dup2\n        /* \"#utility.yul\":42032:42163   */\n      tag_569\n      jump\t// in\n    tag_969:\n        /* \"#utility.yul\":42024:42163   */\n      swap1\n      pop\n        /* \"#utility.yul\":41751:42170   */\n      swap2\n      swap1\n      pop\n      jump\t// out\n        /* \"#utility.yul\":42176:42405   */\n    tag_570:\n        /* \"#utility.yul\":42316:42350   */\n      0x43616e6e6f74207570646174652063616e63656c6c6564206f7220726566756e\n        /* \"#utility.yul\":42312:42313   */\n      0x00\n        /* \"#utility.yul\":42304:42310   */\n      dup3\n        /* \"#utility.yul\":42300:42314   */\n      add\n        /* \"#utility.yul\":42293:42351   */\n      mstore\n        /* \"#utility.yul\":42385:42397   */\n      0x646564206f726465727300000000000000000000000000000000000000000000\n        /* \"#utility.yul\":42380:42382   */\n      0x20\n        /* \"#utility.yul\":42372:42378   */\n      dup3\n        /* \"#utility.yul\":42368:42383   */\n      add\n        /* \"#utility.yul\":42361:42398   */\n      mstore\n        /* \"#utility.yul\":42176:42405   */\n      pop\n      jump\t// out\n        /* \"#utility.yul\":42411:42777   */\n    tag_571:\n        /* \"#utility.yul\":42553:42556   */\n      0x00\n        /* \"#utility.yul\":42574:42641   */\n      tag_972\n        /* \"#utility.yul\":42638:42640   */\n      0x2a\n        /* \"#utility.yul\":42633:42636   */\n      dup4\n        /* \"#utility.yul\":42574:42641   */\n      tag_509\n      jump\t// in\n    tag_972:\n        /* \"#utility.yul\":42567:42641   */\n      swap2\n      pop\n        /* \"#utility.yul\":42650:42743   */\n      tag_973\n        /* \"#utility.yul\":42739:42742   */\n      dup3\n        /* \"#utility.yul\":42650:42743   */\n      tag_570\n      jump\t// in\n    tag_973:\n        /* \"#utility.yul\":42768:42770   */\n      0x40\n        /* \"#utility.yul\":42763:42766   */\n      dup3\n        /* \"#utility.yul\":42759:42771   */\n      add\n        /* \"#utility.yul\":42752:42771   */\n      swap1\n      pop\n        /* \"#utility.yul\":42411:42777   */\n      swap2\n      swap1\n      pop\n      jump\t// out\n        /* \"#utility.yul\":42783:43202   */\n    tag_409:\n        /* \"#utility.yul\":42949:42953   */\n      0x00\n        /* \"#utility.yul\":42987:42989   */\n      0x20\n        /* \"#utility.yul\":42976:42985   */\n      dup3\n        /* \"#utility.yul\":42972:42990   */\n      add\n        /* \"#utility.yul\":42964:42990   */\n      swap1\n      pop\n        /* \"#utility.yul\":43036:43045   */\n      dup2\n        /* \"#utility.yul\":43030:43034   */\n      dup2\n        /* \"#utility.yul\":43026:43046   */\n      sub\n        /* \"#utility.yul\":43022:43023   */\n      0x00\n        /* \"#utility.yul\":43011:43020   */\n      dup4\n        /* \"#utility.yul\":43007:43024   */\n      add\n        /* \"#utility.yul\":43000:43047   */\n      mstore\n        /* \"#utility.yul\":43064:43195   */\n      tag_975\n        /* \"#utility.yul\":43190:43194   */\n      dup2\n        /* \"#utility.yul\":43064:43195   */\n      tag_571\n      jump\t// in\n    tag_975:\n        /* \"#utility.yul\":43056:43195   */\n      swap1\n      pop\n        /* \"#utility.yul\":42783:43202   */\n      swap2\n      swap1\n      pop\n      jump\t// out\n        /* \"#utility.yul\":43208:43454   */\n    tag_413:\n        /* \"#utility.yul\":43313:43317   */\n      0x00\n        /* \"#utility.yul\":43351:43353   */\n      0x20\n        /* \"#utility.yul\":43340:43349   */\n      dup3\n        /* \"#utility.yul\":43336:43354   */\n      add\n        /* \"#utility.yul\":43328:43354   */\n      swap1\n      pop\n        /* \"#utility.yul\":43364:43447   */\n      tag_977\n        /* \"#utility.yul\":43444:43445   */\n      0x00\n        /* \"#utility.yul\":43433:43442   */\n      dup4\n        /* \"#utility.yul\":43429:43446   */\n      add\n        /* \"#utility.yul\":43420:43426   */\n      dup5\n        /* \"#utility.yul\":43364:43447   */\n      tag_521\n      jump\t// in\n    tag_977:\n        /* \"#utility.yul\":43208:43454   */\n      swap3\n      swap2\n      pop\n      pop\n      jump\t// out\n        /* \"#utility.yul\":43460:43632   */\n    tag_572:\n        /* \"#utility.yul\":43600:43624   */\n      0x4e6f2062616c616e636520746f20776974686472617700000000000000000000\n        /* \"#utility.yul\":43596:43597   */\n      0x00\n        /* \"#utility.yul\":43588:43594   */\n      dup3\n        /* \"#utility.yul\":43584:43598   */\n      add\n        /* \"#utility.yul\":43577:43625   */\n      mstore\n        /* \"#utility.yul\":43460:43632   */\n      pop\n      jump\t// out\n        /* \"#utility.yul\":43638:44004   */\n    tag_573:\n        /* \"#utility.yul\":43780:43783   */\n      0x00\n        /* \"#utility.yul\":43801:43868   */\n      tag_980\n        /* \"#utility.yul\":43865:43867   */\n      0x16\n        /* \"#utility.yul\":43860:43863   */\n      dup4\n        /* \"#utility.yul\":43801:43868   */\n      tag_509\n      jump\t// in\n    tag_980:\n        /* \"#utility.yul\":43794:43868   */\n      swap2\n      pop\n        /* \"#utility.yul\":43877:43970   */\n      tag_981\n        /* \"#utility.yul\":43966:43969   */\n      dup3\n        /* \"#utility.yul\":43877:43970   */\n      tag_572\n      jump\t// in\n    tag_981:\n        /* \"#utility.yul\":43995:43997   */\n      0x20\n        /* \"#utility.yul\":43990:43993   */\n      dup3\n        /* \"#utility.yul\":43986:43998   */\n      add\n        /* \"#utility.yul\":43979:43998   */\n      swap1\n      pop\n        /* \"#utility.yul\":43638:44004   */\n      swap2\n      swap1\n      pop\n      jump\t// out\n        /* \"#utility.yul\":44010:44429   */\n    tag_433:\n        /* \"#utility.yul\":44176:44180   */\n      0x00\n        /* \"#utility.yul\":44214:44216   */\n      0x20\n        /* \"#utility.yul\":44203:44212   */\n      dup3\n        /* \"#utility.yul\":44199:44217   */\n      add\n        /* \"#utility.yul\":44191:44217   */\n      swap1\n      pop\n        /* \"#utility.yul\":44263:44272   */\n      dup2\n        /* \"#utility.yul\":44257:44261   */\n      dup2\n        /* \"#utility.yul\":44253:44273   */\n      sub\n        /* \"#utility.yul\":44249:44250   */\n      0x00\n        /* \"#utility.yul\":44238:44247   */\n      dup4\n        /* \"#utility.yul\":44234:44251   */\n      add\n        /* \"#utility.yul\":44227:44274   */\n      mstore\n        /* \"#utility.yul\":44291:44422   */\n      tag_983\n        /* \"#utility.yul\":44417:44421   */\n      dup2\n        /* \"#utility.yul\":44291:44422   */\n      tag_573\n      jump\t// in\n    tag_983:\n        /* \"#utility.yul\":44283:44422   */\n      swap1\n      pop\n        /* \"#utility.yul\":44010:44429   */\n      swap2\n      swap1\n      pop\n      jump\t// out\n        /* \"#utility.yul\":44435:44606   */\n    tag_574:\n        /* \"#utility.yul\":44575:44598   */\n      0x4665652063616e6e6f7420657863656564203130250000000000000000000000\n        /* \"#utility.yul\":44571:44572   */\n      0x00\n        /* \"#utility.yul\":44563:44569   */\n      dup3\n        /* \"#utility.yul\":44559:44573   */\n      add\n        /* \"#utility.yul\":44552:44599   */\n      mstore\n        /* \"#utility.yul\":44435:44606   */\n      pop\n      jump\t// out\n        /* \"#utility.yul\":44612:44978   */\n    tag_575:\n        /* \"#utility.yul\":44754:44757   */\n      0x00\n        /* \"#utility.yul\":44775:44842   */\n      tag_986\n        /* \"#utility.yul\":44839:44841   */\n      0x15\n        /* \"#utility.yul\":44834:44837   */\n      dup4\n        /* \"#utility.yul\":44775:44842   */\n      tag_509\n      jump\t// in\n    tag_986:\n        /* \"#utility.yul\":44768:44842   */\n      swap2\n      pop\n        /* \"#utility.yul\":44851:44944   */\n      tag_987\n        /* \"#utility.yul\":44940:44943   */\n      dup3\n        /* \"#utility.yul\":44851:44944   */\n      tag_574\n      jump\t// in\n    tag_987:\n        /* \"#utility.yul\":44969:44971   */\n      0x20\n        /* \"#utility.yul\":44964:44967   */\n      dup3\n        /* \"#utility.yul\":44960:44972   */\n      add\n        /* \"#utility.yul\":44953:44972   */\n      swap1\n      pop\n        /* \"#utility.yul\":44612:44978   */\n      swap2\n      swap1\n      pop\n      jump\t// out\n        /* \"#utility.yul\":44984:45403   */\n    tag_442:\n        /* \"#utility.yul\":45150:45154   */\n      0x00\n        /* \"#utility.yul\":45188:45190   */\n      0x20\n        /* \"#utility.yul\":45177:45186   */\n      dup3\n        /* \"#utility.yul\":45173:45191   */\n      add\n        /* \"#utility.yul\":45165:45191   */\n      swap1\n      pop\n        /* \"#utility.yul\":45237:45246   */\n      dup2\n        /* \"#utility.yul\":45231:45235   */\n      dup2\n        /* \"#utility.yul\":45227:45247   */\n      sub\n        /* \"#utility.yul\":45223:45224   */\n      0x00\n        /* \"#utility.yul\":45212:45221   */\n      dup4\n        /* \"#utility.yul\":45208:45225   */\n      add\n        /* \"#utility.yul\":45201:45248   */\n      mstore\n        /* \"#utility.yul\":45265:45396   */\n      tag_989\n        /* \"#utility.yul\":45391:45395   */\n      dup2\n        /* \"#utility.yul\":45265:45396   */\n      tag_575\n      jump\t// in\n    tag_989:\n        /* \"#utility.yul\":45257:45396   */\n      swap1\n      pop\n        /* \"#utility.yul\":44984:45403   */\n      swap2\n      swap1\n      pop\n      jump\t// out\n\n    auxdata: 0xa26469706673582212205b57758408a37f4057dd847b0d68819a6383bfc9f39ac451769262355fb6faa364736f6c634300081a0033\n}\n",
				"bytecode": {
					"linkReferences": {},
					"object": "608060405260fa5f60146101000a81548161ffff021916908361ffff160217905550662386f26fc100006001555f600955348015603a575f80fd5b50335f806101000a81548173ffffffffffffffffffffffffffffffffffffffff021916908373ffffffffffffffffffffffffffffffffffffffff160217905550614916806100875f395ff3fe6080604052600436106101c1575f3560e01c806379307a47116100f6578063a85c38ef11610094578063e98ba1ab11610063578063e98ba1ab14610693578063ec7dd7bb146106bb578063ee54d54f146106fd578063eeca08f014610739576101c1565b8063a85c38ef146105ea578063aab3196d1461062d578063d0b7830b14610655578063db25ca991461066b576101c1565b806384b7964f116100d057806384b7964f1461051c578063876a7e7c146105585780638bf3bbed146105805780638da5cb5b146105c0576101c1565b806379307a471461049757806379378030146104b35780637d0489f2146104db576101c1565b80632b1806461161016357806361eed2a91161013d57806361eed2a9146103c657806369adcf30146104075780636f9fb98a1461043157806378f572771461045b576101c1565b80632b180646146103355780634364d9731461035f578063506ce06614610387576101c1565b806319f47ba51161019f57806319f47ba51461026557806322f974d2146102a157806324600fc3146102dd57806327e30c36146102f3576101c1565b80630eda0dce146101c5578063105205d6146101ed5780631600c6cd14610229575b5f80fd5b3480156101d0575f80fd5b506101eb60048036038101906101e6919061338a565b610763565b005b3480156101f8575f80fd5b50610213600480360381019061020e9190613400565b610899565b6040516102209190613486565b60405180910390f35b348015610234575f80fd5b5061024f600480360381019061024a91906134fc565b6108e1565b60405161025c9190613549565b60405180910390f35b348015610270575f80fd5b5061028b600480360381019061028691906134fc565b61090c565b6040516102989190613549565b60405180910390f35b3480156102ac575f80fd5b506102c760048036038101906102c29190613562565b610937565b6040516102d49190613644565b60405180910390f35b3480156102e8575f80fd5b506102f16109ca565b005b3480156102fe575f80fd5b5061031960048036038101906103149190613562565b610bb9565b60405161032c97969594939291906136fe565b60405180910390f35b348015610340575f80fd5b50610349610e3a565b6040516103569190613549565b60405180910390f35b34801561036a575f80fd5b506103856004803603810190610380919061338a565b610e40565b005b348015610392575f80fd5b506103ad60048036038101906103a89190613562565b6111a1565b6040516103bd9493929190613787565b60405180910390f35b3480156103d1575f80fd5b506103ec60048036038101906103e79190613562565b611328565b6040516103fe9695949392919061384b565b60405180910390f35b348015610412575f80fd5b5061041b61152a565b6040516104289190613644565b60405180910390f35b34801561043c575f80fd5b50610445611647565b6040516104529190613549565b60405180910390f35b348015610466575f80fd5b50610481600480360381019061047c9190613400565b6116dc565b60405161048e9190613486565b60405180910390f35b6104b160048036038101906104ac91906138bf565b611724565b005b3480156104be575f80fd5b506104d960048036038101906104d49190613919565b611bfe565b005b3480156104e6575f80fd5b5061050160048036038101906104fc9190613562565b611c95565b60405161051396959493929190613944565b60405180910390f35b348015610527575f80fd5b50610542600480360381019061053d9190613562565b611f41565b60405161054f91906139bf565b60405180910390f35b348015610563575f80fd5b5061057e600480360381019061057991906139d8565b611f96565b005b34801561058b575f80fd5b506105a660048036038101906105a19190613562565b6122de565b6040516105b7959493929190613a7c565b60405180910390f35b3480156105cb575f80fd5b506105d4612506565b6040516105e19190613486565b60405180910390f35b3480156105f5575f80fd5b50610610600480360381019061060b9190613919565b612529565b604051610624989796959493929190613b28565b60405180910390f35b348015610638575f80fd5b50610653600480360381019061064e9190613bd5565b6126c3565b005b348015610660575f80fd5b50610669612a0f565b005b348015610676575f80fd5b50610691600480360381019061068c9190613c4a565b612b48565b005b34801561069e575f80fd5b506106b960048036038101906106b491906139d8565b612c3d565b005b3480156106c6575f80fd5b506106e160048036038101906106dc9190613919565b612dc2565b6040516106f49796959493929190613c75565b60405180910390f35b348015610708575f80fd5b50610723600480360381019061071e9190613562565b612fcf565b60405161073091906139bf565b60405180910390f35b348015610744575f80fd5b5061074d613024565b60405161075a9190613cff565b60405180910390f35b60045f3373ffffffffffffffffffffffffffffffffffffffff1673ffffffffffffffffffffffffffffffffffffffff1681526020019081526020015f206003015f9054906101000a900460ff166107ef576040517f08c379a00000000000000000000000000000000000000000000000000000000081526004016107e690613d88565b60405180910390fd5b8160045f3373ffffffffffffffffffffffffffffffffffffffff1673ffffffffffffffffffffffffffffffffffffffff1681526020019081526020015f20600201908161083c9190613fa0565b505f81511115610895578060045f3373ffffffffffffffffffffffffffffffffffffffff1673ffffffffffffffffffffffffffffffffffffffff1681526020019081526020015f2060040190816108939190613fa0565b505b5050565b6005818051602081018201805184825260208301602085012081835280955050505050505f915054906101000a900473ffffffffffffffffffffffffffffffffffffffff1681565b6007602052815f5260405f2081815481106108fa575f80fd5b905f5260205f20015f91509150505481565b6008602052815f5260405f208181548110610925575f80fd5b905f5260205f20015f91509150505481565b606060075f8373ffffffffffffffffffffffffffffffffffffffff1673ffffffffffffffffffffffffffffffffffffffff1681526020019081526020015f208054806020026020016040519081016040528092919081815260200182805480156109be57602002820191905f5260205f20905b8154815260200190600101908083116109aa575b50505050509050919050565b60025f3373ffffffffffffffffffffffffffffffffffffffff1673ffffffffffffffffffffffffffffffffffffffff1681526020019081526020015f206003015f9054906101000a900460ff16610a56576040517f08c379a0000000000000000000000000000000000000000000000000000000008152600401610a4d906140df565b60405180910390fd5b5f60025f3373ffffffffffffffffffffffffffffffffffffffff1673ffffffffffffffffffffffffffffffffffffffff1681526020019081526020015f20600401549050600154811015610adf576040517f08c379a0000000000000000000000000000000000000000000000000000000008152600401610ad690614147565b60405180910390fd5b5f60025f3373ffffffffffffffffffffffffffffffffffffffff1673ffffffffffffffffffffffffffffffffffffffff1681526020019081526020015f20600401819055503373ffffffffffffffffffffffffffffffffffffffff166108fc8290811502906040515f60405180830381858888f19350505050158015610b67573d5f803e3d5ffd5b503373ffffffffffffffffffffffffffffffffffffffff167feaff4b37086828766ad3268786972c0cd24259d4c87a80f9d3963a3c3d999b0d82604051610bae9190613549565b60405180910390a250565b6002602052805f5260405f205f91509050805f015f9054906101000a900473ffffffffffffffffffffffffffffffffffffffff1690806001018054610bfd90613dd3565b80601f0160208091040260200160405190810160405280929190818152602001828054610c2990613dd3565b8015610c745780601f10610c4b57610100808354040283529160200191610c74565b820191905f5260205f20905b815481529060010190602001808311610c5757829003601f168201915b505050505090806002018054610c8990613dd3565b80601f0160208091040260200160405190810160405280929190818152602001828054610cb590613dd3565b8015610d005780601f10610cd757610100808354040283529160200191610d00565b820191905f5260205f20905b815481529060010190602001808311610ce357829003601f168201915b505050505090806003015f9054906101000a900460ff1690806004015490806005018054610d2d90613dd3565b80601f0160208091040260200160405190810160405280929190818152602001828054610d5990613dd3565b8015610da45780601f10610d7b57610100808354040283529160200191610da4565b820191905f5260205f20905b815481529060010190602001808311610d8757829003601f168201915b505050505090806006018054610db990613dd3565b80601f0160208091040260200160405190810160405280929190818152602001828054610de590613dd3565b8015610e305780601f10610e0757610100808354040283529160200191610e30565b820191905f5260205f20905b815481529060010190602001808311610e1357829003601f168201915b5050505050905087565b60015481565b60045f3373ffffffffffffffffffffffffffffffffffffffff1673ffffffffffffffffffffffffffffffffffffffff1681526020019081526020015f206003015f9054906101000a900460ff1615610ecd576040517f08c379a0000000000000000000000000000000000000000000000000000000008152600401610ec4906141af565b60405180910390fd5b5f73ffffffffffffffffffffffffffffffffffffffff16600583604051610ef49190614207565b90815260200160405180910390205f9054906101000a900473ffffffffffffffffffffffffffffffffffffffff1673ffffffffffffffffffffffffffffffffffffffff1614610f78576040517f08c379a0000000000000000000000000000000000000000000000000000000008152600401610f6f90614267565b60405180910390fd5b6040518060c001604052803373ffffffffffffffffffffffffffffffffffffffff1681526020018381526020018281526020016001151581526020015f6002811115610fc757610fc66137d8565b5b815260200160405180602001604052805f81525081525060045f3373ffffffffffffffffffffffffffffffffffffffff1673ffffffffffffffffffffffffffffffffffffffff1681526020019081526020015f205f820151815f015f6101000a81548173ffffffffffffffffffffffffffffffffffffffff021916908373ffffffffffffffffffffffffffffffffffffffff16021790555060208201518160010190816110749190613fa0565b50604082015181600201908161108a9190613fa0565b506060820151816003015f6101000a81548160ff02191690831515021790555060808201518160030160016101000a81548160ff021916908360028111156110d5576110d46137d8565b5b021790555060a08201518160040190816110ef9190613fa0565b50905050336005836040516111049190614207565b90815260200160405180910390205f6101000a81548173ffffffffffffffffffffffffffffffffffffffff021916908373ffffffffffffffffffffffffffffffffffffffff1602179055503373ffffffffffffffffffffffffffffffffffffffff167f1095d5bb47535aabc9770acbcd3f5f182a26902a02d9eaa8b8c1450e71412078836040516111959190614285565b60405180910390a25050565b6060805f805f60025f8773ffffffffffffffffffffffffffffffffffffffff1673ffffffffffffffffffffffffffffffffffffffff1681526020019081526020015f2090508060010181600201826003015f9054906101000a900460ff16836004015483805461121090613dd3565b80601f016020809104026020016040519081016040528092919081815260200182805461123c90613dd3565b80156112875780601f1061125e57610100808354040283529160200191611287565b820191905f5260205f20905b81548152906001019060200180831161126a57829003601f168201915b5050505050935082805461129a90613dd3565b80601f01602080910402602001604051908101604052809291908181526020018280546112c690613dd3565b80156113115780601f106112e857610100808354040283529160200191611311565b820191905f5260205f20905b8154815290600101906020018083116112f457829003601f168201915b505050505092509450945094509450509193509193565b6004602052805f5260405f205f91509050805f015f9054906101000a900473ffffffffffffffffffffffffffffffffffffffff169080600101805461136c90613dd3565b80601f016020809104026020016040519081016040528092919081815260200182805461139890613dd3565b80156113e35780601f106113ba576101008083540402835291602001916113e3565b820191905f5260205f20905b8154815290600101906020018083116113c657829003601f168201915b5050505050908060020180546113f890613dd3565b80601f016020809104026020016040519081016040528092919081815260200182805461142490613dd3565b801561146f5780601f106114465761010080835404028352916020019161146f565b820191905f5260205f20905b81548152906001019060200180831161145257829003601f168201915b505050505090806003015f9054906101000a900460ff16908060030160019054906101000a900460ff16908060040180546114a990613dd3565b80601f01602080910402602001604051908101604052809291908181526020018280546114d590613dd3565b80156115205780601f106114f757610100808354040283529160200191611520565b820191905f5260205f20905b81548152906001019060200180831161150357829003601f168201915b5050505050905086565b606060025f3373ffffffffffffffffffffffffffffffffffffffff1673ffffffffffffffffffffffffffffffffffffffff1681526020019081526020015f206003015f9054906101000a900460ff166115b8576040517f08c379a00000000000000000000000000000000000000000000000000000000081526004016115af906140df565b60405180910390fd5b60085f3373ffffffffffffffffffffffffffffffffffffffff1673ffffffffffffffffffffffffffffffffffffffff1681526020019081526020015f2080548060200260200160405190810160405280929190818152602001828054801561163d57602002820191905f5260205f20905b815481526020019060010190808311611629575b5050505050905090565b5f805f9054906101000a900473ffffffffffffffffffffffffffffffffffffffff1673ffffffffffffffffffffffffffffffffffffffff163373ffffffffffffffffffffffffffffffffffffffff16146116d6576040517f08c379a00000000000000000000000000000000000000000000000000000000081526004016116cd90614315565b60405180910390fd5b47905090565b6003818051602081018201805184825260208301602085012081835280955050505050505f915054906101000a900473ffffffffffffffffffffffffffffffffffffffff1681565b60025f8373ffffffffffffffffffffffffffffffffffffffff1673ffffffffffffffffffffffffffffffffffffffff1681526020019081526020015f206003015f9054906101000a900460ff166117b0576040517f08c379a00000000000000000000000000000000000000000000000000000000081526004016117a79061437d565b60405180910390fd5b5f34116117f2576040517f08c379a00000000000000000000000000000000000000000000000000000000081526004016117e99061440b565b60405180910390fd5b5f60095f81548092919061180590614456565b9190505590505f6040518061010001604052808381526020013373ffffffffffffffffffffffffffffffffffffffff1681526020018573ffffffffffffffffffffffffffffffffffffffff1681526020013481526020018481526020015f6005811115611875576118746137d8565b5b815260200142815260200160025f8773ffffffffffffffffffffffffffffffffffffffff1673ffffffffffffffffffffffffffffffffffffffff1681526020019081526020015f2060010180546118cb90613dd3565b80601f01602080910402602001604051908101604052809291908181526020018280546118f790613dd3565b80156119425780601f1061191957610100808354040283529160200191611942565b820191905f5260205f20905b81548152906001019060200180831161192557829003601f168201915b505050505081525090508060065f8481526020019081526020015f205f820151815f01556020820151816001015f6101000a81548173ffffffffffffffffffffffffffffffffffffffff021916908373ffffffffffffffffffffffffffffffffffffffff1602179055506040820151816002015f6101000a81548173ffffffffffffffffffffffffffffffffffffffff021916908373ffffffffffffffffffffffffffffffffffffffff160217905550606082015181600301556080820151816004019081611a119190613fa0565b5060a0820151816005015f6101000a81548160ff02191690836005811115611a3c57611a3b6137d8565b5b021790555060c0820151816006015560e0820151816007019081611a609190613fa0565b5090505060075f3373ffffffffffffffffffffffffffffffffffffffff1673ffffffffffffffffffffffffffffffffffffffff1681526020019081526020015f2082908060018154018082558091505060019003905f5260205f20015f909190919091505560085f8573ffffffffffffffffffffffffffffffffffffffff1673ffffffffffffffffffffffffffffffffffffffff1681526020019081526020015f2082908060018154018082558091505060019003905f5260205f20015f90919091909150555f6127105f60149054906101000a900461ffff1661ffff1634611b49919061449d565b611b53919061450b565b90505f8134611b62919061453b565b90508060025f8873ffffffffffffffffffffffffffffffffffffffff1673ffffffffffffffffffffffffffffffffffffffff1681526020019081526020015f206004015f828254611bb3919061456e565b92505081905550837faf03488da094bc08f76858b3b2a0c36a13217c95790c77139137fc6e062ba9cd338834604051611bee939291906145a1565b60405180910390a2505050505050565b5f8054906101000a900473ffffffffffffffffffffffffffffffffffffffff1673ffffffffffffffffffffffffffffffffffffffff163373ffffffffffffffffffffffffffffffffffffffff1614611c8b576040517f08c379a0000000000000000000000000000000000000000000000000000000008152600401611c8290614315565b60405180910390fd5b8060018190555050565b6060805f806060805f60025f8973ffffffffffffffffffffffffffffffffffffffff1673ffffffffffffffffffffffffffffffffffffffff1681526020019081526020015f2090508060010181600201826003015f9054906101000a900460ff1683600401548460050185600601858054611d0f90613dd3565b80601f0160208091040260200160405190810160405280929190818152602001828054611d3b90613dd3565b8015611d865780601f10611d5d57610100808354040283529160200191611d86565b820191905f5260205f20905b815481529060010190602001808311611d6957829003601f168201915b50505050509550848054611d9990613dd3565b80601f0160208091040260200160405190810160405280929190818152602001828054611dc590613dd3565b8015611e105780601f10611de757610100808354040283529160200191611e10565b820191905f5260205f20905b815481529060010190602001808311611df357829003601f168201915b50505050509450818054611e2390613dd3565b80601f0160208091040260200160405190810160405280929190818152602001828054611e4f90613dd3565b8015611e9a5780601f10611e7157610100808354040283529160200191611e9a565b820191905f5260205f20905b815481529060010190602001808311611e7d57829003601f168201915b50505050509150808054611ead90613dd3565b80601f0160208091040260200160405190810160405280929190818152602001828054611ed990613dd3565b8015611f245780601f10611efb57610100808354040283529160200191611f24565b820191905f5260205f20905b815481529060010190602001808311611f0757829003601f168201915b505050505090509650965096509650965096505091939550919395565b5f60045f8373ffffffffffffffffffffffffffffffffffffffff1673ffffffffffffffffffffffffffffffffffffffff1681526020019081526020015f206003015f9054906101000a900460ff169050919050565b60025f3373ffffffffffffffffffffffffffffffffffffffff1673ffffffffffffffffffffffffffffffffffffffff1681526020019081526020015f206003015f9054906101000a900460ff1615612023576040517f08c379a000000000000000000000000000000000000000000000000000000000815260040161201a90614620565b60405180910390fd5b5f73ffffffffffffffffffffffffffffffffffffffff1660038460405161204a9190614207565b90815260200160405180910390205f9054906101000a900473ffffffffffffffffffffffffffffffffffffffff1673ffffffffffffffffffffffffffffffffffffffff16146120ce576040517f08c379a00000000000000000000000000000000000000000000000000000000081526004016120c590614267565b60405180910390fd5b6040518060e001604052803373ffffffffffffffffffffffffffffffffffffffff1681526020018481526020018381526020016001151581526020015f815260200182815260200160405180602001604052805f81525081525060025f3373ffffffffffffffffffffffffffffffffffffffff1673ffffffffffffffffffffffffffffffffffffffff1681526020019081526020015f205f820151815f015f6101000a81548173ffffffffffffffffffffffffffffffffffffffff021916908373ffffffffffffffffffffffffffffffffffffffff16021790555060208201518160010190816121be9190613fa0565b5060408201518160020190816121d49190613fa0565b506060820151816003015f6101000a81548160ff0219169083151502179055506080820151816004015560a08201518160050190816122139190613fa0565b5060c08201518160060190816122299190613fa0565b509050503360038460405161223e9190614207565b90815260200160405180910390205f6101000a81548173ffffffffffffffffffffffffffffffffffffffff021916908373ffffffffffffffffffffffffffffffffffffffff1602179055503373ffffffffffffffffffffffffffffffffffffffff167f6a8800d7464c3933e9f1241684cbae034394a3a73e84fa164a882037ffbe2aea84846040516122d192919061463e565b60405180910390a2505050565b6060805f8060605f60045f8873ffffffffffffffffffffffffffffffffffffffff1673ffffffffffffffffffffffffffffffffffffffff1681526020019081526020015f2090508060010181600201826003015f9054906101000a900460ff168360030160019054906101000a900460ff168460040184805461236090613dd3565b80601f016020809104026020016040519081016040528092919081815260200182805461238c90613dd3565b80156123d75780601f106123ae576101008083540402835291602001916123d7565b820191905f5260205f20905b8154815290600101906020018083116123ba57829003601f168201915b505050505094508380546123ea90613dd3565b80601f016020809104026020016040519081016040528092919081815260200182805461241690613dd3565b80156124615780601f1061243857610100808354040283529160200191612461565b820191905f5260205f20905b81548152906001019060200180831161244457829003601f168201915b5050505050935080805461247490613dd3565b80601f01602080910402602001604051908101604052809291908181526020018280546124a090613dd3565b80156124eb5780601f106124c2576101008083540402835291602001916124eb565b820191905f5260205f20905b8154815290600101906020018083116124ce57829003601f168201915b50505050509050955095509550955095505091939590929450565b5f8054906101000a900473ffffffffffffffffffffffffffffffffffffffff1681565b6006602052805f5260405f205f91509050805f015490806001015f9054906101000a900473ffffffffffffffffffffffffffffffffffffffff1690806002015f9054906101000a900473ffffffffffffffffffffffffffffffffffffffff169080600301549080600401805461259e90613dd3565b80601f01602080910402602001604051908101604052809291908181526020018280546125ca90613dd3565b80156126155780601f106125ec57610100808354040283529160200191612615565b820191905f5260205f20905b8154815290600101906020018083116125f857829003601f168201915b505050505090806005015f9054906101000a900460ff169080600601549080600701805461264290613dd3565b80601f016020809104026020016040519081016040528092919081815260200182805461266e90613dd3565b80156126b95780601f10612690576101008083540402835291602001916126b9565b820191905f5260205f20905b81548152906001019060200180831161269c57829003601f168201915b5050505050905088565b818060065f8381526020019081526020015f205f015414612719576040517f08c379a0000000000000000000000000000000000000000000000000000000008152600401612710906146bd565b60405180910390fd5b5f60065f8581526020019081526020015f209050806002015f9054906101000a900473ffffffffffffffffffffffffffffffffffffffff1673ffffffffffffffffffffffffffffffffffffffff163373ffffffffffffffffffffffffffffffffffffffff1614806127d457505f8054906101000a900473ffffffffffffffffffffffffffffffffffffffff1673ffffffffffffffffffffffffffffffffffffffff163373ffffffffffffffffffffffffffffffffffffffff16145b612813576040517f08c379a000000000000000000000000000000000000000000000000000000000815260040161280a9061474b565b60405180910390fd5b60046005811115612827576128266137d8565b5b816005015f9054906101000a900460ff16600581111561284a576128496137d8565b5b1415801561288c5750600580811115612866576128656137d8565b5b816005015f9054906101000a900460ff166005811115612889576128886137d8565b5b14155b6128cb576040517f08c379a00000000000000000000000000000000000000000000000000000000081526004016128c2906147d9565b60405180910390fd5b82816005015f6101000a81548160ff021916908360058111156128f1576128f06137d8565b5b0217905550837f15fe7663e318fda785235fa9e39aa6923ffd39fe53631991197fb842f34f6ba98460405161292691906147f7565b60405180910390a260046005811115612942576129416137d8565b5b816005015f9054906101000a900460ff166005811115612965576129646137d8565b5b14806129a4575060058081111561297f5761297e6137d8565b5b816005015f9054906101000a900460ff1660058111156129a2576129a16137d8565b5b145b80156129fa57505f8054906101000a900473ffffffffffffffffffffffffffffffffffffffff1673ffffffffffffffffffffffffffffffffffffffff163373ffffffffffffffffffffffffffffffffffffffff16145b15612a0957612a0884613037565b5b50505050565b5f8054906101000a900473ffffffffffffffffffffffffffffffffffffffff1673ffffffffffffffffffffffffffffffffffffffff163373ffffffffffffffffffffffffffffffffffffffff1614612a9c576040517f08c379a0000000000000000000000000000000000000000000000000000000008152600401612a9390614315565b60405180910390fd5b5f4790505f8111612ae2576040517f08c379a0000000000000000000000000000000000000000000000000000000008152600401612ad99061485a565b60405180910390fd5b5f8054906101000a900473ffffffffffffffffffffffffffffffffffffffff1673ffffffffffffffffffffffffffffffffffffffff166108fc8290811502906040515f60405180830381858888f19350505050158015612b44573d5f803e3d5ffd5b5050565b5f8054906101000a900473ffffffffffffffffffffffffffffffffffffffff1673ffffffffffffffffffffffffffffffffffffffff163373ffffffffffffffffffffffffffffffffffffffff1614612bd5576040517f08c379a0000000000000000000000000000000000000000000000000000000008152600401612bcc90614315565b60405180910390fd5b6103e88161ffff161115612c1e576040517f08c379a0000000000000000000000000000000000000000000000000000000008152600401612c15906148c2565b60405180910390fd5b805f60146101000a81548161ffff021916908361ffff16021790555050565b60025f3373ffffffffffffffffffffffffffffffffffffffff1673ffffffffffffffffffffffffffffffffffffffff1681526020019081526020015f206003015f9054906101000a900460ff16612cc9576040517f08c379a0000000000000000000000000000000000000000000000000000000008152600401612cc0906140df565b60405180910390fd5b8260025f3373ffffffffffffffffffffffffffffffffffffffff1673ffffffffffffffffffffffffffffffffffffffff1681526020019081526020015f206002019081612d169190613fa0565b508160025f3373ffffffffffffffffffffffffffffffffffffffff1673ffffffffffffffffffffffffffffffffffffffff1681526020019081526020015f206005019081612d649190613fa0565b505f81511115612dbd578060025f3373ffffffffffffffffffffffffffffffffffffffff1673ffffffffffffffffffffffffffffffffffffffff1681526020019081526020015f206006019081612dbb9190613fa0565b505b505050565b5f805f60605f806060878060065f8381526020019081526020015f205f015414612e21576040517f08c379a0000000000000000000000000000000000000000000000000000000008152600401612e18906146bd565b60405180910390fd5b5f60065f8b81526020019081526020015f209050806001015f9054906101000a900473ffffffffffffffffffffffffffffffffffffffff16816002015f9054906101000a900473ffffffffffffffffffffffffffffffffffffffff16826003015483600401846005015f9054906101000a900460ff16856006015486600701838054612eac90613dd3565b80601f0160208091040260200160405190810160405280929190818152602001828054612ed890613dd3565b8015612f235780601f10612efa57610100808354040283529160200191612f23565b820191905f5260205f20905b815481529060010190602001808311612f0657829003601f168201915b50505050509350808054612f3690613dd3565b80601f0160208091040260200160405190810160405280929190818152602001828054612f6290613dd3565b8015612fad5780601f10612f8457610100808354040283529160200191612fad565b820191905f5260205f20905b815481529060010190602001808311612f9057829003601f168201915b5050505050905098509850985098509850985098505050919395979092949650565b5f60025f8373ffffffffffffffffffffffffffffffffffffffff1673ffffffffffffffffffffffffffffffffffffffff1681526020019081526020015f206003015f9054906101000a900460ff169050919050565b5f60149054906101000a900461ffff1681565b808060065f8381526020019081526020015f205f01541461308d576040517f08c379a0000000000000000000000000000000000000000000000000000000008152600401613084906146bd565b60405180910390fd5b5f60065f8481526020019081526020015f2090505f6127105f60149054906101000a900461ffff1661ffff1683600301546130c8919061449d565b6130d2919061450b565b90505f8183600301546130e5919061453b565b90508060025f856002015f9054906101000a900473ffffffffffffffffffffffffffffffffffffffff1673ffffffffffffffffffffffffffffffffffffffff1673ffffffffffffffffffffffffffffffffffffffff1681526020019081526020015f206004015410613236578060025f856002015f9054906101000a900473ffffffffffffffffffffffffffffffffffffffff1673ffffffffffffffffffffffffffffffffffffffff1673ffffffffffffffffffffffffffffffffffffffff1681526020019081526020015f206004015f8282546131c3919061453b565b92505081905550826001015f9054906101000a900473ffffffffffffffffffffffffffffffffffffffff1673ffffffffffffffffffffffffffffffffffffffff166108fc846003015490811502906040515f60405180830381858888f19350505050158015613234573d5f803e3d5ffd5b505b5050505050565b5f604051905090565b5f80fd5b5f80fd5b5f80fd5b5f80fd5b5f601f19601f8301169050919050565b7f4e487b71000000000000000000000000000000000000000000000000000000005f52604160045260245ffd5b61329c82613256565b810181811067ffffffffffffffff821117156132bb576132ba613266565b5b80604052505050565b5f6132cd61323d565b90506132d98282613293565b919050565b5f67ffffffffffffffff8211156132f8576132f7613266565b5b61330182613256565b9050602081019050919050565b828183375f83830152505050565b5f61332e613329846132de565b6132c4565b90508281526020810184848401111561334a57613349613252565b5b61335584828561330e565b509392505050565b5f82601f8301126133715761337061324e565b5b813561338184826020860161331c565b91505092915050565b5f80604083850312156133a05761339f613246565b5b5f83013567ffffffffffffffff8111156133bd576133bc61324a565b5b6133c98582860161335d565b925050602083013567ffffffffffffffff8111156133ea576133e961324a565b5b6133f68582860161335d565b9150509250929050565b5f6020828403121561341557613414613246565b5b5f82013567ffffffffffffffff8111156134325761343161324a565b5b61343e8482850161335d565b91505092915050565b5f73ffffffffffffffffffffffffffffffffffffffff82169050919050565b5f61347082613447565b9050919050565b61348081613466565b82525050565b5f6020820190506134995f830184613477565b92915050565b6134a881613466565b81146134b2575f80fd5b50565b5f813590506134c38161349f565b92915050565b5f819050919050565b6134db816134c9565b81146134e5575f80fd5b50565b5f813590506134f6816134d2565b92915050565b5f806040838503121561351257613511613246565b5b5f61351f858286016134b5565b9250506020613530858286016134e8565b9150509250929050565b613543816134c9565b82525050565b5f60208201905061355c5f83018461353a565b92915050565b5f6020828403121561357757613576613246565b5b5f613584848285016134b5565b91505092915050565b5f81519050919050565b5f82825260208201905092915050565b5f819050602082019050919050565b6135bf816134c9565b82525050565b5f6135d083836135b6565b60208301905092915050565b5f602082019050919050565b5f6135f28261358d565b6135fc8185613597565b9350613607836135a7565b805f5b8381101561363757815161361e88826135c5565b9750613629836135dc565b92505060018101905061360a565b5085935050505092915050565b5f6020820190508181035f83015261365c81846135e8565b905092915050565b5f61366e82613447565b9050919050565b61367e81613664565b82525050565b5f81519050919050565b5f82825260208201905092915050565b8281835e5f83830152505050565b5f6136b682613684565b6136c0818561368e565b93506136d081856020860161369e565b6136d981613256565b840191505092915050565b5f8115159050919050565b6136f8816136e4565b82525050565b5f60e0820190506137115f83018a613675565b818103602083015261372381896136ac565b9050818103604083015261373781886136ac565b905061374660608301876136ef565b613753608083018661353a565b81810360a083015261376581856136ac565b905081810360c083015261377981846136ac565b905098975050505050505050565b5f6080820190508181035f83015261379f81876136ac565b905081810360208301526137b381866136ac565b90506137c260408301856136ef565b6137cf606083018461353a565b95945050505050565b7f4e487b71000000000000000000000000000000000000000000000000000000005f52602160045260245ffd5b60038110613816576138156137d8565b5b50565b5f81905061382682613805565b919050565b5f61383582613819565b9050919050565b6138458161382b565b82525050565b5f60c08201905061385e5f830189613477565b818103602083015261387081886136ac565b9050818103604083015261388481876136ac565b905061389360608301866136ef565b6138a0608083018561383c565b81810360a08301526138b281846136ac565b9050979650505050505050565b5f80604083850312156138d5576138d4613246565b5b5f6138e2858286016134b5565b925050602083013567ffffffffffffffff8111156139035761390261324a565b5b61390f8582860161335d565b9150509250929050565b5f6020828403121561392e5761392d613246565b5b5f61393b848285016134e8565b91505092915050565b5f60c0820190508181035f83015261395c81896136ac565b9050818103602083015261397081886136ac565b905061397f60408301876136ef565b61398c606083018661353a565b818103608083015261399e81856136ac565b905081810360a08301526139b281846136ac565b9050979650505050505050565b5f6020820190506139d25f8301846136ef565b92915050565b5f805f606084860312156139ef576139ee613246565b5b5f84013567ffffffffffffffff811115613a0c57613a0b61324a565b5b613a188682870161335d565b935050602084013567ffffffffffffffff811115613a3957613a3861324a565b5b613a458682870161335d565b925050604084013567ffffffffffffffff811115613a6657613a6561324a565b5b613a728682870161335d565b9150509250925092565b5f60a0820190508181035f830152613a9481886136ac565b90508181036020830152613aa881876136ac565b9050613ab760408301866136ef565b613ac4606083018561383c565b8181036080830152613ad681846136ac565b90509695505050505050565b60068110613af357613af26137d8565b5b50565b5f819050613b0382613ae2565b919050565b5f613b1282613af6565b9050919050565b613b2281613b08565b82525050565b5f61010082019050613b3c5f83018b61353a565b613b49602083018a613477565b613b566040830189613477565b613b63606083018861353a565b8181036080830152613b7581876136ac565b9050613b8460a0830186613b19565b613b9160c083018561353a565b81810360e0830152613ba381846136ac565b90509998505050505050505050565b60068110613bbe575f80fd5b50565b5f81359050613bcf81613bb2565b92915050565b5f8060408385031215613beb57613bea613246565b5b5f613bf8858286016134e8565b9250506020613c0985828601613bc1565b9150509250929050565b5f61ffff82169050919050565b613c2981613c13565b8114613c33575f80fd5b50565b5f81359050613c4481613c20565b92915050565b5f60208284031215613c5f57613c5e613246565b5b5f613c6c84828501613c36565b91505092915050565b5f60e082019050613c885f83018a613477565b613c956020830189613477565b613ca2604083018861353a565b8181036060830152613cb481876136ac565b9050613cc36080830186613b19565b613cd060a083018561353a565b81810360c0830152613ce281846136ac565b905098975050505050505050565b613cf981613c13565b82525050565b5f602082019050613d125f830184613cf0565b92915050565b7f4f6e6c79207265676973746572656420636c69656e74732063616e2063616c6c5f8201527f20746869732066756e6374696f6e000000000000000000000000000000000000602082015250565b5f613d72602e8361368e565b9150613d7d82613d18565b604082019050919050565b5f6020820190508181035f830152613d9f81613d66565b9050919050565b7f4e487b71000000000000000000000000000000000000000000000000000000005f52602260045260245ffd5b5f6002820490506001821680613dea57607f821691505b602082108103613dfd57613dfc613da6565b5b50919050565b5f819050815f5260205f209050919050565b5f6020601f8301049050919050565b5f82821b905092915050565b5f60088302613e5f7fffffffffffffffffffffffffffffffffffffffffffffffffffffffffffffffff82613e24565b613e698683613e24565b95508019841693508086168417925050509392505050565b5f819050919050565b5f613ea4613e9f613e9a846134c9565b613e81565b6134c9565b9050919050565b5f819050919050565b613ebd83613e8a565b613ed1613ec982613eab565b848454613e30565b825550505050565b5f90565b613ee5613ed9565b613ef0818484613eb4565b505050565b5b81811015613f1357613f085f82613edd565b600181019050613ef6565b5050565b601f821115613f5857613f2981613e03565b613f3284613e15565b81016020851015613f41578190505b613f55613f4d85613e15565b830182613ef5565b50505b505050565b5f82821c905092915050565b5f613f785f1984600802613f5d565b1980831691505092915050565b5f613f908383613f69565b9150826002028217905092915050565b613fa982613684565b67ffffffffffffffff811115613fc257613fc1613266565b5b613fcc8254613dd3565b613fd7828285613f17565b5f60209050601f831160018114614008575f8415613ff6578287015190505b6140008582613f85565b865550614067565b601f19841661401686613e03565b5f5b8281101561403d57848901518255600182019150602085019450602081019050614018565b8683101561405a5784890151614056601f891682613f69565b8355505b6001600288020188555050505b505050505050565b7f4f6e6c7920726567697374657265642076656e646f72732063616e2063616c6c5f8201527f20746869732066756e6374696f6e000000000000000000000000000000000000602082015250565b5f6140c9602e8361368e565b91506140d48261406f565b604082019050919050565b5f6020820190508181035f8301526140f6816140bd565b9050919050565b7f5769746864726177616c20616d6f756e7420746f6f20736d616c6c00000000005f82015250565b5f614131601b8361368e565b915061413c826140fd565b602082019050919050565b5f6020820190508181035f83015261415e81614125565b9050919050565b7f436c69656e7420616c72656164792072656769737465726564000000000000005f82015250565b5f61419960198361368e565b91506141a482614165565b602082019050919050565b5f6020820190508181035f8301526141c68161418d565b9050919050565b5f81905092915050565b5f6141e182613684565b6141eb81856141cd565b93506141fb81856020860161369e565b80840191505092915050565b5f61421282846141d7565b915081905092915050565b7f456d61696c20616c7265616479207265676973746572656400000000000000005f82015250565b5f61425160188361368e565b915061425c8261421d565b602082019050919050565b5f6020820190508181035f83015261427e81614245565b9050919050565b5f6020820190508181035f83015261429d81846136ac565b905092915050565b7f4f6e6c79206f776e65722063616e2063616c6c20746869732066756e6374696f5f8201527f6e00000000000000000000000000000000000000000000000000000000000000602082015250565b5f6142ff60218361368e565b915061430a826142a5565b604082019050919050565b5f6020820190508181035f83015261432c816142f3565b9050919050565b7f56656e646f72206e6f74207265676973746572656400000000000000000000005f82015250565b5f61436760158361368e565b915061437282614333565b602082019050919050565b5f6020820190508181035f8301526143948161435b565b9050919050565b7f5061796d656e7420616d6f756e74206d757374206265206772656174657220745f8201527f68616e207a65726f000000000000000000000000000000000000000000000000602082015250565b5f6143f560288361368e565b91506144008261439b565b604082019050919050565b5f6020820190508181035f830152614422816143e9565b9050919050565b7f4e487b71000000000000000000000000000000000000000000000000000000005f52601160045260245ffd5b5f614460826134c9565b91507fffffffffffffffffffffffffffffffffffffffffffffffffffffffffffffffff820361449257614491614429565b5b600182019050919050565b5f6144a7826134c9565b91506144b2836134c9565b92508282026144c0816134c9565b915082820484148315176144d7576144d6614429565b5b5092915050565b7f4e487b71000000000000000000000000000000000000000000000000000000005f52601260045260245ffd5b5f614515826134c9565b9150614520836134c9565b9250826145305761452f6144de565b5b828204905092915050565b5f614545826134c9565b9150614550836134c9565b925082820390508181111561456857614567614429565b5b92915050565b5f614578826134c9565b9150614583836134c9565b925082820190508082111561459b5761459a614429565b5b92915050565b5f6060820190506145b45f830186613477565b6145c16020830185613477565b6145ce604083018461353a565b949350505050565b7f56656e646f7220616c72656164792072656769737465726564000000000000005f82015250565b5f61460a60198361368e565b9150614615826145d6565b602082019050919050565b5f6020820190508181035f830152614637816145fe565b9050919050565b5f6040820190508181035f83015261465681856136ac565b9050818103602083015261466a81846136ac565b90509392505050565b7f4f7264657220646f6573206e6f742065786973740000000000000000000000005f82015250565b5f6146a760148361368e565b91506146b282614673565b602082019050919050565b5f6020820190508181035f8301526146d48161469b565b9050919050565b7f4f6e6c792076656e646f72206f72206f776e65722063616e20757064617465205f8201527f6f72646572207374617475730000000000000000000000000000000000000000602082015250565b5f614735602c8361368e565b9150614740826146db565b604082019050919050565b5f6020820190508181035f83015261476281614729565b9050919050565b7f43616e6e6f74207570646174652063616e63656c6c6564206f7220726566756e5f8201527f646564206f726465727300000000000000000000000000000000000000000000602082015250565b5f6147c3602a8361368e565b91506147ce82614769565b604082019050919050565b5f6020820190508181035f8301526147f0816147b7565b9050919050565b5f60208201905061480a5f830184613b19565b92915050565b7f4e6f2062616c616e636520746f207769746864726177000000000000000000005f82015250565b5f61484460168361368e565b915061484f82614810565b602082019050919050565b5f6020820190508181035f83015261487181614838565b9050919050565b7f4665652063616e6e6f74206578636565642031302500000000000000000000005f82015250565b5f6148ac60158361368e565b91506148b782614878565b602082019050919050565b5f6020820190508181035f8301526148d9816148a0565b905091905056fea26469706673582212205b57758408a37f4057dd847b0d68819a6383bfc9f39ac451769262355fb6faa364736f6c634300081a0033",
					"opcodes": "PUSH1 0x80 PUSH1 0x40 MSTORE PUSH1 0xFA PUSH0 PUSH1 0x14 PUSH2 0x100 EXP DUP2 SLOAD DUP2 PUSH2 0xFFFF MUL NOT AND SWAP1 DUP4 PUSH2 0xFFFF AND MUL OR SWAP1 SSTORE POP PUSH7 0x2386F26FC10000 PUSH1 0x1 SSTORE PUSH0 PUSH1 0x9 SSTORE CALLVALUE DUP1 ISZERO PUSH1 0x3A JUMPI PUSH0 DUP1 REVERT JUMPDEST POP CALLER PUSH0 DUP1 PUSH2 0x100 EXP DUP2 SLOAD DUP2 PUSH20 0xFFFFFFFFFFFFFFFFFFFFFFFFFFFFFFFFFFFFFFFF MUL NOT AND SWAP1 DUP4 PUSH20 0xFFFFFFFFFFFFFFFFFFFFFFFFFFFFFFFFFFFFFFFF AND MUL OR SWAP1 SSTORE POP PUSH2 0x4916 DUP1 PUSH2 0x87 PUSH0 CODECOPY PUSH0 RETURN INVALID PUSH1 0x80 PUSH1 0x40 MSTORE PUSH1 0x4 CALLDATASIZE LT PUSH2 0x1C1 JUMPI PUSH0 CALLDATALOAD PUSH1 0xE0 SHR DUP1 PUSH4 0x79307A47 GT PUSH2 0xF6 JUMPI DUP1 PUSH4 0xA85C38EF GT PUSH2 0x94 JUMPI DUP1 PUSH4 0xE98BA1AB GT PUSH2 0x63 JUMPI DUP1 PUSH4 0xE98BA1AB EQ PUSH2 0x693 JUMPI DUP1 PUSH4 0xEC7DD7BB EQ PUSH2 0x6BB JUMPI DUP1 PUSH4 0xEE54D54F EQ PUSH2 0x6FD JUMPI DUP1 PUSH4 0xEECA08F0 EQ PUSH2 0x739 JUMPI PUSH2 0x1C1 JUMP JUMPDEST DUP1 PUSH4 0xA85C38EF EQ PUSH2 0x5EA JUMPI DUP1 PUSH4 0xAAB3196D EQ PUSH2 0x62D JUMPI DUP1 PUSH4 0xD0B7830B EQ PUSH2 0x655 JUMPI DUP1 PUSH4 0xDB25CA99 EQ PUSH2 0x66B JUMPI PUSH2 0x1C1 JUMP JUMPDEST DUP1 PUSH4 0x84B7964F GT PUSH2 0xD0 JUMPI DUP1 PUSH4 0x84B7964F EQ PUSH2 0x51C JUMPI DUP1 PUSH4 0x876A7E7C EQ PUSH2 0x558 JUMPI DUP1 PUSH4 0x8BF3BBED EQ PUSH2 0x580 JUMPI DUP1 PUSH4 0x8DA5CB5B EQ PUSH2 0x5C0 JUMPI PUSH2 0x1C1 JUMP JUMPDEST DUP1 PUSH4 0x79307A47 EQ PUSH2 0x497 JUMPI DUP1 PUSH4 0x79378030 EQ PUSH2 0x4B3 JUMPI DUP1 PUSH4 0x7D0489F2 EQ PUSH2 0x4DB JUMPI PUSH2 0x1C1 JUMP JUMPDEST DUP1 PUSH4 0x2B180646 GT PUSH2 0x163 JUMPI DUP1 PUSH4 0x61EED2A9 GT PUSH2 0x13D JUMPI DUP1 PUSH4 0x61EED2A9 EQ PUSH2 0x3C6 JUMPI DUP1 PUSH4 0x69ADCF30 EQ PUSH2 0x407 JUMPI DUP1 PUSH4 0x6F9FB98A EQ PUSH2 0x431 JUMPI DUP1 PUSH4 0x78F57277 EQ PUSH2 0x45B JUMPI PUSH2 0x1C1 JUMP JUMPDEST DUP1 PUSH4 0x2B180646 EQ PUSH2 0x335 JUMPI DUP1 PUSH4 0x4364D973 EQ PUSH2 0x35F JUMPI DUP1 PUSH4 0x506CE066 EQ PUSH2 0x387 JUMPI PUSH2 0x1C1 JUMP JUMPDEST DUP1 PUSH4 0x19F47BA5 GT PUSH2 0x19F JUMPI DUP1 PUSH4 0x19F47BA5 EQ PUSH2 0x265 JUMPI DUP1 PUSH4 0x22F974D2 EQ PUSH2 0x2A1 JUMPI DUP1 PUSH4 0x24600FC3 EQ PUSH2 0x2DD JUMPI DUP1 PUSH4 0x27E30C36 EQ PUSH2 0x2F3 JUMPI PUSH2 0x1C1 JUMP JUMPDEST DUP1 PUSH4 0xEDA0DCE EQ PUSH2 0x1C5 JUMPI DUP1 PUSH4 0x105205D6 EQ PUSH2 0x1ED JUMPI DUP1 PUSH4 0x1600C6CD EQ PUSH2 0x229 JUMPI JUMPDEST PUSH0 DUP1 REVERT JUMPDEST CALLVALUE DUP1 ISZERO PUSH2 0x1D0 JUMPI PUSH0 DUP1 REVERT JUMPDEST POP PUSH2 0x1EB PUSH1 0x4 DUP1 CALLDATASIZE SUB DUP2 ADD SWAP1 PUSH2 0x1E6 SWAP2 SWAP1 PUSH2 0x338A JUMP JUMPDEST PUSH2 0x763 JUMP JUMPDEST STOP JUMPDEST CALLVALUE DUP1 ISZERO PUSH2 0x1F8 JUMPI PUSH0 DUP1 REVERT JUMPDEST POP PUSH2 0x213 PUSH1 0x4 DUP1 CALLDATASIZE SUB DUP2 ADD SWAP1 PUSH2 0x20E SWAP2 SWAP1 PUSH2 0x3400 JUMP JUMPDEST PUSH2 0x899 JUMP JUMPDEST PUSH1 0x40 MLOAD PUSH2 0x220 SWAP2 SWAP1 PUSH2 0x3486 JUMP JUMPDEST PUSH1 0x40 MLOAD DUP1 SWAP2 SUB SWAP1 RETURN JUMPDEST CALLVALUE DUP1 ISZERO PUSH2 0x234 JUMPI PUSH0 DUP1 REVERT JUMPDEST POP PUSH2 0x24F PUSH1 0x4 DUP1 CALLDATASIZE SUB DUP2 ADD SWAP1 PUSH2 0x24A SWAP2 SWAP1 PUSH2 0x34FC JUMP JUMPDEST PUSH2 0x8E1 JUMP JUMPDEST PUSH1 0x40 MLOAD PUSH2 0x25C SWAP2 SWAP1 PUSH2 0x3549 JUMP JUMPDEST PUSH1 0x40 MLOAD DUP1 SWAP2 SUB SWAP1 RETURN JUMPDEST CALLVALUE DUP1 ISZERO PUSH2 0x270 JUMPI PUSH0 DUP1 REVERT JUMPDEST POP PUSH2 0x28B PUSH1 0x4 DUP1 CALLDATASIZE SUB DUP2 ADD SWAP1 PUSH2 0x286 SWAP2 SWAP1 PUSH2 0x34FC JUMP JUMPDEST PUSH2 0x90C JUMP JUMPDEST PUSH1 0x40 MLOAD PUSH2 0x298 SWAP2 SWAP1 PUSH2 0x3549 JUMP JUMPDEST PUSH1 0x40 MLOAD DUP1 SWAP2 SUB SWAP1 RETURN JUMPDEST CALLVALUE DUP1 ISZERO PUSH2 0x2AC JUMPI PUSH0 DUP1 REVERT JUMPDEST POP PUSH2 0x2C7 PUSH1 0x4 DUP1 CALLDATASIZE SUB DUP2 ADD SWAP1 PUSH2 0x2C2 SWAP2 SWAP1 PUSH2 0x3562 JUMP JUMPDEST PUSH2 0x937 JUMP JUMPDEST PUSH1 0x40 MLOAD PUSH2 0x2D4 SWAP2 SWAP1 PUSH2 0x3644 JUMP JUMPDEST PUSH1 0x40 MLOAD DUP1 SWAP2 SUB SWAP1 RETURN JUMPDEST CALLVALUE DUP1 ISZERO PUSH2 0x2E8 JUMPI PUSH0 DUP1 REVERT JUMPDEST POP PUSH2 0x2F1 PUSH2 0x9CA JUMP JUMPDEST STOP JUMPDEST CALLVALUE DUP1 ISZERO PUSH2 0x2FE JUMPI PUSH0 DUP1 REVERT JUMPDEST POP PUSH2 0x319 PUSH1 0x4 DUP1 CALLDATASIZE SUB DUP2 ADD SWAP1 PUSH2 0x314 SWAP2 SWAP1 PUSH2 0x3562 JUMP JUMPDEST PUSH2 0xBB9 JUMP JUMPDEST PUSH1 0x40 MLOAD PUSH2 0x32C SWAP8 SWAP7 SWAP6 SWAP5 SWAP4 SWAP3 SWAP2 SWAP1 PUSH2 0x36FE JUMP JUMPDEST PUSH1 0x40 MLOAD DUP1 SWAP2 SUB SWAP1 RETURN JUMPDEST CALLVALUE DUP1 ISZERO PUSH2 0x340 JUMPI PUSH0 DUP1 REVERT JUMPDEST POP PUSH2 0x349 PUSH2 0xE3A JUMP JUMPDEST PUSH1 0x40 MLOAD PUSH2 0x356 SWAP2 SWAP1 PUSH2 0x3549 JUMP JUMPDEST PUSH1 0x40 MLOAD DUP1 SWAP2 SUB SWAP1 RETURN JUMPDEST CALLVALUE DUP1 ISZERO PUSH2 0x36A JUMPI PUSH0 DUP1 REVERT JUMPDEST POP PUSH2 0x385 PUSH1 0x4 DUP1 CALLDATASIZE SUB DUP2 ADD SWAP1 PUSH2 0x380 SWAP2 SWAP1 PUSH2 0x338A JUMP JUMPDEST PUSH2 0xE40 JUMP JUMPDEST STOP JUMPDEST CALLVALUE DUP1 ISZERO PUSH2 0x392 JUMPI PUSH0 DUP1 REVERT JUMPDEST POP PUSH2 0x3AD PUSH1 0x4 DUP1 CALLDATASIZE SUB DUP2 ADD SWAP1 PUSH2 0x3A8 SWAP2 SWAP1 PUSH2 0x3562 JUMP JUMPDEST PUSH2 0x11A1 JUMP JUMPDEST PUSH1 0x40 MLOAD PUSH2 0x3BD SWAP5 SWAP4 SWAP3 SWAP2 SWAP1 PUSH2 0x3787 JUMP JUMPDEST PUSH1 0x40 MLOAD DUP1 SWAP2 SUB SWAP1 RETURN JUMPDEST CALLVALUE DUP1 ISZERO PUSH2 0x3D1 JUMPI PUSH0 DUP1 REVERT JUMPDEST POP PUSH2 0x3EC PUSH1 0x4 DUP1 CALLDATASIZE SUB DUP2 ADD SWAP1 PUSH2 0x3E7 SWAP2 SWAP1 PUSH2 0x3562 JUMP JUMPDEST PUSH2 0x1328 JUMP JUMPDEST PUSH1 0x40 MLOAD PUSH2 0x3FE SWAP7 SWAP6 SWAP5 SWAP4 SWAP3 SWAP2 SWAP1 PUSH2 0x384B JUMP JUMPDEST PUSH1 0x40 MLOAD DUP1 SWAP2 SUB SWAP1 RETURN JUMPDEST CALLVALUE DUP1 ISZERO PUSH2 0x412 JUMPI PUSH0 DUP1 REVERT JUMPDEST POP PUSH2 0x41B PUSH2 0x152A JUMP JUMPDEST PUSH1 0x40 MLOAD PUSH2 0x428 SWAP2 SWAP1 PUSH2 0x3644 JUMP JUMPDEST PUSH1 0x40 MLOAD DUP1 SWAP2 SUB SWAP1 RETURN JUMPDEST CALLVALUE DUP1 ISZERO PUSH2 0x43C JUMPI PUSH0 DUP1 REVERT JUMPDEST POP PUSH2 0x445 PUSH2 0x1647 JUMP JUMPDEST PUSH1 0x40 MLOAD PUSH2 0x452 SWAP2 SWAP1 PUSH2 0x3549 JUMP JUMPDEST PUSH1 0x40 MLOAD DUP1 SWAP2 SUB SWAP1 RETURN JUMPDEST CALLVALUE DUP1 ISZERO PUSH2 0x466 JUMPI PUSH0 DUP1 REVERT JUMPDEST POP PUSH2 0x481 PUSH1 0x4 DUP1 CALLDATASIZE SUB DUP2 ADD SWAP1 PUSH2 0x47C SWAP2 SWAP1 PUSH2 0x3400 JUMP JUMPDEST PUSH2 0x16DC JUMP JUMPDEST PUSH1 0x40 MLOAD PUSH2 0x48E SWAP2 SWAP1 PUSH2 0x3486 JUMP JUMPDEST PUSH1 0x40 MLOAD DUP1 SWAP2 SUB SWAP1 RETURN JUMPDEST PUSH2 0x4B1 PUSH1 0x4 DUP1 CALLDATASIZE SUB DUP2 ADD SWAP1 PUSH2 0x4AC SWAP2 SWAP1 PUSH2 0x38BF JUMP JUMPDEST PUSH2 0x1724 JUMP JUMPDEST STOP JUMPDEST CALLVALUE DUP1 ISZERO PUSH2 0x4BE JUMPI PUSH0 DUP1 REVERT JUMPDEST POP PUSH2 0x4D9 PUSH1 0x4 DUP1 CALLDATASIZE SUB DUP2 ADD SWAP1 PUSH2 0x4D4 SWAP2 SWAP1 PUSH2 0x3919 JUMP JUMPDEST PUSH2 0x1BFE JUMP JUMPDEST STOP JUMPDEST CALLVALUE DUP1 ISZERO PUSH2 0x4E6 JUMPI PUSH0 DUP1 REVERT JUMPDEST POP PUSH2 0x501 PUSH1 0x4 DUP1 CALLDATASIZE SUB DUP2 ADD SWAP1 PUSH2 0x4FC SWAP2 SWAP1 PUSH2 0x3562 JUMP JUMPDEST PUSH2 0x1C95 JUMP JUMPDEST PUSH1 0x40 MLOAD PUSH2 0x513 SWAP7 SWAP6 SWAP5 SWAP4 SWAP3 SWAP2 SWAP1 PUSH2 0x3944 JUMP JUMPDEST PUSH1 0x40 MLOAD DUP1 SWAP2 SUB SWAP1 RETURN JUMPDEST CALLVALUE DUP1 ISZERO PUSH2 0x527 JUMPI PUSH0 DUP1 REVERT JUMPDEST POP PUSH2 0x542 PUSH1 0x4 DUP1 CALLDATASIZE SUB DUP2 ADD SWAP1 PUSH2 0x53D SWAP2 SWAP1 PUSH2 0x3562 JUMP JUMPDEST PUSH2 0x1F41 JUMP JUMPDEST PUSH1 0x40 MLOAD PUSH2 0x54F SWAP2 SWAP1 PUSH2 0x39BF JUMP JUMPDEST PUSH1 0x40 MLOAD DUP1 SWAP2 SUB SWAP1 RETURN JUMPDEST CALLVALUE DUP1 ISZERO PUSH2 0x563 JUMPI PUSH0 DUP1 REVERT JUMPDEST POP PUSH2 0x57E PUSH1 0x4 DUP1 CALLDATASIZE SUB DUP2 ADD SWAP1 PUSH2 0x579 SWAP2 SWAP1 PUSH2 0x39D8 JUMP JUMPDEST PUSH2 0x1F96 JUMP JUMPDEST STOP JUMPDEST CALLVALUE DUP1 ISZERO PUSH2 0x58B JUMPI PUSH0 DUP1 REVERT JUMPDEST POP PUSH2 0x5A6 PUSH1 0x4 DUP1 CALLDATASIZE SUB DUP2 ADD SWAP1 PUSH2 0x5A1 SWAP2 SWAP1 PUSH2 0x3562 JUMP JUMPDEST PUSH2 0x22DE JUMP JUMPDEST PUSH1 0x40 MLOAD PUSH2 0x5B7 SWAP6 SWAP5 SWAP4 SWAP3 SWAP2 SWAP1 PUSH2 0x3A7C JUMP JUMPDEST PUSH1 0x40 MLOAD DUP1 SWAP2 SUB SWAP1 RETURN JUMPDEST CALLVALUE DUP1 ISZERO PUSH2 0x5CB JUMPI PUSH0 DUP1 REVERT JUMPDEST POP PUSH2 0x5D4 PUSH2 0x2506 JUMP JUMPDEST PUSH1 0x40 MLOAD PUSH2 0x5E1 SWAP2 SWAP1 PUSH2 0x3486 JUMP JUMPDEST PUSH1 0x40 MLOAD DUP1 SWAP2 SUB SWAP1 RETURN JUMPDEST CALLVALUE DUP1 ISZERO PUSH2 0x5F5 JUMPI PUSH0 DUP1 REVERT JUMPDEST POP PUSH2 0x610 PUSH1 0x4 DUP1 CALLDATASIZE SUB DUP2 ADD SWAP1 PUSH2 0x60B SWAP2 SWAP1 PUSH2 0x3919 JUMP JUMPDEST PUSH2 0x2529 JUMP JUMPDEST PUSH1 0x40 MLOAD PUSH2 0x624 SWAP9 SWAP8 SWAP7 SWAP6 SWAP5 SWAP4 SWAP3 SWAP2 SWAP1 PUSH2 0x3B28 JUMP JUMPDEST PUSH1 0x40 MLOAD DUP1 SWAP2 SUB SWAP1 RETURN JUMPDEST CALLVALUE DUP1 ISZERO PUSH2 0x638 JUMPI PUSH0 DUP1 REVERT JUMPDEST POP PUSH2 0x653 PUSH1 0x4 DUP1 CALLDATASIZE SUB DUP2 ADD SWAP1 PUSH2 0x64E SWAP2 SWAP1 PUSH2 0x3BD5 JUMP JUMPDEST PUSH2 0x26C3 JUMP JUMPDEST STOP JUMPDEST CALLVALUE DUP1 ISZERO PUSH2 0x660 JUMPI PUSH0 DUP1 REVERT JUMPDEST POP PUSH2 0x669 PUSH2 0x2A0F JUMP JUMPDEST STOP JUMPDEST CALLVALUE DUP1 ISZERO PUSH2 0x676 JUMPI PUSH0 DUP1 REVERT JUMPDEST POP PUSH2 0x691 PUSH1 0x4 DUP1 CALLDATASIZE SUB DUP2 ADD SWAP1 PUSH2 0x68C SWAP2 SWAP1 PUSH2 0x3C4A JUMP JUMPDEST PUSH2 0x2B48 JUMP JUMPDEST STOP JUMPDEST CALLVALUE DUP1 ISZERO PUSH2 0x69E JUMPI PUSH0 DUP1 REVERT JUMPDEST POP PUSH2 0x6B9 PUSH1 0x4 DUP1 CALLDATASIZE SUB DUP2 ADD SWAP1 PUSH2 0x6B4 SWAP2 SWAP1 PUSH2 0x39D8 JUMP JUMPDEST PUSH2 0x2C3D JUMP JUMPDEST STOP JUMPDEST CALLVALUE DUP1 ISZERO PUSH2 0x6C6 JUMPI PUSH0 DUP1 REVERT JUMPDEST POP PUSH2 0x6E1 PUSH1 0x4 DUP1 CALLDATASIZE SUB DUP2 ADD SWAP1 PUSH2 0x6DC SWAP2 SWAP1 PUSH2 0x3919 JUMP JUMPDEST PUSH2 0x2DC2 JUMP JUMPDEST PUSH1 0x40 MLOAD PUSH2 0x6F4 SWAP8 SWAP7 SWAP6 SWAP5 SWAP4 SWAP3 SWAP2 SWAP1 PUSH2 0x3C75 JUMP JUMPDEST PUSH1 0x40 MLOAD DUP1 SWAP2 SUB SWAP1 RETURN JUMPDEST CALLVALUE DUP1 ISZERO PUSH2 0x708 JUMPI PUSH0 DUP1 REVERT JUMPDEST POP PUSH2 0x723 PUSH1 0x4 DUP1 CALLDATASIZE SUB DUP2 ADD SWAP1 PUSH2 0x71E SWAP2 SWAP1 PUSH2 0x3562 JUMP JUMPDEST PUSH2 0x2FCF JUMP JUMPDEST PUSH1 0x40 MLOAD PUSH2 0x730 SWAP2 SWAP1 PUSH2 0x39BF JUMP JUMPDEST PUSH1 0x40 MLOAD DUP1 SWAP2 SUB SWAP1 RETURN JUMPDEST CALLVALUE DUP1 ISZERO PUSH2 0x744 JUMPI PUSH0 DUP1 REVERT JUMPDEST POP PUSH2 0x74D PUSH2 0x3024 JUMP JUMPDEST PUSH1 0x40 MLOAD PUSH2 0x75A SWAP2 SWAP1 PUSH2 0x3CFF JUMP JUMPDEST PUSH1 0x40 MLOAD DUP1 SWAP2 SUB SWAP1 RETURN JUMPDEST PUSH1 0x4 PUSH0 CALLER PUSH20 0xFFFFFFFFFFFFFFFFFFFFFFFFFFFFFFFFFFFFFFFF AND PUSH20 0xFFFFFFFFFFFFFFFFFFFFFFFFFFFFFFFFFFFFFFFF AND DUP2 MSTORE PUSH1 0x20 ADD SWAP1 DUP2 MSTORE PUSH1 0x20 ADD PUSH0 KECCAK256 PUSH1 0x3 ADD PUSH0 SWAP1 SLOAD SWAP1 PUSH2 0x100 EXP SWAP1 DIV PUSH1 0xFF AND PUSH2 0x7EF JUMPI PUSH1 0x40 MLOAD PUSH32 0x8C379A000000000000000000000000000000000000000000000000000000000 DUP2 MSTORE PUSH1 0x4 ADD PUSH2 0x7E6 SWAP1 PUSH2 0x3D88 JUMP JUMPDEST PUSH1 0x40 MLOAD DUP1 SWAP2 SUB SWAP1 REVERT JUMPDEST DUP2 PUSH1 0x4 PUSH0 CALLER PUSH20 0xFFFFFFFFFFFFFFFFFFFFFFFFFFFFFFFFFFFFFFFF AND PUSH20 0xFFFFFFFFFFFFFFFFFFFFFFFFFFFFFFFFFFFFFFFF AND DUP2 MSTORE PUSH1 0x20 ADD SWAP1 DUP2 MSTORE PUSH1 0x20 ADD PUSH0 KECCAK256 PUSH1 0x2 ADD SWAP1 DUP2 PUSH2 0x83C SWAP2 SWAP1 PUSH2 0x3FA0 JUMP JUMPDEST POP PUSH0 DUP2 MLOAD GT ISZERO PUSH2 0x895 JUMPI DUP1 PUSH1 0x4 PUSH0 CALLER PUSH20 0xFFFFFFFFFFFFFFFFFFFFFFFFFFFFFFFFFFFFFFFF AND PUSH20 0xFFFFFFFFFFFFFFFFFFFFFFFFFFFFFFFFFFFFFFFF AND DUP2 MSTORE PUSH1 0x20 ADD SWAP1 DUP2 MSTORE PUSH1 0x20 ADD PUSH0 KECCAK256 PUSH1 0x4 ADD SWAP1 DUP2 PUSH2 0x893 SWAP2 SWAP1 PUSH2 0x3FA0 JUMP JUMPDEST POP JUMPDEST POP POP JUMP JUMPDEST PUSH1 0x5 DUP2 DUP1 MLOAD PUSH1 0x20 DUP2 ADD DUP3 ADD DUP1 MLOAD DUP5 DUP3 MSTORE PUSH1 0x20 DUP4 ADD PUSH1 0x20 DUP6 ADD KECCAK256 DUP2 DUP4 MSTORE DUP1 SWAP6 POP POP POP POP POP POP PUSH0 SWAP2 POP SLOAD SWAP1 PUSH2 0x100 EXP SWAP1 DIV PUSH20 0xFFFFFFFFFFFFFFFFFFFFFFFFFFFFFFFFFFFFFFFF AND DUP2 JUMP JUMPDEST PUSH1 0x7 PUSH1 0x20 MSTORE DUP2 PUSH0 MSTORE PUSH1 0x40 PUSH0 KECCAK256 DUP2 DUP2 SLOAD DUP2 LT PUSH2 0x8FA JUMPI PUSH0 DUP1 REVERT JUMPDEST SWAP1 PUSH0 MSTORE PUSH1 0x20 PUSH0 KECCAK256 ADD PUSH0 SWAP2 POP SWAP2 POP POP SLOAD DUP2 JUMP JUMPDEST PUSH1 0x8 PUSH1 0x20 MSTORE DUP2 PUSH0 MSTORE PUSH1 0x40 PUSH0 KECCAK256 DUP2 DUP2 SLOAD DUP2 LT PUSH2 0x925 JUMPI PUSH0 DUP1 REVERT JUMPDEST SWAP1 PUSH0 MSTORE PUSH1 0x20 PUSH0 KECCAK256 ADD PUSH0 SWAP2 POP SWAP2 POP POP SLOAD DUP2 JUMP JUMPDEST PUSH1 0x60 PUSH1 0x7 PUSH0 DUP4 PUSH20 0xFFFFFFFFFFFFFFFFFFFFFFFFFFFFFFFFFFFFFFFF AND PUSH20 0xFFFFFFFFFFFFFFFFFFFFFFFFFFFFFFFFFFFFFFFF AND DUP2 MSTORE PUSH1 0x20 ADD SWAP1 DUP2 MSTORE PUSH1 0x20 ADD PUSH0 KECCAK256 DUP1 SLOAD DUP1 PUSH1 0x20 MUL PUSH1 0x20 ADD PUSH1 0x40 MLOAD SWAP1 DUP2 ADD PUSH1 0x40 MSTORE DUP1 SWAP3 SWAP2 SWAP1 DUP2 DUP2 MSTORE PUSH1 0x20 ADD DUP3 DUP1 SLOAD DUP1 ISZERO PUSH2 0x9BE JUMPI PUSH1 0x20 MUL DUP3 ADD SWAP2 SWAP1 PUSH0 MSTORE PUSH1 0x20 PUSH0 KECCAK256 SWAP1 JUMPDEST DUP2 SLOAD DUP2 MSTORE PUSH1 0x20 ADD SWAP1 PUSH1 0x1 ADD SWAP1 DUP1 DUP4 GT PUSH2 0x9AA JUMPI JUMPDEST POP POP POP POP POP SWAP1 POP SWAP2 SWAP1 POP JUMP JUMPDEST PUSH1 0x2 PUSH0 CALLER PUSH20 0xFFFFFFFFFFFFFFFFFFFFFFFFFFFFFFFFFFFFFFFF AND PUSH20 0xFFFFFFFFFFFFFFFFFFFFFFFFFFFFFFFFFFFFFFFF AND DUP2 MSTORE PUSH1 0x20 ADD SWAP1 DUP2 MSTORE PUSH1 0x20 ADD PUSH0 KECCAK256 PUSH1 0x3 ADD PUSH0 SWAP1 SLOAD SWAP1 PUSH2 0x100 EXP SWAP1 DIV PUSH1 0xFF AND PUSH2 0xA56 JUMPI PUSH1 0x40 MLOAD PUSH32 0x8C379A000000000000000000000000000000000000000000000000000000000 DUP2 MSTORE PUSH1 0x4 ADD PUSH2 0xA4D SWAP1 PUSH2 0x40DF JUMP JUMPDEST PUSH1 0x40 MLOAD DUP1 SWAP2 SUB SWAP1 REVERT JUMPDEST PUSH0 PUSH1 0x2 PUSH0 CALLER PUSH20 0xFFFFFFFFFFFFFFFFFFFFFFFFFFFFFFFFFFFFFFFF AND PUSH20 0xFFFFFFFFFFFFFFFFFFFFFFFFFFFFFFFFFFFFFFFF AND DUP2 MSTORE PUSH1 0x20 ADD SWAP1 DUP2 MSTORE PUSH1 0x20 ADD PUSH0 KECCAK256 PUSH1 0x4 ADD SLOAD SWAP1 POP PUSH1 0x1 SLOAD DUP2 LT ISZERO PUSH2 0xADF JUMPI PUSH1 0x40 MLOAD PUSH32 0x8C379A000000000000000000000000000000000000000000000000000000000 DUP2 MSTORE PUSH1 0x4 ADD PUSH2 0xAD6 SWAP1 PUSH2 0x4147 JUMP JUMPDEST PUSH1 0x40 MLOAD DUP1 SWAP2 SUB SWAP1 REVERT JUMPDEST PUSH0 PUSH1 0x2 PUSH0 CALLER PUSH20 0xFFFFFFFFFFFFFFFFFFFFFFFFFFFFFFFFFFFFFFFF AND PUSH20 0xFFFFFFFFFFFFFFFFFFFFFFFFFFFFFFFFFFFFFFFF AND DUP2 MSTORE PUSH1 0x20 ADD SWAP1 DUP2 MSTORE PUSH1 0x20 ADD PUSH0 KECCAK256 PUSH1 0x4 ADD DUP2 SWAP1 SSTORE POP CALLER PUSH20 0xFFFFFFFFFFFFFFFFFFFFFFFFFFFFFFFFFFFFFFFF AND PUSH2 0x8FC DUP3 SWAP1 DUP2 ISZERO MUL SWAP1 PUSH1 0x40 MLOAD PUSH0 PUSH1 0x40 MLOAD DUP1 DUP4 SUB DUP2 DUP6 DUP9 DUP9 CALL SWAP4 POP POP POP POP ISZERO DUP1 ISZERO PUSH2 0xB67 JUMPI RETURNDATASIZE PUSH0 DUP1 RETURNDATACOPY RETURNDATASIZE PUSH0 REVERT JUMPDEST POP CALLER PUSH20 0xFFFFFFFFFFFFFFFFFFFFFFFFFFFFFFFFFFFFFFFF AND PUSH32 0xEAFF4B37086828766AD3268786972C0CD24259D4C87A80F9D3963A3C3D999B0D DUP3 PUSH1 0x40 MLOAD PUSH2 0xBAE SWAP2 SWAP1 PUSH2 0x3549 JUMP JUMPDEST PUSH1 0x40 MLOAD DUP1 SWAP2 SUB SWAP1 LOG2 POP JUMP JUMPDEST PUSH1 0x2 PUSH1 0x20 MSTORE DUP1 PUSH0 MSTORE PUSH1 0x40 PUSH0 KECCAK256 PUSH0 SWAP2 POP SWAP1 POP DUP1 PUSH0 ADD PUSH0 SWAP1 SLOAD SWAP1 PUSH2 0x100 EXP SWAP1 DIV PUSH20 0xFFFFFFFFFFFFFFFFFFFFFFFFFFFFFFFFFFFFFFFF AND SWAP1 DUP1 PUSH1 0x1 ADD DUP1 SLOAD PUSH2 0xBFD SWAP1 PUSH2 0x3DD3 JUMP JUMPDEST DUP1 PUSH1 0x1F ADD PUSH1 0x20 DUP1 SWAP2 DIV MUL PUSH1 0x20 ADD PUSH1 0x40 MLOAD SWAP1 DUP2 ADD PUSH1 0x40 MSTORE DUP1 SWAP3 SWAP2 SWAP1 DUP2 DUP2 MSTORE PUSH1 0x20 ADD DUP3 DUP1 SLOAD PUSH2 0xC29 SWAP1 PUSH2 0x3DD3 JUMP JUMPDEST DUP1 ISZERO PUSH2 0xC74 JUMPI DUP1 PUSH1 0x1F LT PUSH2 0xC4B JUMPI PUSH2 0x100 DUP1 DUP4 SLOAD DIV MUL DUP4 MSTORE SWAP2 PUSH1 0x20 ADD SWAP2 PUSH2 0xC74 JUMP JUMPDEST DUP3 ADD SWAP2 SWAP1 PUSH0 MSTORE PUSH1 0x20 PUSH0 KECCAK256 SWAP1 JUMPDEST DUP2 SLOAD DUP2 MSTORE SWAP1 PUSH1 0x1 ADD SWAP1 PUSH1 0x20 ADD DUP1 DUP4 GT PUSH2 0xC57 JUMPI DUP3 SWAP1 SUB PUSH1 0x1F AND DUP3 ADD SWAP2 JUMPDEST POP POP POP POP POP SWAP1 DUP1 PUSH1 0x2 ADD DUP1 SLOAD PUSH2 0xC89 SWAP1 PUSH2 0x3DD3 JUMP JUMPDEST DUP1 PUSH1 0x1F ADD PUSH1 0x20 DUP1 SWAP2 DIV MUL PUSH1 0x20 ADD PUSH1 0x40 MLOAD SWAP1 DUP2 ADD PUSH1 0x40 MSTORE DUP1 SWAP3 SWAP2 SWAP1 DUP2 DUP2 MSTORE PUSH1 0x20 ADD DUP3 DUP1 SLOAD PUSH2 0xCB5 SWAP1 PUSH2 0x3DD3 JUMP JUMPDEST DUP1 ISZERO PUSH2 0xD00 JUMPI DUP1 PUSH1 0x1F LT PUSH2 0xCD7 JUMPI PUSH2 0x100 DUP1 DUP4 SLOAD DIV MUL DUP4 MSTORE SWAP2 PUSH1 0x20 ADD SWAP2 PUSH2 0xD00 JUMP JUMPDEST DUP3 ADD SWAP2 SWAP1 PUSH0 MSTORE PUSH1 0x20 PUSH0 KECCAK256 SWAP1 JUMPDEST DUP2 SLOAD DUP2 MSTORE SWAP1 PUSH1 0x1 ADD SWAP1 PUSH1 0x20 ADD DUP1 DUP4 GT PUSH2 0xCE3 JUMPI DUP3 SWAP1 SUB PUSH1 0x1F AND DUP3 ADD SWAP2 JUMPDEST POP POP POP POP POP SWAP1 DUP1 PUSH1 0x3 ADD PUSH0 SWAP1 SLOAD SWAP1 PUSH2 0x100 EXP SWAP1 DIV PUSH1 0xFF AND SWAP1 DUP1 PUSH1 0x4 ADD SLOAD SWAP1 DUP1 PUSH1 0x5 ADD DUP1 SLOAD PUSH2 0xD2D SWAP1 PUSH2 0x3DD3 JUMP JUMPDEST DUP1 PUSH1 0x1F ADD PUSH1 0x20 DUP1 SWAP2 DIV MUL PUSH1 0x20 ADD PUSH1 0x40 MLOAD SWAP1 DUP2 ADD PUSH1 0x40 MSTORE DUP1 SWAP3 SWAP2 SWAP1 DUP2 DUP2 MSTORE PUSH1 0x20 ADD DUP3 DUP1 SLOAD PUSH2 0xD59 SWAP1 PUSH2 0x3DD3 JUMP JUMPDEST DUP1 ISZERO PUSH2 0xDA4 JUMPI DUP1 PUSH1 0x1F LT PUSH2 0xD7B JUMPI PUSH2 0x100 DUP1 DUP4 SLOAD DIV MUL DUP4 MSTORE SWAP2 PUSH1 0x20 ADD SWAP2 PUSH2 0xDA4 JUMP JUMPDEST DUP3 ADD SWAP2 SWAP1 PUSH0 MSTORE PUSH1 0x20 PUSH0 KECCAK256 SWAP1 JUMPDEST DUP2 SLOAD DUP2 MSTORE SWAP1 PUSH1 0x1 ADD SWAP1 PUSH1 0x20 ADD DUP1 DUP4 GT PUSH2 0xD87 JUMPI DUP3 SWAP1 SUB PUSH1 0x1F AND DUP3 ADD SWAP2 JUMPDEST POP POP POP POP POP SWAP1 DUP1 PUSH1 0x6 ADD DUP1 SLOAD PUSH2 0xDB9 SWAP1 PUSH2 0x3DD3 JUMP JUMPDEST DUP1 PUSH1 0x1F ADD PUSH1 0x20 DUP1 SWAP2 DIV MUL PUSH1 0x20 ADD PUSH1 0x40 MLOAD SWAP1 DUP2 ADD PUSH1 0x40 MSTORE DUP1 SWAP3 SWAP2 SWAP1 DUP2 DUP2 MSTORE PUSH1 0x20 ADD DUP3 DUP1 SLOAD PUSH2 0xDE5 SWAP1 PUSH2 0x3DD3 JUMP JUMPDEST DUP1 ISZERO PUSH2 0xE30 JUMPI DUP1 PUSH1 0x1F LT PUSH2 0xE07 JUMPI PUSH2 0x100 DUP1 DUP4 SLOAD DIV MUL DUP4 MSTORE SWAP2 PUSH1 0x20 ADD SWAP2 PUSH2 0xE30 JUMP JUMPDEST DUP3 ADD SWAP2 SWAP1 PUSH0 MSTORE PUSH1 0x20 PUSH0 KECCAK256 SWAP1 JUMPDEST DUP2 SLOAD DUP2 MSTORE SWAP1 PUSH1 0x1 ADD SWAP1 PUSH1 0x20 ADD DUP1 DUP4 GT PUSH2 0xE13 JUMPI DUP3 SWAP1 SUB PUSH1 0x1F AND DUP3 ADD SWAP2 JUMPDEST POP POP POP POP POP SWAP1 POP DUP8 JUMP JUMPDEST PUSH1 0x1 SLOAD DUP2 JUMP JUMPDEST PUSH1 0x4 PUSH0 CALLER PUSH20 0xFFFFFFFFFFFFFFFFFFFFFFFFFFFFFFFFFFFFFFFF AND PUSH20 0xFFFFFFFFFFFFFFFFFFFFFFFFFFFFFFFFFFFFFFFF AND DUP2 MSTORE PUSH1 0x20 ADD SWAP1 DUP2 MSTORE PUSH1 0x20 ADD PUSH0 KECCAK256 PUSH1 0x3 ADD PUSH0 SWAP1 SLOAD SWAP1 PUSH2 0x100 EXP SWAP1 DIV PUSH1 0xFF AND ISZERO PUSH2 0xECD JUMPI PUSH1 0x40 MLOAD PUSH32 0x8C379A000000000000000000000000000000000000000000000000000000000 DUP2 MSTORE PUSH1 0x4 ADD PUSH2 0xEC4 SWAP1 PUSH2 0x41AF JUMP JUMPDEST PUSH1 0x40 MLOAD DUP1 SWAP2 SUB SWAP1 REVERT JUMPDEST PUSH0 PUSH20 0xFFFFFFFFFFFFFFFFFFFFFFFFFFFFFFFFFFFFFFFF AND PUSH1 0x5 DUP4 PUSH1 0x40 MLOAD PUSH2 0xEF4 SWAP2 SWAP1 PUSH2 0x4207 JUMP JUMPDEST SWAP1 DUP2 MSTORE PUSH1 0x20 ADD PUSH1 0x40 MLOAD DUP1 SWAP2 SUB SWAP1 KECCAK256 PUSH0 SWAP1 SLOAD SWAP1 PUSH2 0x100 EXP SWAP1 DIV PUSH20 0xFFFFFFFFFFFFFFFFFFFFFFFFFFFFFFFFFFFFFFFF AND PUSH20 0xFFFFFFFFFFFFFFFFFFFFFFFFFFFFFFFFFFFFFFFF AND EQ PUSH2 0xF78 JUMPI PUSH1 0x40 MLOAD PUSH32 0x8C379A000000000000000000000000000000000000000000000000000000000 DUP2 MSTORE PUSH1 0x4 ADD PUSH2 0xF6F SWAP1 PUSH2 0x4267 JUMP JUMPDEST PUSH1 0x40 MLOAD DUP1 SWAP2 SUB SWAP1 REVERT JUMPDEST PUSH1 0x40 MLOAD DUP1 PUSH1 0xC0 ADD PUSH1 0x40 MSTORE DUP1 CALLER PUSH20 0xFFFFFFFFFFFFFFFFFFFFFFFFFFFFFFFFFFFFFFFF AND DUP2 MSTORE PUSH1 0x20 ADD DUP4 DUP2 MSTORE PUSH1 0x20 ADD DUP3 DUP2 MSTORE PUSH1 0x20 ADD PUSH1 0x1 ISZERO ISZERO DUP2 MSTORE PUSH1 0x20 ADD PUSH0 PUSH1 0x2 DUP2 GT ISZERO PUSH2 0xFC7 JUMPI PUSH2 0xFC6 PUSH2 0x37D8 JUMP JUMPDEST JUMPDEST DUP2 MSTORE PUSH1 0x20 ADD PUSH1 0x40 MLOAD DUP1 PUSH1 0x20 ADD PUSH1 0x40 MSTORE DUP1 PUSH0 DUP2 MSTORE POP DUP2 MSTORE POP PUSH1 0x4 PUSH0 CALLER PUSH20 0xFFFFFFFFFFFFFFFFFFFFFFFFFFFFFFFFFFFFFFFF AND PUSH20 0xFFFFFFFFFFFFFFFFFFFFFFFFFFFFFFFFFFFFFFFF AND DUP2 MSTORE PUSH1 0x20 ADD SWAP1 DUP2 MSTORE PUSH1 0x20 ADD PUSH0 KECCAK256 PUSH0 DUP3 ADD MLOAD DUP2 PUSH0 ADD PUSH0 PUSH2 0x100 EXP DUP2 SLOAD DUP2 PUSH20 0xFFFFFFFFFFFFFFFFFFFFFFFFFFFFFFFFFFFFFFFF MUL NOT AND SWAP1 DUP4 PUSH20 0xFFFFFFFFFFFFFFFFFFFFFFFFFFFFFFFFFFFFFFFF AND MUL OR SWAP1 SSTORE POP PUSH1 0x20 DUP3 ADD MLOAD DUP2 PUSH1 0x1 ADD SWAP1 DUP2 PUSH2 0x1074 SWAP2 SWAP1 PUSH2 0x3FA0 JUMP JUMPDEST POP PUSH1 0x40 DUP3 ADD MLOAD DUP2 PUSH1 0x2 ADD SWAP1 DUP2 PUSH2 0x108A SWAP2 SWAP1 PUSH2 0x3FA0 JUMP JUMPDEST POP PUSH1 0x60 DUP3 ADD MLOAD DUP2 PUSH1 0x3 ADD PUSH0 PUSH2 0x100 EXP DUP2 SLOAD DUP2 PUSH1 0xFF MUL NOT AND SWAP1 DUP4 ISZERO ISZERO MUL OR SWAP1 SSTORE POP PUSH1 0x80 DUP3 ADD MLOAD DUP2 PUSH1 0x3 ADD PUSH1 0x1 PUSH2 0x100 EXP DUP2 SLOAD DUP2 PUSH1 0xFF MUL NOT AND SWAP1 DUP4 PUSH1 0x2 DUP2 GT ISZERO PUSH2 0x10D5 JUMPI PUSH2 0x10D4 PUSH2 0x37D8 JUMP JUMPDEST JUMPDEST MUL OR SWAP1 SSTORE POP PUSH1 0xA0 DUP3 ADD MLOAD DUP2 PUSH1 0x4 ADD SWAP1 DUP2 PUSH2 0x10EF SWAP2 SWAP1 PUSH2 0x3FA0 JUMP JUMPDEST POP SWAP1 POP POP CALLER PUSH1 0x5 DUP4 PUSH1 0x40 MLOAD PUSH2 0x1104 SWAP2 SWAP1 PUSH2 0x4207 JUMP JUMPDEST SWAP1 DUP2 MSTORE PUSH1 0x20 ADD PUSH1 0x40 MLOAD DUP1 SWAP2 SUB SWAP1 KECCAK256 PUSH0 PUSH2 0x100 EXP DUP2 SLOAD DUP2 PUSH20 0xFFFFFFFFFFFFFFFFFFFFFFFFFFFFFFFFFFFFFFFF MUL NOT AND SWAP1 DUP4 PUSH20 0xFFFFFFFFFFFFFFFFFFFFFFFFFFFFFFFFFFFFFFFF AND MUL OR SWAP1 SSTORE POP CALLER PUSH20 0xFFFFFFFFFFFFFFFFFFFFFFFFFFFFFFFFFFFFFFFF AND PUSH32 0x1095D5BB47535AABC9770ACBCD3F5F182A26902A02D9EAA8B8C1450E71412078 DUP4 PUSH1 0x40 MLOAD PUSH2 0x1195 SWAP2 SWAP1 PUSH2 0x4285 JUMP JUMPDEST PUSH1 0x40 MLOAD DUP1 SWAP2 SUB SWAP1 LOG2 POP POP JUMP JUMPDEST PUSH1 0x60 DUP1 PUSH0 DUP1 PUSH0 PUSH1 0x2 PUSH0 DUP8 PUSH20 0xFFFFFFFFFFFFFFFFFFFFFFFFFFFFFFFFFFFFFFFF AND PUSH20 0xFFFFFFFFFFFFFFFFFFFFFFFFFFFFFFFFFFFFFFFF AND DUP2 MSTORE PUSH1 0x20 ADD SWAP1 DUP2 MSTORE PUSH1 0x20 ADD PUSH0 KECCAK256 SWAP1 POP DUP1 PUSH1 0x1 ADD DUP2 PUSH1 0x2 ADD DUP3 PUSH1 0x3 ADD PUSH0 SWAP1 SLOAD SWAP1 PUSH2 0x100 EXP SWAP1 DIV PUSH1 0xFF AND DUP4 PUSH1 0x4 ADD SLOAD DUP4 DUP1 SLOAD PUSH2 0x1210 SWAP1 PUSH2 0x3DD3 JUMP JUMPDEST DUP1 PUSH1 0x1F ADD PUSH1 0x20 DUP1 SWAP2 DIV MUL PUSH1 0x20 ADD PUSH1 0x40 MLOAD SWAP1 DUP2 ADD PUSH1 0x40 MSTORE DUP1 SWAP3 SWAP2 SWAP1 DUP2 DUP2 MSTORE PUSH1 0x20 ADD DUP3 DUP1 SLOAD PUSH2 0x123C SWAP1 PUSH2 0x3DD3 JUMP JUMPDEST DUP1 ISZERO PUSH2 0x1287 JUMPI DUP1 PUSH1 0x1F LT PUSH2 0x125E JUMPI PUSH2 0x100 DUP1 DUP4 SLOAD DIV MUL DUP4 MSTORE SWAP2 PUSH1 0x20 ADD SWAP2 PUSH2 0x1287 JUMP JUMPDEST DUP3 ADD SWAP2 SWAP1 PUSH0 MSTORE PUSH1 0x20 PUSH0 KECCAK256 SWAP1 JUMPDEST DUP2 SLOAD DUP2 MSTORE SWAP1 PUSH1 0x1 ADD SWAP1 PUSH1 0x20 ADD DUP1 DUP4 GT PUSH2 0x126A JUMPI DUP3 SWAP1 SUB PUSH1 0x1F AND DUP3 ADD SWAP2 JUMPDEST POP POP POP POP POP SWAP4 POP DUP3 DUP1 SLOAD PUSH2 0x129A SWAP1 PUSH2 0x3DD3 JUMP JUMPDEST DUP1 PUSH1 0x1F ADD PUSH1 0x20 DUP1 SWAP2 DIV MUL PUSH1 0x20 ADD PUSH1 0x40 MLOAD SWAP1 DUP2 ADD PUSH1 0x40 MSTORE DUP1 SWAP3 SWAP2 SWAP1 DUP2 DUP2 MSTORE PUSH1 0x20 ADD DUP3 DUP1 SLOAD PUSH2 0x12C6 SWAP1 PUSH2 0x3DD3 JUMP JUMPDEST DUP1 ISZERO PUSH2 0x1311 JUMPI DUP1 PUSH1 0x1F LT PUSH2 0x12E8 JUMPI PUSH2 0x100 DUP1 DUP4 SLOAD DIV MUL DUP4 MSTORE SWAP2 PUSH1 0x20 ADD SWAP2 PUSH2 0x1311 JUMP JUMPDEST DUP3 ADD SWAP2 SWAP1 PUSH0 MSTORE PUSH1 0x20 PUSH0 KECCAK256 SWAP1 JUMPDEST DUP2 SLOAD DUP2 MSTORE SWAP1 PUSH1 0x1 ADD SWAP1 PUSH1 0x20 ADD DUP1 DUP4 GT PUSH2 0x12F4 JUMPI DUP3 SWAP1 SUB PUSH1 0x1F AND DUP3 ADD SWAP2 JUMPDEST POP POP POP POP POP SWAP3 POP SWAP5 POP SWAP5 POP SWAP5 POP SWAP5 POP POP SWAP2 SWAP4 POP SWAP2 SWAP4 JUMP JUMPDEST PUSH1 0x4 PUSH1 0x20 MSTORE DUP1 PUSH0 MSTORE PUSH1 0x40 PUSH0 KECCAK256 PUSH0 SWAP2 POP SWAP1 POP DUP1 PUSH0 ADD PUSH0 SWAP1 SLOAD SWAP1 PUSH2 0x100 EXP SWAP1 DIV PUSH20 0xFFFFFFFFFFFFFFFFFFFFFFFFFFFFFFFFFFFFFFFF AND SWAP1 DUP1 PUSH1 0x1 ADD DUP1 SLOAD PUSH2 0x136C SWAP1 PUSH2 0x3DD3 JUMP JUMPDEST DUP1 PUSH1 0x1F ADD PUSH1 0x20 DUP1 SWAP2 DIV MUL PUSH1 0x20 ADD PUSH1 0x40 MLOAD SWAP1 DUP2 ADD PUSH1 0x40 MSTORE DUP1 SWAP3 SWAP2 SWAP1 DUP2 DUP2 MSTORE PUSH1 0x20 ADD DUP3 DUP1 SLOAD PUSH2 0x1398 SWAP1 PUSH2 0x3DD3 JUMP JUMPDEST DUP1 ISZERO PUSH2 0x13E3 JUMPI DUP1 PUSH1 0x1F LT PUSH2 0x13BA JUMPI PUSH2 0x100 DUP1 DUP4 SLOAD DIV MUL DUP4 MSTORE SWAP2 PUSH1 0x20 ADD SWAP2 PUSH2 0x13E3 JUMP JUMPDEST DUP3 ADD SWAP2 SWAP1 PUSH0 MSTORE PUSH1 0x20 PUSH0 KECCAK256 SWAP1 JUMPDEST DUP2 SLOAD DUP2 MSTORE SWAP1 PUSH1 0x1 ADD SWAP1 PUSH1 0x20 ADD DUP1 DUP4 GT PUSH2 0x13C6 JUMPI DUP3 SWAP1 SUB PUSH1 0x1F AND DUP3 ADD SWAP2 JUMPDEST POP POP POP POP POP SWAP1 DUP1 PUSH1 0x2 ADD DUP1 SLOAD PUSH2 0x13F8 SWAP1 PUSH2 0x3DD3 JUMP JUMPDEST DUP1 PUSH1 0x1F ADD PUSH1 0x20 DUP1 SWAP2 DIV MUL PUSH1 0x20 ADD PUSH1 0x40 MLOAD SWAP1 DUP2 ADD PUSH1 0x40 MSTORE DUP1 SWAP3 SWAP2 SWAP1 DUP2 DUP2 MSTORE PUSH1 0x20 ADD DUP3 DUP1 SLOAD PUSH2 0x1424 SWAP1 PUSH2 0x3DD3 JUMP JUMPDEST DUP1 ISZERO PUSH2 0x146F JUMPI DUP1 PUSH1 0x1F LT PUSH2 0x1446 JUMPI PUSH2 0x100 DUP1 DUP4 SLOAD DIV MUL DUP4 MSTORE SWAP2 PUSH1 0x20 ADD SWAP2 PUSH2 0x146F JUMP JUMPDEST DUP3 ADD SWAP2 SWAP1 PUSH0 MSTORE PUSH1 0x20 PUSH0 KECCAK256 SWAP1 JUMPDEST DUP2 SLOAD DUP2 MSTORE SWAP1 PUSH1 0x1 ADD SWAP1 PUSH1 0x20 ADD DUP1 DUP4 GT PUSH2 0x1452 JUMPI DUP3 SWAP1 SUB PUSH1 0x1F AND DUP3 ADD SWAP2 JUMPDEST POP POP POP POP POP SWAP1 DUP1 PUSH1 0x3 ADD PUSH0 SWAP1 SLOAD SWAP1 PUSH2 0x100 EXP SWAP1 DIV PUSH1 0xFF AND SWAP1 DUP1 PUSH1 0x3 ADD PUSH1 0x1 SWAP1 SLOAD SWAP1 PUSH2 0x100 EXP SWAP1 DIV PUSH1 0xFF AND SWAP1 DUP1 PUSH1 0x4 ADD DUP1 SLOAD PUSH2 0x14A9 SWAP1 PUSH2 0x3DD3 JUMP JUMPDEST DUP1 PUSH1 0x1F ADD PUSH1 0x20 DUP1 SWAP2 DIV MUL PUSH1 0x20 ADD PUSH1 0x40 MLOAD SWAP1 DUP2 ADD PUSH1 0x40 MSTORE DUP1 SWAP3 SWAP2 SWAP1 DUP2 DUP2 MSTORE PUSH1 0x20 ADD DUP3 DUP1 SLOAD PUSH2 0x14D5 SWAP1 PUSH2 0x3DD3 JUMP JUMPDEST DUP1 ISZERO PUSH2 0x1520 JUMPI DUP1 PUSH1 0x1F LT PUSH2 0x14F7 JUMPI PUSH2 0x100 DUP1 DUP4 SLOAD DIV MUL DUP4 MSTORE SWAP2 PUSH1 0x20 ADD SWAP2 PUSH2 0x1520 JUMP JUMPDEST DUP3 ADD SWAP2 SWAP1 PUSH0 MSTORE PUSH1 0x20 PUSH0 KECCAK256 SWAP1 JUMPDEST DUP2 SLOAD DUP2 MSTORE SWAP1 PUSH1 0x1 ADD SWAP1 PUSH1 0x20 ADD DUP1 DUP4 GT PUSH2 0x1503 JUMPI DUP3 SWAP1 SUB PUSH1 0x1F AND DUP3 ADD SWAP2 JUMPDEST POP POP POP POP POP SWAP1 POP DUP7 JUMP JUMPDEST PUSH1 0x60 PUSH1 0x2 PUSH0 CALLER PUSH20 0xFFFFFFFFFFFFFFFFFFFFFFFFFFFFFFFFFFFFFFFF AND PUSH20 0xFFFFFFFFFFFFFFFFFFFFFFFFFFFFFFFFFFFFFFFF AND DUP2 MSTORE PUSH1 0x20 ADD SWAP1 DUP2 MSTORE PUSH1 0x20 ADD PUSH0 KECCAK256 PUSH1 0x3 ADD PUSH0 SWAP1 SLOAD SWAP1 PUSH2 0x100 EXP SWAP1 DIV PUSH1 0xFF AND PUSH2 0x15B8 JUMPI PUSH1 0x40 MLOAD PUSH32 0x8C379A000000000000000000000000000000000000000000000000000000000 DUP2 MSTORE PUSH1 0x4 ADD PUSH2 0x15AF SWAP1 PUSH2 0x40DF JUMP JUMPDEST PUSH1 0x40 MLOAD DUP1 SWAP2 SUB SWAP1 REVERT JUMPDEST PUSH1 0x8 PUSH0 CALLER PUSH20 0xFFFFFFFFFFFFFFFFFFFFFFFFFFFFFFFFFFFFFFFF AND PUSH20 0xFFFFFFFFFFFFFFFFFFFFFFFFFFFFFFFFFFFFFFFF AND DUP2 MSTORE PUSH1 0x20 ADD SWAP1 DUP2 MSTORE PUSH1 0x20 ADD PUSH0 KECCAK256 DUP1 SLOAD DUP1 PUSH1 0x20 MUL PUSH1 0x20 ADD PUSH1 0x40 MLOAD SWAP1 DUP2 ADD PUSH1 0x40 MSTORE DUP1 SWAP3 SWAP2 SWAP1 DUP2 DUP2 MSTORE PUSH1 0x20 ADD DUP3 DUP1 SLOAD DUP1 ISZERO PUSH2 0x163D JUMPI PUSH1 0x20 MUL DUP3 ADD SWAP2 SWAP1 PUSH0 MSTORE PUSH1 0x20 PUSH0 KECCAK256 SWAP1 JUMPDEST DUP2 SLOAD DUP2 MSTORE PUSH1 0x20 ADD SWAP1 PUSH1 0x1 ADD SWAP1 DUP1 DUP4 GT PUSH2 0x1629 JUMPI JUMPDEST POP POP POP POP POP SWAP1 POP SWAP1 JUMP JUMPDEST PUSH0 DUP1 PUSH0 SWAP1 SLOAD SWAP1 PUSH2 0x100 EXP SWAP1 DIV PUSH20 0xFFFFFFFFFFFFFFFFFFFFFFFFFFFFFFFFFFFFFFFF AND PUSH20 0xFFFFFFFFFFFFFFFFFFFFFFFFFFFFFFFFFFFFFFFF AND CALLER PUSH20 0xFFFFFFFFFFFFFFFFFFFFFFFFFFFFFFFFFFFFFFFF AND EQ PUSH2 0x16D6 JUMPI PUSH1 0x40 MLOAD PUSH32 0x8C379A000000000000000000000000000000000000000000000000000000000 DUP2 MSTORE PUSH1 0x4 ADD PUSH2 0x16CD SWAP1 PUSH2 0x4315 JUMP JUMPDEST PUSH1 0x40 MLOAD DUP1 SWAP2 SUB SWAP1 REVERT JUMPDEST SELFBALANCE SWAP1 POP SWAP1 JUMP JUMPDEST PUSH1 0x3 DUP2 DUP1 MLOAD PUSH1 0x20 DUP2 ADD DUP3 ADD DUP1 MLOAD DUP5 DUP3 MSTORE PUSH1 0x20 DUP4 ADD PUSH1 0x20 DUP6 ADD KECCAK256 DUP2 DUP4 MSTORE DUP1 SWAP6 POP POP POP POP POP POP PUSH0 SWAP2 POP SLOAD SWAP1 PUSH2 0x100 EXP SWAP1 DIV PUSH20 0xFFFFFFFFFFFFFFFFFFFFFFFFFFFFFFFFFFFFFFFF AND DUP2 JUMP JUMPDEST PUSH1 0x2 PUSH0 DUP4 PUSH20 0xFFFFFFFFFFFFFFFFFFFFFFFFFFFFFFFFFFFFFFFF AND PUSH20 0xFFFFFFFFFFFFFFFFFFFFFFFFFFFFFFFFFFFFFFFF AND DUP2 MSTORE PUSH1 0x20 ADD SWAP1 DUP2 MSTORE PUSH1 0x20 ADD PUSH0 KECCAK256 PUSH1 0x3 ADD PUSH0 SWAP1 SLOAD SWAP1 PUSH2 0x100 EXP SWAP1 DIV PUSH1 0xFF AND PUSH2 0x17B0 JUMPI PUSH1 0x40 MLOAD PUSH32 0x8C379A000000000000000000000000000000000000000000000000000000000 DUP2 MSTORE PUSH1 0x4 ADD PUSH2 0x17A7 SWAP1 PUSH2 0x437D JUMP JUMPDEST PUSH1 0x40 MLOAD DUP1 SWAP2 SUB SWAP1 REVERT JUMPDEST PUSH0 CALLVALUE GT PUSH2 0x17F2 JUMPI PUSH1 0x40 MLOAD PUSH32 0x8C379A000000000000000000000000000000000000000000000000000000000 DUP2 MSTORE PUSH1 0x4 ADD PUSH2 0x17E9 SWAP1 PUSH2 0x440B JUMP JUMPDEST PUSH1 0x40 MLOAD DUP1 SWAP2 SUB SWAP1 REVERT JUMPDEST PUSH0 PUSH1 0x9 PUSH0 DUP2 SLOAD DUP1 SWAP3 SWAP2 SWAP1 PUSH2 0x1805 SWAP1 PUSH2 0x4456 JUMP JUMPDEST SWAP2 SWAP1 POP SSTORE SWAP1 POP PUSH0 PUSH1 0x40 MLOAD DUP1 PUSH2 0x100 ADD PUSH1 0x40 MSTORE DUP1 DUP4 DUP2 MSTORE PUSH1 0x20 ADD CALLER PUSH20 0xFFFFFFFFFFFFFFFFFFFFFFFFFFFFFFFFFFFFFFFF AND DUP2 MSTORE PUSH1 0x20 ADD DUP6 PUSH20 0xFFFFFFFFFFFFFFFFFFFFFFFFFFFFFFFFFFFFFFFF AND DUP2 MSTORE PUSH1 0x20 ADD CALLVALUE DUP2 MSTORE PUSH1 0x20 ADD DUP5 DUP2 MSTORE PUSH1 0x20 ADD PUSH0 PUSH1 0x5 DUP2 GT ISZERO PUSH2 0x1875 JUMPI PUSH2 0x1874 PUSH2 0x37D8 JUMP JUMPDEST JUMPDEST DUP2 MSTORE PUSH1 0x20 ADD TIMESTAMP DUP2 MSTORE PUSH1 0x20 ADD PUSH1 0x2 PUSH0 DUP8 PUSH20 0xFFFFFFFFFFFFFFFFFFFFFFFFFFFFFFFFFFFFFFFF AND PUSH20 0xFFFFFFFFFFFFFFFFFFFFFFFFFFFFFFFFFFFFFFFF AND DUP2 MSTORE PUSH1 0x20 ADD SWAP1 DUP2 MSTORE PUSH1 0x20 ADD PUSH0 KECCAK256 PUSH1 0x1 ADD DUP1 SLOAD PUSH2 0x18CB SWAP1 PUSH2 0x3DD3 JUMP JUMPDEST DUP1 PUSH1 0x1F ADD PUSH1 0x20 DUP1 SWAP2 DIV MUL PUSH1 0x20 ADD PUSH1 0x40 MLOAD SWAP1 DUP2 ADD PUSH1 0x40 MSTORE DUP1 SWAP3 SWAP2 SWAP1 DUP2 DUP2 MSTORE PUSH1 0x20 ADD DUP3 DUP1 SLOAD PUSH2 0x18F7 SWAP1 PUSH2 0x3DD3 JUMP JUMPDEST DUP1 ISZERO PUSH2 0x1942 JUMPI DUP1 PUSH1 0x1F LT PUSH2 0x1919 JUMPI PUSH2 0x100 DUP1 DUP4 SLOAD DIV MUL DUP4 MSTORE SWAP2 PUSH1 0x20 ADD SWAP2 PUSH2 0x1942 JUMP JUMPDEST DUP3 ADD SWAP2 SWAP1 PUSH0 MSTORE PUSH1 0x20 PUSH0 KECCAK256 SWAP1 JUMPDEST DUP2 SLOAD DUP2 MSTORE SWAP1 PUSH1 0x1 ADD SWAP1 PUSH1 0x20 ADD DUP1 DUP4 GT PUSH2 0x1925 JUMPI DUP3 SWAP1 SUB PUSH1 0x1F AND DUP3 ADD SWAP2 JUMPDEST POP POP POP POP POP DUP2 MSTORE POP SWAP1 POP DUP1 PUSH1 0x6 PUSH0 DUP5 DUP2 MSTORE PUSH1 0x20 ADD SWAP1 DUP2 MSTORE PUSH1 0x20 ADD PUSH0 KECCAK256 PUSH0 DUP3 ADD MLOAD DUP2 PUSH0 ADD SSTORE PUSH1 0x20 DUP3 ADD MLOAD DUP2 PUSH1 0x1 ADD PUSH0 PUSH2 0x100 EXP DUP2 SLOAD DUP2 PUSH20 0xFFFFFFFFFFFFFFFFFFFFFFFFFFFFFFFFFFFFFFFF MUL NOT AND SWAP1 DUP4 PUSH20 0xFFFFFFFFFFFFFFFFFFFFFFFFFFFFFFFFFFFFFFFF AND MUL OR SWAP1 SSTORE POP PUSH1 0x40 DUP3 ADD MLOAD DUP2 PUSH1 0x2 ADD PUSH0 PUSH2 0x100 EXP DUP2 SLOAD DUP2 PUSH20 0xFFFFFFFFFFFFFFFFFFFFFFFFFFFFFFFFFFFFFFFF MUL NOT AND SWAP1 DUP4 PUSH20 0xFFFFFFFFFFFFFFFFFFFFFFFFFFFFFFFFFFFFFFFF AND MUL OR SWAP1 SSTORE POP PUSH1 0x60 DUP3 ADD MLOAD DUP2 PUSH1 0x3 ADD SSTORE PUSH1 0x80 DUP3 ADD MLOAD DUP2 PUSH1 0x4 ADD SWAP1 DUP2 PUSH2 0x1A11 SWAP2 SWAP1 PUSH2 0x3FA0 JUMP JUMPDEST POP PUSH1 0xA0 DUP3 ADD MLOAD DUP2 PUSH1 0x5 ADD PUSH0 PUSH2 0x100 EXP DUP2 SLOAD DUP2 PUSH1 0xFF MUL NOT AND SWAP1 DUP4 PUSH1 0x5 DUP2 GT ISZERO PUSH2 0x1A3C JUMPI PUSH2 0x1A3B PUSH2 0x37D8 JUMP JUMPDEST JUMPDEST MUL OR SWAP1 SSTORE POP PUSH1 0xC0 DUP3 ADD MLOAD DUP2 PUSH1 0x6 ADD SSTORE PUSH1 0xE0 DUP3 ADD MLOAD DUP2 PUSH1 0x7 ADD SWAP1 DUP2 PUSH2 0x1A60 SWAP2 SWAP1 PUSH2 0x3FA0 JUMP JUMPDEST POP SWAP1 POP POP PUSH1 0x7 PUSH0 CALLER PUSH20 0xFFFFFFFFFFFFFFFFFFFFFFFFFFFFFFFFFFFFFFFF AND PUSH20 0xFFFFFFFFFFFFFFFFFFFFFFFFFFFFFFFFFFFFFFFF AND DUP2 MSTORE PUSH1 0x20 ADD SWAP1 DUP2 MSTORE PUSH1 0x20 ADD PUSH0 KECCAK256 DUP3 SWAP1 DUP1 PUSH1 0x1 DUP2 SLOAD ADD DUP1 DUP3 SSTORE DUP1 SWAP2 POP POP PUSH1 0x1 SWAP1 SUB SWAP1 PUSH0 MSTORE PUSH1 0x20 PUSH0 KECCAK256 ADD PUSH0 SWAP1 SWAP2 SWAP1 SWAP2 SWAP1 SWAP2 POP SSTORE PUSH1 0x8 PUSH0 DUP6 PUSH20 0xFFFFFFFFFFFFFFFFFFFFFFFFFFFFFFFFFFFFFFFF AND PUSH20 0xFFFFFFFFFFFFFFFFFFFFFFFFFFFFFFFFFFFFFFFF AND DUP2 MSTORE PUSH1 0x20 ADD SWAP1 DUP2 MSTORE PUSH1 0x20 ADD PUSH0 KECCAK256 DUP3 SWAP1 DUP1 PUSH1 0x1 DUP2 SLOAD ADD DUP1 DUP3 SSTORE DUP1 SWAP2 POP POP PUSH1 0x1 SWAP1 SUB SWAP1 PUSH0 MSTORE PUSH1 0x20 PUSH0 KECCAK256 ADD PUSH0 SWAP1 SWAP2 SWAP1 SWAP2 SWAP1 SWAP2 POP SSTORE PUSH0 PUSH2 0x2710 PUSH0 PUSH1 0x14 SWAP1 SLOAD SWAP1 PUSH2 0x100 EXP SWAP1 DIV PUSH2 0xFFFF AND PUSH2 0xFFFF AND CALLVALUE PUSH2 0x1B49 SWAP2 SWAP1 PUSH2 0x449D JUMP JUMPDEST PUSH2 0x1B53 SWAP2 SWAP1 PUSH2 0x450B JUMP JUMPDEST SWAP1 POP PUSH0 DUP2 CALLVALUE PUSH2 0x1B62 SWAP2 SWAP1 PUSH2 0x453B JUMP JUMPDEST SWAP1 POP DUP1 PUSH1 0x2 PUSH0 DUP9 PUSH20 0xFFFFFFFFFFFFFFFFFFFFFFFFFFFFFFFFFFFFFFFF AND PUSH20 0xFFFFFFFFFFFFFFFFFFFFFFFFFFFFFFFFFFFFFFFF AND DUP2 MSTORE PUSH1 0x20 ADD SWAP1 DUP2 MSTORE PUSH1 0x20 ADD PUSH0 KECCAK256 PUSH1 0x4 ADD PUSH0 DUP3 DUP3 SLOAD PUSH2 0x1BB3 SWAP2 SWAP1 PUSH2 0x456E JUMP JUMPDEST SWAP3 POP POP DUP2 SWAP1 SSTORE POP DUP4 PUSH32 0xAF03488DA094BC08F76858B3B2A0C36A13217C95790C77139137FC6E062BA9CD CALLER DUP9 CALLVALUE PUSH1 0x40 MLOAD PUSH2 0x1BEE SWAP4 SWAP3 SWAP2 SWAP1 PUSH2 0x45A1 JUMP JUMPDEST PUSH1 0x40 MLOAD DUP1 SWAP2 SUB SWAP1 LOG2 POP POP POP POP POP POP JUMP JUMPDEST PUSH0 DUP1 SLOAD SWAP1 PUSH2 0x100 EXP SWAP1 DIV PUSH20 0xFFFFFFFFFFFFFFFFFFFFFFFFFFFFFFFFFFFFFFFF AND PUSH20 0xFFFFFFFFFFFFFFFFFFFFFFFFFFFFFFFFFFFFFFFF AND CALLER PUSH20 0xFFFFFFFFFFFFFFFFFFFFFFFFFFFFFFFFFFFFFFFF AND EQ PUSH2 0x1C8B JUMPI PUSH1 0x40 MLOAD PUSH32 0x8C379A000000000000000000000000000000000000000000000000000000000 DUP2 MSTORE PUSH1 0x4 ADD PUSH2 0x1C82 SWAP1 PUSH2 0x4315 JUMP JUMPDEST PUSH1 0x40 MLOAD DUP1 SWAP2 SUB SWAP1 REVERT JUMPDEST DUP1 PUSH1 0x1 DUP2 SWAP1 SSTORE POP POP JUMP JUMPDEST PUSH1 0x60 DUP1 PUSH0 DUP1 PUSH1 0x60 DUP1 PUSH0 PUSH1 0x2 PUSH0 DUP10 PUSH20 0xFFFFFFFFFFFFFFFFFFFFFFFFFFFFFFFFFFFFFFFF AND PUSH20 0xFFFFFFFFFFFFFFFFFFFFFFFFFFFFFFFFFFFFFFFF AND DUP2 MSTORE PUSH1 0x20 ADD SWAP1 DUP2 MSTORE PUSH1 0x20 ADD PUSH0 KECCAK256 SWAP1 POP DUP1 PUSH1 0x1 ADD DUP2 PUSH1 0x2 ADD DUP3 PUSH1 0x3 ADD PUSH0 SWAP1 SLOAD SWAP1 PUSH2 0x100 EXP SWAP1 DIV PUSH1 0xFF AND DUP4 PUSH1 0x4 ADD SLOAD DUP5 PUSH1 0x5 ADD DUP6 PUSH1 0x6 ADD DUP6 DUP1 SLOAD PUSH2 0x1D0F SWAP1 PUSH2 0x3DD3 JUMP JUMPDEST DUP1 PUSH1 0x1F ADD PUSH1 0x20 DUP1 SWAP2 DIV MUL PUSH1 0x20 ADD PUSH1 0x40 MLOAD SWAP1 DUP2 ADD PUSH1 0x40 MSTORE DUP1 SWAP3 SWAP2 SWAP1 DUP2 DUP2 MSTORE PUSH1 0x20 ADD DUP3 DUP1 SLOAD PUSH2 0x1D3B SWAP1 PUSH2 0x3DD3 JUMP JUMPDEST DUP1 ISZERO PUSH2 0x1D86 JUMPI DUP1 PUSH1 0x1F LT PUSH2 0x1D5D JUMPI PUSH2 0x100 DUP1 DUP4 SLOAD DIV MUL DUP4 MSTORE SWAP2 PUSH1 0x20 ADD SWAP2 PUSH2 0x1D86 JUMP JUMPDEST DUP3 ADD SWAP2 SWAP1 PUSH0 MSTORE PUSH1 0x20 PUSH0 KECCAK256 SWAP1 JUMPDEST DUP2 SLOAD DUP2 MSTORE SWAP1 PUSH1 0x1 ADD SWAP1 PUSH1 0x20 ADD DUP1 DUP4 GT PUSH2 0x1D69 JUMPI DUP3 SWAP1 SUB PUSH1 0x1F AND DUP3 ADD SWAP2 JUMPDEST POP POP POP POP POP SWAP6 POP DUP5 DUP1 SLOAD PUSH2 0x1D99 SWAP1 PUSH2 0x3DD3 JUMP JUMPDEST DUP1 PUSH1 0x1F ADD PUSH1 0x20 DUP1 SWAP2 DIV MUL PUSH1 0x20 ADD PUSH1 0x40 MLOAD SWAP1 DUP2 ADD PUSH1 0x40 MSTORE DUP1 SWAP3 SWAP2 SWAP1 DUP2 DUP2 MSTORE PUSH1 0x20 ADD DUP3 DUP1 SLOAD PUSH2 0x1DC5 SWAP1 PUSH2 0x3DD3 JUMP JUMPDEST DUP1 ISZERO PUSH2 0x1E10 JUMPI DUP1 PUSH1 0x1F LT PUSH2 0x1DE7 JUMPI PUSH2 0x100 DUP1 DUP4 SLOAD DIV MUL DUP4 MSTORE SWAP2 PUSH1 0x20 ADD SWAP2 PUSH2 0x1E10 JUMP JUMPDEST DUP3 ADD SWAP2 SWAP1 PUSH0 MSTORE PUSH1 0x20 PUSH0 KECCAK256 SWAP1 JUMPDEST DUP2 SLOAD DUP2 MSTORE SWAP1 PUSH1 0x1 ADD SWAP1 PUSH1 0x20 ADD DUP1 DUP4 GT PUSH2 0x1DF3 JUMPI DUP3 SWAP1 SUB PUSH1 0x1F AND DUP3 ADD SWAP2 JUMPDEST POP POP POP POP POP SWAP5 POP DUP2 DUP1 SLOAD PUSH2 0x1E23 SWAP1 PUSH2 0x3DD3 JUMP JUMPDEST DUP1 PUSH1 0x1F ADD PUSH1 0x20 DUP1 SWAP2 DIV MUL PUSH1 0x20 ADD PUSH1 0x40 MLOAD SWAP1 DUP2 ADD PUSH1 0x40 MSTORE DUP1 SWAP3 SWAP2 SWAP1 DUP2 DUP2 MSTORE PUSH1 0x20 ADD DUP3 DUP1 SLOAD PUSH2 0x1E4F SWAP1 PUSH2 0x3DD3 JUMP JUMPDEST DUP1 ISZERO PUSH2 0x1E9A JUMPI DUP1 PUSH1 0x1F LT PUSH2 0x1E71 JUMPI PUSH2 0x100 DUP1 DUP4 SLOAD DIV MUL DUP4 MSTORE SWAP2 PUSH1 0x20 ADD SWAP2 PUSH2 0x1E9A JUMP JUMPDEST DUP3 ADD SWAP2 SWAP1 PUSH0 MSTORE PUSH1 0x20 PUSH0 KECCAK256 SWAP1 JUMPDEST DUP2 SLOAD DUP2 MSTORE SWAP1 PUSH1 0x1 ADD SWAP1 PUSH1 0x20 ADD DUP1 DUP4 GT PUSH2 0x1E7D JUMPI DUP3 SWAP1 SUB PUSH1 0x1F AND DUP3 ADD SWAP2 JUMPDEST POP POP POP POP POP SWAP2 POP DUP1 DUP1 SLOAD PUSH2 0x1EAD SWAP1 PUSH2 0x3DD3 JUMP JUMPDEST DUP1 PUSH1 0x1F ADD PUSH1 0x20 DUP1 SWAP2 DIV MUL PUSH1 0x20 ADD PUSH1 0x40 MLOAD SWAP1 DUP2 ADD PUSH1 0x40 MSTORE DUP1 SWAP3 SWAP2 SWAP1 DUP2 DUP2 MSTORE PUSH1 0x20 ADD DUP3 DUP1 SLOAD PUSH2 0x1ED9 SWAP1 PUSH2 0x3DD3 JUMP JUMPDEST DUP1 ISZERO PUSH2 0x1F24 JUMPI DUP1 PUSH1 0x1F LT PUSH2 0x1EFB JUMPI PUSH2 0x100 DUP1 DUP4 SLOAD DIV MUL DUP4 MSTORE SWAP2 PUSH1 0x20 ADD SWAP2 PUSH2 0x1F24 JUMP JUMPDEST DUP3 ADD SWAP2 SWAP1 PUSH0 MSTORE PUSH1 0x20 PUSH0 KECCAK256 SWAP1 JUMPDEST DUP2 SLOAD DUP2 MSTORE SWAP1 PUSH1 0x1 ADD SWAP1 PUSH1 0x20 ADD DUP1 DUP4 GT PUSH2 0x1F07 JUMPI DUP3 SWAP1 SUB PUSH1 0x1F AND DUP3 ADD SWAP2 JUMPDEST POP POP POP POP POP SWAP1 POP SWAP7 POP SWAP7 POP SWAP7 POP SWAP7 POP SWAP7 POP SWAP7 POP POP SWAP2 SWAP4 SWAP6 POP SWAP2 SWAP4 SWAP6 JUMP JUMPDEST PUSH0 PUSH1 0x4 PUSH0 DUP4 PUSH20 0xFFFFFFFFFFFFFFFFFFFFFFFFFFFFFFFFFFFFFFFF AND PUSH20 0xFFFFFFFFFFFFFFFFFFFFFFFFFFFFFFFFFFFFFFFF AND DUP2 MSTORE PUSH1 0x20 ADD SWAP1 DUP2 MSTORE PUSH1 0x20 ADD PUSH0 KECCAK256 PUSH1 0x3 ADD PUSH0 SWAP1 SLOAD SWAP1 PUSH2 0x100 EXP SWAP1 DIV PUSH1 0xFF AND SWAP1 POP SWAP2 SWAP1 POP JUMP JUMPDEST PUSH1 0x2 PUSH0 CALLER PUSH20 0xFFFFFFFFFFFFFFFFFFFFFFFFFFFFFFFFFFFFFFFF AND PUSH20 0xFFFFFFFFFFFFFFFFFFFFFFFFFFFFFFFFFFFFFFFF AND DUP2 MSTORE PUSH1 0x20 ADD SWAP1 DUP2 MSTORE PUSH1 0x20 ADD PUSH0 KECCAK256 PUSH1 0x3 ADD PUSH0 SWAP1 SLOAD SWAP1 PUSH2 0x100 EXP SWAP1 DIV PUSH1 0xFF AND ISZERO PUSH2 0x2023 JUMPI PUSH1 0x40 MLOAD PUSH32 0x8C379A000000000000000000000000000000000000000000000000000000000 DUP2 MSTORE PUSH1 0x4 ADD PUSH2 0x201A SWAP1 PUSH2 0x4620 JUMP JUMPDEST PUSH1 0x40 MLOAD DUP1 SWAP2 SUB SWAP1 REVERT JUMPDEST PUSH0 PUSH20 0xFFFFFFFFFFFFFFFFFFFFFFFFFFFFFFFFFFFFFFFF AND PUSH1 0x3 DUP5 PUSH1 0x40 MLOAD PUSH2 0x204A SWAP2 SWAP1 PUSH2 0x4207 JUMP JUMPDEST SWAP1 DUP2 MSTORE PUSH1 0x20 ADD PUSH1 0x40 MLOAD DUP1 SWAP2 SUB SWAP1 KECCAK256 PUSH0 SWAP1 SLOAD SWAP1 PUSH2 0x100 EXP SWAP1 DIV PUSH20 0xFFFFFFFFFFFFFFFFFFFFFFFFFFFFFFFFFFFFFFFF AND PUSH20 0xFFFFFFFFFFFFFFFFFFFFFFFFFFFFFFFFFFFFFFFF AND EQ PUSH2 0x20CE JUMPI PUSH1 0x40 MLOAD PUSH32 0x8C379A000000000000000000000000000000000000000000000000000000000 DUP2 MSTORE PUSH1 0x4 ADD PUSH2 0x20C5 SWAP1 PUSH2 0x4267 JUMP JUMPDEST PUSH1 0x40 MLOAD DUP1 SWAP2 SUB SWAP1 REVERT JUMPDEST PUSH1 0x40 MLOAD DUP1 PUSH1 0xE0 ADD PUSH1 0x40 MSTORE DUP1 CALLER PUSH20 0xFFFFFFFFFFFFFFFFFFFFFFFFFFFFFFFFFFFFFFFF AND DUP2 MSTORE PUSH1 0x20 ADD DUP5 DUP2 MSTORE PUSH1 0x20 ADD DUP4 DUP2 MSTORE PUSH1 0x20 ADD PUSH1 0x1 ISZERO ISZERO DUP2 MSTORE PUSH1 0x20 ADD PUSH0 DUP2 MSTORE PUSH1 0x20 ADD DUP3 DUP2 MSTORE PUSH1 0x20 ADD PUSH1 0x40 MLOAD DUP1 PUSH1 0x20 ADD PUSH1 0x40 MSTORE DUP1 PUSH0 DUP2 MSTORE POP DUP2 MSTORE POP PUSH1 0x2 PUSH0 CALLER PUSH20 0xFFFFFFFFFFFFFFFFFFFFFFFFFFFFFFFFFFFFFFFF AND PUSH20 0xFFFFFFFFFFFFFFFFFFFFFFFFFFFFFFFFFFFFFFFF AND DUP2 MSTORE PUSH1 0x20 ADD SWAP1 DUP2 MSTORE PUSH1 0x20 ADD PUSH0 KECCAK256 PUSH0 DUP3 ADD MLOAD DUP2 PUSH0 ADD PUSH0 PUSH2 0x100 EXP DUP2 SLOAD DUP2 PUSH20 0xFFFFFFFFFFFFFFFFFFFFFFFFFFFFFFFFFFFFFFFF MUL NOT AND SWAP1 DUP4 PUSH20 0xFFFFFFFFFFFFFFFFFFFFFFFFFFFFFFFFFFFFFFFF AND MUL OR SWAP1 SSTORE POP PUSH1 0x20 DUP3 ADD MLOAD DUP2 PUSH1 0x1 ADD SWAP1 DUP2 PUSH2 0x21BE SWAP2 SWAP1 PUSH2 0x3FA0 JUMP JUMPDEST POP PUSH1 0x40 DUP3 ADD MLOAD DUP2 PUSH1 0x2 ADD SWAP1 DUP2 PUSH2 0x21D4 SWAP2 SWAP1 PUSH2 0x3FA0 JUMP JUMPDEST POP PUSH1 0x60 DUP3 ADD MLOAD DUP2 PUSH1 0x3 ADD PUSH0 PUSH2 0x100 EXP DUP2 SLOAD DUP2 PUSH1 0xFF MUL NOT AND SWAP1 DUP4 ISZERO ISZERO MUL OR SWAP1 SSTORE POP PUSH1 0x80 DUP3 ADD MLOAD DUP2 PUSH1 0x4 ADD SSTORE PUSH1 0xA0 DUP3 ADD MLOAD DUP2 PUSH1 0x5 ADD SWAP1 DUP2 PUSH2 0x2213 SWAP2 SWAP1 PUSH2 0x3FA0 JUMP JUMPDEST POP PUSH1 0xC0 DUP3 ADD MLOAD DUP2 PUSH1 0x6 ADD SWAP1 DUP2 PUSH2 0x2229 SWAP2 SWAP1 PUSH2 0x3FA0 JUMP JUMPDEST POP SWAP1 POP POP CALLER PUSH1 0x3 DUP5 PUSH1 0x40 MLOAD PUSH2 0x223E SWAP2 SWAP1 PUSH2 0x4207 JUMP JUMPDEST SWAP1 DUP2 MSTORE PUSH1 0x20 ADD PUSH1 0x40 MLOAD DUP1 SWAP2 SUB SWAP1 KECCAK256 PUSH0 PUSH2 0x100 EXP DUP2 SLOAD DUP2 PUSH20 0xFFFFFFFFFFFFFFFFFFFFFFFFFFFFFFFFFFFFFFFF MUL NOT AND SWAP1 DUP4 PUSH20 0xFFFFFFFFFFFFFFFFFFFFFFFFFFFFFFFFFFFFFFFF AND MUL OR SWAP1 SSTORE POP CALLER PUSH20 0xFFFFFFFFFFFFFFFFFFFFFFFFFFFFFFFFFFFFFFFF AND PUSH32 0x6A8800D7464C3933E9F1241684CBAE034394A3A73E84FA164A882037FFBE2AEA DUP5 DUP5 PUSH1 0x40 MLOAD PUSH2 0x22D1 SWAP3 SWAP2 SWAP1 PUSH2 0x463E JUMP JUMPDEST PUSH1 0x40 MLOAD DUP1 SWAP2 SUB SWAP1 LOG2 POP POP POP JUMP JUMPDEST PUSH1 0x60 DUP1 PUSH0 DUP1 PUSH1 0x60 PUSH0 PUSH1 0x4 PUSH0 DUP9 PUSH20 0xFFFFFFFFFFFFFFFFFFFFFFFFFFFFFFFFFFFFFFFF AND PUSH20 0xFFFFFFFFFFFFFFFFFFFFFFFFFFFFFFFFFFFFFFFF AND DUP2 MSTORE PUSH1 0x20 ADD SWAP1 DUP2 MSTORE PUSH1 0x20 ADD PUSH0 KECCAK256 SWAP1 POP DUP1 PUSH1 0x1 ADD DUP2 PUSH1 0x2 ADD DUP3 PUSH1 0x3 ADD PUSH0 SWAP1 SLOAD SWAP1 PUSH2 0x100 EXP SWAP1 DIV PUSH1 0xFF AND DUP4 PUSH1 0x3 ADD PUSH1 0x1 SWAP1 SLOAD SWAP1 PUSH2 0x100 EXP SWAP1 DIV PUSH1 0xFF AND DUP5 PUSH1 0x4 ADD DUP5 DUP1 SLOAD PUSH2 0x2360 SWAP1 PUSH2 0x3DD3 JUMP JUMPDEST DUP1 PUSH1 0x1F ADD PUSH1 0x20 DUP1 SWAP2 DIV MUL PUSH1 0x20 ADD PUSH1 0x40 MLOAD SWAP1 DUP2 ADD PUSH1 0x40 MSTORE DUP1 SWAP3 SWAP2 SWAP1 DUP2 DUP2 MSTORE PUSH1 0x20 ADD DUP3 DUP1 SLOAD PUSH2 0x238C SWAP1 PUSH2 0x3DD3 JUMP JUMPDEST DUP1 ISZERO PUSH2 0x23D7 JUMPI DUP1 PUSH1 0x1F LT PUSH2 0x23AE JUMPI PUSH2 0x100 DUP1 DUP4 SLOAD DIV MUL DUP4 MSTORE SWAP2 PUSH1 0x20 ADD SWAP2 PUSH2 0x23D7 JUMP JUMPDEST DUP3 ADD SWAP2 SWAP1 PUSH0 MSTORE PUSH1 0x20 PUSH0 KECCAK256 SWAP1 JUMPDEST DUP2 SLOAD DUP2 MSTORE SWAP1 PUSH1 0x1 ADD SWAP1 PUSH1 0x20 ADD DUP1 DUP4 GT PUSH2 0x23BA JUMPI DUP3 SWAP1 SUB PUSH1 0x1F AND DUP3 ADD SWAP2 JUMPDEST POP POP POP POP POP SWAP5 POP DUP4 DUP1 SLOAD PUSH2 0x23EA SWAP1 PUSH2 0x3DD3 JUMP JUMPDEST DUP1 PUSH1 0x1F ADD PUSH1 0x20 DUP1 SWAP2 DIV MUL PUSH1 0x20 ADD PUSH1 0x40 MLOAD SWAP1 DUP2 ADD PUSH1 0x40 MSTORE DUP1 SWAP3 SWAP2 SWAP1 DUP2 DUP2 MSTORE PUSH1 0x20 ADD DUP3 DUP1 SLOAD PUSH2 0x2416 SWAP1 PUSH2 0x3DD3 JUMP JUMPDEST DUP1 ISZERO PUSH2 0x2461 JUMPI DUP1 PUSH1 0x1F LT PUSH2 0x2438 JUMPI PUSH2 0x100 DUP1 DUP4 SLOAD DIV MUL DUP4 MSTORE SWAP2 PUSH1 0x20 ADD SWAP2 PUSH2 0x2461 JUMP JUMPDEST DUP3 ADD SWAP2 SWAP1 PUSH0 MSTORE PUSH1 0x20 PUSH0 KECCAK256 SWAP1 JUMPDEST DUP2 SLOAD DUP2 MSTORE SWAP1 PUSH1 0x1 ADD SWAP1 PUSH1 0x20 ADD DUP1 DUP4 GT PUSH2 0x2444 JUMPI DUP3 SWAP1 SUB PUSH1 0x1F AND DUP3 ADD SWAP2 JUMPDEST POP POP POP POP POP SWAP4 POP DUP1 DUP1 SLOAD PUSH2 0x2474 SWAP1 PUSH2 0x3DD3 JUMP JUMPDEST DUP1 PUSH1 0x1F ADD PUSH1 0x20 DUP1 SWAP2 DIV MUL PUSH1 0x20 ADD PUSH1 0x40 MLOAD SWAP1 DUP2 ADD PUSH1 0x40 MSTORE DUP1 SWAP3 SWAP2 SWAP1 DUP2 DUP2 MSTORE PUSH1 0x20 ADD DUP3 DUP1 SLOAD PUSH2 0x24A0 SWAP1 PUSH2 0x3DD3 JUMP JUMPDEST DUP1 ISZERO PUSH2 0x24EB JUMPI DUP1 PUSH1 0x1F LT PUSH2 0x24C2 JUMPI PUSH2 0x100 DUP1 DUP4 SLOAD DIV MUL DUP4 MSTORE SWAP2 PUSH1 0x20 ADD SWAP2 PUSH2 0x24EB JUMP JUMPDEST DUP3 ADD SWAP2 SWAP1 PUSH0 MSTORE PUSH1 0x20 PUSH0 KECCAK256 SWAP1 JUMPDEST DUP2 SLOAD DUP2 MSTORE SWAP1 PUSH1 0x1 ADD SWAP1 PUSH1 0x20 ADD DUP1 DUP4 GT PUSH2 0x24CE JUMPI DUP3 SWAP1 SUB PUSH1 0x1F AND DUP3 ADD SWAP2 JUMPDEST POP POP POP POP POP SWAP1 POP SWAP6 POP SWAP6 POP SWAP6 POP SWAP6 POP SWAP6 POP POP SWAP2 SWAP4 SWAP6 SWAP1 SWAP3 SWAP5 POP JUMP JUMPDEST PUSH0 DUP1 SLOAD SWAP1 PUSH2 0x100 EXP SWAP1 DIV PUSH20 0xFFFFFFFFFFFFFFFFFFFFFFFFFFFFFFFFFFFFFFFF AND DUP2 JUMP JUMPDEST PUSH1 0x6 PUSH1 0x20 MSTORE DUP1 PUSH0 MSTORE PUSH1 0x40 PUSH0 KECCAK256 PUSH0 SWAP2 POP SWAP1 POP DUP1 PUSH0 ADD SLOAD SWAP1 DUP1 PUSH1 0x1 ADD PUSH0 SWAP1 SLOAD SWAP1 PUSH2 0x100 EXP SWAP1 DIV PUSH20 0xFFFFFFFFFFFFFFFFFFFFFFFFFFFFFFFFFFFFFFFF AND SWAP1 DUP1 PUSH1 0x2 ADD PUSH0 SWAP1 SLOAD SWAP1 PUSH2 0x100 EXP SWAP1 DIV PUSH20 0xFFFFFFFFFFFFFFFFFFFFFFFFFFFFFFFFFFFFFFFF AND SWAP1 DUP1 PUSH1 0x3 ADD SLOAD SWAP1 DUP1 PUSH1 0x4 ADD DUP1 SLOAD PUSH2 0x259E SWAP1 PUSH2 0x3DD3 JUMP JUMPDEST DUP1 PUSH1 0x1F ADD PUSH1 0x20 DUP1 SWAP2 DIV MUL PUSH1 0x20 ADD PUSH1 0x40 MLOAD SWAP1 DUP2 ADD PUSH1 0x40 MSTORE DUP1 SWAP3 SWAP2 SWAP1 DUP2 DUP2 MSTORE PUSH1 0x20 ADD DUP3 DUP1 SLOAD PUSH2 0x25CA SWAP1 PUSH2 0x3DD3 JUMP JUMPDEST DUP1 ISZERO PUSH2 0x2615 JUMPI DUP1 PUSH1 0x1F LT PUSH2 0x25EC JUMPI PUSH2 0x100 DUP1 DUP4 SLOAD DIV MUL DUP4 MSTORE SWAP2 PUSH1 0x20 ADD SWAP2 PUSH2 0x2615 JUMP JUMPDEST DUP3 ADD SWAP2 SWAP1 PUSH0 MSTORE PUSH1 0x20 PUSH0 KECCAK256 SWAP1 JUMPDEST DUP2 SLOAD DUP2 MSTORE SWAP1 PUSH1 0x1 ADD SWAP1 PUSH1 0x20 ADD DUP1 DUP4 GT PUSH2 0x25F8 JUMPI DUP3 SWAP1 SUB PUSH1 0x1F AND DUP3 ADD SWAP2 JUMPDEST POP POP POP POP POP SWAP1 DUP1 PUSH1 0x5 ADD PUSH0 SWAP1 SLOAD SWAP1 PUSH2 0x100 EXP SWAP1 DIV PUSH1 0xFF AND SWAP1 DUP1 PUSH1 0x6 ADD SLOAD SWAP1 DUP1 PUSH1 0x7 ADD DUP1 SLOAD PUSH2 0x2642 SWAP1 PUSH2 0x3DD3 JUMP JUMPDEST DUP1 PUSH1 0x1F ADD PUSH1 0x20 DUP1 SWAP2 DIV MUL PUSH1 0x20 ADD PUSH1 0x40 MLOAD SWAP1 DUP2 ADD PUSH1 0x40 MSTORE DUP1 SWAP3 SWAP2 SWAP1 DUP2 DUP2 MSTORE PUSH1 0x20 ADD DUP3 DUP1 SLOAD PUSH2 0x266E SWAP1 PUSH2 0x3DD3 JUMP JUMPDEST DUP1 ISZERO PUSH2 0x26B9 JUMPI DUP1 PUSH1 0x1F LT PUSH2 0x2690 JUMPI PUSH2 0x100 DUP1 DUP4 SLOAD DIV MUL DUP4 MSTORE SWAP2 PUSH1 0x20 ADD SWAP2 PUSH2 0x26B9 JUMP JUMPDEST DUP3 ADD SWAP2 SWAP1 PUSH0 MSTORE PUSH1 0x20 PUSH0 KECCAK256 SWAP1 JUMPDEST DUP2 SLOAD DUP2 MSTORE SWAP1 PUSH1 0x1 ADD SWAP1 PUSH1 0x20 ADD DUP1 DUP4 GT PUSH2 0x269C JUMPI DUP3 SWAP1 SUB PUSH1 0x1F AND DUP3 ADD SWAP2 JUMPDEST POP POP POP POP POP SWAP1 POP DUP9 JUMP JUMPDEST DUP2 DUP1 PUSH1 0x6 PUSH0 DUP4 DUP2 MSTORE PUSH1 0x20 ADD SWAP1 DUP2 MSTORE PUSH1 0x20 ADD PUSH0 KECCAK256 PUSH0 ADD SLOAD EQ PUSH2 0x2719 JUMPI PUSH1 0x40 MLOAD PUSH32 0x8C379A000000000000000000000000000000000000000000000000000000000 DUP2 MSTORE PUSH1 0x4 ADD PUSH2 0x2710 SWAP1 PUSH2 0x46BD JUMP JUMPDEST PUSH1 0x40 MLOAD DUP1 SWAP2 SUB SWAP1 REVERT JUMPDEST PUSH0 PUSH1 0x6 PUSH0 DUP6 DUP2 MSTORE PUSH1 0x20 ADD SWAP1 DUP2 MSTORE PUSH1 0x20 ADD PUSH0 KECCAK256 SWAP1 POP DUP1 PUSH1 0x2 ADD PUSH0 SWAP1 SLOAD SWAP1 PUSH2 0x100 EXP SWAP1 DIV PUSH20 0xFFFFFFFFFFFFFFFFFFFFFFFFFFFFFFFFFFFFFFFF AND PUSH20 0xFFFFFFFFFFFFFFFFFFFFFFFFFFFFFFFFFFFFFFFF AND CALLER PUSH20 0xFFFFFFFFFFFFFFFFFFFFFFFFFFFFFFFFFFFFFFFF AND EQ DUP1 PUSH2 0x27D4 JUMPI POP PUSH0 DUP1 SLOAD SWAP1 PUSH2 0x100 EXP SWAP1 DIV PUSH20 0xFFFFFFFFFFFFFFFFFFFFFFFFFFFFFFFFFFFFFFFF AND PUSH20 0xFFFFFFFFFFFFFFFFFFFFFFFFFFFFFFFFFFFFFFFF AND CALLER PUSH20 0xFFFFFFFFFFFFFFFFFFFFFFFFFFFFFFFFFFFFFFFF AND EQ JUMPDEST PUSH2 0x2813 JUMPI PUSH1 0x40 MLOAD PUSH32 0x8C379A000000000000000000000000000000000000000000000000000000000 DUP2 MSTORE PUSH1 0x4 ADD PUSH2 0x280A SWAP1 PUSH2 0x474B JUMP JUMPDEST PUSH1 0x40 MLOAD DUP1 SWAP2 SUB SWAP1 REVERT JUMPDEST PUSH1 0x4 PUSH1 0x5 DUP2 GT ISZERO PUSH2 0x2827 JUMPI PUSH2 0x2826 PUSH2 0x37D8 JUMP JUMPDEST JUMPDEST DUP2 PUSH1 0x5 ADD PUSH0 SWAP1 SLOAD SWAP1 PUSH2 0x100 EXP SWAP1 DIV PUSH1 0xFF AND PUSH1 0x5 DUP2 GT ISZERO PUSH2 0x284A JUMPI PUSH2 0x2849 PUSH2 0x37D8 JUMP JUMPDEST JUMPDEST EQ ISZERO DUP1 ISZERO PUSH2 0x288C JUMPI POP PUSH1 0x5 DUP1 DUP2 GT ISZERO PUSH2 0x2866 JUMPI PUSH2 0x2865 PUSH2 0x37D8 JUMP JUMPDEST JUMPDEST DUP2 PUSH1 0x5 ADD PUSH0 SWAP1 SLOAD SWAP1 PUSH2 0x100 EXP SWAP1 DIV PUSH1 0xFF AND PUSH1 0x5 DUP2 GT ISZERO PUSH2 0x2889 JUMPI PUSH2 0x2888 PUSH2 0x37D8 JUMP JUMPDEST JUMPDEST EQ ISZERO JUMPDEST PUSH2 0x28CB JUMPI PUSH1 0x40 MLOAD PUSH32 0x8C379A000000000000000000000000000000000000000000000000000000000 DUP2 MSTORE PUSH1 0x4 ADD PUSH2 0x28C2 SWAP1 PUSH2 0x47D9 JUMP JUMPDEST PUSH1 0x40 MLOAD DUP1 SWAP2 SUB SWAP1 REVERT JUMPDEST DUP3 DUP2 PUSH1 0x5 ADD PUSH0 PUSH2 0x100 EXP DUP2 SLOAD DUP2 PUSH1 0xFF MUL NOT AND SWAP1 DUP4 PUSH1 0x5 DUP2 GT ISZERO PUSH2 0x28F1 JUMPI PUSH2 0x28F0 PUSH2 0x37D8 JUMP JUMPDEST JUMPDEST MUL OR SWAP1 SSTORE POP DUP4 PUSH32 0x15FE7663E318FDA785235FA9E39AA6923FFD39FE53631991197FB842F34F6BA9 DUP5 PUSH1 0x40 MLOAD PUSH2 0x2926 SWAP2 SWAP1 PUSH2 0x47F7 JUMP JUMPDEST PUSH1 0x40 MLOAD DUP1 SWAP2 SUB SWAP1 LOG2 PUSH1 0x4 PUSH1 0x5 DUP2 GT ISZERO PUSH2 0x2942 JUMPI PUSH2 0x2941 PUSH2 0x37D8 JUMP JUMPDEST JUMPDEST DUP2 PUSH1 0x5 ADD PUSH0 SWAP1 SLOAD SWAP1 PUSH2 0x100 EXP SWAP1 DIV PUSH1 0xFF AND PUSH1 0x5 DUP2 GT ISZERO PUSH2 0x2965 JUMPI PUSH2 0x2964 PUSH2 0x37D8 JUMP JUMPDEST JUMPDEST EQ DUP1 PUSH2 0x29A4 JUMPI POP PUSH1 0x5 DUP1 DUP2 GT ISZERO PUSH2 0x297F JUMPI PUSH2 0x297E PUSH2 0x37D8 JUMP JUMPDEST JUMPDEST DUP2 PUSH1 0x5 ADD PUSH0 SWAP1 SLOAD SWAP1 PUSH2 0x100 EXP SWAP1 DIV PUSH1 0xFF AND PUSH1 0x5 DUP2 GT ISZERO PUSH2 0x29A2 JUMPI PUSH2 0x29A1 PUSH2 0x37D8 JUMP JUMPDEST JUMPDEST EQ JUMPDEST DUP1 ISZERO PUSH2 0x29FA JUMPI POP PUSH0 DUP1 SLOAD SWAP1 PUSH2 0x100 EXP SWAP1 DIV PUSH20 0xFFFFFFFFFFFFFFFFFFFFFFFFFFFFFFFFFFFFFFFF AND PUSH20 0xFFFFFFFFFFFFFFFFFFFFFFFFFFFFFFFFFFFFFFFF AND CALLER PUSH20 0xFFFFFFFFFFFFFFFFFFFFFFFFFFFFFFFFFFFFFFFF AND EQ JUMPDEST ISZERO PUSH2 0x2A09 JUMPI PUSH2 0x2A08 DUP5 PUSH2 0x3037 JUMP JUMPDEST JUMPDEST POP POP POP POP JUMP JUMPDEST PUSH0 DUP1 SLOAD SWAP1 PUSH2 0x100 EXP SWAP1 DIV PUSH20 0xFFFFFFFFFFFFFFFFFFFFFFFFFFFFFFFFFFFFFFFF AND PUSH20 0xFFFFFFFFFFFFFFFFFFFFFFFFFFFFFFFFFFFFFFFF AND CALLER PUSH20 0xFFFFFFFFFFFFFFFFFFFFFFFFFFFFFFFFFFFFFFFF AND EQ PUSH2 0x2A9C JUMPI PUSH1 0x40 MLOAD PUSH32 0x8C379A000000000000000000000000000000000000000000000000000000000 DUP2 MSTORE PUSH1 0x4 ADD PUSH2 0x2A93 SWAP1 PUSH2 0x4315 JUMP JUMPDEST PUSH1 0x40 MLOAD DUP1 SWAP2 SUB SWAP1 REVERT JUMPDEST PUSH0 SELFBALANCE SWAP1 POP PUSH0 DUP2 GT PUSH2 0x2AE2 JUMPI PUSH1 0x40 MLOAD PUSH32 0x8C379A000000000000000000000000000000000000000000000000000000000 DUP2 MSTORE PUSH1 0x4 ADD PUSH2 0x2AD9 SWAP1 PUSH2 0x485A JUMP JUMPDEST PUSH1 0x40 MLOAD DUP1 SWAP2 SUB SWAP1 REVERT JUMPDEST PUSH0 DUP1 SLOAD SWAP1 PUSH2 0x100 EXP SWAP1 DIV PUSH20 0xFFFFFFFFFFFFFFFFFFFFFFFFFFFFFFFFFFFFFFFF AND PUSH20 0xFFFFFFFFFFFFFFFFFFFFFFFFFFFFFFFFFFFFFFFF AND PUSH2 0x8FC DUP3 SWAP1 DUP2 ISZERO MUL SWAP1 PUSH1 0x40 MLOAD PUSH0 PUSH1 0x40 MLOAD DUP1 DUP4 SUB DUP2 DUP6 DUP9 DUP9 CALL SWAP4 POP POP POP POP ISZERO DUP1 ISZERO PUSH2 0x2B44 JUMPI RETURNDATASIZE PUSH0 DUP1 RETURNDATACOPY RETURNDATASIZE PUSH0 REVERT JUMPDEST POP POP JUMP JUMPDEST PUSH0 DUP1 SLOAD SWAP1 PUSH2 0x100 EXP SWAP1 DIV PUSH20 0xFFFFFFFFFFFFFFFFFFFFFFFFFFFFFFFFFFFFFFFF AND PUSH20 0xFFFFFFFFFFFFFFFFFFFFFFFFFFFFFFFFFFFFFFFF AND CALLER PUSH20 0xFFFFFFFFFFFFFFFFFFFFFFFFFFFFFFFFFFFFFFFF AND EQ PUSH2 0x2BD5 JUMPI PUSH1 0x40 MLOAD PUSH32 0x8C379A000000000000000000000000000000000000000000000000000000000 DUP2 MSTORE PUSH1 0x4 ADD PUSH2 0x2BCC SWAP1 PUSH2 0x4315 JUMP JUMPDEST PUSH1 0x40 MLOAD DUP1 SWAP2 SUB SWAP1 REVERT JUMPDEST PUSH2 0x3E8 DUP2 PUSH2 0xFFFF AND GT ISZERO PUSH2 0x2C1E JUMPI PUSH1 0x40 MLOAD PUSH32 0x8C379A000000000000000000000000000000000000000000000000000000000 DUP2 MSTORE PUSH1 0x4 ADD PUSH2 0x2C15 SWAP1 PUSH2 0x48C2 JUMP JUMPDEST PUSH1 0x40 MLOAD DUP1 SWAP2 SUB SWAP1 REVERT JUMPDEST DUP1 PUSH0 PUSH1 0x14 PUSH2 0x100 EXP DUP2 SLOAD DUP2 PUSH2 0xFFFF MUL NOT AND SWAP1 DUP4 PUSH2 0xFFFF AND MUL OR SWAP1 SSTORE POP POP JUMP JUMPDEST PUSH1 0x2 PUSH0 CALLER PUSH20 0xFFFFFFFFFFFFFFFFFFFFFFFFFFFFFFFFFFFFFFFF AND PUSH20 0xFFFFFFFFFFFFFFFFFFFFFFFFFFFFFFFFFFFFFFFF AND DUP2 MSTORE PUSH1 0x20 ADD SWAP1 DUP2 MSTORE PUSH1 0x20 ADD PUSH0 KECCAK256 PUSH1 0x3 ADD PUSH0 SWAP1 SLOAD SWAP1 PUSH2 0x100 EXP SWAP1 DIV PUSH1 0xFF AND PUSH2 0x2CC9 JUMPI PUSH1 0x40 MLOAD PUSH32 0x8C379A000000000000000000000000000000000000000000000000000000000 DUP2 MSTORE PUSH1 0x4 ADD PUSH2 0x2CC0 SWAP1 PUSH2 0x40DF JUMP JUMPDEST PUSH1 0x40 MLOAD DUP1 SWAP2 SUB SWAP1 REVERT JUMPDEST DUP3 PUSH1 0x2 PUSH0 CALLER PUSH20 0xFFFFFFFFFFFFFFFFFFFFFFFFFFFFFFFFFFFFFFFF AND PUSH20 0xFFFFFFFFFFFFFFFFFFFFFFFFFFFFFFFFFFFFFFFF AND DUP2 MSTORE PUSH1 0x20 ADD SWAP1 DUP2 MSTORE PUSH1 0x20 ADD PUSH0 KECCAK256 PUSH1 0x2 ADD SWAP1 DUP2 PUSH2 0x2D16 SWAP2 SWAP1 PUSH2 0x3FA0 JUMP JUMPDEST POP DUP2 PUSH1 0x2 PUSH0 CALLER PUSH20 0xFFFFFFFFFFFFFFFFFFFFFFFFFFFFFFFFFFFFFFFF AND PUSH20 0xFFFFFFFFFFFFFFFFFFFFFFFFFFFFFFFFFFFFFFFF AND DUP2 MSTORE PUSH1 0x20 ADD SWAP1 DUP2 MSTORE PUSH1 0x20 ADD PUSH0 KECCAK256 PUSH1 0x5 ADD SWAP1 DUP2 PUSH2 0x2D64 SWAP2 SWAP1 PUSH2 0x3FA0 JUMP JUMPDEST POP PUSH0 DUP2 MLOAD GT ISZERO PUSH2 0x2DBD JUMPI DUP1 PUSH1 0x2 PUSH0 CALLER PUSH20 0xFFFFFFFFFFFFFFFFFFFFFFFFFFFFFFFFFFFFFFFF AND PUSH20 0xFFFFFFFFFFFFFFFFFFFFFFFFFFFFFFFFFFFFFFFF AND DUP2 MSTORE PUSH1 0x20 ADD SWAP1 DUP2 MSTORE PUSH1 0x20 ADD PUSH0 KECCAK256 PUSH1 0x6 ADD SWAP1 DUP2 PUSH2 0x2DBB SWAP2 SWAP1 PUSH2 0x3FA0 JUMP JUMPDEST POP JUMPDEST POP POP POP JUMP JUMPDEST PUSH0 DUP1 PUSH0 PUSH1 0x60 PUSH0 DUP1 PUSH1 0x60 DUP8 DUP1 PUSH1 0x6 PUSH0 DUP4 DUP2 MSTORE PUSH1 0x20 ADD SWAP1 DUP2 MSTORE PUSH1 0x20 ADD PUSH0 KECCAK256 PUSH0 ADD SLOAD EQ PUSH2 0x2E21 JUMPI PUSH1 0x40 MLOAD PUSH32 0x8C379A000000000000000000000000000000000000000000000000000000000 DUP2 MSTORE PUSH1 0x4 ADD PUSH2 0x2E18 SWAP1 PUSH2 0x46BD JUMP JUMPDEST PUSH1 0x40 MLOAD DUP1 SWAP2 SUB SWAP1 REVERT JUMPDEST PUSH0 PUSH1 0x6 PUSH0 DUP12 DUP2 MSTORE PUSH1 0x20 ADD SWAP1 DUP2 MSTORE PUSH1 0x20 ADD PUSH0 KECCAK256 SWAP1 POP DUP1 PUSH1 0x1 ADD PUSH0 SWAP1 SLOAD SWAP1 PUSH2 0x100 EXP SWAP1 DIV PUSH20 0xFFFFFFFFFFFFFFFFFFFFFFFFFFFFFFFFFFFFFFFF AND DUP2 PUSH1 0x2 ADD PUSH0 SWAP1 SLOAD SWAP1 PUSH2 0x100 EXP SWAP1 DIV PUSH20 0xFFFFFFFFFFFFFFFFFFFFFFFFFFFFFFFFFFFFFFFF AND DUP3 PUSH1 0x3 ADD SLOAD DUP4 PUSH1 0x4 ADD DUP5 PUSH1 0x5 ADD PUSH0 SWAP1 SLOAD SWAP1 PUSH2 0x100 EXP SWAP1 DIV PUSH1 0xFF AND DUP6 PUSH1 0x6 ADD SLOAD DUP7 PUSH1 0x7 ADD DUP4 DUP1 SLOAD PUSH2 0x2EAC SWAP1 PUSH2 0x3DD3 JUMP JUMPDEST DUP1 PUSH1 0x1F ADD PUSH1 0x20 DUP1 SWAP2 DIV MUL PUSH1 0x20 ADD PUSH1 0x40 MLOAD SWAP1 DUP2 ADD PUSH1 0x40 MSTORE DUP1 SWAP3 SWAP2 SWAP1 DUP2 DUP2 MSTORE PUSH1 0x20 ADD DUP3 DUP1 SLOAD PUSH2 0x2ED8 SWAP1 PUSH2 0x3DD3 JUMP JUMPDEST DUP1 ISZERO PUSH2 0x2F23 JUMPI DUP1 PUSH1 0x1F LT PUSH2 0x2EFA JUMPI PUSH2 0x100 DUP1 DUP4 SLOAD DIV MUL DUP4 MSTORE SWAP2 PUSH1 0x20 ADD SWAP2 PUSH2 0x2F23 JUMP JUMPDEST DUP3 ADD SWAP2 SWAP1 PUSH0 MSTORE PUSH1 0x20 PUSH0 KECCAK256 SWAP1 JUMPDEST DUP2 SLOAD DUP2 MSTORE SWAP1 PUSH1 0x1 ADD SWAP1 PUSH1 0x20 ADD DUP1 DUP4 GT PUSH2 0x2F06 JUMPI DUP3 SWAP1 SUB PUSH1 0x1F AND DUP3 ADD SWAP2 JUMPDEST POP POP POP POP POP SWAP4 POP DUP1 DUP1 SLOAD PUSH2 0x2F36 SWAP1 PUSH2 0x3DD3 JUMP JUMPDEST DUP1 PUSH1 0x1F ADD PUSH1 0x20 DUP1 SWAP2 DIV MUL PUSH1 0x20 ADD PUSH1 0x40 MLOAD SWAP1 DUP2 ADD PUSH1 0x40 MSTORE DUP1 SWAP3 SWAP2 SWAP1 DUP2 DUP2 MSTORE PUSH1 0x20 ADD DUP3 DUP1 SLOAD PUSH2 0x2F62 SWAP1 PUSH2 0x3DD3 JUMP JUMPDEST DUP1 ISZERO PUSH2 0x2FAD JUMPI DUP1 PUSH1 0x1F LT PUSH2 0x2F84 JUMPI PUSH2 0x100 DUP1 DUP4 SLOAD DIV MUL DUP4 MSTORE SWAP2 PUSH1 0x20 ADD SWAP2 PUSH2 0x2FAD JUMP JUMPDEST DUP3 ADD SWAP2 SWAP1 PUSH0 MSTORE PUSH1 0x20 PUSH0 KECCAK256 SWAP1 JUMPDEST DUP2 SLOAD DUP2 MSTORE SWAP1 PUSH1 0x1 ADD SWAP1 PUSH1 0x20 ADD DUP1 DUP4 GT PUSH2 0x2F90 JUMPI DUP3 SWAP1 SUB PUSH1 0x1F AND DUP3 ADD SWAP2 JUMPDEST POP POP POP POP POP SWAP1 POP SWAP9 POP SWAP9 POP SWAP9 POP SWAP9 POP SWAP9 POP SWAP9 POP SWAP9 POP POP POP SWAP2 SWAP4 SWAP6 SWAP8 SWAP1 SWAP3 SWAP5 SWAP7 POP JUMP JUMPDEST PUSH0 PUSH1 0x2 PUSH0 DUP4 PUSH20 0xFFFFFFFFFFFFFFFFFFFFFFFFFFFFFFFFFFFFFFFF AND PUSH20 0xFFFFFFFFFFFFFFFFFFFFFFFFFFFFFFFFFFFFFFFF AND DUP2 MSTORE PUSH1 0x20 ADD SWAP1 DUP2 MSTORE PUSH1 0x20 ADD PUSH0 KECCAK256 PUSH1 0x3 ADD PUSH0 SWAP1 SLOAD SWAP1 PUSH2 0x100 EXP SWAP1 DIV PUSH1 0xFF AND SWAP1 POP SWAP2 SWAP1 POP JUMP JUMPDEST PUSH0 PUSH1 0x14 SWAP1 SLOAD SWAP1 PUSH2 0x100 EXP SWAP1 DIV PUSH2 0xFFFF AND DUP2 JUMP JUMPDEST DUP1 DUP1 PUSH1 0x6 PUSH0 DUP4 DUP2 MSTORE PUSH1 0x20 ADD SWAP1 DUP2 MSTORE PUSH1 0x20 ADD PUSH0 KECCAK256 PUSH0 ADD SLOAD EQ PUSH2 0x308D JUMPI PUSH1 0x40 MLOAD PUSH32 0x8C379A000000000000000000000000000000000000000000000000000000000 DUP2 MSTORE PUSH1 0x4 ADD PUSH2 0x3084 SWAP1 PUSH2 0x46BD JUMP JUMPDEST PUSH1 0x40 MLOAD DUP1 SWAP2 SUB SWAP1 REVERT JUMPDEST PUSH0 PUSH1 0x6 PUSH0 DUP5 DUP2 MSTORE PUSH1 0x20 ADD SWAP1 DUP2 MSTORE PUSH1 0x20 ADD PUSH0 KECCAK256 SWAP1 POP PUSH0 PUSH2 0x2710 PUSH0 PUSH1 0x14 SWAP1 SLOAD SWAP1 PUSH2 0x100 EXP SWAP1 DIV PUSH2 0xFFFF AND PUSH2 0xFFFF AND DUP4 PUSH1 0x3 ADD SLOAD PUSH2 0x30C8 SWAP2 SWAP1 PUSH2 0x449D JUMP JUMPDEST PUSH2 0x30D2 SWAP2 SWAP1 PUSH2 0x450B JUMP JUMPDEST SWAP1 POP PUSH0 DUP2 DUP4 PUSH1 0x3 ADD SLOAD PUSH2 0x30E5 SWAP2 SWAP1 PUSH2 0x453B JUMP JUMPDEST SWAP1 POP DUP1 PUSH1 0x2 PUSH0 DUP6 PUSH1 0x2 ADD PUSH0 SWAP1 SLOAD SWAP1 PUSH2 0x100 EXP SWAP1 DIV PUSH20 0xFFFFFFFFFFFFFFFFFFFFFFFFFFFFFFFFFFFFFFFF AND PUSH20 0xFFFFFFFFFFFFFFFFFFFFFFFFFFFFFFFFFFFFFFFF AND PUSH20 0xFFFFFFFFFFFFFFFFFFFFFFFFFFFFFFFFFFFFFFFF AND DUP2 MSTORE PUSH1 0x20 ADD SWAP1 DUP2 MSTORE PUSH1 0x20 ADD PUSH0 KECCAK256 PUSH1 0x4 ADD SLOAD LT PUSH2 0x3236 JUMPI DUP1 PUSH1 0x2 PUSH0 DUP6 PUSH1 0x2 ADD PUSH0 SWAP1 SLOAD SWAP1 PUSH2 0x100 EXP SWAP1 DIV PUSH20 0xFFFFFFFFFFFFFFFFFFFFFFFFFFFFFFFFFFFFFFFF AND PUSH20 0xFFFFFFFFFFFFFFFFFFFFFFFFFFFFFFFFFFFFFFFF AND PUSH20 0xFFFFFFFFFFFFFFFFFFFFFFFFFFFFFFFFFFFFFFFF AND DUP2 MSTORE PUSH1 0x20 ADD SWAP1 DUP2 MSTORE PUSH1 0x20 ADD PUSH0 KECCAK256 PUSH1 0x4 ADD PUSH0 DUP3 DUP3 SLOAD PUSH2 0x31C3 SWAP2 SWAP1 PUSH2 0x453B JUMP JUMPDEST SWAP3 POP POP DUP2 SWAP1 SSTORE POP DUP3 PUSH1 0x1 ADD PUSH0 SWAP1 SLOAD SWAP1 PUSH2 0x100 EXP SWAP1 DIV PUSH20 0xFFFFFFFFFFFFFFFFFFFFFFFFFFFFFFFFFFFFFFFF AND PUSH20 0xFFFFFFFFFFFFFFFFFFFFFFFFFFFFFFFFFFFFFFFF AND PUSH2 0x8FC DUP5 PUSH1 0x3 ADD SLOAD SWAP1 DUP2 ISZERO MUL SWAP1 PUSH1 0x40 MLOAD PUSH0 PUSH1 0x40 MLOAD DUP1 DUP4 SUB DUP2 DUP6 DUP9 DUP9 CALL SWAP4 POP POP POP POP ISZERO DUP1 ISZERO PUSH2 0x3234 JUMPI RETURNDATASIZE PUSH0 DUP1 RETURNDATACOPY RETURNDATASIZE PUSH0 REVERT JUMPDEST POP JUMPDEST POP POP POP POP POP JUMP JUMPDEST PUSH0 PUSH1 0x40 MLOAD SWAP1 POP SWAP1 JUMP JUMPDEST PUSH0 DUP1 REVERT JUMPDEST PUSH0 DUP1 REVERT JUMPDEST PUSH0 DUP1 REVERT JUMPDEST PUSH0 DUP1 REVERT JUMPDEST PUSH0 PUSH1 0x1F NOT PUSH1 0x1F DUP4 ADD AND SWAP1 POP SWAP2 SWAP1 POP JUMP JUMPDEST PUSH32 0x4E487B7100000000000000000000000000000000000000000000000000000000 PUSH0 MSTORE PUSH1 0x41 PUSH1 0x4 MSTORE PUSH1 0x24 PUSH0 REVERT JUMPDEST PUSH2 0x329C DUP3 PUSH2 0x3256 JUMP JUMPDEST DUP2 ADD DUP2 DUP2 LT PUSH8 0xFFFFFFFFFFFFFFFF DUP3 GT OR ISZERO PUSH2 0x32BB JUMPI PUSH2 0x32BA PUSH2 0x3266 JUMP JUMPDEST JUMPDEST DUP1 PUSH1 0x40 MSTORE POP POP POP JUMP JUMPDEST PUSH0 PUSH2 0x32CD PUSH2 0x323D JUMP JUMPDEST SWAP1 POP PUSH2 0x32D9 DUP3 DUP3 PUSH2 0x3293 JUMP JUMPDEST SWAP2 SWAP1 POP JUMP JUMPDEST PUSH0 PUSH8 0xFFFFFFFFFFFFFFFF DUP3 GT ISZERO PUSH2 0x32F8 JUMPI PUSH2 0x32F7 PUSH2 0x3266 JUMP JUMPDEST JUMPDEST PUSH2 0x3301 DUP3 PUSH2 0x3256 JUMP JUMPDEST SWAP1 POP PUSH1 0x20 DUP2 ADD SWAP1 POP SWAP2 SWAP1 POP JUMP JUMPDEST DUP3 DUP2 DUP4 CALLDATACOPY PUSH0 DUP4 DUP4 ADD MSTORE POP POP POP JUMP JUMPDEST PUSH0 PUSH2 0x332E PUSH2 0x3329 DUP5 PUSH2 0x32DE JUMP JUMPDEST PUSH2 0x32C4 JUMP JUMPDEST SWAP1 POP DUP3 DUP2 MSTORE PUSH1 0x20 DUP2 ADD DUP5 DUP5 DUP5 ADD GT ISZERO PUSH2 0x334A JUMPI PUSH2 0x3349 PUSH2 0x3252 JUMP JUMPDEST JUMPDEST PUSH2 0x3355 DUP5 DUP3 DUP6 PUSH2 0x330E JUMP JUMPDEST POP SWAP4 SWAP3 POP POP POP JUMP JUMPDEST PUSH0 DUP3 PUSH1 0x1F DUP4 ADD SLT PUSH2 0x3371 JUMPI PUSH2 0x3370 PUSH2 0x324E JUMP JUMPDEST JUMPDEST DUP2 CALLDATALOAD PUSH2 0x3381 DUP5 DUP3 PUSH1 0x20 DUP7 ADD PUSH2 0x331C JUMP JUMPDEST SWAP2 POP POP SWAP3 SWAP2 POP POP JUMP JUMPDEST PUSH0 DUP1 PUSH1 0x40 DUP4 DUP6 SUB SLT ISZERO PUSH2 0x33A0 JUMPI PUSH2 0x339F PUSH2 0x3246 JUMP JUMPDEST JUMPDEST PUSH0 DUP4 ADD CALLDATALOAD PUSH8 0xFFFFFFFFFFFFFFFF DUP2 GT ISZERO PUSH2 0x33BD JUMPI PUSH2 0x33BC PUSH2 0x324A JUMP JUMPDEST JUMPDEST PUSH2 0x33C9 DUP6 DUP3 DUP7 ADD PUSH2 0x335D JUMP JUMPDEST SWAP3 POP POP PUSH1 0x20 DUP4 ADD CALLDATALOAD PUSH8 0xFFFFFFFFFFFFFFFF DUP2 GT ISZERO PUSH2 0x33EA JUMPI PUSH2 0x33E9 PUSH2 0x324A JUMP JUMPDEST JUMPDEST PUSH2 0x33F6 DUP6 DUP3 DUP7 ADD PUSH2 0x335D JUMP JUMPDEST SWAP2 POP POP SWAP3 POP SWAP3 SWAP1 POP JUMP JUMPDEST PUSH0 PUSH1 0x20 DUP3 DUP5 SUB SLT ISZERO PUSH2 0x3415 JUMPI PUSH2 0x3414 PUSH2 0x3246 JUMP JUMPDEST JUMPDEST PUSH0 DUP3 ADD CALLDATALOAD PUSH8 0xFFFFFFFFFFFFFFFF DUP2 GT ISZERO PUSH2 0x3432 JUMPI PUSH2 0x3431 PUSH2 0x324A JUMP JUMPDEST JUMPDEST PUSH2 0x343E DUP5 DUP3 DUP6 ADD PUSH2 0x335D JUMP JUMPDEST SWAP2 POP POP SWAP3 SWAP2 POP POP JUMP JUMPDEST PUSH0 PUSH20 0xFFFFFFFFFFFFFFFFFFFFFFFFFFFFFFFFFFFFFFFF DUP3 AND SWAP1 POP SWAP2 SWAP1 POP JUMP JUMPDEST PUSH0 PUSH2 0x3470 DUP3 PUSH2 0x3447 JUMP JUMPDEST SWAP1 POP SWAP2 SWAP1 POP JUMP JUMPDEST PUSH2 0x3480 DUP2 PUSH2 0x3466 JUMP JUMPDEST DUP3 MSTORE POP POP JUMP JUMPDEST PUSH0 PUSH1 0x20 DUP3 ADD SWAP1 POP PUSH2 0x3499 PUSH0 DUP4 ADD DUP5 PUSH2 0x3477 JUMP JUMPDEST SWAP3 SWAP2 POP POP JUMP JUMPDEST PUSH2 0x34A8 DUP2 PUSH2 0x3466 JUMP JUMPDEST DUP2 EQ PUSH2 0x34B2 JUMPI PUSH0 DUP1 REVERT JUMPDEST POP JUMP JUMPDEST PUSH0 DUP2 CALLDATALOAD SWAP1 POP PUSH2 0x34C3 DUP2 PUSH2 0x349F JUMP JUMPDEST SWAP3 SWAP2 POP POP JUMP JUMPDEST PUSH0 DUP2 SWAP1 POP SWAP2 SWAP1 POP JUMP JUMPDEST PUSH2 0x34DB DUP2 PUSH2 0x34C9 JUMP JUMPDEST DUP2 EQ PUSH2 0x34E5 JUMPI PUSH0 DUP1 REVERT JUMPDEST POP JUMP JUMPDEST PUSH0 DUP2 CALLDATALOAD SWAP1 POP PUSH2 0x34F6 DUP2 PUSH2 0x34D2 JUMP JUMPDEST SWAP3 SWAP2 POP POP JUMP JUMPDEST PUSH0 DUP1 PUSH1 0x40 DUP4 DUP6 SUB SLT ISZERO PUSH2 0x3512 JUMPI PUSH2 0x3511 PUSH2 0x3246 JUMP JUMPDEST JUMPDEST PUSH0 PUSH2 0x351F DUP6 DUP3 DUP7 ADD PUSH2 0x34B5 JUMP JUMPDEST SWAP3 POP POP PUSH1 0x20 PUSH2 0x3530 DUP6 DUP3 DUP7 ADD PUSH2 0x34E8 JUMP JUMPDEST SWAP2 POP POP SWAP3 POP SWAP3 SWAP1 POP JUMP JUMPDEST PUSH2 0x3543 DUP2 PUSH2 0x34C9 JUMP JUMPDEST DUP3 MSTORE POP POP JUMP JUMPDEST PUSH0 PUSH1 0x20 DUP3 ADD SWAP1 POP PUSH2 0x355C PUSH0 DUP4 ADD DUP5 PUSH2 0x353A JUMP JUMPDEST SWAP3 SWAP2 POP POP JUMP JUMPDEST PUSH0 PUSH1 0x20 DUP3 DUP5 SUB SLT ISZERO PUSH2 0x3577 JUMPI PUSH2 0x3576 PUSH2 0x3246 JUMP JUMPDEST JUMPDEST PUSH0 PUSH2 0x3584 DUP5 DUP3 DUP6 ADD PUSH2 0x34B5 JUMP JUMPDEST SWAP2 POP POP SWAP3 SWAP2 POP POP JUMP JUMPDEST PUSH0 DUP2 MLOAD SWAP1 POP SWAP2 SWAP1 POP JUMP JUMPDEST PUSH0 DUP3 DUP3 MSTORE PUSH1 0x20 DUP3 ADD SWAP1 POP SWAP3 SWAP2 POP POP JUMP JUMPDEST PUSH0 DUP2 SWAP1 POP PUSH1 0x20 DUP3 ADD SWAP1 POP SWAP2 SWAP1 POP JUMP JUMPDEST PUSH2 0x35BF DUP2 PUSH2 0x34C9 JUMP JUMPDEST DUP3 MSTORE POP POP JUMP JUMPDEST PUSH0 PUSH2 0x35D0 DUP4 DUP4 PUSH2 0x35B6 JUMP JUMPDEST PUSH1 0x20 DUP4 ADD SWAP1 POP SWAP3 SWAP2 POP POP JUMP JUMPDEST PUSH0 PUSH1 0x20 DUP3 ADD SWAP1 POP SWAP2 SWAP1 POP JUMP JUMPDEST PUSH0 PUSH2 0x35F2 DUP3 PUSH2 0x358D JUMP JUMPDEST PUSH2 0x35FC DUP2 DUP6 PUSH2 0x3597 JUMP JUMPDEST SWAP4 POP PUSH2 0x3607 DUP4 PUSH2 0x35A7 JUMP JUMPDEST DUP1 PUSH0 JUMPDEST DUP4 DUP2 LT ISZERO PUSH2 0x3637 JUMPI DUP2 MLOAD PUSH2 0x361E DUP9 DUP3 PUSH2 0x35C5 JUMP JUMPDEST SWAP8 POP PUSH2 0x3629 DUP4 PUSH2 0x35DC JUMP JUMPDEST SWAP3 POP POP PUSH1 0x1 DUP2 ADD SWAP1 POP PUSH2 0x360A JUMP JUMPDEST POP DUP6 SWAP4 POP POP POP POP SWAP3 SWAP2 POP POP JUMP JUMPDEST PUSH0 PUSH1 0x20 DUP3 ADD SWAP1 POP DUP2 DUP2 SUB PUSH0 DUP4 ADD MSTORE PUSH2 0x365C DUP2 DUP5 PUSH2 0x35E8 JUMP JUMPDEST SWAP1 POP SWAP3 SWAP2 POP POP JUMP JUMPDEST PUSH0 PUSH2 0x366E DUP3 PUSH2 0x3447 JUMP JUMPDEST SWAP1 POP SWAP2 SWAP1 POP JUMP JUMPDEST PUSH2 0x367E DUP2 PUSH2 0x3664 JUMP JUMPDEST DUP3 MSTORE POP POP JUMP JUMPDEST PUSH0 DUP2 MLOAD SWAP1 POP SWAP2 SWAP1 POP JUMP JUMPDEST PUSH0 DUP3 DUP3 MSTORE PUSH1 0x20 DUP3 ADD SWAP1 POP SWAP3 SWAP2 POP POP JUMP JUMPDEST DUP3 DUP2 DUP4 MCOPY PUSH0 DUP4 DUP4 ADD MSTORE POP POP POP JUMP JUMPDEST PUSH0 PUSH2 0x36B6 DUP3 PUSH2 0x3684 JUMP JUMPDEST PUSH2 0x36C0 DUP2 DUP6 PUSH2 0x368E JUMP JUMPDEST SWAP4 POP PUSH2 0x36D0 DUP2 DUP6 PUSH1 0x20 DUP7 ADD PUSH2 0x369E JUMP JUMPDEST PUSH2 0x36D9 DUP2 PUSH2 0x3256 JUMP JUMPDEST DUP5 ADD SWAP2 POP POP SWAP3 SWAP2 POP POP JUMP JUMPDEST PUSH0 DUP2 ISZERO ISZERO SWAP1 POP SWAP2 SWAP1 POP JUMP JUMPDEST PUSH2 0x36F8 DUP2 PUSH2 0x36E4 JUMP JUMPDEST DUP3 MSTORE POP POP JUMP JUMPDEST PUSH0 PUSH1 0xE0 DUP3 ADD SWAP1 POP PUSH2 0x3711 PUSH0 DUP4 ADD DUP11 PUSH2 0x3675 JUMP JUMPDEST DUP2 DUP2 SUB PUSH1 0x20 DUP4 ADD MSTORE PUSH2 0x3723 DUP2 DUP10 PUSH2 0x36AC JUMP JUMPDEST SWAP1 POP DUP2 DUP2 SUB PUSH1 0x40 DUP4 ADD MSTORE PUSH2 0x3737 DUP2 DUP9 PUSH2 0x36AC JUMP JUMPDEST SWAP1 POP PUSH2 0x3746 PUSH1 0x60 DUP4 ADD DUP8 PUSH2 0x36EF JUMP JUMPDEST PUSH2 0x3753 PUSH1 0x80 DUP4 ADD DUP7 PUSH2 0x353A JUMP JUMPDEST DUP2 DUP2 SUB PUSH1 0xA0 DUP4 ADD MSTORE PUSH2 0x3765 DUP2 DUP6 PUSH2 0x36AC JUMP JUMPDEST SWAP1 POP DUP2 DUP2 SUB PUSH1 0xC0 DUP4 ADD MSTORE PUSH2 0x3779 DUP2 DUP5 PUSH2 0x36AC JUMP JUMPDEST SWAP1 POP SWAP9 SWAP8 POP POP POP POP POP POP POP POP JUMP JUMPDEST PUSH0 PUSH1 0x80 DUP3 ADD SWAP1 POP DUP2 DUP2 SUB PUSH0 DUP4 ADD MSTORE PUSH2 0x379F DUP2 DUP8 PUSH2 0x36AC JUMP JUMPDEST SWAP1 POP DUP2 DUP2 SUB PUSH1 0x20 DUP4 ADD MSTORE PUSH2 0x37B3 DUP2 DUP7 PUSH2 0x36AC JUMP JUMPDEST SWAP1 POP PUSH2 0x37C2 PUSH1 0x40 DUP4 ADD DUP6 PUSH2 0x36EF JUMP JUMPDEST PUSH2 0x37CF PUSH1 0x60 DUP4 ADD DUP5 PUSH2 0x353A JUMP JUMPDEST SWAP6 SWAP5 POP POP POP POP POP JUMP JUMPDEST PUSH32 0x4E487B7100000000000000000000000000000000000000000000000000000000 PUSH0 MSTORE PUSH1 0x21 PUSH1 0x4 MSTORE PUSH1 0x24 PUSH0 REVERT JUMPDEST PUSH1 0x3 DUP2 LT PUSH2 0x3816 JUMPI PUSH2 0x3815 PUSH2 0x37D8 JUMP JUMPDEST JUMPDEST POP JUMP JUMPDEST PUSH0 DUP2 SWAP1 POP PUSH2 0x3826 DUP3 PUSH2 0x3805 JUMP JUMPDEST SWAP2 SWAP1 POP JUMP JUMPDEST PUSH0 PUSH2 0x3835 DUP3 PUSH2 0x3819 JUMP JUMPDEST SWAP1 POP SWAP2 SWAP1 POP JUMP JUMPDEST PUSH2 0x3845 DUP2 PUSH2 0x382B JUMP JUMPDEST DUP3 MSTORE POP POP JUMP JUMPDEST PUSH0 PUSH1 0xC0 DUP3 ADD SWAP1 POP PUSH2 0x385E PUSH0 DUP4 ADD DUP10 PUSH2 0x3477 JUMP JUMPDEST DUP2 DUP2 SUB PUSH1 0x20 DUP4 ADD MSTORE PUSH2 0x3870 DUP2 DUP9 PUSH2 0x36AC JUMP JUMPDEST SWAP1 POP DUP2 DUP2 SUB PUSH1 0x40 DUP4 ADD MSTORE PUSH2 0x3884 DUP2 DUP8 PUSH2 0x36AC JUMP JUMPDEST SWAP1 POP PUSH2 0x3893 PUSH1 0x60 DUP4 ADD DUP7 PUSH2 0x36EF JUMP JUMPDEST PUSH2 0x38A0 PUSH1 0x80 DUP4 ADD DUP6 PUSH2 0x383C JUMP JUMPDEST DUP2 DUP2 SUB PUSH1 0xA0 DUP4 ADD MSTORE PUSH2 0x38B2 DUP2 DUP5 PUSH2 0x36AC JUMP JUMPDEST SWAP1 POP SWAP8 SWAP7 POP POP POP POP POP POP POP JUMP JUMPDEST PUSH0 DUP1 PUSH1 0x40 DUP4 DUP6 SUB SLT ISZERO PUSH2 0x38D5 JUMPI PUSH2 0x38D4 PUSH2 0x3246 JUMP JUMPDEST JUMPDEST PUSH0 PUSH2 0x38E2 DUP6 DUP3 DUP7 ADD PUSH2 0x34B5 JUMP JUMPDEST SWAP3 POP POP PUSH1 0x20 DUP4 ADD CALLDATALOAD PUSH8 0xFFFFFFFFFFFFFFFF DUP2 GT ISZERO PUSH2 0x3903 JUMPI PUSH2 0x3902 PUSH2 0x324A JUMP JUMPDEST JUMPDEST PUSH2 0x390F DUP6 DUP3 DUP7 ADD PUSH2 0x335D JUMP JUMPDEST SWAP2 POP POP SWAP3 POP SWAP3 SWAP1 POP JUMP JUMPDEST PUSH0 PUSH1 0x20 DUP3 DUP5 SUB SLT ISZERO PUSH2 0x392E JUMPI PUSH2 0x392D PUSH2 0x3246 JUMP JUMPDEST JUMPDEST PUSH0 PUSH2 0x393B DUP5 DUP3 DUP6 ADD PUSH2 0x34E8 JUMP JUMPDEST SWAP2 POP POP SWAP3 SWAP2 POP POP JUMP JUMPDEST PUSH0 PUSH1 0xC0 DUP3 ADD SWAP1 POP DUP2 DUP2 SUB PUSH0 DUP4 ADD MSTORE PUSH2 0x395C DUP2 DUP10 PUSH2 0x36AC JUMP JUMPDEST SWAP1 POP DUP2 DUP2 SUB PUSH1 0x20 DUP4 ADD MSTORE PUSH2 0x3970 DUP2 DUP9 PUSH2 0x36AC JUMP JUMPDEST SWAP1 POP PUSH2 0x397F PUSH1 0x40 DUP4 ADD DUP8 PUSH2 0x36EF JUMP JUMPDEST PUSH2 0x398C PUSH1 0x60 DUP4 ADD DUP7 PUSH2 0x353A JUMP JUMPDEST DUP2 DUP2 SUB PUSH1 0x80 DUP4 ADD MSTORE PUSH2 0x399E DUP2 DUP6 PUSH2 0x36AC JUMP JUMPDEST SWAP1 POP DUP2 DUP2 SUB PUSH1 0xA0 DUP4 ADD MSTORE PUSH2 0x39B2 DUP2 DUP5 PUSH2 0x36AC JUMP JUMPDEST SWAP1 POP SWAP8 SWAP7 POP POP POP POP POP POP POP JUMP JUMPDEST PUSH0 PUSH1 0x20 DUP3 ADD SWAP1 POP PUSH2 0x39D2 PUSH0 DUP4 ADD DUP5 PUSH2 0x36EF JUMP JUMPDEST SWAP3 SWAP2 POP POP JUMP JUMPDEST PUSH0 DUP1 PUSH0 PUSH1 0x60 DUP5 DUP7 SUB SLT ISZERO PUSH2 0x39EF JUMPI PUSH2 0x39EE PUSH2 0x3246 JUMP JUMPDEST JUMPDEST PUSH0 DUP5 ADD CALLDATALOAD PUSH8 0xFFFFFFFFFFFFFFFF DUP2 GT ISZERO PUSH2 0x3A0C JUMPI PUSH2 0x3A0B PUSH2 0x324A JUMP JUMPDEST JUMPDEST PUSH2 0x3A18 DUP7 DUP3 DUP8 ADD PUSH2 0x335D JUMP JUMPDEST SWAP4 POP POP PUSH1 0x20 DUP5 ADD CALLDATALOAD PUSH8 0xFFFFFFFFFFFFFFFF DUP2 GT ISZERO PUSH2 0x3A39 JUMPI PUSH2 0x3A38 PUSH2 0x324A JUMP JUMPDEST JUMPDEST PUSH2 0x3A45 DUP7 DUP3 DUP8 ADD PUSH2 0x335D JUMP JUMPDEST SWAP3 POP POP PUSH1 0x40 DUP5 ADD CALLDATALOAD PUSH8 0xFFFFFFFFFFFFFFFF DUP2 GT ISZERO PUSH2 0x3A66 JUMPI PUSH2 0x3A65 PUSH2 0x324A JUMP JUMPDEST JUMPDEST PUSH2 0x3A72 DUP7 DUP3 DUP8 ADD PUSH2 0x335D JUMP JUMPDEST SWAP2 POP POP SWAP3 POP SWAP3 POP SWAP3 JUMP JUMPDEST PUSH0 PUSH1 0xA0 DUP3 ADD SWAP1 POP DUP2 DUP2 SUB PUSH0 DUP4 ADD MSTORE PUSH2 0x3A94 DUP2 DUP9 PUSH2 0x36AC JUMP JUMPDEST SWAP1 POP DUP2 DUP2 SUB PUSH1 0x20 DUP4 ADD MSTORE PUSH2 0x3AA8 DUP2 DUP8 PUSH2 0x36AC JUMP JUMPDEST SWAP1 POP PUSH2 0x3AB7 PUSH1 0x40 DUP4 ADD DUP7 PUSH2 0x36EF JUMP JUMPDEST PUSH2 0x3AC4 PUSH1 0x60 DUP4 ADD DUP6 PUSH2 0x383C JUMP JUMPDEST DUP2 DUP2 SUB PUSH1 0x80 DUP4 ADD MSTORE PUSH2 0x3AD6 DUP2 DUP5 PUSH2 0x36AC JUMP JUMPDEST SWAP1 POP SWAP7 SWAP6 POP POP POP POP POP POP JUMP JUMPDEST PUSH1 0x6 DUP2 LT PUSH2 0x3AF3 JUMPI PUSH2 0x3AF2 PUSH2 0x37D8 JUMP JUMPDEST JUMPDEST POP JUMP JUMPDEST PUSH0 DUP2 SWAP1 POP PUSH2 0x3B03 DUP3 PUSH2 0x3AE2 JUMP JUMPDEST SWAP2 SWAP1 POP JUMP JUMPDEST PUSH0 PUSH2 0x3B12 DUP3 PUSH2 0x3AF6 JUMP JUMPDEST SWAP1 POP SWAP2 SWAP1 POP JUMP JUMPDEST PUSH2 0x3B22 DUP2 PUSH2 0x3B08 JUMP JUMPDEST DUP3 MSTORE POP POP JUMP JUMPDEST PUSH0 PUSH2 0x100 DUP3 ADD SWAP1 POP PUSH2 0x3B3C PUSH0 DUP4 ADD DUP12 PUSH2 0x353A JUMP JUMPDEST PUSH2 0x3B49 PUSH1 0x20 DUP4 ADD DUP11 PUSH2 0x3477 JUMP JUMPDEST PUSH2 0x3B56 PUSH1 0x40 DUP4 ADD DUP10 PUSH2 0x3477 JUMP JUMPDEST PUSH2 0x3B63 PUSH1 0x60 DUP4 ADD DUP9 PUSH2 0x353A JUMP JUMPDEST DUP2 DUP2 SUB PUSH1 0x80 DUP4 ADD MSTORE PUSH2 0x3B75 DUP2 DUP8 PUSH2 0x36AC JUMP JUMPDEST SWAP1 POP PUSH2 0x3B84 PUSH1 0xA0 DUP4 ADD DUP7 PUSH2 0x3B19 JUMP JUMPDEST PUSH2 0x3B91 PUSH1 0xC0 DUP4 ADD DUP6 PUSH2 0x353A JUMP JUMPDEST DUP2 DUP2 SUB PUSH1 0xE0 DUP4 ADD MSTORE PUSH2 0x3BA3 DUP2 DUP5 PUSH2 0x36AC JUMP JUMPDEST SWAP1 POP SWAP10 SWAP9 POP POP POP POP POP POP POP POP POP JUMP JUMPDEST PUSH1 0x6 DUP2 LT PUSH2 0x3BBE JUMPI PUSH0 DUP1 REVERT JUMPDEST POP JUMP JUMPDEST PUSH0 DUP2 CALLDATALOAD SWAP1 POP PUSH2 0x3BCF DUP2 PUSH2 0x3BB2 JUMP JUMPDEST SWAP3 SWAP2 POP POP JUMP JUMPDEST PUSH0 DUP1 PUSH1 0x40 DUP4 DUP6 SUB SLT ISZERO PUSH2 0x3BEB JUMPI PUSH2 0x3BEA PUSH2 0x3246 JUMP JUMPDEST JUMPDEST PUSH0 PUSH2 0x3BF8 DUP6 DUP3 DUP7 ADD PUSH2 0x34E8 JUMP JUMPDEST SWAP3 POP POP PUSH1 0x20 PUSH2 0x3C09 DUP6 DUP3 DUP7 ADD PUSH2 0x3BC1 JUMP JUMPDEST SWAP2 POP POP SWAP3 POP SWAP3 SWAP1 POP JUMP JUMPDEST PUSH0 PUSH2 0xFFFF DUP3 AND SWAP1 POP SWAP2 SWAP1 POP JUMP JUMPDEST PUSH2 0x3C29 DUP2 PUSH2 0x3C13 JUMP JUMPDEST DUP2 EQ PUSH2 0x3C33 JUMPI PUSH0 DUP1 REVERT JUMPDEST POP JUMP JUMPDEST PUSH0 DUP2 CALLDATALOAD SWAP1 POP PUSH2 0x3C44 DUP2 PUSH2 0x3C20 JUMP JUMPDEST SWAP3 SWAP2 POP POP JUMP JUMPDEST PUSH0 PUSH1 0x20 DUP3 DUP5 SUB SLT ISZERO PUSH2 0x3C5F JUMPI PUSH2 0x3C5E PUSH2 0x3246 JUMP JUMPDEST JUMPDEST PUSH0 PUSH2 0x3C6C DUP5 DUP3 DUP6 ADD PUSH2 0x3C36 JUMP JUMPDEST SWAP2 POP POP SWAP3 SWAP2 POP POP JUMP JUMPDEST PUSH0 PUSH1 0xE0 DUP3 ADD SWAP1 POP PUSH2 0x3C88 PUSH0 DUP4 ADD DUP11 PUSH2 0x3477 JUMP JUMPDEST PUSH2 0x3C95 PUSH1 0x20 DUP4 ADD DUP10 PUSH2 0x3477 JUMP JUMPDEST PUSH2 0x3CA2 PUSH1 0x40 DUP4 ADD DUP9 PUSH2 0x353A JUMP JUMPDEST DUP2 DUP2 SUB PUSH1 0x60 DUP4 ADD MSTORE PUSH2 0x3CB4 DUP2 DUP8 PUSH2 0x36AC JUMP JUMPDEST SWAP1 POP PUSH2 0x3CC3 PUSH1 0x80 DUP4 ADD DUP7 PUSH2 0x3B19 JUMP JUMPDEST PUSH2 0x3CD0 PUSH1 0xA0 DUP4 ADD DUP6 PUSH2 0x353A JUMP JUMPDEST DUP2 DUP2 SUB PUSH1 0xC0 DUP4 ADD MSTORE PUSH2 0x3CE2 DUP2 DUP5 PUSH2 0x36AC JUMP JUMPDEST SWAP1 POP SWAP9 SWAP8 POP POP POP POP POP POP POP POP JUMP JUMPDEST PUSH2 0x3CF9 DUP2 PUSH2 0x3C13 JUMP JUMPDEST DUP3 MSTORE POP POP JUMP JUMPDEST PUSH0 PUSH1 0x20 DUP3 ADD SWAP1 POP PUSH2 0x3D12 PUSH0 DUP4 ADD DUP5 PUSH2 0x3CF0 JUMP JUMPDEST SWAP3 SWAP2 POP POP JUMP JUMPDEST PUSH32 0x4F6E6C79207265676973746572656420636C69656E74732063616E2063616C6C PUSH0 DUP3 ADD MSTORE PUSH32 0x20746869732066756E6374696F6E000000000000000000000000000000000000 PUSH1 0x20 DUP3 ADD MSTORE POP JUMP JUMPDEST PUSH0 PUSH2 0x3D72 PUSH1 0x2E DUP4 PUSH2 0x368E JUMP JUMPDEST SWAP2 POP PUSH2 0x3D7D DUP3 PUSH2 0x3D18 JUMP JUMPDEST PUSH1 0x40 DUP3 ADD SWAP1 POP SWAP2 SWAP1 POP JUMP JUMPDEST PUSH0 PUSH1 0x20 DUP3 ADD SWAP1 POP DUP2 DUP2 SUB PUSH0 DUP4 ADD MSTORE PUSH2 0x3D9F DUP2 PUSH2 0x3D66 JUMP JUMPDEST SWAP1 POP SWAP2 SWAP1 POP JUMP JUMPDEST PUSH32 0x4E487B7100000000000000000000000000000000000000000000000000000000 PUSH0 MSTORE PUSH1 0x22 PUSH1 0x4 MSTORE PUSH1 0x24 PUSH0 REVERT JUMPDEST PUSH0 PUSH1 0x2 DUP3 DIV SWAP1 POP PUSH1 0x1 DUP3 AND DUP1 PUSH2 0x3DEA JUMPI PUSH1 0x7F DUP3 AND SWAP2 POP JUMPDEST PUSH1 0x20 DUP3 LT DUP2 SUB PUSH2 0x3DFD JUMPI PUSH2 0x3DFC PUSH2 0x3DA6 JUMP JUMPDEST JUMPDEST POP SWAP2 SWAP1 POP JUMP JUMPDEST PUSH0 DUP2 SWAP1 POP DUP2 PUSH0 MSTORE PUSH1 0x20 PUSH0 KECCAK256 SWAP1 POP SWAP2 SWAP1 POP JUMP JUMPDEST PUSH0 PUSH1 0x20 PUSH1 0x1F DUP4 ADD DIV SWAP1 POP SWAP2 SWAP1 POP JUMP JUMPDEST PUSH0 DUP3 DUP3 SHL SWAP1 POP SWAP3 SWAP2 POP POP JUMP JUMPDEST PUSH0 PUSH1 0x8 DUP4 MUL PUSH2 0x3E5F PUSH32 0xFFFFFFFFFFFFFFFFFFFFFFFFFFFFFFFFFFFFFFFFFFFFFFFFFFFFFFFFFFFFFFFF DUP3 PUSH2 0x3E24 JUMP JUMPDEST PUSH2 0x3E69 DUP7 DUP4 PUSH2 0x3E24 JUMP JUMPDEST SWAP6 POP DUP1 NOT DUP5 AND SWAP4 POP DUP1 DUP7 AND DUP5 OR SWAP3 POP POP POP SWAP4 SWAP3 POP POP POP JUMP JUMPDEST PUSH0 DUP2 SWAP1 POP SWAP2 SWAP1 POP JUMP JUMPDEST PUSH0 PUSH2 0x3EA4 PUSH2 0x3E9F PUSH2 0x3E9A DUP5 PUSH2 0x34C9 JUMP JUMPDEST PUSH2 0x3E81 JUMP JUMPDEST PUSH2 0x34C9 JUMP JUMPDEST SWAP1 POP SWAP2 SWAP1 POP JUMP JUMPDEST PUSH0 DUP2 SWAP1 POP SWAP2 SWAP1 POP JUMP JUMPDEST PUSH2 0x3EBD DUP4 PUSH2 0x3E8A JUMP JUMPDEST PUSH2 0x3ED1 PUSH2 0x3EC9 DUP3 PUSH2 0x3EAB JUMP JUMPDEST DUP5 DUP5 SLOAD PUSH2 0x3E30 JUMP JUMPDEST DUP3 SSTORE POP POP POP POP JUMP JUMPDEST PUSH0 SWAP1 JUMP JUMPDEST PUSH2 0x3EE5 PUSH2 0x3ED9 JUMP JUMPDEST PUSH2 0x3EF0 DUP2 DUP5 DUP5 PUSH2 0x3EB4 JUMP JUMPDEST POP POP POP JUMP JUMPDEST JUMPDEST DUP2 DUP2 LT ISZERO PUSH2 0x3F13 JUMPI PUSH2 0x3F08 PUSH0 DUP3 PUSH2 0x3EDD JUMP JUMPDEST PUSH1 0x1 DUP2 ADD SWAP1 POP PUSH2 0x3EF6 JUMP JUMPDEST POP POP JUMP JUMPDEST PUSH1 0x1F DUP3 GT ISZERO PUSH2 0x3F58 JUMPI PUSH2 0x3F29 DUP2 PUSH2 0x3E03 JUMP JUMPDEST PUSH2 0x3F32 DUP5 PUSH2 0x3E15 JUMP JUMPDEST DUP2 ADD PUSH1 0x20 DUP6 LT ISZERO PUSH2 0x3F41 JUMPI DUP2 SWAP1 POP JUMPDEST PUSH2 0x3F55 PUSH2 0x3F4D DUP6 PUSH2 0x3E15 JUMP JUMPDEST DUP4 ADD DUP3 PUSH2 0x3EF5 JUMP JUMPDEST POP POP JUMPDEST POP POP POP JUMP JUMPDEST PUSH0 DUP3 DUP3 SHR SWAP1 POP SWAP3 SWAP2 POP POP JUMP JUMPDEST PUSH0 PUSH2 0x3F78 PUSH0 NOT DUP5 PUSH1 0x8 MUL PUSH2 0x3F5D JUMP JUMPDEST NOT DUP1 DUP4 AND SWAP2 POP POP SWAP3 SWAP2 POP POP JUMP JUMPDEST PUSH0 PUSH2 0x3F90 DUP4 DUP4 PUSH2 0x3F69 JUMP JUMPDEST SWAP2 POP DUP3 PUSH1 0x2 MUL DUP3 OR SWAP1 POP SWAP3 SWAP2 POP POP JUMP JUMPDEST PUSH2 0x3FA9 DUP3 PUSH2 0x3684 JUMP JUMPDEST PUSH8 0xFFFFFFFFFFFFFFFF DUP2 GT ISZERO PUSH2 0x3FC2 JUMPI PUSH2 0x3FC1 PUSH2 0x3266 JUMP JUMPDEST JUMPDEST PUSH2 0x3FCC DUP3 SLOAD PUSH2 0x3DD3 JUMP JUMPDEST PUSH2 0x3FD7 DUP3 DUP3 DUP6 PUSH2 0x3F17 JUMP JUMPDEST PUSH0 PUSH1 0x20 SWAP1 POP PUSH1 0x1F DUP4 GT PUSH1 0x1 DUP2 EQ PUSH2 0x4008 JUMPI PUSH0 DUP5 ISZERO PUSH2 0x3FF6 JUMPI DUP3 DUP8 ADD MLOAD SWAP1 POP JUMPDEST PUSH2 0x4000 DUP6 DUP3 PUSH2 0x3F85 JUMP JUMPDEST DUP7 SSTORE POP PUSH2 0x4067 JUMP JUMPDEST PUSH1 0x1F NOT DUP5 AND PUSH2 0x4016 DUP7 PUSH2 0x3E03 JUMP JUMPDEST PUSH0 JUMPDEST DUP3 DUP2 LT ISZERO PUSH2 0x403D JUMPI DUP5 DUP10 ADD MLOAD DUP3 SSTORE PUSH1 0x1 DUP3 ADD SWAP2 POP PUSH1 0x20 DUP6 ADD SWAP5 POP PUSH1 0x20 DUP2 ADD SWAP1 POP PUSH2 0x4018 JUMP JUMPDEST DUP7 DUP4 LT ISZERO PUSH2 0x405A JUMPI DUP5 DUP10 ADD MLOAD PUSH2 0x4056 PUSH1 0x1F DUP10 AND DUP3 PUSH2 0x3F69 JUMP JUMPDEST DUP4 SSTORE POP JUMPDEST PUSH1 0x1 PUSH1 0x2 DUP9 MUL ADD DUP9 SSTORE POP POP POP JUMPDEST POP POP POP POP POP POP JUMP JUMPDEST PUSH32 0x4F6E6C7920726567697374657265642076656E646F72732063616E2063616C6C PUSH0 DUP3 ADD MSTORE PUSH32 0x20746869732066756E6374696F6E000000000000000000000000000000000000 PUSH1 0x20 DUP3 ADD MSTORE POP JUMP JUMPDEST PUSH0 PUSH2 0x40C9 PUSH1 0x2E DUP4 PUSH2 0x368E JUMP JUMPDEST SWAP2 POP PUSH2 0x40D4 DUP3 PUSH2 0x406F JUMP JUMPDEST PUSH1 0x40 DUP3 ADD SWAP1 POP SWAP2 SWAP1 POP JUMP JUMPDEST PUSH0 PUSH1 0x20 DUP3 ADD SWAP1 POP DUP2 DUP2 SUB PUSH0 DUP4 ADD MSTORE PUSH2 0x40F6 DUP2 PUSH2 0x40BD JUMP JUMPDEST SWAP1 POP SWAP2 SWAP1 POP JUMP JUMPDEST PUSH32 0x5769746864726177616C20616D6F756E7420746F6F20736D616C6C0000000000 PUSH0 DUP3 ADD MSTORE POP JUMP JUMPDEST PUSH0 PUSH2 0x4131 PUSH1 0x1B DUP4 PUSH2 0x368E JUMP JUMPDEST SWAP2 POP PUSH2 0x413C DUP3 PUSH2 0x40FD JUMP JUMPDEST PUSH1 0x20 DUP3 ADD SWAP1 POP SWAP2 SWAP1 POP JUMP JUMPDEST PUSH0 PUSH1 0x20 DUP3 ADD SWAP1 POP DUP2 DUP2 SUB PUSH0 DUP4 ADD MSTORE PUSH2 0x415E DUP2 PUSH2 0x4125 JUMP JUMPDEST SWAP1 POP SWAP2 SWAP1 POP JUMP JUMPDEST PUSH32 0x436C69656E7420616C7265616479207265676973746572656400000000000000 PUSH0 DUP3 ADD MSTORE POP JUMP JUMPDEST PUSH0 PUSH2 0x4199 PUSH1 0x19 DUP4 PUSH2 0x368E JUMP JUMPDEST SWAP2 POP PUSH2 0x41A4 DUP3 PUSH2 0x4165 JUMP JUMPDEST PUSH1 0x20 DUP3 ADD SWAP1 POP SWAP2 SWAP1 POP JUMP JUMPDEST PUSH0 PUSH1 0x20 DUP3 ADD SWAP1 POP DUP2 DUP2 SUB PUSH0 DUP4 ADD MSTORE PUSH2 0x41C6 DUP2 PUSH2 0x418D JUMP JUMPDEST SWAP1 POP SWAP2 SWAP1 POP JUMP JUMPDEST PUSH0 DUP2 SWAP1 POP SWAP3 SWAP2 POP POP JUMP JUMPDEST PUSH0 PUSH2 0x41E1 DUP3 PUSH2 0x3684 JUMP JUMPDEST PUSH2 0x41EB DUP2 DUP6 PUSH2 0x41CD JUMP JUMPDEST SWAP4 POP PUSH2 0x41FB DUP2 DUP6 PUSH1 0x20 DUP7 ADD PUSH2 0x369E JUMP JUMPDEST DUP1 DUP5 ADD SWAP2 POP POP SWAP3 SWAP2 POP POP JUMP JUMPDEST PUSH0 PUSH2 0x4212 DUP3 DUP5 PUSH2 0x41D7 JUMP JUMPDEST SWAP2 POP DUP2 SWAP1 POP SWAP3 SWAP2 POP POP JUMP JUMPDEST PUSH32 0x456D61696C20616C726561647920726567697374657265640000000000000000 PUSH0 DUP3 ADD MSTORE POP JUMP JUMPDEST PUSH0 PUSH2 0x4251 PUSH1 0x18 DUP4 PUSH2 0x368E JUMP JUMPDEST SWAP2 POP PUSH2 0x425C DUP3 PUSH2 0x421D JUMP JUMPDEST PUSH1 0x20 DUP3 ADD SWAP1 POP SWAP2 SWAP1 POP JUMP JUMPDEST PUSH0 PUSH1 0x20 DUP3 ADD SWAP1 POP DUP2 DUP2 SUB PUSH0 DUP4 ADD MSTORE PUSH2 0x427E DUP2 PUSH2 0x4245 JUMP JUMPDEST SWAP1 POP SWAP2 SWAP1 POP JUMP JUMPDEST PUSH0 PUSH1 0x20 DUP3 ADD SWAP1 POP DUP2 DUP2 SUB PUSH0 DUP4 ADD MSTORE PUSH2 0x429D DUP2 DUP5 PUSH2 0x36AC JUMP JUMPDEST SWAP1 POP SWAP3 SWAP2 POP POP JUMP JUMPDEST PUSH32 0x4F6E6C79206F776E65722063616E2063616C6C20746869732066756E6374696F PUSH0 DUP3 ADD MSTORE PUSH32 0x6E00000000000000000000000000000000000000000000000000000000000000 PUSH1 0x20 DUP3 ADD MSTORE POP JUMP JUMPDEST PUSH0 PUSH2 0x42FF PUSH1 0x21 DUP4 PUSH2 0x368E JUMP JUMPDEST SWAP2 POP PUSH2 0x430A DUP3 PUSH2 0x42A5 JUMP JUMPDEST PUSH1 0x40 DUP3 ADD SWAP1 POP SWAP2 SWAP1 POP JUMP JUMPDEST PUSH0 PUSH1 0x20 DUP3 ADD SWAP1 POP DUP2 DUP2 SUB PUSH0 DUP4 ADD MSTORE PUSH2 0x432C DUP2 PUSH2 0x42F3 JUMP JUMPDEST SWAP1 POP SWAP2 SWAP1 POP JUMP JUMPDEST PUSH32 0x56656E646F72206E6F7420726567697374657265640000000000000000000000 PUSH0 DUP3 ADD MSTORE POP JUMP JUMPDEST PUSH0 PUSH2 0x4367 PUSH1 0x15 DUP4 PUSH2 0x368E JUMP JUMPDEST SWAP2 POP PUSH2 0x4372 DUP3 PUSH2 0x4333 JUMP JUMPDEST PUSH1 0x20 DUP3 ADD SWAP1 POP SWAP2 SWAP1 POP JUMP JUMPDEST PUSH0 PUSH1 0x20 DUP3 ADD SWAP1 POP DUP2 DUP2 SUB PUSH0 DUP4 ADD MSTORE PUSH2 0x4394 DUP2 PUSH2 0x435B JUMP JUMPDEST SWAP1 POP SWAP2 SWAP1 POP JUMP JUMPDEST PUSH32 0x5061796D656E7420616D6F756E74206D75737420626520677265617465722074 PUSH0 DUP3 ADD MSTORE PUSH32 0x68616E207A65726F000000000000000000000000000000000000000000000000 PUSH1 0x20 DUP3 ADD MSTORE POP JUMP JUMPDEST PUSH0 PUSH2 0x43F5 PUSH1 0x28 DUP4 PUSH2 0x368E JUMP JUMPDEST SWAP2 POP PUSH2 0x4400 DUP3 PUSH2 0x439B JUMP JUMPDEST PUSH1 0x40 DUP3 ADD SWAP1 POP SWAP2 SWAP1 POP JUMP JUMPDEST PUSH0 PUSH1 0x20 DUP3 ADD SWAP1 POP DUP2 DUP2 SUB PUSH0 DUP4 ADD MSTORE PUSH2 0x4422 DUP2 PUSH2 0x43E9 JUMP JUMPDEST SWAP1 POP SWAP2 SWAP1 POP JUMP JUMPDEST PUSH32 0x4E487B7100000000000000000000000000000000000000000000000000000000 PUSH0 MSTORE PUSH1 0x11 PUSH1 0x4 MSTORE PUSH1 0x24 PUSH0 REVERT JUMPDEST PUSH0 PUSH2 0x4460 DUP3 PUSH2 0x34C9 JUMP JUMPDEST SWAP2 POP PUSH32 0xFFFFFFFFFFFFFFFFFFFFFFFFFFFFFFFFFFFFFFFFFFFFFFFFFFFFFFFFFFFFFFFF DUP3 SUB PUSH2 0x4492 JUMPI PUSH2 0x4491 PUSH2 0x4429 JUMP JUMPDEST JUMPDEST PUSH1 0x1 DUP3 ADD SWAP1 POP SWAP2 SWAP1 POP JUMP JUMPDEST PUSH0 PUSH2 0x44A7 DUP3 PUSH2 0x34C9 JUMP JUMPDEST SWAP2 POP PUSH2 0x44B2 DUP4 PUSH2 0x34C9 JUMP JUMPDEST SWAP3 POP DUP3 DUP3 MUL PUSH2 0x44C0 DUP2 PUSH2 0x34C9 JUMP JUMPDEST SWAP2 POP DUP3 DUP3 DIV DUP5 EQ DUP4 ISZERO OR PUSH2 0x44D7 JUMPI PUSH2 0x44D6 PUSH2 0x4429 JUMP JUMPDEST JUMPDEST POP SWAP3 SWAP2 POP POP JUMP JUMPDEST PUSH32 0x4E487B7100000000000000000000000000000000000000000000000000000000 PUSH0 MSTORE PUSH1 0x12 PUSH1 0x4 MSTORE PUSH1 0x24 PUSH0 REVERT JUMPDEST PUSH0 PUSH2 0x4515 DUP3 PUSH2 0x34C9 JUMP JUMPDEST SWAP2 POP PUSH2 0x4520 DUP4 PUSH2 0x34C9 JUMP JUMPDEST SWAP3 POP DUP3 PUSH2 0x4530 JUMPI PUSH2 0x452F PUSH2 0x44DE JUMP JUMPDEST JUMPDEST DUP3 DUP3 DIV SWAP1 POP SWAP3 SWAP2 POP POP JUMP JUMPDEST PUSH0 PUSH2 0x4545 DUP3 PUSH2 0x34C9 JUMP JUMPDEST SWAP2 POP PUSH2 0x4550 DUP4 PUSH2 0x34C9 JUMP JUMPDEST SWAP3 POP DUP3 DUP3 SUB SWAP1 POP DUP2 DUP2 GT ISZERO PUSH2 0x4568 JUMPI PUSH2 0x4567 PUSH2 0x4429 JUMP JUMPDEST JUMPDEST SWAP3 SWAP2 POP POP JUMP JUMPDEST PUSH0 PUSH2 0x4578 DUP3 PUSH2 0x34C9 JUMP JUMPDEST SWAP2 POP PUSH2 0x4583 DUP4 PUSH2 0x34C9 JUMP JUMPDEST SWAP3 POP DUP3 DUP3 ADD SWAP1 POP DUP1 DUP3 GT ISZERO PUSH2 0x459B JUMPI PUSH2 0x459A PUSH2 0x4429 JUMP JUMPDEST JUMPDEST SWAP3 SWAP2 POP POP JUMP JUMPDEST PUSH0 PUSH1 0x60 DUP3 ADD SWAP1 POP PUSH2 0x45B4 PUSH0 DUP4 ADD DUP7 PUSH2 0x3477 JUMP JUMPDEST PUSH2 0x45C1 PUSH1 0x20 DUP4 ADD DUP6 PUSH2 0x3477 JUMP JUMPDEST PUSH2 0x45CE PUSH1 0x40 DUP4 ADD DUP5 PUSH2 0x353A JUMP JUMPDEST SWAP5 SWAP4 POP POP POP POP JUMP JUMPDEST PUSH32 0x56656E646F7220616C7265616479207265676973746572656400000000000000 PUSH0 DUP3 ADD MSTORE POP JUMP JUMPDEST PUSH0 PUSH2 0x460A PUSH1 0x19 DUP4 PUSH2 0x368E JUMP JUMPDEST SWAP2 POP PUSH2 0x4615 DUP3 PUSH2 0x45D6 JUMP JUMPDEST PUSH1 0x20 DUP3 ADD SWAP1 POP SWAP2 SWAP1 POP JUMP JUMPDEST PUSH0 PUSH1 0x20 DUP3 ADD SWAP1 POP DUP2 DUP2 SUB PUSH0 DUP4 ADD MSTORE PUSH2 0x4637 DUP2 PUSH2 0x45FE JUMP JUMPDEST SWAP1 POP SWAP2 SWAP1 POP JUMP JUMPDEST PUSH0 PUSH1 0x40 DUP3 ADD SWAP1 POP DUP2 DUP2 SUB PUSH0 DUP4 ADD MSTORE PUSH2 0x4656 DUP2 DUP6 PUSH2 0x36AC JUMP JUMPDEST SWAP1 POP DUP2 DUP2 SUB PUSH1 0x20 DUP4 ADD MSTORE PUSH2 0x466A DUP2 DUP5 PUSH2 0x36AC JUMP JUMPDEST SWAP1 POP SWAP4 SWAP3 POP POP POP JUMP JUMPDEST PUSH32 0x4F7264657220646F6573206E6F74206578697374000000000000000000000000 PUSH0 DUP3 ADD MSTORE POP JUMP JUMPDEST PUSH0 PUSH2 0x46A7 PUSH1 0x14 DUP4 PUSH2 0x368E JUMP JUMPDEST SWAP2 POP PUSH2 0x46B2 DUP3 PUSH2 0x4673 JUMP JUMPDEST PUSH1 0x20 DUP3 ADD SWAP1 POP SWAP2 SWAP1 POP JUMP JUMPDEST PUSH0 PUSH1 0x20 DUP3 ADD SWAP1 POP DUP2 DUP2 SUB PUSH0 DUP4 ADD MSTORE PUSH2 0x46D4 DUP2 PUSH2 0x469B JUMP JUMPDEST SWAP1 POP SWAP2 SWAP1 POP JUMP JUMPDEST PUSH32 0x4F6E6C792076656E646F72206F72206F776E65722063616E2075706461746520 PUSH0 DUP3 ADD MSTORE PUSH32 0x6F72646572207374617475730000000000000000000000000000000000000000 PUSH1 0x20 DUP3 ADD MSTORE POP JUMP JUMPDEST PUSH0 PUSH2 0x4735 PUSH1 0x2C DUP4 PUSH2 0x368E JUMP JUMPDEST SWAP2 POP PUSH2 0x4740 DUP3 PUSH2 0x46DB JUMP JUMPDEST PUSH1 0x40 DUP3 ADD SWAP1 POP SWAP2 SWAP1 POP JUMP JUMPDEST PUSH0 PUSH1 0x20 DUP3 ADD SWAP1 POP DUP2 DUP2 SUB PUSH0 DUP4 ADD MSTORE PUSH2 0x4762 DUP2 PUSH2 0x4729 JUMP JUMPDEST SWAP1 POP SWAP2 SWAP1 POP JUMP JUMPDEST PUSH32 0x43616E6E6F74207570646174652063616E63656C6C6564206F7220726566756E PUSH0 DUP3 ADD MSTORE PUSH32 0x646564206F726465727300000000000000000000000000000000000000000000 PUSH1 0x20 DUP3 ADD MSTORE POP JUMP JUMPDEST PUSH0 PUSH2 0x47C3 PUSH1 0x2A DUP4 PUSH2 0x368E JUMP JUMPDEST SWAP2 POP PUSH2 0x47CE DUP3 PUSH2 0x4769 JUMP JUMPDEST PUSH1 0x40 DUP3 ADD SWAP1 POP SWAP2 SWAP1 POP JUMP JUMPDEST PUSH0 PUSH1 0x20 DUP3 ADD SWAP1 POP DUP2 DUP2 SUB PUSH0 DUP4 ADD MSTORE PUSH2 0x47F0 DUP2 PUSH2 0x47B7 JUMP JUMPDEST SWAP1 POP SWAP2 SWAP1 POP JUMP JUMPDEST PUSH0 PUSH1 0x20 DUP3 ADD SWAP1 POP PUSH2 0x480A PUSH0 DUP4 ADD DUP5 PUSH2 0x3B19 JUMP JUMPDEST SWAP3 SWAP2 POP POP JUMP JUMPDEST PUSH32 0x4E6F2062616C616E636520746F20776974686472617700000000000000000000 PUSH0 DUP3 ADD MSTORE POP JUMP JUMPDEST PUSH0 PUSH2 0x4844 PUSH1 0x16 DUP4 PUSH2 0x368E JUMP JUMPDEST SWAP2 POP PUSH2 0x484F DUP3 PUSH2 0x4810 JUMP JUMPDEST PUSH1 0x20 DUP3 ADD SWAP1 POP SWAP2 SWAP1 POP JUMP JUMPDEST PUSH0 PUSH1 0x20 DUP3 ADD SWAP1 POP DUP2 DUP2 SUB PUSH0 DUP4 ADD MSTORE PUSH2 0x4871 DUP2 PUSH2 0x4838 JUMP JUMPDEST SWAP1 POP SWAP2 SWAP1 POP JUMP JUMPDEST PUSH32 0x4665652063616E6E6F7420657863656564203130250000000000000000000000 PUSH0 DUP3 ADD MSTORE POP JUMP JUMPDEST PUSH0 PUSH2 0x48AC PUSH1 0x15 DUP4 PUSH2 0x368E JUMP JUMPDEST SWAP2 POP PUSH2 0x48B7 DUP3 PUSH2 0x4878 JUMP JUMPDEST PUSH1 0x20 DUP3 ADD SWAP1 POP SWAP2 SWAP1 POP JUMP JUMPDEST PUSH0 PUSH1 0x20 DUP3 ADD SWAP1 POP DUP2 DUP2 SUB PUSH0 DUP4 ADD MSTORE PUSH2 0x48D9 DUP2 PUSH2 0x48A0 JUMP JUMPDEST SWAP1 POP SWAP2 SWAP1 POP JUMP INVALID LOG2 PUSH5 0x6970667358 0x22 SLT KECCAK256 JUMPDEST JUMPI PUSH22 0x8408A37F4057DD847B0D68819A6383BFC9F39AC45176 SWAP3 PUSH3 0x355FB6 STATICCALL LOG3 PUSH5 0x736F6C6343 STOP ADDMOD BYTE STOP CALLER "
				},
				"gasEstimates": {
					"creation": {
						"codeDepositCost": "3742000",
						"executionCost": "79919",
						"totalCost": "3821919"
					},
					"external": {
						"clients(address)": "infinite",
						"clientsByEmail(string)": "infinite",
						"customerOrders(address,uint256)": "infinite",
						"getClientDetails(address)": "infinite",
						"getContractBalance()": "2705",
						"getCustomerOrders(address)": "infinite",
						"getOrderDetails(uint256)": "infinite",
						"getVendorDetails(address)": "infinite",
						"getVendorFullDetails(address)": "infinite",
						"getVendorOrders()": "infinite",
						"isClient(address)": "2921",
						"isVendor(address)": "2964",
						"minimumWithdrawalAmount()": "2471",
						"orders(uint256)": "infinite",
						"owner()": "2616",
						"placeOrder(address,string)": "infinite",
						"platformFeeRate()": "2626",
						"registerClient(string,string)": "infinite",
						"registerVendor(string,string,string)": "infinite",
						"updateClientDetails(string,string)": "infinite",
						"updateMinimumWithdrawal(uint256)": "24749",
						"updateOrderStatus(uint256,uint8)": "infinite",
						"updatePlatformFeeRate(uint16)": "27032",
						"updateVendorDetails(string,string,string)": "infinite",
						"vendorOrders(address,uint256)": "infinite",
						"vendors(address)": "infinite",
						"vendorsByEmail(string)": "infinite",
						"withdrawFunds()": "infinite",
						"withdrawPlatformFees()": "infinite"
					},
					"internal": {
						"processRefund(uint256)": "infinite"
					}
				},
				"methodIdentifiers": {
					"clients(address)": "61eed2a9",
					"clientsByEmail(string)": "105205d6",
					"customerOrders(address,uint256)": "1600c6cd",
					"getClientDetails(address)": "8bf3bbed",
					"getContractBalance()": "6f9fb98a",
					"getCustomerOrders(address)": "22f974d2",
					"getOrderDetails(uint256)": "ec7dd7bb",
					"getVendorDetails(address)": "506ce066",
					"getVendorFullDetails(address)": "7d0489f2",
					"getVendorOrders()": "69adcf30",
					"isClient(address)": "84b7964f",
					"isVendor(address)": "ee54d54f",
					"minimumWithdrawalAmount()": "2b180646",
					"orders(uint256)": "a85c38ef",
					"owner()": "8da5cb5b",
					"placeOrder(address,string)": "79307a47",
					"platformFeeRate()": "eeca08f0",
					"registerClient(string,string)": "4364d973",
					"registerVendor(string,string,string)": "876a7e7c",
					"updateClientDetails(string,string)": "0eda0dce",
					"updateMinimumWithdrawal(uint256)": "79378030",
					"updateOrderStatus(uint256,uint8)": "aab3196d",
					"updatePlatformFeeRate(uint16)": "db25ca99",
					"updateVendorDetails(string,string,string)": "e98ba1ab",
					"vendorOrders(address,uint256)": "19f47ba5",
					"vendors(address)": "27e30c36",
					"vendorsByEmail(string)": "78f57277",
					"withdrawFunds()": "24600fc3",
					"withdrawPlatformFees()": "d0b7830b"
				}
			},
			"storageLayout": {
				"storage": [
					{
						"astId": 4,
						"contract": "contracts/contract.sol:EnsiBEcommerce",
						"label": "owner",
						"offset": 0,
						"slot": "0",
						"type": "t_address"
					},
					{
						"astId": 7,
						"contract": "contracts/contract.sol:EnsiBEcommerce",
						"label": "platformFeeRate",
						"offset": 20,
						"slot": "0",
						"type": "t_uint16"
					},
					{
						"astId": 10,
						"contract": "contracts/contract.sol:EnsiBEcommerce",
						"label": "minimumWithdrawalAmount",
						"offset": 0,
						"slot": "1",
						"type": "t_uint256"
					},
					{
						"astId": 73,
						"contract": "contracts/contract.sol:EnsiBEcommerce",
						"label": "vendors",
						"offset": 0,
						"slot": "2",
						"type": "t_mapping(t_address,t_struct(Vendor)29_storage)"
					},
					{
						"astId": 77,
						"contract": "contracts/contract.sol:EnsiBEcommerce",
						"label": "vendorsByEmail",
						"offset": 0,
						"slot": "3",
						"type": "t_mapping(t_string_memory_ptr,t_address)"
					},
					{
						"astId": 82,
						"contract": "contracts/contract.sol:EnsiBEcommerce",
						"label": "clients",
						"offset": 0,
						"slot": "4",
						"type": "t_mapping(t_address,t_struct(Client)43_storage)"
					},
					{
						"astId": 86,
						"contract": "contracts/contract.sol:EnsiBEcommerce",
						"label": "clientsByEmail",
						"offset": 0,
						"slot": "5",
						"type": "t_mapping(t_string_memory_ptr,t_address)"
					},
					{
						"astId": 91,
						"contract": "contracts/contract.sol:EnsiBEcommerce",
						"label": "orders",
						"offset": 0,
						"slot": "6",
						"type": "t_mapping(t_uint256,t_struct(Order)61_storage)"
					},
					{
						"astId": 96,
						"contract": "contracts/contract.sol:EnsiBEcommerce",
						"label": "customerOrders",
						"offset": 0,
						"slot": "7",
						"type": "t_mapping(t_address,t_array(t_uint256)dyn_storage)"
					},
					{
						"astId": 101,
						"contract": "contracts/contract.sol:EnsiBEcommerce",
						"label": "vendorOrders",
						"offset": 0,
						"slot": "8",
						"type": "t_mapping(t_address,t_array(t_uint256)dyn_storage)"
					},
					{
						"astId": 104,
						"contract": "contracts/contract.sol:EnsiBEcommerce",
						"label": "orderCounter",
						"offset": 0,
						"slot": "9",
						"type": "t_uint256"
					}
				],
				"types": {
					"t_address": {
						"encoding": "inplace",
						"label": "address",
						"numberOfBytes": "20"
					},
					"t_address_payable": {
						"encoding": "inplace",
						"label": "address payable",
						"numberOfBytes": "20"
					},
					"t_array(t_uint256)dyn_storage": {
						"base": "t_uint256",
						"encoding": "dynamic_array",
						"label": "uint256[]",
						"numberOfBytes": "32"
					},
					"t_bool": {
						"encoding": "inplace",
						"label": "bool",
						"numberOfBytes": "1"
					},
					"t_enum(OrderStatus)68": {
						"encoding": "inplace",
						"label": "enum EnsiBEcommerce.OrderStatus",
						"numberOfBytes": "1"
					},
					"t_enum(UserRole)14": {
						"encoding": "inplace",
						"label": "enum EnsiBEcommerce.UserRole",
						"numberOfBytes": "1"
					},
					"t_mapping(t_address,t_array(t_uint256)dyn_storage)": {
						"encoding": "mapping",
						"key": "t_address",
						"label": "mapping(address => uint256[])",
						"numberOfBytes": "32",
						"value": "t_array(t_uint256)dyn_storage"
					},
					"t_mapping(t_address,t_struct(Client)43_storage)": {
						"encoding": "mapping",
						"key": "t_address",
						"label": "mapping(address => struct EnsiBEcommerce.Client)",
						"numberOfBytes": "32",
						"value": "t_struct(Client)43_storage"
					},
					"t_mapping(t_address,t_struct(Vendor)29_storage)": {
						"encoding": "mapping",
						"key": "t_address",
						"label": "mapping(address => struct EnsiBEcommerce.Vendor)",
						"numberOfBytes": "32",
						"value": "t_struct(Vendor)29_storage"
					},
					"t_mapping(t_string_memory_ptr,t_address)": {
						"encoding": "mapping",
						"key": "t_string_memory_ptr",
						"label": "mapping(string => address)",
						"numberOfBytes": "32",
						"value": "t_address"
					},
					"t_mapping(t_uint256,t_struct(Order)61_storage)": {
						"encoding": "mapping",
						"key": "t_uint256",
						"label": "mapping(uint256 => struct EnsiBEcommerce.Order)",
						"numberOfBytes": "32",
						"value": "t_struct(Order)61_storage"
					},
					"t_string_memory_ptr": {
						"encoding": "bytes",
						"label": "string",
						"numberOfBytes": "32"
					},
					"t_string_storage": {
						"encoding": "bytes",
						"label": "string",
						"numberOfBytes": "32"
					},
					"t_struct(Client)43_storage": {
						"encoding": "inplace",
						"label": "struct EnsiBEcommerce.Client",
						"members": [
							{
								"astId": 31,
								"contract": "contracts/contract.sol:EnsiBEcommerce",
								"label": "clientAddress",
								"offset": 0,
								"slot": "0",
								"type": "t_address"
							},
							{
								"astId": 33,
								"contract": "contracts/contract.sol:EnsiBEcommerce",
								"label": "email",
								"offset": 0,
								"slot": "1",
								"type": "t_string_storage"
							},
							{
								"astId": 35,
								"contract": "contracts/contract.sol:EnsiBEcommerce",
								"label": "name",
								"offset": 0,
								"slot": "2",
								"type": "t_string_storage"
							},
							{
								"astId": 37,
								"contract": "contracts/contract.sol:EnsiBEcommerce",
								"label": "isRegistered",
								"offset": 0,
								"slot": "3",
								"type": "t_bool"
							},
							{
								"astId": 40,
								"contract": "contracts/contract.sol:EnsiBEcommerce",
								"label": "role",
								"offset": 1,
								"slot": "3",
								"type": "t_enum(UserRole)14"
							},
							{
								"astId": 42,
								"contract": "contracts/contract.sol:EnsiBEcommerce",
								"label": "photoPath",
								"offset": 0,
								"slot": "4",
								"type": "t_string_storage"
							}
						],
						"numberOfBytes": "160"
					},
					"t_struct(Order)61_storage": {
						"encoding": "inplace",
						"label": "struct EnsiBEcommerce.Order",
						"members": [
							{
								"astId": 45,
								"contract": "contracts/contract.sol:EnsiBEcommerce",
								"label": "id",
								"offset": 0,
								"slot": "0",
								"type": "t_uint256"
							},
							{
								"astId": 47,
								"contract": "contracts/contract.sol:EnsiBEcommerce",
								"label": "customer",
								"offset": 0,
								"slot": "1",
								"type": "t_address"
							},
							{
								"astId": 49,
								"contract": "contracts/contract.sol:EnsiBEcommerce",
								"label": "vendor",
								"offset": 0,
								"slot": "2",
								"type": "t_address"
							},
							{
								"astId": 51,
								"contract": "contracts/contract.sol:EnsiBEcommerce",
								"label": "amount",
								"offset": 0,
								"slot": "3",
								"type": "t_uint256"
							},
							{
								"astId": 53,
								"contract": "contracts/contract.sol:EnsiBEcommerce",
								"label": "productIds",
								"offset": 0,
								"slot": "4",
								"type": "t_string_storage"
							},
							{
								"astId": 56,
								"contract": "contracts/contract.sol:EnsiBEcommerce",
								"label": "status",
								"offset": 0,
								"slot": "5",
								"type": "t_enum(OrderStatus)68"
							},
							{
								"astId": 58,
								"contract": "contracts/contract.sol:EnsiBEcommerce",
								"label": "timestamp",
								"offset": 0,
								"slot": "6",
								"type": "t_uint256"
							},
							{
								"astId": 60,
								"contract": "contracts/contract.sol:EnsiBEcommerce",
								"label": "vendorEmail",
								"offset": 0,
								"slot": "7",
								"type": "t_string_storage"
							}
						],
						"numberOfBytes": "256"
					},
					"t_struct(Vendor)29_storage": {
						"encoding": "inplace",
						"label": "struct EnsiBEcommerce.Vendor",
						"members": [
							{
								"astId": 16,
								"contract": "contracts/contract.sol:EnsiBEcommerce",
								"label": "vendorAddress",
								"offset": 0,
								"slot": "0",
								"type": "t_address_payable"
							},
							{
								"astId": 18,
								"contract": "contracts/contract.sol:EnsiBEcommerce",
								"label": "email",
								"offset": 0,
								"slot": "1",
								"type": "t_string_storage"
							},
							{
								"astId": 20,
								"contract": "contracts/contract.sol:EnsiBEcommerce",
								"label": "name",
								"offset": 0,
								"slot": "2",
								"type": "t_string_storage"
							},
							{
								"astId": 22,
								"contract": "contracts/contract.sol:EnsiBEcommerce",
								"label": "isRegistered",
								"offset": 0,
								"slot": "3",
								"type": "t_bool"
							},
							{
								"astId": 24,
								"contract": "contracts/contract.sol:EnsiBEcommerce",
								"label": "balance",
								"offset": 0,
								"slot": "4",
								"type": "t_uint256"
							},
							{
								"astId": 26,
								"contract": "contracts/contract.sol:EnsiBEcommerce",
								"label": "cryptoKey",
								"offset": 0,
								"slot": "5",
								"type": "t_string_storage"
							},
							{
								"astId": 28,
								"contract": "contracts/contract.sol:EnsiBEcommerce",
								"label": "photoPath",
								"offset": 0,
								"slot": "6",
								"type": "t_string_storage"
							}
						],
						"numberOfBytes": "224"
					},
					"t_uint16": {
						"encoding": "inplace",
						"label": "uint16",
						"numberOfBytes": "2"
					},
					"t_uint256": {
						"encoding": "inplace",
						"label": "uint256",
						"numberOfBytes": "32"
					}
				}
			},
			"userdoc": {
				"kind": "user",
				"methods": {},
				"version": 1
			}
		}
	}
}