{
	"contracts/Transaction.sol": {
		"Transaction": {
			"abi": [
				{
					"anonymous": false,
					"inputs": [
						{
							"indexed": false,
							"internalType": "string",
							"name": "orderId",
							"type": "string"
						},
						{
							"indexed": false,
							"internalType": "address",
							"name": "buyer",
							"type": "address"
						},
						{
							"indexed": false,
							"internalType": "address",
							"name": "seller",
							"type": "address"
						},
						{
							"indexed": false,
							"internalType": "uint256",
							"name": "amount",
							"type": "uint256"
						},
						{
							"indexed": false,
							"internalType": "uint256",
							"name": "timestamp",
							"type": "uint256"
						}
					],
					"name": "PurchaseCompleted",
					"type": "event"
				},
				{
					"inputs": [
						{
							"internalType": "string",
							"name": "_orderId",
							"type": "string"
						}
					],
					"name": "getPurchaseDetails",
					"outputs": [
						{
							"internalType": "address",
							"name": "buyer",
							"type": "address"
						},
						{
							"internalType": "address",
							"name": "seller",
							"type": "address"
						},
						{
							"internalType": "uint256",
							"name": "amount",
							"type": "uint256"
						},
						{
							"internalType": "uint256",
							"name": "timestamp",
							"type": "uint256"
						},
						{
							"internalType": "bool",
							"name": "completed",
							"type": "bool"
						}
					],
					"stateMutability": "view",
					"type": "function"
				},
				{
					"inputs": [
						{
							"internalType": "string",
							"name": "",
							"type": "string"
						}
					],
					"name": "purchases",
					"outputs": [
						{
							"internalType": "address",
							"name": "buyer",
							"type": "address"
						},
						{
							"internalType": "address",
							"name": "seller",
							"type": "address"
						},
						{
							"internalType": "uint256",
							"name": "amount",
							"type": "uint256"
						},
						{
							"internalType": "uint256",
							"name": "timestamp",
							"type": "uint256"
						},
						{
							"internalType": "string",
							"name": "orderId",
							"type": "string"
						},
						{
							"internalType": "bool",
							"name": "completed",
							"type": "bool"
						}
					],
					"stateMutability": "view",
					"type": "function"
				},
				{
					"inputs": [
						{
							"internalType": "string",
							"name": "_orderId",
							"type": "string"
						},
						{
							"internalType": "address",
							"name": "_seller",
							"type": "address"
						}
					],
					"name": "recordPurchase",
					"outputs": [],
					"stateMutability": "payable",
					"type": "function"
				}
			],
			"devdoc": {
				"kind": "dev",
				"methods": {},
				"version": 1
			},
			"evm": {
				"assembly": "    /* \"contracts/Transaction.sol\":60:1735  contract Transaction {... */\n  mstore(0x40, 0x80)\n  callvalue\n  dup1\n  iszero\n  tag_1\n  jumpi\n  0x00\n  dup1\n  revert\ntag_1:\n  pop\n  dataSize(sub_0)\n  dup1\n  dataOffset(sub_0)\n  0x00\n  codecopy\n  0x00\n  return\nstop\n\nsub_0: assembly {\n        /* \"contracts/Transaction.sol\":60:1735  contract Transaction {... */\n      mstore(0x40, 0x80)\n      jumpi(tag_1, lt(calldatasize, 0x04))\n      shr(0xe0, calldataload(0x00))\n      dup1\n      0x314ba619\n      eq\n      tag_2\n      jumpi\n      dup1\n      0x6f9a98fb\n      eq\n      tag_3\n      jumpi\n      dup1\n      0xfc5eb694\n      eq\n      tag_4\n      jumpi\n    tag_1:\n      0x00\n      dup1\n      revert\n        /* \"contracts/Transaction.sol\":1268:1732  function getPurchaseDetails(string memory _orderId) external view returns (... */\n    tag_2:\n      callvalue\n      dup1\n      iszero\n      tag_5\n      jumpi\n      0x00\n      dup1\n      revert\n    tag_5:\n      pop\n      tag_6\n      tag_7\n      calldatasize\n      0x04\n      tag_8\n      jump\t// in\n    tag_7:\n      tag_9\n      jump\t// in\n    tag_6:\n      0x40\n      dup1\n      mload\n      sub(shl(0xa0, 0x01), 0x01)\n        /* \"#utility.yul\":1475:1507   */\n      swap7\n      dup8\n      and\n        /* \"#utility.yul\":1457:1508   */\n      dup2\n      mstore\n        /* \"#utility.yul\":1544:1576   */\n      swap6\n      swap1\n      swap5\n      and\n        /* \"#utility.yul\":1539:1541   */\n      0x20\n        /* \"#utility.yul\":1524:1542   */\n      dup7\n      add\n        /* \"#utility.yul\":1517:1577   */\n      mstore\n        /* \"#utility.yul\":1593:1611   */\n      swap3\n      dup5\n      add\n        /* \"#utility.yul\":1586:1620   */\n      swap2\n      swap1\n      swap2\n      mstore\n        /* \"#utility.yul\":1651:1653   */\n      0x60\n        /* \"#utility.yul\":1636:1654   */\n      dup4\n      add\n        /* \"#utility.yul\":1629:1663   */\n      mstore\n        /* \"#utility.yul\":1707:1721   */\n      iszero\n        /* \"#utility.yul\":1700:1722   */\n      iszero\n        /* \"#utility.yul\":1694:1697   */\n      0x80\n        /* \"#utility.yul\":1679:1698   */\n      dup3\n      add\n        /* \"#utility.yul\":1672:1723   */\n      mstore\n        /* \"#utility.yul\":1444:1447   */\n      0xa0\n        /* \"#utility.yul\":1429:1448   */\n      add\n        /* \"contracts/Transaction.sol\":1268:1732  function getPurchaseDetails(string memory _orderId) external view returns (... */\n    tag_10:\n      mload(0x40)\n      dup1\n      swap2\n      sub\n      swap1\n      return\n        /* \"contracts/Transaction.sol\":282:332  mapping(string => PurchaseRecord) public purchases */\n    tag_3:\n      callvalue\n      dup1\n      iszero\n      tag_12\n      jumpi\n      0x00\n      dup1\n      revert\n    tag_12:\n      pop\n      tag_13\n      tag_14\n      calldatasize\n      0x04\n      tag_8\n      jump\t// in\n    tag_14:\n      tag_15\n      jump\t// in\n    tag_13:\n      mload(0x40)\n      tag_10\n      swap7\n      swap6\n      swap5\n      swap4\n      swap3\n      swap2\n      swap1\n      tag_17\n      jump\t// in\n        /* \"contracts/Transaction.sol\":457:1256  function recordPurchase(string memory _orderId, address _seller) external payable {... */\n    tag_4:\n      tag_18\n      tag_19\n      calldatasize\n      0x04\n      tag_20\n      jump\t// in\n    tag_19:\n      tag_21\n      jump\t// in\n    tag_18:\n      stop\n        /* \"contracts/Transaction.sol\":1268:1732  function getPurchaseDetails(string memory _orderId) external view returns (... */\n    tag_9:\n        /* \"contracts/Transaction.sol\":1353:1366  address buyer */\n      0x00\n        /* \"contracts/Transaction.sol\":1377:1391  address seller */\n      dup1\n        /* \"contracts/Transaction.sol\":1402:1416  uint256 amount */\n      0x00\n        /* \"contracts/Transaction.sol\":1427:1444  uint256 timestamp */\n      dup1\n        /* \"contracts/Transaction.sol\":1455:1469  bool completed */\n      0x00\n        /* \"contracts/Transaction.sol\":1488:1518  PurchaseRecord memory purchase */\n      dup1\n        /* \"contracts/Transaction.sol\":1521:1530  purchases */\n      0x00\n        /* \"contracts/Transaction.sol\":1531:1539  _orderId */\n      dup8\n        /* \"contracts/Transaction.sol\":1521:1540  purchases[_orderId] */\n      mload(0x40)\n      tag_23\n      swap2\n      swap1\n      tag_24\n      jump\t// in\n    tag_23:\n      swap1\n      dup2\n      mstore\n      0x40\n      dup1\n      mload\n      swap2\n      dup3\n      swap1\n      sub\n      0x20\n      swap1\n      dup2\n      add\n      dup4\n      keccak256\n        /* \"contracts/Transaction.sol\":1488:1540  PurchaseRecord memory purchase = purchases[_orderId] */\n      0xc0\n      dup5\n      add\n      dup4\n      mstore\n      dup1\n      sload\n      sub(shl(0xa0, 0x01), 0x01)\n      swap1\n      dup2\n      and\n      dup6\n      mstore\n      0x01\n      dup3\n      add\n      sload\n      and\n      swap2\n      dup5\n      add\n      swap2\n      swap1\n      swap2\n      mstore\n      0x02\n      dup2\n      add\n      sload\n      swap2\n      dup4\n      add\n      swap2\n      swap1\n      swap2\n      mstore\n      0x03\n      dup2\n      add\n      sload\n      0x60\n      dup4\n      add\n      mstore\n      0x04\n      dup2\n      add\n      dup1\n      sload\n      0x80\n      dup5\n      add\n      swap2\n      swap1\n      tag_25\n      swap1\n      tag_26\n      jump\t// in\n    tag_25:\n      dup1\n      0x1f\n      add\n      0x20\n      dup1\n      swap2\n      div\n      mul\n      0x20\n      add\n      mload(0x40)\n      swap1\n      dup2\n      add\n      0x40\n      mstore\n      dup1\n      swap3\n      swap2\n      swap1\n      dup2\n      dup2\n      mstore\n      0x20\n      add\n      dup3\n      dup1\n      sload\n      tag_27\n      swap1\n      tag_26\n      jump\t// in\n    tag_27:\n      dup1\n      iszero\n      tag_28\n      jumpi\n      dup1\n      0x1f\n      lt\n      tag_29\n      jumpi\n      0x0100\n      dup1\n      dup4\n      sload\n      div\n      mul\n      dup4\n      mstore\n      swap2\n      0x20\n      add\n      swap2\n      jump(tag_28)\n    tag_29:\n      dup3\n      add\n      swap2\n      swap1\n      0x00\n      mstore\n      keccak256(0x00, 0x20)\n      swap1\n    tag_30:\n      dup2\n      sload\n      dup2\n      mstore\n      swap1\n      0x01\n      add\n      swap1\n      0x20\n      add\n      dup1\n      dup4\n      gt\n      tag_30\n      jumpi\n      dup3\n      swap1\n      sub\n      0x1f\n      and\n      dup3\n      add\n      swap2\n    tag_28:\n      pop\n      pop\n      pop\n      swap2\n      dup4\n      mstore\n      pop\n      pop\n      0x05\n      swap2\n      swap1\n      swap2\n      add\n      sload\n      0xff\n      and\n      iszero\n      iszero\n      0x20\n      swap2\n      dup3\n      add\n      mstore\n        /* \"contracts/Transaction.sol\":1573:1587  purchase.buyer */\n      dup2\n      mload\n        /* \"contracts/Transaction.sol\":1602:1617  purchase.seller */\n      swap1\n      dup3\n      add\n      mload\n        /* \"contracts/Transaction.sol\":1632:1647  purchase.amount */\n      0x40\n      dup4\n      add\n      mload\n        /* \"contracts/Transaction.sol\":1662:1680  purchase.timestamp */\n      0x60\n      dup5\n      add\n      mload\n        /* \"contracts/Transaction.sol\":1695:1713  purchase.completed */\n      0xa0\n      swap1\n      swap5\n      add\n      mload\n        /* \"contracts/Transaction.sol\":1573:1587  purchase.buyer */\n      swap3\n      swap12\n        /* \"contracts/Transaction.sol\":1602:1617  purchase.seller */\n      swap2\n      swap11\n      pop\n        /* \"contracts/Transaction.sol\":1632:1647  purchase.amount */\n      swap9\n      pop\n        /* \"contracts/Transaction.sol\":1662:1680  purchase.timestamp */\n      swap2\n      swap7\n      pop\n        /* \"contracts/Transaction.sol\":1695:1713  purchase.completed */\n      swap5\n      pop\n        /* \"contracts/Transaction.sol\":1268:1732  function getPurchaseDetails(string memory _orderId) external view returns (... */\n      swap3\n      pop\n      pop\n      pop\n      jump\t// out\n        /* \"contracts/Transaction.sol\":282:332  mapping(string => PurchaseRecord) public purchases */\n    tag_15:\n      dup1\n      mload\n      dup1\n      dup3\n      add\n      0x20\n      swap1\n      dup2\n      add\n      dup1\n      mload\n      0x00\n      dup3\n      mstore\n      swap3\n      dup3\n      add\n      swap2\n      swap1\n      swap4\n      add\n      keccak256\n      swap2\n      mstore\n      dup1\n      sload\n      0x01\n      dup3\n      add\n      sload\n      0x02\n      dup4\n      add\n      sload\n      0x03\n      dup5\n      add\n      sload\n      0x04\n      dup6\n      add\n      dup1\n      sload\n      sub(shl(0xa0, 0x01), 0x01)\n      swap6\n      dup7\n      and\n      swap7\n      swap5\n      swap1\n      swap6\n      and\n      swap5\n      swap3\n      swap4\n      swap2\n      swap3\n      tag_31\n      swap1\n      tag_26\n      jump\t// in\n    tag_31:\n      dup1\n      0x1f\n      add\n      0x20\n      dup1\n      swap2\n      div\n      mul\n      0x20\n      add\n      mload(0x40)\n      swap1\n      dup2\n      add\n      0x40\n      mstore\n      dup1\n      swap3\n      swap2\n      swap1\n      dup2\n      dup2\n      mstore\n      0x20\n      add\n      dup3\n      dup1\n      sload\n      tag_32\n      swap1\n      tag_26\n      jump\t// in\n    tag_32:\n      dup1\n      iszero\n      tag_33\n      jumpi\n      dup1\n      0x1f\n      lt\n      tag_34\n      jumpi\n      0x0100\n      dup1\n      dup4\n      sload\n      div\n      mul\n      dup4\n      mstore\n      swap2\n      0x20\n      add\n      swap2\n      jump(tag_33)\n    tag_34:\n      dup3\n      add\n      swap2\n      swap1\n      0x00\n      mstore\n      keccak256(0x00, 0x20)\n      swap1\n    tag_35:\n      dup2\n      sload\n      dup2\n      mstore\n      swap1\n      0x01\n      add\n      swap1\n      0x20\n      add\n      dup1\n      dup4\n      gt\n      tag_35\n      jumpi\n      dup3\n      swap1\n      sub\n      0x1f\n      and\n      dup3\n      add\n      swap2\n    tag_33:\n      pop\n      pop\n      pop\n      0x05\n      swap1\n      swap4\n      add\n      sload\n      swap2\n      swap3\n      pop\n      pop\n      0xff\n      and\n      dup7\n      jump\t// out\n        /* \"contracts/Transaction.sol\":457:1256  function recordPurchase(string memory _orderId, address _seller) external payable {... */\n    tag_21:\n        /* \"contracts/Transaction.sol\":570:571  0 */\n      0x00\n        /* \"contracts/Transaction.sol\":558:567  msg.value */\n      callvalue\n        /* \"contracts/Transaction.sol\":558:571  msg.value > 0 */\n      gt\n        /* \"contracts/Transaction.sol\":550:613  require(msg.value > 0, \"Payment amount must be greater than 0\") */\n      tag_37\n      jumpi\n      mload(0x40)\n      shl(0xe5, 0x461bcd)\n      dup2\n      mstore\n        /* \"#utility.yul\":4293:4295   */\n      0x20\n        /* \"contracts/Transaction.sol\":550:613  require(msg.value > 0, \"Payment amount must be greater than 0\") */\n      0x04\n      dup3\n      add\n        /* \"#utility.yul\":4275:4296   */\n      mstore\n        /* \"#utility.yul\":4332:4334   */\n      0x25\n        /* \"#utility.yul\":4312:4330   */\n      0x24\n      dup3\n      add\n        /* \"#utility.yul\":4305:4335   */\n      mstore\n        /* \"#utility.yul\":4371:4405   */\n      0x5061796d656e7420616d6f756e74206d75737420626520677265617465722074\n        /* \"#utility.yul\":4351:4369   */\n      0x44\n      dup3\n      add\n        /* \"#utility.yul\":4344:4406   */\n      mstore\n      shl(0xdc, 0x068616e203)\n        /* \"#utility.yul\":4422:4440   */\n      0x64\n      dup3\n      add\n        /* \"#utility.yul\":4415:4450   */\n      mstore\n        /* \"#utility.yul\":4467:4486   */\n      0x84\n      add\n        /* \"contracts/Transaction.sol\":550:613  require(msg.value > 0, \"Payment amount must be greater than 0\") */\n    tag_38:\n      mload(0x40)\n      dup1\n      swap2\n      sub\n      swap1\n      revert\n    tag_37:\n      sub(shl(0xa0, 0x01), 0x01)\n        /* \"contracts/Transaction.sol\":632:653  _seller != address(0) */\n      dup2\n      and\n        /* \"contracts/Transaction.sol\":624:680  require(_seller != address(0), \"Invalid seller address\") */\n      tag_40\n      jumpi\n      mload(0x40)\n      shl(0xe5, 0x461bcd)\n      dup2\n      mstore\n        /* \"#utility.yul\":4699:4701   */\n      0x20\n        /* \"contracts/Transaction.sol\":624:680  require(_seller != address(0), \"Invalid seller address\") */\n      0x04\n      dup3\n      add\n        /* \"#utility.yul\":4681:4702   */\n      mstore\n        /* \"#utility.yul\":4738:4740   */\n      0x16\n        /* \"#utility.yul\":4718:4736   */\n      0x24\n      dup3\n      add\n        /* \"#utility.yul\":4711:4741   */\n      mstore\n      shl(0x50, 0x496e76616c69642073656c6c65722061646472657373)\n        /* \"#utility.yul\":4757:4775   */\n      0x44\n      dup3\n      add\n        /* \"#utility.yul\":4750:4802   */\n      mstore\n        /* \"#utility.yul\":4819:4837   */\n      0x64\n      add\n        /* \"contracts/Transaction.sol\":624:680  require(_seller != address(0), \"Invalid seller address\") */\n      tag_38\n        /* \"#utility.yul\":4497:4843   */\n      jump\n        /* \"contracts/Transaction.sol\":624:680  require(_seller != address(0), \"Invalid seller address\") */\n    tag_40:\n        /* \"contracts/Transaction.sol\":747:756  bool sent */\n      0x00\n        /* \"contracts/Transaction.sol\":762:769  _seller */\n      dup2\n      sub(shl(0xa0, 0x01), 0x01)\n        /* \"contracts/Transaction.sol\":762:774  _seller.call */\n      and\n        /* \"contracts/Transaction.sol\":782:791  msg.value */\n      callvalue\n        /* \"contracts/Transaction.sol\":762:796  _seller.call{value: msg.value}(\"\") */\n      mload(0x40)\n      0x00\n      mload(0x40)\n      dup1\n      dup4\n      sub\n      dup2\n      dup6\n      dup8\n      gas\n      call\n      swap3\n      pop\n      pop\n      pop\n      returndatasize\n      dup1\n      0x00\n      dup2\n      eq\n      tag_47\n      jumpi\n      mload(0x40)\n      swap2\n      pop\n      and(add(returndatasize, 0x3f), not(0x1f))\n      dup3\n      add\n      0x40\n      mstore\n      returndatasize\n      dup3\n      mstore\n      returndatasize\n      0x00\n      0x20\n      dup5\n      add\n      returndatacopy\n      jump(tag_46)\n    tag_47:\n      0x60\n      swap2\n      pop\n    tag_46:\n      pop\n        /* \"contracts/Transaction.sol\":746:796  (bool sent, ) = _seller.call{value: msg.value}(\"\") */\n      pop\n      swap1\n      pop\n        /* \"contracts/Transaction.sol\":815:819  sent */\n      dup1\n        /* \"contracts/Transaction.sol\":807:844  require(sent, \"Failed to send Ether\") */\n      tag_48\n      jumpi\n      mload(0x40)\n      shl(0xe5, 0x461bcd)\n      dup2\n      mstore\n        /* \"#utility.yul\":5260:5262   */\n      0x20\n        /* \"contracts/Transaction.sol\":807:844  require(sent, \"Failed to send Ether\") */\n      0x04\n      dup3\n      add\n        /* \"#utility.yul\":5242:5263   */\n      mstore\n        /* \"#utility.yul\":5299:5301   */\n      0x14\n        /* \"#utility.yul\":5279:5297   */\n      0x24\n      dup3\n      add\n        /* \"#utility.yul\":5272:5302   */\n      mstore\n      shl(0x61, 0x2330b4b632b2103a379039b2b7321022ba3432b9)\n        /* \"#utility.yul\":5318:5336   */\n      0x44\n      dup3\n      add\n        /* \"#utility.yul\":5311:5361   */\n      mstore\n        /* \"#utility.yul\":5378:5396   */\n      0x64\n      add\n        /* \"contracts/Transaction.sol\":807:844  require(sent, \"Failed to send Ether\") */\n      tag_38\n        /* \"#utility.yul\":5058:5402   */\n      jump\n        /* \"contracts/Transaction.sol\":807:844  require(sent, \"Failed to send Ether\") */\n    tag_48:\n        /* \"contracts/Transaction.sol\":922:1146  PurchaseRecord({... */\n      0x40\n      dup1\n      mload\n      0xc0\n      dup2\n      add\n      dup3\n      mstore\n        /* \"contracts/Transaction.sol\":959:969  msg.sender */\n      caller\n        /* \"contracts/Transaction.sol\":922:1146  PurchaseRecord({... */\n      dup2\n      mstore\n      sub(shl(0xa0, 0x01), 0x01)\n      dup5\n      and\n      0x20\n      dup3\n      add\n      mstore\n        /* \"contracts/Transaction.sol\":1022:1031  msg.value */\n      callvalue\n        /* \"contracts/Transaction.sol\":922:1146  PurchaseRecord({... */\n      dup2\n      dup4\n      add\n      mstore\n        /* \"contracts/Transaction.sol\":1057:1072  block.timestamp */\n      timestamp\n        /* \"contracts/Transaction.sol\":922:1146  PurchaseRecord({... */\n      0x60\n      dup3\n      add\n      mstore\n      0x80\n      dup2\n      add\n      dup6\n      swap1\n      mstore\n        /* \"contracts/Transaction.sol\":1130:1134  true */\n      0x01\n        /* \"contracts/Transaction.sol\":922:1146  PurchaseRecord({... */\n      0xa0\n      dup3\n      add\n      mstore\n        /* \"contracts/Transaction.sol\":900:919  purchases[_orderId] */\n      swap1\n      mload\n      0x00\n      swap1\n      tag_51\n      swap1\n        /* \"contracts/Transaction.sol\":1096:1104  _orderId */\n      dup7\n      swap1\n        /* \"contracts/Transaction.sol\":900:919  purchases[_orderId] */\n      tag_24\n      jump\t// in\n    tag_51:\n      swap1\n      dup2\n      mstore\n      0x40\n      dup1\n      mload\n      0x20\n      swap3\n      dup2\n      swap1\n      sub\n      dup4\n      add\n      swap1\n      keccak256\n        /* \"contracts/Transaction.sol\":900:1146  purchases[_orderId] = PurchaseRecord({... */\n      dup4\n      mload\n      dup2\n      sload\n      not(sub(shl(0xa0, 0x01), 0x01))\n      swap1\n      dup2\n      and\n      sub(shl(0xa0, 0x01), 0x01)\n      swap3\n      dup4\n      and\n      or\n      dup4\n      sstore\n      swap4\n      dup6\n      add\n      mload\n      0x01\n      dup4\n      add\n      dup1\n      sload\n      swap1\n      swap6\n      and\n      swap2\n      and\n      or\n      swap1\n      swap3\n      sstore\n      dup3\n      add\n      mload\n      0x02\n      dup3\n      add\n      sstore\n      0x60\n      dup3\n      add\n      mload\n      0x03\n      dup3\n      add\n      sstore\n      0x80\n      dup3\n      add\n      mload\n      0x04\n      dup3\n      add\n      swap1\n      tag_52\n      swap1\n      dup3\n      tag_53\n      jump\t// in\n    tag_52:\n      pop\n      0xa0\n      swap2\n      swap1\n      swap2\n      add\n      mload\n      0x05\n      swap1\n      swap2\n      add\n      dup1\n      sload\n      not(0xff)\n      and\n      swap2\n      iszero\n      iszero\n      swap2\n      swap1\n      swap2\n      or\n      swap1\n      sstore\n        /* \"contracts/Transaction.sol\":1172:1248  PurchaseCompleted(_orderId, msg.sender, _seller, msg.value, block.timestamp) */\n      mload(0x40)\n      0xcac3a3eb52e8c1cf41761773d43815c2a678d982d7d13a41e825638a297d2b65\n      swap1\n      tag_54\n      swap1\n        /* \"contracts/Transaction.sol\":1190:1198  _orderId */\n      dup6\n      swap1\n        /* \"contracts/Transaction.sol\":1200:1210  msg.sender */\n      caller\n      swap1\n        /* \"contracts/Transaction.sol\":1212:1219  _seller */\n      dup7\n      swap1\n        /* \"contracts/Transaction.sol\":1221:1230  msg.value */\n      callvalue\n      swap1\n        /* \"contracts/Transaction.sol\":1232:1247  block.timestamp */\n      timestamp\n      swap1\n        /* \"contracts/Transaction.sol\":1172:1248  PurchaseCompleted(_orderId, msg.sender, _seller, msg.value, block.timestamp) */\n      tag_55\n      jump\t// in\n    tag_54:\n      mload(0x40)\n      dup1\n      swap2\n      sub\n      swap1\n      log1\n        /* \"contracts/Transaction.sol\":539:1256  {... */\n      pop\n        /* \"contracts/Transaction.sol\":457:1256  function recordPurchase(string memory _orderId, address _seller) external payable {... */\n      pop\n      pop\n      jump\t// out\n        /* \"#utility.yul\":14:141   */\n    tag_56:\n        /* \"#utility.yul\":75:85   */\n      0x4e487b71\n        /* \"#utility.yul\":70:73   */\n      0xe0\n        /* \"#utility.yul\":66:86   */\n      shl\n        /* \"#utility.yul\":63:64   */\n      0x00\n        /* \"#utility.yul\":56:87   */\n      mstore\n        /* \"#utility.yul\":106:110   */\n      0x41\n        /* \"#utility.yul\":103:104   */\n      0x04\n        /* \"#utility.yul\":96:111   */\n      mstore\n        /* \"#utility.yul\":130:134   */\n      0x24\n        /* \"#utility.yul\":127:128   */\n      0x00\n        /* \"#utility.yul\":120:135   */\n      revert\n        /* \"#utility.yul\":146:872   */\n    tag_57:\n        /* \"#utility.yul\":189:194   */\n      0x00\n        /* \"#utility.yul\":242:245   */\n      dup3\n        /* \"#utility.yul\":235:239   */\n      0x1f\n        /* \"#utility.yul\":227:233   */\n      dup4\n        /* \"#utility.yul\":223:240   */\n      add\n        /* \"#utility.yul\":219:246   */\n      slt\n        /* \"#utility.yul\":209:264   */\n      tag_66\n      jumpi\n        /* \"#utility.yul\":260:261   */\n      0x00\n        /* \"#utility.yul\":257:258   */\n      dup1\n        /* \"#utility.yul\":250:262   */\n      revert\n        /* \"#utility.yul\":209:264   */\n    tag_66:\n        /* \"#utility.yul\":300:306   */\n      dup2\n        /* \"#utility.yul\":287:307   */\n      calldataload\n        /* \"#utility.yul\":330:348   */\n      0xffffffffffffffff\n        /* \"#utility.yul\":322:328   */\n      dup2\n        /* \"#utility.yul\":319:349   */\n      gt\n        /* \"#utility.yul\":316:372   */\n      iszero\n      tag_68\n      jumpi\n        /* \"#utility.yul\":352:370   */\n      tag_68\n      tag_56\n      jump\t// in\n    tag_68:\n        /* \"#utility.yul\":401:403   */\n      0x40\n        /* \"#utility.yul\":395:404   */\n      mload\n        /* \"#utility.yul\":493:495   */\n      0x1f\n        /* \"#utility.yul\":455:472   */\n      dup3\n      add\n      not(0x1f)\n        /* \"#utility.yul\":451:482   */\n      swap1\n      dup2\n      and\n        /* \"#utility.yul\":484:486   */\n      0x3f\n        /* \"#utility.yul\":447:487   */\n      add\n        /* \"#utility.yul\":443:497   */\n      and\n        /* \"#utility.yul\":431:498   */\n      dup2\n      add\n        /* \"#utility.yul\":528:546   */\n      0xffffffffffffffff\n        /* \"#utility.yul\":513:547   */\n      dup2\n      gt\n        /* \"#utility.yul\":549:571   */\n      dup3\n      dup3\n      lt\n        /* \"#utility.yul\":510:572   */\n      or\n        /* \"#utility.yul\":507:595   */\n      iszero\n      tag_70\n      jumpi\n        /* \"#utility.yul\":575:593   */\n      tag_70\n      tag_56\n      jump\t// in\n    tag_70:\n        /* \"#utility.yul\":611:613   */\n      0x40\n        /* \"#utility.yul\":604:626   */\n      mstore\n        /* \"#utility.yul\":635:657   */\n      dup2\n      dup2\n      mstore\n        /* \"#utility.yul\":676:695   */\n      dup4\n      dup3\n      add\n        /* \"#utility.yul\":697:701   */\n      0x20\n        /* \"#utility.yul\":672:702   */\n      add\n        /* \"#utility.yul\":669:708   */\n      dup6\n      lt\n        /* \"#utility.yul\":666:725   */\n      iszero\n      tag_71\n      jumpi\n        /* \"#utility.yul\":721:722   */\n      0x00\n        /* \"#utility.yul\":718:719   */\n      dup1\n        /* \"#utility.yul\":711:723   */\n      revert\n        /* \"#utility.yul\":666:725   */\n    tag_71:\n        /* \"#utility.yul\":785:791   */\n      dup2\n        /* \"#utility.yul\":778:782   */\n      0x20\n        /* \"#utility.yul\":770:776   */\n      dup6\n        /* \"#utility.yul\":766:783   */\n      add\n        /* \"#utility.yul\":759:763   */\n      0x20\n        /* \"#utility.yul\":751:757   */\n      dup4\n        /* \"#utility.yul\":747:764   */\n      add\n        /* \"#utility.yul\":734:792   */\n      calldatacopy\n        /* \"#utility.yul\":840:841   */\n      0x00\n        /* \"#utility.yul\":812:831   */\n      swap2\n      dup2\n      add\n        /* \"#utility.yul\":833:837   */\n      0x20\n        /* \"#utility.yul\":808:838   */\n      add\n        /* \"#utility.yul\":801:842   */\n      swap2\n      swap1\n      swap2\n      mstore\n        /* \"#utility.yul\":816:822   */\n      swap4\n        /* \"#utility.yul\":146:872   */\n      swap3\n      pop\n      pop\n      pop\n      jump\t// out\n        /* \"#utility.yul\":877:1199   */\n    tag_8:\n        /* \"#utility.yul\":946:952   */\n      0x00\n        /* \"#utility.yul\":999:1001   */\n      0x20\n        /* \"#utility.yul\":987:996   */\n      dup3\n        /* \"#utility.yul\":978:985   */\n      dup5\n        /* \"#utility.yul\":974:997   */\n      sub\n        /* \"#utility.yul\":970:1002   */\n      slt\n        /* \"#utility.yul\":967:1019   */\n      iszero\n      tag_73\n      jumpi\n        /* \"#utility.yul\":1015:1016   */\n      0x00\n        /* \"#utility.yul\":1012:1013   */\n      dup1\n        /* \"#utility.yul\":1005:1017   */\n      revert\n        /* \"#utility.yul\":967:1019   */\n    tag_73:\n        /* \"#utility.yul\":1055:1064   */\n      dup2\n        /* \"#utility.yul\":1042:1065   */\n      calldataload\n        /* \"#utility.yul\":1088:1106   */\n      0xffffffffffffffff\n        /* \"#utility.yul\":1080:1086   */\n      dup2\n        /* \"#utility.yul\":1077:1107   */\n      gt\n        /* \"#utility.yul\":1074:1124   */\n      iszero\n      tag_74\n      jumpi\n        /* \"#utility.yul\":1120:1121   */\n      0x00\n        /* \"#utility.yul\":1117:1118   */\n      dup1\n        /* \"#utility.yul\":1110:1122   */\n      revert\n        /* \"#utility.yul\":1074:1124   */\n    tag_74:\n        /* \"#utility.yul\":1143:1193   */\n      tag_75\n        /* \"#utility.yul\":1185:1192   */\n      dup5\n        /* \"#utility.yul\":1176:1182   */\n      dup3\n        /* \"#utility.yul\":1165:1174   */\n      dup6\n        /* \"#utility.yul\":1161:1183   */\n      add\n        /* \"#utility.yul\":1143:1193   */\n      tag_57\n      jump\t// in\n    tag_75:\n        /* \"#utility.yul\":1133:1193   */\n      swap5\n        /* \"#utility.yul\":877:1199   */\n      swap4\n      pop\n      pop\n      pop\n      pop\n      jump\t// out\n        /* \"#utility.yul\":1734:1984   */\n    tag_58:\n        /* \"#utility.yul\":1819:1820   */\n      0x00\n        /* \"#utility.yul\":1829:1942   */\n    tag_78:\n        /* \"#utility.yul\":1843:1849   */\n      dup4\n        /* \"#utility.yul\":1840:1841   */\n      dup2\n        /* \"#utility.yul\":1837:1850   */\n      lt\n        /* \"#utility.yul\":1829:1942   */\n      iszero\n      tag_80\n      jumpi\n        /* \"#utility.yul\":1919:1930   */\n      dup2\n      dup2\n      add\n        /* \"#utility.yul\":1913:1931   */\n      mload\n        /* \"#utility.yul\":1900:1911   */\n      dup4\n      dup3\n      add\n        /* \"#utility.yul\":1893:1932   */\n      mstore\n        /* \"#utility.yul\":1865:1867   */\n      0x20\n        /* \"#utility.yul\":1858:1868   */\n      add\n        /* \"#utility.yul\":1829:1942   */\n      jump(tag_78)\n    tag_80:\n      pop\n      pop\n        /* \"#utility.yul\":1976:1977   */\n      0x00\n        /* \"#utility.yul\":1958:1974   */\n      swap2\n      add\n        /* \"#utility.yul\":1951:1978   */\n      mstore\n        /* \"#utility.yul\":1734:1984   */\n      jump\t// out\n        /* \"#utility.yul\":1989:2260   */\n    tag_59:\n        /* \"#utility.yul\":2031:2034   */\n      0x00\n        /* \"#utility.yul\":2069:2074   */\n      dup2\n        /* \"#utility.yul\":2063:2075   */\n      mload\n        /* \"#utility.yul\":2096:2102   */\n      dup1\n        /* \"#utility.yul\":2091:2094   */\n      dup5\n        /* \"#utility.yul\":2084:2103   */\n      mstore\n        /* \"#utility.yul\":2112:2188   */\n      tag_82\n        /* \"#utility.yul\":2181:2187   */\n      dup2\n        /* \"#utility.yul\":2174:2178   */\n      0x20\n        /* \"#utility.yul\":2169:2172   */\n      dup7\n        /* \"#utility.yul\":2165:2179   */\n      add\n        /* \"#utility.yul\":2158:2162   */\n      0x20\n        /* \"#utility.yul\":2151:2156   */\n      dup7\n        /* \"#utility.yul\":2147:2163   */\n      add\n        /* \"#utility.yul\":2112:2188   */\n      tag_58\n      jump\t// in\n    tag_82:\n        /* \"#utility.yul\":2242:2244   */\n      0x1f\n        /* \"#utility.yul\":2221:2236   */\n      add\n      not(0x1f)\n        /* \"#utility.yul\":2217:2246   */\n      and\n        /* \"#utility.yul\":2208:2247   */\n      swap3\n      swap1\n      swap3\n      add\n        /* \"#utility.yul\":2249:2253   */\n      0x20\n        /* \"#utility.yul\":2204:2254   */\n      add\n      swap3\n        /* \"#utility.yul\":1989:2260   */\n      swap2\n      pop\n      pop\n      jump\t// out\n        /* \"#utility.yul\":2265:2906   */\n    tag_17:\n      sub(shl(0xa0, 0x01), 0x01)\n        /* \"#utility.yul\":2548:2580   */\n      dup8\n      dup2\n      and\n        /* \"#utility.yul\":2530:2581   */\n      dup3\n      mstore\n        /* \"#utility.yul\":2617:2649   */\n      dup7\n      and\n        /* \"#utility.yul\":2612:2614   */\n      0x20\n        /* \"#utility.yul\":2597:2615   */\n      dup3\n      add\n        /* \"#utility.yul\":2590:2650   */\n      mstore\n        /* \"#utility.yul\":2681:2683   */\n      0x40\n        /* \"#utility.yul\":2666:2684   */\n      dup2\n      add\n        /* \"#utility.yul\":2659:2693   */\n      dup6\n      swap1\n      mstore\n        /* \"#utility.yul\":2724:2726   */\n      0x60\n        /* \"#utility.yul\":2709:2727   */\n      dup2\n      add\n        /* \"#utility.yul\":2702:2736   */\n      dup5\n      swap1\n      mstore\n        /* \"#utility.yul\":2773:2776   */\n      0xc0\n        /* \"#utility.yul\":2767:2770   */\n      0x80\n        /* \"#utility.yul\":2752:2771   */\n      dup3\n      add\n        /* \"#utility.yul\":2745:2777   */\n      dup2\n      swap1\n      mstore\n      0x00\n      swap1\n        /* \"#utility.yul\":2794:2840   */\n      tag_84\n      swap1\n        /* \"#utility.yul\":2820:2839   */\n      dup4\n      add\n        /* \"#utility.yul\":2812:2818   */\n      dup6\n        /* \"#utility.yul\":2794:2840   */\n      tag_59\n      jump\t// in\n    tag_84:\n        /* \"#utility.yul\":2786:2840   */\n      swap1\n      pop\n        /* \"#utility.yul\":2891:2897   */\n      dup3\n        /* \"#utility.yul\":2884:2898   */\n      iszero\n        /* \"#utility.yul\":2877:2899   */\n      iszero\n        /* \"#utility.yul\":2871:2874   */\n      0xa0\n        /* \"#utility.yul\":2860:2869   */\n      dup4\n        /* \"#utility.yul\":2856:2875   */\n      add\n        /* \"#utility.yul\":2849:2900   */\n      mstore\n        /* \"#utility.yul\":2265:2906   */\n      swap8\n      swap7\n      pop\n      pop\n      pop\n      pop\n      pop\n      pop\n      pop\n      jump\t// out\n        /* \"#utility.yul\":2911:3407   */\n    tag_20:\n        /* \"#utility.yul\":2989:2995   */\n      0x00\n        /* \"#utility.yul\":2997:3003   */\n      dup1\n        /* \"#utility.yul\":3050:3052   */\n      0x40\n        /* \"#utility.yul\":3038:3047   */\n      dup4\n        /* \"#utility.yul\":3029:3036   */\n      dup6\n        /* \"#utility.yul\":3025:3048   */\n      sub\n        /* \"#utility.yul\":3021:3053   */\n      slt\n        /* \"#utility.yul\":3018:3070   */\n      iszero\n      tag_86\n      jumpi\n        /* \"#utility.yul\":3066:3067   */\n      0x00\n        /* \"#utility.yul\":3063:3064   */\n      dup1\n        /* \"#utility.yul\":3056:3068   */\n      revert\n        /* \"#utility.yul\":3018:3070   */\n    tag_86:\n        /* \"#utility.yul\":3106:3115   */\n      dup3\n        /* \"#utility.yul\":3093:3116   */\n      calldataload\n        /* \"#utility.yul\":3139:3157   */\n      0xffffffffffffffff\n        /* \"#utility.yul\":3131:3137   */\n      dup2\n        /* \"#utility.yul\":3128:3158   */\n      gt\n        /* \"#utility.yul\":3125:3175   */\n      iszero\n      tag_87\n      jumpi\n        /* \"#utility.yul\":3171:3172   */\n      0x00\n        /* \"#utility.yul\":3168:3169   */\n      dup1\n        /* \"#utility.yul\":3161:3173   */\n      revert\n        /* \"#utility.yul\":3125:3175   */\n    tag_87:\n        /* \"#utility.yul\":3194:3244   */\n      tag_88\n        /* \"#utility.yul\":3236:3243   */\n      dup6\n        /* \"#utility.yul\":3227:3233   */\n      dup3\n        /* \"#utility.yul\":3216:3225   */\n      dup7\n        /* \"#utility.yul\":3212:3234   */\n      add\n        /* \"#utility.yul\":3194:3244   */\n      tag_57\n      jump\t// in\n    tag_88:\n        /* \"#utility.yul\":3184:3244   */\n      swap3\n      pop\n      pop\n        /* \"#utility.yul\":3294:3296   */\n      0x20\n        /* \"#utility.yul\":3279:3297   */\n      dup4\n      add\n        /* \"#utility.yul\":3266:3298   */\n      calldataload\n      sub(shl(0xa0, 0x01), 0x01)\n        /* \"#utility.yul\":3327:3358   */\n      dup2\n      and\n        /* \"#utility.yul\":3317:3359   */\n      dup2\n      eq\n        /* \"#utility.yul\":3307:3377   */\n      tag_89\n      jumpi\n        /* \"#utility.yul\":3373:3374   */\n      0x00\n        /* \"#utility.yul\":3370:3371   */\n      dup1\n        /* \"#utility.yul\":3363:3375   */\n      revert\n        /* \"#utility.yul\":3307:3377   */\n    tag_89:\n        /* \"#utility.yul\":3396:3401   */\n      dup1\n        /* \"#utility.yul\":3386:3401   */\n      swap2\n      pop\n      pop\n        /* \"#utility.yul\":2911:3407   */\n      swap3\n      pop\n      swap3\n      swap1\n      pop\n      jump\t// out\n        /* \"#utility.yul\":3412:3701   */\n    tag_24:\n        /* \"#utility.yul\":3543:3546   */\n      0x00\n        /* \"#utility.yul\":3581:3587   */\n      dup3\n        /* \"#utility.yul\":3575:3588   */\n      mload\n        /* \"#utility.yul\":3597:3663   */\n      tag_91\n        /* \"#utility.yul\":3656:3662   */\n      dup2\n        /* \"#utility.yul\":3651:3654   */\n      dup5\n        /* \"#utility.yul\":3644:3648   */\n      0x20\n        /* \"#utility.yul\":3636:3642   */\n      dup8\n        /* \"#utility.yul\":3632:3649   */\n      add\n        /* \"#utility.yul\":3597:3663   */\n      tag_58\n      jump\t// in\n    tag_91:\n        /* \"#utility.yul\":3679:3695   */\n      swap2\n      swap1\n      swap2\n      add\n      swap3\n        /* \"#utility.yul\":3412:3701   */\n      swap2\n      pop\n      pop\n      jump\t// out\n        /* \"#utility.yul\":3706:4086   */\n    tag_26:\n        /* \"#utility.yul\":3785:3786   */\n      0x01\n        /* \"#utility.yul\":3781:3793   */\n      dup2\n      dup2\n      shr\n      swap1\n        /* \"#utility.yul\":3828:3840   */\n      dup3\n      and\n      dup1\n        /* \"#utility.yul\":3849:3910   */\n      tag_93\n      jumpi\n        /* \"#utility.yul\":3903:3907   */\n      0x7f\n        /* \"#utility.yul\":3895:3901   */\n      dup3\n        /* \"#utility.yul\":3891:3908   */\n      and\n        /* \"#utility.yul\":3881:3908   */\n      swap2\n      pop\n        /* \"#utility.yul\":3849:3910   */\n    tag_93:\n        /* \"#utility.yul\":3956:3958   */\n      0x20\n        /* \"#utility.yul\":3948:3954   */\n      dup3\n        /* \"#utility.yul\":3945:3959   */\n      lt\n        /* \"#utility.yul\":3925:3943   */\n      dup2\n        /* \"#utility.yul\":3922:3960   */\n      sub\n        /* \"#utility.yul\":3919:4080   */\n      tag_94\n      jumpi\n        /* \"#utility.yul\":4002:4012   */\n      0x4e487b71\n        /* \"#utility.yul\":3997:4000   */\n      0xe0\n        /* \"#utility.yul\":3993:4013   */\n      shl\n        /* \"#utility.yul\":3990:3991   */\n      0x00\n        /* \"#utility.yul\":3983:4014   */\n      mstore\n        /* \"#utility.yul\":4037:4041   */\n      0x22\n        /* \"#utility.yul\":4034:4035   */\n      0x04\n        /* \"#utility.yul\":4027:4042   */\n      mstore\n        /* \"#utility.yul\":4065:4069   */\n      0x24\n        /* \"#utility.yul\":4062:4063   */\n      0x00\n        /* \"#utility.yul\":4055:4070   */\n      revert\n        /* \"#utility.yul\":3919:4080   */\n    tag_94:\n      pop\n        /* \"#utility.yul\":3706:4086   */\n      swap2\n      swap1\n      pop\n      jump\t// out\n        /* \"#utility.yul\":5533:6051   */\n    tag_61:\n        /* \"#utility.yul\":5635:5637   */\n      0x1f\n        /* \"#utility.yul\":5630:5633   */\n      dup3\n        /* \"#utility.yul\":5627:5638   */\n      gt\n        /* \"#utility.yul\":5624:6045   */\n      iszero\n      tag_101\n      jumpi\n        /* \"#utility.yul\":5671:5676   */\n      dup1\n        /* \"#utility.yul\":5668:5669   */\n      0x00\n        /* \"#utility.yul\":5661:5677   */\n      mstore\n        /* \"#utility.yul\":5715:5719   */\n      0x20\n        /* \"#utility.yul\":5712:5713   */\n      0x00\n        /* \"#utility.yul\":5702:5720   */\n      keccak256\n        /* \"#utility.yul\":5785:5787   */\n      0x1f\n        /* \"#utility.yul\":5773:5783   */\n      dup5\n        /* \"#utility.yul\":5769:5788   */\n      add\n        /* \"#utility.yul\":5766:5767   */\n      0x05\n        /* \"#utility.yul\":5762:5789   */\n      shr\n        /* \"#utility.yul\":5756:5760   */\n      dup2\n        /* \"#utility.yul\":5752:5790   */\n      add\n        /* \"#utility.yul\":5821:5825   */\n      0x20\n        /* \"#utility.yul\":5809:5819   */\n      dup6\n        /* \"#utility.yul\":5806:5826   */\n      lt\n        /* \"#utility.yul\":5803:5850   */\n      iszero\n      tag_102\n      jumpi\n      pop\n        /* \"#utility.yul\":5844:5848   */\n      dup1\n        /* \"#utility.yul\":5803:5850   */\n    tag_102:\n        /* \"#utility.yul\":5899:5901   */\n      0x1f\n        /* \"#utility.yul\":5894:5897   */\n      dup5\n        /* \"#utility.yul\":5890:5902   */\n      add\n        /* \"#utility.yul\":5887:5888   */\n      0x05\n        /* \"#utility.yul\":5883:5903   */\n      shr\n        /* \"#utility.yul\":5877:5881   */\n      dup3\n        /* \"#utility.yul\":5873:5904   */\n      add\n        /* \"#utility.yul\":5863:5904   */\n      swap2\n      pop\n        /* \"#utility.yul\":5954:6035   */\n    tag_103:\n        /* \"#utility.yul\":5972:5974   */\n      dup2\n        /* \"#utility.yul\":5965:5970   */\n      dup2\n        /* \"#utility.yul\":5962:5975   */\n      lt\n        /* \"#utility.yul\":5954:6035   */\n      iszero\n      tag_105\n      jumpi\n        /* \"#utility.yul\":6031:6032   */\n      0x00\n        /* \"#utility.yul\":6017:6033   */\n      dup2\n      sstore\n        /* \"#utility.yul\":5998:5999   */\n      0x01\n        /* \"#utility.yul\":5987:6000   */\n      add\n        /* \"#utility.yul\":5954:6035   */\n      jump(tag_103)\n    tag_105:\n        /* \"#utility.yul\":5958:5961   */\n      pop\n      pop\n        /* \"#utility.yul\":5624:6045   */\n    tag_101:\n        /* \"#utility.yul\":5533:6051   */\n      pop\n      pop\n      pop\n      jump\t// out\n        /* \"#utility.yul\":6227:7526   */\n    tag_53:\n        /* \"#utility.yul\":6353:6356   */\n      dup2\n        /* \"#utility.yul\":6347:6357   */\n      mload\n        /* \"#utility.yul\":6380:6398   */\n      0xffffffffffffffff\n        /* \"#utility.yul\":6372:6378   */\n      dup2\n        /* \"#utility.yul\":6369:6399   */\n      gt\n        /* \"#utility.yul\":6366:6422   */\n      iszero\n      tag_109\n      jumpi\n        /* \"#utility.yul\":6402:6420   */\n      tag_109\n      tag_56\n      jump\t// in\n    tag_109:\n        /* \"#utility.yul\":6431:6528   */\n      tag_110\n        /* \"#utility.yul\":6521:6527   */\n      dup2\n        /* \"#utility.yul\":6481:6519   */\n      tag_111\n        /* \"#utility.yul\":6513:6517   */\n      dup5\n        /* \"#utility.yul\":6507:6518   */\n      sload\n        /* \"#utility.yul\":6481:6519   */\n      tag_26\n      jump\t// in\n    tag_111:\n        /* \"#utility.yul\":6475:6479   */\n      dup5\n        /* \"#utility.yul\":6431:6528   */\n      tag_61\n      jump\t// in\n    tag_110:\n        /* \"#utility.yul\":6577:6581   */\n      0x20\n        /* \"#utility.yul\":6608:6610   */\n      0x1f\n        /* \"#utility.yul\":6597:6611   */\n      dup3\n      gt\n        /* \"#utility.yul\":6625:6626   */\n      0x01\n        /* \"#utility.yul\":6620:7269   */\n      dup2\n      eq\n      tag_113\n      jumpi\n        /* \"#utility.yul\":7313:7314   */\n      0x00\n        /* \"#utility.yul\":7330:7336   */\n      dup4\n        /* \"#utility.yul\":7327:7416   */\n      iszero\n      tag_114\n      jumpi\n      pop\n        /* \"#utility.yul\":7382:7401   */\n      dup5\n      dup3\n      add\n        /* \"#utility.yul\":7376:7402   */\n      mload\n        /* \"#utility.yul\":7327:7416   */\n    tag_114:\n      not(0x00)\n        /* \"#utility.yul\":6184:6185   */\n      0x03\n        /* \"#utility.yul\":6180:6191   */\n      dup6\n      swap1\n      shl\n        /* \"#utility.yul\":6176:6200   */\n      shr\n        /* \"#utility.yul\":6172:6201   */\n      not\n        /* \"#utility.yul\":6162:6202   */\n      and\n        /* \"#utility.yul\":6208:6209   */\n      0x01\n        /* \"#utility.yul\":6204:6215   */\n      dup5\n      swap1\n      shl\n        /* \"#utility.yul\":6159:6216   */\n      or\n        /* \"#utility.yul\":7429:7510   */\n      dup5\n      sstore\n        /* \"#utility.yul\":6590:7520   */\n      jump(tag_105)\n        /* \"#utility.yul\":6620:7269   */\n    tag_113:\n        /* \"#utility.yul\":5480:5481   */\n      0x00\n        /* \"#utility.yul\":5473:5487   */\n      dup5\n      dup2\n      mstore\n        /* \"#utility.yul\":5517:5521   */\n      0x20\n        /* \"#utility.yul\":5504:5522   */\n      dup2\n      keccak256\n      not(0x1f)\n        /* \"#utility.yul\":6656:6676   */\n      dup6\n      and\n      swap2\n        /* \"#utility.yul\":6774:6996   */\n    tag_117:\n        /* \"#utility.yul\":6788:6795   */\n      dup3\n        /* \"#utility.yul\":6785:6786   */\n      dup2\n        /* \"#utility.yul\":6782:6796   */\n      lt\n        /* \"#utility.yul\":6774:6996   */\n      iszero\n      tag_119\n      jumpi\n        /* \"#utility.yul\":6870:6889   */\n      dup8\n      dup6\n      add\n        /* \"#utility.yul\":6864:6890   */\n      mload\n        /* \"#utility.yul\":6849:6891   */\n      dup3\n      sstore\n        /* \"#utility.yul\":6977:6981   */\n      0x20\n        /* \"#utility.yul\":6962:6982   */\n      swap5\n      dup6\n      add\n      swap5\n        /* \"#utility.yul\":6930:6931   */\n      0x01\n        /* \"#utility.yul\":6918:6932   */\n      swap1\n      swap3\n      add\n      swap2\n        /* \"#utility.yul\":6804:6816   */\n      add\n        /* \"#utility.yul\":6774:6996   */\n      jump(tag_117)\n    tag_119:\n        /* \"#utility.yul\":6778:6781   */\n      pop\n        /* \"#utility.yul\":7024:7030   */\n      dup5\n        /* \"#utility.yul\":7015:7022   */\n      dup3\n        /* \"#utility.yul\":7012:7031   */\n      lt\n        /* \"#utility.yul\":7009:7210   */\n      iszero\n      tag_120\n      jumpi\n        /* \"#utility.yul\":7085:7104   */\n      dup7\n      dup5\n      add\n        /* \"#utility.yul\":7079:7105   */\n      mload\n      not(0x00)\n        /* \"#utility.yul\":7168:7169   */\n      0x03\n        /* \"#utility.yul\":7164:7178   */\n      dup8\n      swap1\n      shl\n        /* \"#utility.yul\":7180:7183   */\n      0xf8\n        /* \"#utility.yul\":7160:7184   */\n      and\n        /* \"#utility.yul\":7156:7193   */\n      shr\n        /* \"#utility.yul\":7152:7194   */\n      not\n        /* \"#utility.yul\":7137:7195   */\n      and\n        /* \"#utility.yul\":7122:7196   */\n      dup2\n      sstore\n        /* \"#utility.yul\":7009:7210   */\n    tag_120:\n      pop\n      pop\n      pop\n      pop\n        /* \"#utility.yul\":7256:7257   */\n      0x01\n        /* \"#utility.yul\":7240:7254   */\n      swap1\n      dup2\n      shl\n        /* \"#utility.yul\":7236:7258   */\n      add\n        /* \"#utility.yul\":7223:7259   */\n      swap1\n      sstore\n      pop\n        /* \"#utility.yul\":6227:7526   */\n      jump\t// out\n        /* \"#utility.yul\":7531:8090   */\n    tag_55:\n        /* \"#utility.yul\":7792:7795   */\n      0xa0\n        /* \"#utility.yul\":7781:7790   */\n      dup2\n        /* \"#utility.yul\":7774:7796   */\n      mstore\n        /* \"#utility.yul\":7755:7759   */\n      0x00\n        /* \"#utility.yul\":7813:7859   */\n      tag_122\n        /* \"#utility.yul\":7854:7857   */\n      0xa0\n        /* \"#utility.yul\":7843:7852   */\n      dup4\n        /* \"#utility.yul\":7839:7858   */\n      add\n        /* \"#utility.yul\":7831:7837   */\n      dup9\n        /* \"#utility.yul\":7813:7859   */\n      tag_59\n      jump\t// in\n    tag_122:\n      sub(shl(0xa0, 0x01), 0x01)\n        /* \"#utility.yul\":7895:7927   */\n      swap7\n      dup8\n      and\n        /* \"#utility.yul\":7890:7892   */\n      0x20\n        /* \"#utility.yul\":7875:7893   */\n      dup5\n      add\n        /* \"#utility.yul\":7868:7928   */\n      mstore\n        /* \"#utility.yul\":7964:7996   */\n      swap5\n      swap1\n      swap6\n      and\n        /* \"#utility.yul\":7959:7961   */\n      0x40\n        /* \"#utility.yul\":7944:7962   */\n      dup3\n      add\n        /* \"#utility.yul\":7937:7997   */\n      mstore\n        /* \"#utility.yul\":8028:8030   */\n      0x60\n        /* \"#utility.yul\":8013:8031   */\n      dup2\n      add\n        /* \"#utility.yul\":8006:8040   */\n      swap3\n      swap1\n      swap3\n      mstore\n        /* \"#utility.yul\":8071:8074   */\n      0x80\n        /* \"#utility.yul\":8056:8075   */\n      swap1\n      swap2\n      add\n        /* \"#utility.yul\":8049:8084   */\n      mstore\n        /* \"#utility.yul\":7805:7859   */\n      swap3\n        /* \"#utility.yul\":7531:8090   */\n      swap2\n      pop\n      pop\n      jump\t// out\n\n    auxdata: 0xa2646970667358221220b9c070f465e3e605d184eaec6ea6c552b4bd9f3dd829c900ff4579becf91acf964736f6c634300081a0033\n}\n",
				"bytecode": {
					"linkReferences": {},
					"object": "6080604052348015600e575f80fd5b506108cc8061001c5f395ff3fe608060405260043610610033575f3560e01c8063314ba619146100375780636f9a98fb14610090578063fc5eb694146100c1575b5f80fd5b348015610042575f80fd5b506100566100513660046105ce565b6100d6565b604080516001600160a01b0396871681529590941660208601529284019190915260608301521515608082015260a0015b60405180910390f35b34801561009b575f80fd5b506100af6100aa3660046105ce565b610203565b60405161008796959493929190610655565b6100d46100cf3660046106a3565b6102db565b005b5f805f805f805f876040516100eb91906106fd565b90815260408051918290036020908101832060c08401835280546001600160a01b039081168552600182015416918401919091526002810154918301919091526003810154606083015260048101805460808401919061014a90610718565b80601f016020809104026020016040519081016040528092919081815260200182805461017690610718565b80156101c15780601f10610198576101008083540402835291602001916101c1565b820191905f5260205f20905b8154815290600101906020018083116101a457829003601f168201915b50505091835250506005919091015460ff1615156020918201528151908201516040830151606084015160a090940151929b919a509850919650945092505050565b8051808201602090810180515f82529282019190930120915280546001820154600283015460038401546004850180546001600160a01b039586169694909516949293919261025190610718565b80601f016020809104026020016040519081016040528092919081815260200182805461027d90610718565b80156102c85780601f1061029f576101008083540402835291602001916102c8565b820191905f5260205f20905b8154815290600101906020018083116102ab57829003601f168201915b5050506005909301549192505060ff1686565b5f341161033d5760405162461bcd60e51b815260206004820152602560248201527f5061796d656e7420616d6f756e74206d75737420626520677265617465722074604482015264068616e20360dc1b60648201526084015b60405180910390fd5b6001600160a01b03811661038c5760405162461bcd60e51b8152602060048201526016602482015275496e76616c69642073656c6c6572206164647265737360501b6044820152606401610334565b5f816001600160a01b0316346040515f6040518083038185875af1925050503d805f81146103d5576040519150601f19603f3d011682016040523d82523d5f602084013e6103da565b606091505b50509050806104225760405162461bcd60e51b81526020600482015260146024820152732330b4b632b2103a379039b2b7321022ba3432b960611b6044820152606401610334565b6040805160c0810182523381526001600160a01b0384166020820152348183015242606082015260808101859052600160a082015290515f906104669086906106fd565b9081526040805160209281900383019020835181546001600160a01b03199081166001600160a01b0392831617835593850151600183018054909516911617909255820151600282015560608201516003820155608082015160048201906104ce908261079c565b5060a091909101516005909101805460ff19169115159190911790556040517fcac3a3eb52e8c1cf41761773d43815c2a678d982d7d13a41e825638a297d2b65906105229085903390869034904290610857565b60405180910390a1505050565b634e487b7160e01b5f52604160045260245ffd5b5f82601f830112610552575f80fd5b813567ffffffffffffffff81111561056c5761056c61052f565b604051601f8201601f19908116603f0116810167ffffffffffffffff8111828210171561059b5761059b61052f565b6040528181528382016020018510156105b2575f80fd5b816020850160208301375f918101602001919091529392505050565b5f602082840312156105de575f80fd5b813567ffffffffffffffff8111156105f4575f80fd5b61060084828501610543565b949350505050565b5f5b8381101561062257818101518382015260200161060a565b50505f910152565b5f8151808452610641816020860160208601610608565b601f01601f19169290920160200192915050565b6001600160a01b03878116825286166020820152604081018590526060810184905260c0608082018190525f9061068e9083018561062a565b905082151560a0830152979650505050505050565b5f80604083850312156106b4575f80fd5b823567ffffffffffffffff8111156106ca575f80fd5b6106d685828601610543565b92505060208301356001600160a01b03811681146106f2575f80fd5b809150509250929050565b5f825161070e818460208701610608565b9190910192915050565b600181811c9082168061072c57607f821691505b60208210810361074a57634e487b7160e01b5f52602260045260245ffd5b50919050565b601f82111561079757805f5260205f20601f840160051c810160208510156107755750805b601f840160051c820191505b81811015610794575f8155600101610781565b50505b505050565b815167ffffffffffffffff8111156107b6576107b661052f565b6107ca816107c48454610718565b84610750565b6020601f8211600181146107fc575f83156107e55750848201515b5f19600385901b1c1916600184901b178455610794565b5f84815260208120601f198516915b8281101561082b578785015182556020948501946001909201910161080b565b508482101561084857868401515f19600387901b60f8161c191681555b50505050600190811b01905550565b60a081525f61086960a083018861062a565b6001600160a01b03968716602084015294909516604082015260608101929092526080909101529291505056fea2646970667358221220b9c070f465e3e605d184eaec6ea6c552b4bd9f3dd829c900ff4579becf91acf964736f6c634300081a0033",
					"opcodes": "PUSH1 0x80 PUSH1 0x40 MSTORE CALLVALUE DUP1 ISZERO PUSH1 0xE JUMPI PUSH0 DUP1 REVERT JUMPDEST POP PUSH2 0x8CC DUP1 PUSH2 0x1C PUSH0 CODECOPY PUSH0 RETURN INVALID PUSH1 0x80 PUSH1 0x40 MSTORE PUSH1 0x4 CALLDATASIZE LT PUSH2 0x33 JUMPI PUSH0 CALLDATALOAD PUSH1 0xE0 SHR DUP1 PUSH4 0x314BA619 EQ PUSH2 0x37 JUMPI DUP1 PUSH4 0x6F9A98FB EQ PUSH2 0x90 JUMPI DUP1 PUSH4 0xFC5EB694 EQ PUSH2 0xC1 JUMPI JUMPDEST PUSH0 DUP1 REVERT JUMPDEST CALLVALUE DUP1 ISZERO PUSH2 0x42 JUMPI PUSH0 DUP1 REVERT JUMPDEST POP PUSH2 0x56 PUSH2 0x51 CALLDATASIZE PUSH1 0x4 PUSH2 0x5CE JUMP JUMPDEST PUSH2 0xD6 JUMP JUMPDEST PUSH1 0x40 DUP1 MLOAD PUSH1 0x1 PUSH1 0x1 PUSH1 0xA0 SHL SUB SWAP7 DUP8 AND DUP2 MSTORE SWAP6 SWAP1 SWAP5 AND PUSH1 0x20 DUP7 ADD MSTORE SWAP3 DUP5 ADD SWAP2 SWAP1 SWAP2 MSTORE PUSH1 0x60 DUP4 ADD MSTORE ISZERO ISZERO PUSH1 0x80 DUP3 ADD MSTORE PUSH1 0xA0 ADD JUMPDEST PUSH1 0x40 MLOAD DUP1 SWAP2 SUB SWAP1 RETURN JUMPDEST CALLVALUE DUP1 ISZERO PUSH2 0x9B JUMPI PUSH0 DUP1 REVERT JUMPDEST POP PUSH2 0xAF PUSH2 0xAA CALLDATASIZE PUSH1 0x4 PUSH2 0x5CE JUMP JUMPDEST PUSH2 0x203 JUMP JUMPDEST PUSH1 0x40 MLOAD PUSH2 0x87 SWAP7 SWAP6 SWAP5 SWAP4 SWAP3 SWAP2 SWAP1 PUSH2 0x655 JUMP JUMPDEST PUSH2 0xD4 PUSH2 0xCF CALLDATASIZE PUSH1 0x4 PUSH2 0x6A3 JUMP JUMPDEST PUSH2 0x2DB JUMP JUMPDEST STOP JUMPDEST PUSH0 DUP1 PUSH0 DUP1 PUSH0 DUP1 PUSH0 DUP8 PUSH1 0x40 MLOAD PUSH2 0xEB SWAP2 SWAP1 PUSH2 0x6FD JUMP JUMPDEST SWAP1 DUP2 MSTORE PUSH1 0x40 DUP1 MLOAD SWAP2 DUP3 SWAP1 SUB PUSH1 0x20 SWAP1 DUP2 ADD DUP4 KECCAK256 PUSH1 0xC0 DUP5 ADD DUP4 MSTORE DUP1 SLOAD PUSH1 0x1 PUSH1 0x1 PUSH1 0xA0 SHL SUB SWAP1 DUP2 AND DUP6 MSTORE PUSH1 0x1 DUP3 ADD SLOAD AND SWAP2 DUP5 ADD SWAP2 SWAP1 SWAP2 MSTORE PUSH1 0x2 DUP2 ADD SLOAD SWAP2 DUP4 ADD SWAP2 SWAP1 SWAP2 MSTORE PUSH1 0x3 DUP2 ADD SLOAD PUSH1 0x60 DUP4 ADD MSTORE PUSH1 0x4 DUP2 ADD DUP1 SLOAD PUSH1 0x80 DUP5 ADD SWAP2 SWAP1 PUSH2 0x14A SWAP1 PUSH2 0x718 JUMP JUMPDEST DUP1 PUSH1 0x1F ADD PUSH1 0x20 DUP1 SWAP2 DIV MUL PUSH1 0x20 ADD PUSH1 0x40 MLOAD SWAP1 DUP2 ADD PUSH1 0x40 MSTORE DUP1 SWAP3 SWAP2 SWAP1 DUP2 DUP2 MSTORE PUSH1 0x20 ADD DUP3 DUP1 SLOAD PUSH2 0x176 SWAP1 PUSH2 0x718 JUMP JUMPDEST DUP1 ISZERO PUSH2 0x1C1 JUMPI DUP1 PUSH1 0x1F LT PUSH2 0x198 JUMPI PUSH2 0x100 DUP1 DUP4 SLOAD DIV MUL DUP4 MSTORE SWAP2 PUSH1 0x20 ADD SWAP2 PUSH2 0x1C1 JUMP JUMPDEST DUP3 ADD SWAP2 SWAP1 PUSH0 MSTORE PUSH1 0x20 PUSH0 KECCAK256 SWAP1 JUMPDEST DUP2 SLOAD DUP2 MSTORE SWAP1 PUSH1 0x1 ADD SWAP1 PUSH1 0x20 ADD DUP1 DUP4 GT PUSH2 0x1A4 JUMPI DUP3 SWAP1 SUB PUSH1 0x1F AND DUP3 ADD SWAP2 JUMPDEST POP POP POP SWAP2 DUP4 MSTORE POP POP PUSH1 0x5 SWAP2 SWAP1 SWAP2 ADD SLOAD PUSH1 0xFF AND ISZERO ISZERO PUSH1 0x20 SWAP2 DUP3 ADD MSTORE DUP2 MLOAD SWAP1 DUP3 ADD MLOAD PUSH1 0x40 DUP4 ADD MLOAD PUSH1 0x60 DUP5 ADD MLOAD PUSH1 0xA0 SWAP1 SWAP5 ADD MLOAD SWAP3 SWAP12 SWAP2 SWAP11 POP SWAP9 POP SWAP2 SWAP7 POP SWAP5 POP SWAP3 POP POP POP JUMP JUMPDEST DUP1 MLOAD DUP1 DUP3 ADD PUSH1 0x20 SWAP1 DUP2 ADD DUP1 MLOAD PUSH0 DUP3 MSTORE SWAP3 DUP3 ADD SWAP2 SWAP1 SWAP4 ADD KECCAK256 SWAP2 MSTORE DUP1 SLOAD PUSH1 0x1 DUP3 ADD SLOAD PUSH1 0x2 DUP4 ADD SLOAD PUSH1 0x3 DUP5 ADD SLOAD PUSH1 0x4 DUP6 ADD DUP1 SLOAD PUSH1 0x1 PUSH1 0x1 PUSH1 0xA0 SHL SUB SWAP6 DUP7 AND SWAP7 SWAP5 SWAP1 SWAP6 AND SWAP5 SWAP3 SWAP4 SWAP2 SWAP3 PUSH2 0x251 SWAP1 PUSH2 0x718 JUMP JUMPDEST DUP1 PUSH1 0x1F ADD PUSH1 0x20 DUP1 SWAP2 DIV MUL PUSH1 0x20 ADD PUSH1 0x40 MLOAD SWAP1 DUP2 ADD PUSH1 0x40 MSTORE DUP1 SWAP3 SWAP2 SWAP1 DUP2 DUP2 MSTORE PUSH1 0x20 ADD DUP3 DUP1 SLOAD PUSH2 0x27D SWAP1 PUSH2 0x718 JUMP JUMPDEST DUP1 ISZERO PUSH2 0x2C8 JUMPI DUP1 PUSH1 0x1F LT PUSH2 0x29F JUMPI PUSH2 0x100 DUP1 DUP4 SLOAD DIV MUL DUP4 MSTORE SWAP2 PUSH1 0x20 ADD SWAP2 PUSH2 0x2C8 JUMP JUMPDEST DUP3 ADD SWAP2 SWAP1 PUSH0 MSTORE PUSH1 0x20 PUSH0 KECCAK256 SWAP1 JUMPDEST DUP2 SLOAD DUP2 MSTORE SWAP1 PUSH1 0x1 ADD SWAP1 PUSH1 0x20 ADD DUP1 DUP4 GT PUSH2 0x2AB JUMPI DUP3 SWAP1 SUB PUSH1 0x1F AND DUP3 ADD SWAP2 JUMPDEST POP POP POP PUSH1 0x5 SWAP1 SWAP4 ADD SLOAD SWAP2 SWAP3 POP POP PUSH1 0xFF AND DUP7 JUMP JUMPDEST PUSH0 CALLVALUE GT PUSH2 0x33D JUMPI PUSH1 0x40 MLOAD PUSH3 0x461BCD PUSH1 0xE5 SHL DUP2 MSTORE PUSH1 0x20 PUSH1 0x4 DUP3 ADD MSTORE PUSH1 0x25 PUSH1 0x24 DUP3 ADD MSTORE PUSH32 0x5061796D656E7420616D6F756E74206D75737420626520677265617465722074 PUSH1 0x44 DUP3 ADD MSTORE PUSH5 0x68616E203 PUSH1 0xDC SHL PUSH1 0x64 DUP3 ADD MSTORE PUSH1 0x84 ADD JUMPDEST PUSH1 0x40 MLOAD DUP1 SWAP2 SUB SWAP1 REVERT JUMPDEST PUSH1 0x1 PUSH1 0x1 PUSH1 0xA0 SHL SUB DUP2 AND PUSH2 0x38C JUMPI PUSH1 0x40 MLOAD PUSH3 0x461BCD PUSH1 0xE5 SHL DUP2 MSTORE PUSH1 0x20 PUSH1 0x4 DUP3 ADD MSTORE PUSH1 0x16 PUSH1 0x24 DUP3 ADD MSTORE PUSH22 0x496E76616C69642073656C6C65722061646472657373 PUSH1 0x50 SHL PUSH1 0x44 DUP3 ADD MSTORE PUSH1 0x64 ADD PUSH2 0x334 JUMP JUMPDEST PUSH0 DUP2 PUSH1 0x1 PUSH1 0x1 PUSH1 0xA0 SHL SUB AND CALLVALUE PUSH1 0x40 MLOAD PUSH0 PUSH1 0x40 MLOAD DUP1 DUP4 SUB DUP2 DUP6 DUP8 GAS CALL SWAP3 POP POP POP RETURNDATASIZE DUP1 PUSH0 DUP2 EQ PUSH2 0x3D5 JUMPI PUSH1 0x40 MLOAD SWAP2 POP PUSH1 0x1F NOT PUSH1 0x3F RETURNDATASIZE ADD AND DUP3 ADD PUSH1 0x40 MSTORE RETURNDATASIZE DUP3 MSTORE RETURNDATASIZE PUSH0 PUSH1 0x20 DUP5 ADD RETURNDATACOPY PUSH2 0x3DA JUMP JUMPDEST PUSH1 0x60 SWAP2 POP JUMPDEST POP POP SWAP1 POP DUP1 PUSH2 0x422 JUMPI PUSH1 0x40 MLOAD PUSH3 0x461BCD PUSH1 0xE5 SHL DUP2 MSTORE PUSH1 0x20 PUSH1 0x4 DUP3 ADD MSTORE PUSH1 0x14 PUSH1 0x24 DUP3 ADD MSTORE PUSH20 0x2330B4B632B2103A379039B2B7321022BA3432B9 PUSH1 0x61 SHL PUSH1 0x44 DUP3 ADD MSTORE PUSH1 0x64 ADD PUSH2 0x334 JUMP JUMPDEST PUSH1 0x40 DUP1 MLOAD PUSH1 0xC0 DUP2 ADD DUP3 MSTORE CALLER DUP2 MSTORE PUSH1 0x1 PUSH1 0x1 PUSH1 0xA0 SHL SUB DUP5 AND PUSH1 0x20 DUP3 ADD MSTORE CALLVALUE DUP2 DUP4 ADD MSTORE TIMESTAMP PUSH1 0x60 DUP3 ADD MSTORE PUSH1 0x80 DUP2 ADD DUP6 SWAP1 MSTORE PUSH1 0x1 PUSH1 0xA0 DUP3 ADD MSTORE SWAP1 MLOAD PUSH0 SWAP1 PUSH2 0x466 SWAP1 DUP7 SWAP1 PUSH2 0x6FD JUMP JUMPDEST SWAP1 DUP2 MSTORE PUSH1 0x40 DUP1 MLOAD PUSH1 0x20 SWAP3 DUP2 SWAP1 SUB DUP4 ADD SWAP1 KECCAK256 DUP4 MLOAD DUP2 SLOAD PUSH1 0x1 PUSH1 0x1 PUSH1 0xA0 SHL SUB NOT SWAP1 DUP2 AND PUSH1 0x1 PUSH1 0x1 PUSH1 0xA0 SHL SUB SWAP3 DUP4 AND OR DUP4 SSTORE SWAP4 DUP6 ADD MLOAD PUSH1 0x1 DUP4 ADD DUP1 SLOAD SWAP1 SWAP6 AND SWAP2 AND OR SWAP1 SWAP3 SSTORE DUP3 ADD MLOAD PUSH1 0x2 DUP3 ADD SSTORE PUSH1 0x60 DUP3 ADD MLOAD PUSH1 0x3 DUP3 ADD SSTORE PUSH1 0x80 DUP3 ADD MLOAD PUSH1 0x4 DUP3 ADD SWAP1 PUSH2 0x4CE SWAP1 DUP3 PUSH2 0x79C JUMP JUMPDEST POP PUSH1 0xA0 SWAP2 SWAP1 SWAP2 ADD MLOAD PUSH1 0x5 SWAP1 SWAP2 ADD DUP1 SLOAD PUSH1 0xFF NOT AND SWAP2 ISZERO ISZERO SWAP2 SWAP1 SWAP2 OR SWAP1 SSTORE PUSH1 0x40 MLOAD PUSH32 0xCAC3A3EB52E8C1CF41761773D43815C2A678D982D7D13A41E825638A297D2B65 SWAP1 PUSH2 0x522 SWAP1 DUP6 SWAP1 CALLER SWAP1 DUP7 SWAP1 CALLVALUE SWAP1 TIMESTAMP SWAP1 PUSH2 0x857 JUMP JUMPDEST PUSH1 0x40 MLOAD DUP1 SWAP2 SUB SWAP1 LOG1 POP POP POP JUMP JUMPDEST PUSH4 0x4E487B71 PUSH1 0xE0 SHL PUSH0 MSTORE PUSH1 0x41 PUSH1 0x4 MSTORE PUSH1 0x24 PUSH0 REVERT JUMPDEST PUSH0 DUP3 PUSH1 0x1F DUP4 ADD SLT PUSH2 0x552 JUMPI PUSH0 DUP1 REVERT JUMPDEST DUP2 CALLDATALOAD PUSH8 0xFFFFFFFFFFFFFFFF DUP2 GT ISZERO PUSH2 0x56C JUMPI PUSH2 0x56C PUSH2 0x52F JUMP JUMPDEST PUSH1 0x40 MLOAD PUSH1 0x1F DUP3 ADD PUSH1 0x1F NOT SWAP1 DUP2 AND PUSH1 0x3F ADD AND DUP2 ADD PUSH8 0xFFFFFFFFFFFFFFFF DUP2 GT DUP3 DUP3 LT OR ISZERO PUSH2 0x59B JUMPI PUSH2 0x59B PUSH2 0x52F JUMP JUMPDEST PUSH1 0x40 MSTORE DUP2 DUP2 MSTORE DUP4 DUP3 ADD PUSH1 0x20 ADD DUP6 LT ISZERO PUSH2 0x5B2 JUMPI PUSH0 DUP1 REVERT JUMPDEST DUP2 PUSH1 0x20 DUP6 ADD PUSH1 0x20 DUP4 ADD CALLDATACOPY PUSH0 SWAP2 DUP2 ADD PUSH1 0x20 ADD SWAP2 SWAP1 SWAP2 MSTORE SWAP4 SWAP3 POP POP POP JUMP JUMPDEST PUSH0 PUSH1 0x20 DUP3 DUP5 SUB SLT ISZERO PUSH2 0x5DE JUMPI PUSH0 DUP1 REVERT JUMPDEST DUP2 CALLDATALOAD PUSH8 0xFFFFFFFFFFFFFFFF DUP2 GT ISZERO PUSH2 0x5F4 JUMPI PUSH0 DUP1 REVERT JUMPDEST PUSH2 0x600 DUP5 DUP3 DUP6 ADD PUSH2 0x543 JUMP JUMPDEST SWAP5 SWAP4 POP POP POP POP JUMP JUMPDEST PUSH0 JUMPDEST DUP4 DUP2 LT ISZERO PUSH2 0x622 JUMPI DUP2 DUP2 ADD MLOAD DUP4 DUP3 ADD MSTORE PUSH1 0x20 ADD PUSH2 0x60A JUMP JUMPDEST POP POP PUSH0 SWAP2 ADD MSTORE JUMP JUMPDEST PUSH0 DUP2 MLOAD DUP1 DUP5 MSTORE PUSH2 0x641 DUP2 PUSH1 0x20 DUP7 ADD PUSH1 0x20 DUP7 ADD PUSH2 0x608 JUMP JUMPDEST PUSH1 0x1F ADD PUSH1 0x1F NOT AND SWAP3 SWAP1 SWAP3 ADD PUSH1 0x20 ADD SWAP3 SWAP2 POP POP JUMP JUMPDEST PUSH1 0x1 PUSH1 0x1 PUSH1 0xA0 SHL SUB DUP8 DUP2 AND DUP3 MSTORE DUP7 AND PUSH1 0x20 DUP3 ADD MSTORE PUSH1 0x40 DUP2 ADD DUP6 SWAP1 MSTORE PUSH1 0x60 DUP2 ADD DUP5 SWAP1 MSTORE PUSH1 0xC0 PUSH1 0x80 DUP3 ADD DUP2 SWAP1 MSTORE PUSH0 SWAP1 PUSH2 0x68E SWAP1 DUP4 ADD DUP6 PUSH2 0x62A JUMP JUMPDEST SWAP1 POP DUP3 ISZERO ISZERO PUSH1 0xA0 DUP4 ADD MSTORE SWAP8 SWAP7 POP POP POP POP POP POP POP JUMP JUMPDEST PUSH0 DUP1 PUSH1 0x40 DUP4 DUP6 SUB SLT ISZERO PUSH2 0x6B4 JUMPI PUSH0 DUP1 REVERT JUMPDEST DUP3 CALLDATALOAD PUSH8 0xFFFFFFFFFFFFFFFF DUP2 GT ISZERO PUSH2 0x6CA JUMPI PUSH0 DUP1 REVERT JUMPDEST PUSH2 0x6D6 DUP6 DUP3 DUP7 ADD PUSH2 0x543 JUMP JUMPDEST SWAP3 POP POP PUSH1 0x20 DUP4 ADD CALLDATALOAD PUSH1 0x1 PUSH1 0x1 PUSH1 0xA0 SHL SUB DUP2 AND DUP2 EQ PUSH2 0x6F2 JUMPI PUSH0 DUP1 REVERT JUMPDEST DUP1 SWAP2 POP POP SWAP3 POP SWAP3 SWAP1 POP JUMP JUMPDEST PUSH0 DUP3 MLOAD PUSH2 0x70E DUP2 DUP5 PUSH1 0x20 DUP8 ADD PUSH2 0x608 JUMP JUMPDEST SWAP2 SWAP1 SWAP2 ADD SWAP3 SWAP2 POP POP JUMP JUMPDEST PUSH1 0x1 DUP2 DUP2 SHR SWAP1 DUP3 AND DUP1 PUSH2 0x72C JUMPI PUSH1 0x7F DUP3 AND SWAP2 POP JUMPDEST PUSH1 0x20 DUP3 LT DUP2 SUB PUSH2 0x74A JUMPI PUSH4 0x4E487B71 PUSH1 0xE0 SHL PUSH0 MSTORE PUSH1 0x22 PUSH1 0x4 MSTORE PUSH1 0x24 PUSH0 REVERT JUMPDEST POP SWAP2 SWAP1 POP JUMP JUMPDEST PUSH1 0x1F DUP3 GT ISZERO PUSH2 0x797 JUMPI DUP1 PUSH0 MSTORE PUSH1 0x20 PUSH0 KECCAK256 PUSH1 0x1F DUP5 ADD PUSH1 0x5 SHR DUP2 ADD PUSH1 0x20 DUP6 LT ISZERO PUSH2 0x775 JUMPI POP DUP1 JUMPDEST PUSH1 0x1F DUP5 ADD PUSH1 0x5 SHR DUP3 ADD SWAP2 POP JUMPDEST DUP2 DUP2 LT ISZERO PUSH2 0x794 JUMPI PUSH0 DUP2 SSTORE PUSH1 0x1 ADD PUSH2 0x781 JUMP JUMPDEST POP POP JUMPDEST POP POP POP JUMP JUMPDEST DUP2 MLOAD PUSH8 0xFFFFFFFFFFFFFFFF DUP2 GT ISZERO PUSH2 0x7B6 JUMPI PUSH2 0x7B6 PUSH2 0x52F JUMP JUMPDEST PUSH2 0x7CA DUP2 PUSH2 0x7C4 DUP5 SLOAD PUSH2 0x718 JUMP JUMPDEST DUP5 PUSH2 0x750 JUMP JUMPDEST PUSH1 0x20 PUSH1 0x1F DUP3 GT PUSH1 0x1 DUP2 EQ PUSH2 0x7FC JUMPI PUSH0 DUP4 ISZERO PUSH2 0x7E5 JUMPI POP DUP5 DUP3 ADD MLOAD JUMPDEST PUSH0 NOT PUSH1 0x3 DUP6 SWAP1 SHL SHR NOT AND PUSH1 0x1 DUP5 SWAP1 SHL OR DUP5 SSTORE PUSH2 0x794 JUMP JUMPDEST PUSH0 DUP5 DUP2 MSTORE PUSH1 0x20 DUP2 KECCAK256 PUSH1 0x1F NOT DUP6 AND SWAP2 JUMPDEST DUP3 DUP2 LT ISZERO PUSH2 0x82B JUMPI DUP8 DUP6 ADD MLOAD DUP3 SSTORE PUSH1 0x20 SWAP5 DUP6 ADD SWAP5 PUSH1 0x1 SWAP1 SWAP3 ADD SWAP2 ADD PUSH2 0x80B JUMP JUMPDEST POP DUP5 DUP3 LT ISZERO PUSH2 0x848 JUMPI DUP7 DUP5 ADD MLOAD PUSH0 NOT PUSH1 0x3 DUP8 SWAP1 SHL PUSH1 0xF8 AND SHR NOT AND DUP2 SSTORE JUMPDEST POP POP POP POP PUSH1 0x1 SWAP1 DUP2 SHL ADD SWAP1 SSTORE POP JUMP JUMPDEST PUSH1 0xA0 DUP2 MSTORE PUSH0 PUSH2 0x869 PUSH1 0xA0 DUP4 ADD DUP9 PUSH2 0x62A JUMP JUMPDEST PUSH1 0x1 PUSH1 0x1 PUSH1 0xA0 SHL SUB SWAP7 DUP8 AND PUSH1 0x20 DUP5 ADD MSTORE SWAP5 SWAP1 SWAP6 AND PUSH1 0x40 DUP3 ADD MSTORE PUSH1 0x60 DUP2 ADD SWAP3 SWAP1 SWAP3 MSTORE PUSH1 0x80 SWAP1 SWAP2 ADD MSTORE SWAP3 SWAP2 POP POP JUMP INVALID LOG2 PUSH5 0x6970667358 0x22 SLT KECCAK256 0xB9 0xC0 PUSH17 0xF465E3E605D184EAEC6EA6C552B4BD9F3D 0xD8 0x29 0xC9 STOP SELFDESTRUCT GASLIMIT PUSH26 0xBECF91ACF964736F6C634300081A003300000000000000000000 "
				},
				"gasEstimates": {
					"creation": {
						"codeDepositCost": "450400",
						"executionCost": "484",
						"totalCost": "450884"
					},
					"external": {
						"getPurchaseDetails(string)": "infinite",
						"purchases(string)": "infinite",
						"recordPurchase(string,address)": "infinite"
					}
				},
				"methodIdentifiers": {
					"getPurchaseDetails(string)": "314ba619",
					"purchases(string)": "6f9a98fb",
					"recordPurchase(string,address)": "fc5eb694"
				}
			},
			"storageLayout": {
				"storage": [
					{
						"astId": 19,
						"contract": "contracts/Transaction.sol:Transaction",
						"label": "purchases",
						"offset": 0,
						"slot": "0",
						"type": "t_mapping(t_string_memory_ptr,t_struct(PurchaseRecord)14_storage)"
					}
				],
				"types": {
					"t_address": {
						"encoding": "inplace",
						"label": "address",
						"numberOfBytes": "20"
					},
					"t_bool": {
						"encoding": "inplace",
						"label": "bool",
						"numberOfBytes": "1"
					},
					"t_mapping(t_string_memory_ptr,t_struct(PurchaseRecord)14_storage)": {
						"encoding": "mapping",
						"key": "t_string_memory_ptr",
						"label": "mapping(string => struct Transaction.PurchaseRecord)",
						"numberOfBytes": "32",
						"value": "t_struct(PurchaseRecord)14_storage"
					},
					"t_string_memory_ptr": {
						"encoding": "bytes",
						"label": "string",
						"numberOfBytes": "32"
					},
					"t_string_storage": {
						"encoding": "bytes",
						"label": "string",
						"numberOfBytes": "32"
					},
					"t_struct(PurchaseRecord)14_storage": {
						"encoding": "inplace",
						"label": "struct Transaction.PurchaseRecord",
						"members": [
							{
								"astId": 3,
								"contract": "contracts/Transaction.sol:Transaction",
								"label": "buyer",
								"offset": 0,
								"slot": "0",
								"type": "t_address"
							},
							{
								"astId": 5,
								"contract": "contracts/Transaction.sol:Transaction",
								"label": "seller",
								"offset": 0,
								"slot": "1",
								"type": "t_address"
							},
							{
								"astId": 7,
								"contract": "contracts/Transaction.sol:Transaction",
								"label": "amount",
								"offset": 0,
								"slot": "2",
								"type": "t_uint256"
							},
							{
								"astId": 9,
								"contract": "contracts/Transaction.sol:Transaction",
								"label": "timestamp",
								"offset": 0,
								"slot": "3",
								"type": "t_uint256"
							},
							{
								"astId": 11,
								"contract": "contracts/Transaction.sol:Transaction",
								"label": "orderId",
								"offset": 0,
								"slot": "4",
								"type": "t_string_storage"
							},
							{
								"astId": 13,
								"contract": "contracts/Transaction.sol:Transaction",
								"label": "completed",
								"offset": 0,
								"slot": "5",
								"type": "t_bool"
							}
						],
						"numberOfBytes": "192"
					},
					"t_uint256": {
						"encoding": "inplace",
						"label": "uint256",
						"numberOfBytes": "32"
					}
				}
			},
			"userdoc": {
				"kind": "user",
				"methods": {},
				"version": 1
			}
		}
	}
}